S0110000434E435370696465722E73726563D8
S11300000C9478000C9495000C9495000C94950035
S11300100C94070C0C9495000C9495000C9495008A
S11300200C9495000C9495000C9495000C94780D08
S11300300C9495000C9495000C9495000C949500E8
S11300400C9495000C9495000C94CE190C94950086
S11300500C9495000C943C0C0C9495000C94950015
S11300600C9495000C9495000C9495000C949500B8
S11300700C9495000C9495000C9495000C949500A8
S11300800C9495000C94AB0E0C9495000C94950074
S11300900C9495000C9495000C9495000C94950088
S11300A00C9495000C9495000C9495000C94950078
S11300B00C949500EC071E086108A508E9082D09B1
S11300C06F09710AB109C909E109F909110A290A73
S11300D0410A590A54116C1184119C11B411CC11A8
S11300E0E411FC1104070206000501030D0A0000D7
S11300F011241FBECFEFD8E0DEBFCDBF11E0A0E0DA
S1130100B1E0E0E9FBE302C005900D92A030B10735
S1130110D9F721E0A0E0B1E001C01D92A631B207F9
S1130120E1F70E94F6060C94C61D0C940000CF93D0
S1130130DF9300D0CDB7DEB79A83898389819A8112
S1130140FC01108289819A8121E0FC01218389814B
S11301509A81FC01128200000F900F90DF91CF91E1
S11301600895CF93DF9300D0CDB7DEB79A83898308
S113017089819A810E94970089819A818D5F9E4F1F
S113018028E2FC01322F11923A95E9F700000F9012
S11301900F90DF91CF910895CF93DF93CDB7DEB762
S11301A06E970FB6F894DEBF0FBECDBF9E8F8D8FB6
S11301B00E94220C0E94BD190E94200F86E990E043
S11301C00E949E0D80E090E0A6E1B3E489839A83C7
S11301D0AB83BC8320E030E040E955E469817A8157
S11301E08B819C810E94061DDC01CB018B8B9C8B37
S11301F0AD8BBE8B20E030E040E85FE36B897C8907
S11302008D899E890E94A91B88232CF481E090E0AB
S1130210988F8F8B3EC020E03FEF4FE757E46B8908
S11302207C898D899E890E94011D181644F520E061
S113023030E040E251E469817A818B819C810E94A3
S1130240061DDC01CB01BC01CD010E94201CDC0198
S1130250CB01988F8F8B8F89988D892B21F18CEC12
S113026091E09A8F898F898D9A8D0197F1F79A8FF2
S1130270898F8F89988D0197988F8F8BECCF6B899D
S11302807C898D899E890E94201CDC01CB01988F7A
S11302908F8B8F89988D9C8F8B8F8B8D9C8D0197E5
S11302A0F1F79C8F8B8F0E94310F80E090E0AAEFD2
S11302B0B3E48D839E83AF83B88720E030E040E9C8
S11302C055E46D817E818F8198850E94061DDC0135
S11302D0CB0189879A87AB87BC8720E030E040E870
S11302E05FE369857A858B859C850E94A91B882399
S11302F02CF481E090E09E878D873FC020E03FEFA3
S11303004FE757E469857A858B859C850E94011D9A
S113031018164CF520E030E040E251E46D817E8116
S11303208F8198850E94061DDC01CB01BC01CD01A3
S11303300E94201CDC01CB019E878D878D859E85C4
S1130340892B09F439CF8CEC91E0988B8F878F85BA
S113035098890197F1F7988B8F878D859E850197F2
S11303609E878D87EBCF69857A858B859C850E94D6
S1130370201CDC01CB019E878D878D859E859A8B01
S1130380898B89899A890197F1F79A8B898B14CF84
S1130390CF93DF93CDB7DEB7C250D1400FB6F894F8
S11303A0DEBF0FBECDBF9E012F5F3E4FF90191838B
S11303B0808384EF91E00E949E0D8FEF9FEF0E9457
S11303C0510B0E949406882309F461C0CE018F5F0B
S11303D09E4FFC01808191810E94280519828981A8
S11303E0883008F054C086E48D838AE08E831F82AF
S11303F01886CE01059669810E9464058981282F9B
S113040030E06D81CE018F5F9E4FFC0140815181B0
S1130410C901880F991F880F991F820F931F840F9A
S1130420951F8D5F9E4FFC0160838981282F30E0EA
S11304306E81CE018F5F9E4FFC0140815181C901C5
S1130440880F991F880F991F820F931F840F951F80
S11304508C5F9E4FFC0160838981282F30E06F817F
S1130460CE018F5F9E4FFC0140815181C901880FED
S1130470991F880F991F820F931F840F951F8B5FFD
S11304809E4FFC01608389818F5F8983A8CF1A8284
S11304908A81883008F0B9C08A81882F90E001965B
S11304A0982F88270E94510B1A8619861C861B8652
S11304B0CE0141969A878987CE0187579F4F6A81DB
S11304C00E94F2051E861D861F86AE01435F5F4FA4
S11304D09E01275F3F4FCE0187579F4FB9010E946E
S11304E083188F85882309F084C01C821B828B812A
S11304F09C818F3F910511F008F083C08A81882F79
S113050090E00196982F88279C018B819C81822BF7
S1130510932B0E94510B8B81888B9E01205F3F4F50
S1130520CE010996B9010E949807803459F18134AB
S113053009F051C0CE018F5F9E4FFC0120813181B3
S11305408B819C81820F931F0396FC018081482F2D
S11305508A81282F30E080E890E002C09595879545
S11305602A95E2F7842B482FCE018F5F9E4FFC0122
S1130570208131818B819C81820F931F0396FC0122
S1130580408331C0CE018F5F9E4FFC0120813181B9
S11305908B819C81820F931F0396FC018081482FDD
S11305A08A81282F30E080E890E002C095958795F5
S11305B02A95E2F780958423482FCE018F5F9E4FC2
S11305C0FC01208131818B819C81820F931F0396D2
S11305D0FC01408308C0CE018F5F9E4FFC018081E7
S11305E091810E94CC008B819C8101969C838B839A
S11305F07ECFCE018F5F9E4FFC01808191810E944E
S1130600CC008A818F5F8A8343CF0E94220C0E9490
S1130610BD198FEF9FEF0E94510B81E0CE5FDE4F3B
S11306200FB6F894DEBF0FBECDBFDF91CF91089512
S1130630CF93DF93CDB7DEB767970FB6F894DEBFDD
S11306400FBECDBF9F8B8E8B28E0CE010696FC019A
S1130650322F11923A95E9F728E0CE010E96FC016B
S1130660322F11923A95E9F78FEF8E8719828FEF27
S11306708A831B820E94190D0E940C0DCE010696DE
S11306800E944D0D0E94190D1B821C828C818830A2
S113069008F076C08C81882F90E09E012A5F3F4F3E
S11306A0820F931FFC0140818C81882F90E09E0172
S11306B0225F3F4F820F931FFC018081481709F48A
S11306C05BC08C81882F90E02C81222F30E0AE011A
S11306D04A5F5F4F240F351FF90140819E01225F5D
S11306E03F4F820F931FFC01408381E08B838C81F9
S11306F0882F90E09E012A5F3F4F820F931FFC01D9
S113070040818C81282F30E0C901880F991F880F00
S1130710991F820F931F8D5F9E4F2E893F89820FF1
S1130720931F642F0E94961A882399F08C81882F36
S113073090E027E030E0281B390B81E090E002C014
S1130740880F991F2A95E2F7982F8981892B89832D
S113075013C08C81882F90E027E030E0281B390BF0
S113076081E090E002C0880F991F2A95E2F7982F44
S113077090958981892389838C818F5F8C8386CF2F
S113078099818A81981791F189818A838981882F37
S113079090E02E893F89820F931F0396FC0180818C
S11307A00E94AD0B8981882F90E0982F8827AC0197
S11307B08981882F90E02E893F89820F931F0396A9
S11307C0FC018081882F90E0842B952B0E94510B93
S11307D08E899F89FC018181882341F084E690E021
S11307E00E944B0E84E690E00E94D80E8B818823F1
S11307F009F442CF8E899F89FC018081882309F402
S11308003BCF1D828D818830C0F58D818F5B0E9426
S11308101E198AE30E941E198D81882F90E09E0183
S11308202A5F3F4F820F931FFC0180810E949D1914
S11308308AE30E941E198D81282F30E04E895F893A
S1130840C901880F991F880F991F820F931F840F66
S1130850951F895F9E4FFC018081882321F081E3ED
S11308600E941E1903C080E30E941E1980E20E94A8
S11308701E198D818F5F8D83C5CF0E946319FCCEB5
S1130880CF93DF9300D0CDB7DEB79A83898381E01D
S11308900F900F90DF91CF910895CF93DF9300D005
S11308A0CDB7DEB79A83898300000F900F90DF9154
S11308B0CF910895CF93DF93CDB7DEB70E9475042F
S11308C00000DF91CF910895CF93DF9300D0CDB78F
S11308D0DEB79A83898389819A810E944D0400003E
S11308E00F900F90DF91CF910895CF93DF93CDB701
S11308F0DEB7CB52D1400FB6F894DEBF0FBECDBFEA
S1130900CE0101960E94A404CE0101960E94B50472
S1130910882339F0CE0101960E94C504882309F08A
S1130920F9CFCE0101960E94D504CE0101960E9412
S113093064040000C55DDE4F0FB6F894DEBF0FBE41
S1130940CDBFDF91CF910895CF93DF9300D0CDB782
S1130950DEB79A83898389819A810E94B10000005D
S11309600F900F90DF91CF910895CF93DF9300D034
S1130970CDB7DEB79A83898389819A810E94C801A1
S11309800F900F90DF91CF910895CF93DF9300D014
S1130990CDB7DEB79A83898389819A810E9418032F
S11309A00F900F90DF91CF910895CF93DF9300D0F4
S11309B0CDB7DEB79A83898389819A810E944004E6
S11309C00F900F90DF91CF910895CF93DF9300D0D4
S11309D000D000D0CDB7DEB79C838B837E836D833C
S11309E019821A828A81282F30E08D819E812817EE
S11309F0390720F58981882F90E0880F991F892B6A
S1130A0049F48981882F90E0880F892F881F990BDA
S1130A10892B11F081E001C080E089838A81882FCD
S1130A2090E02B813C81820F931FFC01808199818E
S1130A30890F89838A818F5F8A83D4CF898126969F
S1130A400FB6F894DEBF0FBECDBFDF91CF910895EE
S1130A50CF93DF93CDB7DEB728970FB6F894DEBFF8
S1130A600FBECDBF98878F831A8219821C8281E0C2
S1130A708D831E8229813A81CE01049643E050E0A1
S1130A80B9010E94AE1D22E030E0CE010496B90106
S1130A900E94E5048B839E818B81981759F42F81E2
S1130AA038858C819D81AE81F90180839183A283F5
S1130AB081E001C080E028960FB6F894DEBF0FBE37
S1130AC0CDBFDF91CF910895CF93DF93CDB7DEB73C
S1130AD02A970FB6F894DEBF0FBECDBF99878887DB
S1130AE06A878A85882F90E0880F991F880F991F3D
S1130AF003969A83898386E48C838AE08D831E829D
S1130B001F8229813A81CE01049644E050E0B90164
S1130B100E94AE1D23E030E0CE010496B9010E948C
S1130B20E5048B839F818B81981769F42885398527
S1130B308C819D81AE81BF81F90180839183A283E1
S1130B40B38381E001C080E02A960FB6F894DEBF3B
S1130B500FBECDBFDF91CF910895CF93DF93CDB773
S1130B60DEB728970FB6F894DEBF0FBECDBF9F83C4
S1130B708E8368878885882F90E09C01220F331F1D
S1130B8080E290E0820F931F03969A83898381E029
S1130B908C831D8229813A81CE01049642E050E083
S1130BA0B9010E94AE1D21E030E0CE010496B901E6
S1130BB00E94E5048B839D818B81981749F48E8173
S1130BC09F812C813D81FC013183208381E001C020
S1130BD080E028960FB6F894DEBF0FBECDBFDF913C
S1130BE0CF910895CF93DF93CDB7DEB72B970FB690
S1130BF0F894DEBF0FBECDBF9A8789876B878B853C
S1130C00882F90E028E030E0A901481B590BCA0165
S1130C10AC0186E090E0880F991F880F991F880F18
S1130C20991F039620E034E0B901681B790BCB01CE
S1130C309C01369527953695279536952795429F9D
S1130C40C001439F900D529F900D112420E034E089
S1130C50F901E81BF90BCF019E838D838D819E8161
S1130C600E94BE1D8F8389859A859A8389838D818D
S1130C709E8101969C838B8386E090E0880F991F68
S1130C80880F991F880F991F039620E034E0A9016B
S1130C90481B590BCA019C01369527953695279513
S1130CA0369527958D819E81280F391F8B819C81D4
S1130CB082179307C8F48B819C810E94BE1D88878C
S1130CC089819A819C012F5F3F4F3A83298328852C
S1130CD0FC0120838885882331F08B819C810196D7
S1130CE09C838B83C9CF000089859A85FC01808110
S1130CF0882381F089859A850E944D1A9C018985F3
S1130D009A85B9010E94E504982F8F81981711F4F0
S1130D1081E001C080E02B960FB6F894DEBF0FBED1
S1130D20CDBFDF91CF910895CF93DF93CDB7DEB7D9
S1130D30C358D1090FB6F894DEBF0FBECDBF1B82D6
S1130D4081E08C831D82CE0103960E942805982F92
S1130D5081E08927882311F080E03EC019828981CF
S1130D608830B0F486E48E838AE08F8318861986EF
S1130D70CE01069669810E946405982F81E0892737
S1130D80882311F080E028C089818F5F8983E7CFB1
S1130D901A828A818830F8F481E08A871B86CE0122
S1130DA00A966A810E94AD05982F81E089278823DD
S1130DB011F080E011C0CE010C966A810E94F20508
S1130DC0982F81E08927882311F080E005C08A816B
S1130DD08F5F8A83DECF81E0CD57DF4F0FB6F89463
S1130DE0DEBF0FBECDBFDF91CF910895CF93DF93C8
S1130DF0CDB7DEB70E949A0A0E94420F0E940319DF
S1130E000E945A040E945E0FCF93DF9300D0CDB7A7
S1130E10DEB789836A838981882F90E02A81222F13
S1130E2030E047E050E0BA01621B730B9B0102C043
S1130E30959587952A95E2F781709927892B11F06A
S1130E4081E401C080E40F900F90DF91CF91089569
S1130E50CF93DF931F92CDB7DEB7898360E089819A
S1130E600E9404070F90DF91CF910895CF93DF93F1
S1130E701F92CDB7DEB7898361E089810E940407A0
S1130E800F90DF91CF910895CF93DF931F92CDB749
S1130E90DEB7898362E089810E9404070F90DF91A5
S1130EA0CF910895CF93DF931F92CDB7DEB7898397
S1130EB063E089810E9404070F90DF91CF91089528
S1130EC0CF93DF931F92CDB7DEB7898364E0898126
S1130ED00E9404070F90DF91CF910895CF93DF9381
S1130EE01F92CDB7DEB7898365E089810E9404072C
S1130EF00F90DF91CF910895CF93DF931F92CDB7D9
S1130F00DEB7898366E089810E9404070F90DF9130
S1130F10CF910895CF93DF931F92CDB7DEB7898326
S1130F2067E089810E9404070F90DF91CF910895B3
S1130F300F931F93CF93DF93CDB7DEB7CE58D1096C
S1130F400FB6F894DEBF0FBECDBF9E0125573F4FAD
S1130F50F90191838083CE0183579F4FFC017183F4
S1130F6060831A8219821C821B82CE0185579F4F8F
S1130F70FC0180819181FC01228133818B819C81E0
S1130F808217930708F0B6C2CE0185579F4FFC0124
S1130F9080819181FC01208131818B819C81820F30
S1130FA0931FFC0180818D838D81882309F4A1C264
S1130FB08D81882F90E0A0E0B0E048E050E02FE081
S1130FC030E0841B950B2817390708F48AC2865A27
S1130FD09F4FFC010C94731D89819A8101979A8318
S1130FE089839E012D5E3F4F89819A81820F931FD1
S1130FF0FC0180818E838E81813481F489819A8180
S11310009C012F5F3F4F3A8329839E012D5E3F4F02
S1131010820F931F20E4FC01208365C289819A8199
S11310209C012F5F3F4F3A8329839E012D5E3F4FE2
S1131030820F931F21E4FC01208355C289819A8188
S113104001979A8389839E012D5E3F4F89819A81FE
S1131050820F931FFC0180818F8389819A8101977C
S11310609A8389839E012D5E3F4F89819A81820FE5
S1131070931FFC01808188879F818885892381341F
S113108081F489819A819C012F5F3F4F3A832983A0
S11310909E012D5E3F4F820F931F21E4FC012083AC
S11310A022C289819A819C012F5F3F4F3A83298311
S11310B09E012D5E3F4F820F931F20E4FC0120838D
S11310C012C289819A8101979A8389839E012D5E38
S11310D03F4F89819A81820F931FFC018081898708
S11310E089819A8101979A8389839E012D5E3F4F5E
S11310F089819A81820F931FFC0180818A87898567
S1131100813419F48A85813481F089819A819C0122
S11311102F5F3F4F3A8329839E012D5E3F4F820FFD
S1131120931F21E4FC012083DEC189819A819C0103
S11311302F5F3F4F3A8329839E012D5E3F4F820FDD
S1131140931F20E4FC012083CEC189819A810197F9
S11311509A8389839E012D5E3F4F89819A81820FF4
S1131160931FFC0180818B8789819A8101979A83DF
S113117089839E012D5E3F4F89819A81820F931F3F
S1131180FC0180818C878B85813419F08C858134B6
S113119081F489819A819C012F5F3F4F3A8329838F
S11311A09E012D5E3F4F820F931F21E4FC0120839B
S11311B09AC189819A819C012F5F3F4F3A83298389
S11311C09E012D5E3F4F820F931F20E4FC0120837C
S11311D08AC189819A8101979A8389839E012D5EB0
S11311E03F4F89819A81820F931FFC0180818D87F3
S11311F089819A8101979A8389839E012D5E3F4F4D
S113120089819A81820F931FFC0180818E878D854D
S1131210813499F08E85813481F089819A819C0191
S11312202F5F3F4F3A8329839E012D5E3F4F820FEC
S1131230931F21E4FC01208356C189819A819C017A
S11312402F5F3F4F3A8329839E012D5E3F4F820FCC
S1131250931F20E4FC01208346C189819A81019770
S11312609A8389839E012D5E3F4F89819A81820FE3
S1131270931FFC0180818F8789819A8101979A83CA
S113128089839E012D5E3F4F89819A81820F931F2E
S1131290FC018081888B9F858889981781F08981DA
S11312A09A819C012F5F3F4F3A8329839E012D5ED3
S11312B03F4F820F931F21E4FC01208314C18981D5
S11312C09A819C012F5F3F4F3A8329839E012D5EB3
S11312D03F4F820F931F20E4FC01208304C18981C6
S11312E09A8101979A8389839E012D5E3F4F89815C
S11312F09A81820F931FFC018081898B89819A8155
S113130001979A8389839E012D5E3F4F89819A813B
S1131310820F931FFC0180818A8B99898A8998178F
S113132081F489819A819C012F5F3F4F3A832983FD
S11313309E012D5E3F4F820F931F21E4FC01208309
S1131340D2C089819A819C012F5F3F4F3A832983C0
S11313509E012D5E3F4F820F931F20E4FC012083EA
S1131360C2C009811A81C80101969A838983CE017A
S113137083579F4FFC0180819181FC0180810E94F1
S11313802807282FCE014396800F911FFC0120834C
S1131390AAC009811A81C80101969A838983CE0162
S11313A083579F4FFC0180819181FC0180810E94C1
S11313B03607282FCE014396800F911FFC0120830E
S11313C092C009811A81C80101969A838983CE014A
S11313D083579F4FFC0180819181FC0180810E9491
S11313E04407282FCE014396800F911FFC012083D0
S11313F07AC009811A81C80101969A838983CE0132
S113140083579F4FFC0180819181FC0180810E9460
S11314105207282FCE014396800F911FFC01208391
S113142062C009811A81C80101969A838983CE0119
S113143083579F4FFC0180819181FC0180810E9430
S11314406007282FCE014396800F911FFC01208353
S11314504AC009811A81C80101969A838983CE0101
S113146083579F4FFC0180819181FC0180810E9400
S11314706E07282FCE014396800F911FFC01208315
S113148032C009811A81C80101969A838983CE01E9
S113149083579F4FFC0180819181FC0180810E94D0
S11314A07C07282FCE014396800F911FFC012083D7
S11314B01AC009811A81C80101969A838983CE01D1
S11314C083579F4FFC0180819181FC0180810E94A0
S11314D08A07282FCE014396800F911FFC01208399
S11314E002C08FEF1BC08B819C8101969C838B83F0
S11314F03CCD000089819A81892B79F089819A8178
S113150001979A8389839E012D5E3F4F89819A8139
S1131510820F931FFC01808101C080E4C257DF4F1A
S11315200FB6F894DEBF0FBECDBFDF91CF911F91F0
S11315300F910895CF93DF9300D01F92CDB7DEB7FC
S113154087E290E027E230E0F90120812F61FC017D
S1131550208387E290E027E230E0F90120812F7DAB
S1131560FC01208388E290E0FC01108288E290E094
S113157028E230E0F90120812160FC01208388E227
S113158090E028E230E0F9012081277FFC012083EC
S11315908AE290E02AE230E0F90120812C6FFC011C
S11315A020838BE290E02BE230E0F901208120627D
S11315B0FC01208384E290E024E230E0F901208100
S11315C02760FC0120838DE290E0FC0110828EE212
S11315D090E02EE230E0F90120812360FC012083B9
S11315E08CE790E02CE730E0F90120812664FC01CF
S11315F020838AE790E02AE730E0F90120812F6810
S1131600FC01208385E290E025E230E0F9012081AD
S1131610422F487F24EE30E03A83298329813A819E
S1131620F90124912B832B81242BFC01208387E453
S113163090E026E4FC01208384E490E024E430E09C
S1131640F90120812264FC01208380E890E0FC0100
S1131650108281E890E028E0FC0120838FE690E08E
S11316602FE630E0F90120812260FC01208380E92B
S113167090E0FC01108281E990E028E0FC012083E5
S113168081E790E021E730E0F90120812260FC014C
S11316902083789400000F900F900F90DF91CF91EA
S11316A00895CF93DF9300D01F92CDB7DEB79B830D
S11316B08A83198289818031B8F58981282F30E0A5
S11316C08A819B8102C0969587952A95E2F781705D
S11316D09927892B51F088E290E028E230E0F90163
S11316E020812061FC01208309C088E290E028E287
S11316F030E0F90120812F7EFC01208388E290E014
S113170028E230E0F90120812260FC01208388E294
S113171090E028E230E0F90120812D7FFC01208354
S113172089818F5F8983C6CF88E290E028E230E028
S1131730F90120812460FC01208388E290E028E202
S113174030E0F90120812B7FFC01208300000F9001
S11317500F900F90DF91CF910895CF93DF9300D036
S1131760CDB7DEB78A83198289818830C0F58A8132
S1131770882F90E02981222F30E002C0959587952B
S11317802A95E2F781709927892B51F08BE290E03A
S11317902BE230E0F90120812460FC01208309C0A0
S11317A08BE290E02BE230E0F90120812B7FFC01F9
S11317B020838BE290E02BE230E0F901208120616C
S11317C0FC0120838BE290E02BE230E0F9012081E0
S11317D02F7EFC01208389818F5F8983C5CF8BE2B3
S11317E090E02BE230E0F90120812860FC012083A5
S11317F08BE290E02BE230E0F9012081277FFC01AD
S1131800208300000F900F90DF91CF9108951F92D5
S11318100F9200905F000F9211242F933F934F93E8
S11318205F936F937F938F939F93AF93BF93EF9344
S1131830FF93CF93DF93CDB7DEB7F8940E946B107C
S11318400E945E0FCF93DF93CDB7DEB78CE690E0B6
S11318502CE630E0F90120812062FC01208388E637
S113186090E028E630E0F90120812260FC01208329
S11318700000DF91CF9108951F920F9200905F00B6
S11318800F9211240F931F932F933F934F935F93C2
S11318906F937F938F939F93AF93BF93EF93FF9334
S11318A0CF93DF93CDB7DEB72697DEBFCDBF809150
S11318B015018983809115018F5F809315018091B3
S11318C01501883010F01092150185E290E025E2B0
S11318D030E0F9012081422F487F20911501222F09
S11318E030E02C513F4F3B832A832A813B81F9010D
S11318F024912C832C81242BFC0120831E821D82A5
S113190088E790E0FC018081882F90E02D813E8162
S1131910822B932B9E838D8389E790E0FC01808149
S1131920882F90E0982F88279C018D819E81822B9F
S1131930932B9E838D832091100130911101898115
S1131940882F90E08901080F191F8D819E81CC0199
S1131950A0E0B0E0BC01CD010E944F1CDC01CB0132
S113196029E33EE843EE5DE3BC01CD010E94061D80
S1131970DC01CB01BC01CD010E94201CDC01CB01A8
S1131980F801808320911001309111018981882F01
S113199090E0820F931FFC01908181E0953608F45A
S11319A080E0882361F02091100130911101898138
S11319B0882F90E0820F931F24E6FC0120838091FE
S11319C01501873050F48AE790E02AE730E0F90106
S11319D020812064FC01208302C0109214010000C5
S11319E026960FB6F894DEBF0FBECDBFDF91CF9120
S11319F0FF91EF91BF91AF919F918F917F916F91E3
S1131A005F914F913F912F911F910F910F900092F1
S1131A105F000F901F901895CF93DF93CDB7DEB77B
S1131A2080911401882309F0FBCF0000DF91CF914E
S1131A300895CF93DF93CDB7DEB781E0809314018F
S1131A4080911201909113018050914069F080E0DF
S1131A5091E0909313018093120188E091E09093B8
S1131A601101809310010CC088E091E09093130160
S1131A708093120180E091E0909311018093100112
S1131A808AE790E02AE730E0F90120812064FC0134
S1131A9020830000DF91CF910895CF93DF9300D08E
S1131AA01F92CDB7DEB79B838A83198289818830E0
S1131AB0C0F48981882F90E0409112015091130164
S1131AC02981222F30E0240F351FF90140812A811A
S1131AD03B81820F931FFC01408389818F5F89833F
S1131AE0E5CF00000F900F900F90DF91CF910895F4
S1131AF01F920F9200905F000F9211242F938F93E7
S1131B009F93EF93FF93CF93DF93CDB7DEB781E835
S1131B1090E028E0FC01208385E490E0FC01108241
S1131B200000DF91CF91FF91EF919F918F912F91C1
S1131B300F9000925F000F901F901895CF93DF9342
S1131B40CDB7DEB762970FB6F894DEBF0FBECDBF38
S1131B509A8B898B89899A89019629F489899A892A
S1131B6001979A8B898B85E490E025E430E0F901B4
S1131B7020812360FC0120831A82198229813A8101
S1131B8089899A892817390708F077C080E090E09E
S1131B90A0E8BFE38B839C83AD83BE8320E030E069
S1131BA040E955E46B817C818D819E810E94061DF4
S1131BB0DC01CB018F839887A987BA8720E030E0C6
S1131BC040E85FE36F81788589859A850E94A91B27
S1131BD088232CF481E090E09C878B873EC020E032
S1131BE03FEF4FE757E46F81788589859A850E9496
S1131BF0011D181644F520E030E040E251E46B8109
S1131C007C818D819E810E94061DDC01CB01BC017B
S1131C10CD010E94201CDC01CB019C878B878B8526
S1131C209C85892B21F18CEC91E09E878D878D8595
S1131C309E850197F1F79E878D878B859C850197FB
S1131C409C878B87ECCF6F81788589859A850E94E4
S1131C50201CDC01CB019C878B878B859C85988B12
S1131C608F878F8598890197F1F7988B8F87898162
S1131C709A8101969A83898381CF85E490E0FC015F
S1131C801082000062960FB6F894DEBF0FBECDBF7F
S1131C90DF91CF9108950F931F93CF93DF9300D0DB
S1131CA0CDB7DEB79A83898384E890E0FC01118282
S1131CB0108208E810E089819A81CC01A0E0B0E0AC
S1131CC0BC01CD010E944F1CDC01CB0120E030EAB5
S1131CD04CE856E4BC01CD010E94061DDC01CB0199
S1131CE020E030E04AE754E4BC01CD010E94AE1B81
S1131CF0DC01CB0120E030E040E85FE3BC01CD0132
S1131D000E943C1BDC01CB01BC01CD010E94201CC4
S1131D10DC01CB01F8019183808381E890E021E824
S1131D2030E0F90120812560FC01208386E490E005
S1131D30FC01108285E490E025E430E0F901208183
S1131D402360FC01208300000F900F90DF91CF915E
S1131D501F910F9108951F920F9200905F000F92B0
S1131D6011242F933F938F939F93EF93FF93CF93DC
S1131D70DF93CDB7DEB781E990E028E0FC01208352
S1131D808BE290E02BE230E0F90120812F77FC0117
S1131D9020830000DF91CF91FF91EF919F918F916C
S1131DA03F912F910F9000925F000F901F90189514
S1131DB00F931F93CF93DF9300D0CDB7DEB79A83F1
S1131DC0898384E990E0FC011182108208E910E023
S1131DD089819A81CC01A0E0B0E0BC01CD010E94D0
S1131DE04F1CDC01CB0129E33EE843E65DE3BC0183
S1131DF0CD010E94AE1BDC01CB01BC01CD010E94D0
S1131E00201CDC01CB01F8019183808381E990E0FF
S1131E1021E930E0F90120812560FC0120838BE277
S1131E2090E02BE230E0F90120812068FC0120835E
S1131E3000000F900F90DF91CF911F910F910895A3
S1131E40CF93DF93CDB7DEB78BE290E02BE230E0A7
S1131E50F90120812068FC0120830000DF91CF91EB
S1131E600895CF93DF93CDB7DEB78BE290E02BE2FA
S1131E7030E0F90120812F77FC0120830000DF91FD
S1131E80CF910895CF93DF93CDB7DEB784E590E08B
S1131E9024E530E0F9012081277FFC0120830FB67F
S1131EA0F894A895809160008861809360001092F6
S1131EB060000FBE0000DF91CF910895CF93DF93B0
S1131EC0CDB7DEB76C970FB6F894DEBF0FBECDBFAB
S1131ED0F89487E090E088709927892B11F088E2C4
S1131EE001C088E097E09770892B982F88E10FB69E
S1131EF0F894A895809360000FBE909360008FEFD4
S1131F0090E00E94510B80E090E0A8E4B2E48D835D
S1131F109E83AF83B88720E030E040E955E46D81CB
S1131F207E818F8198850E94061DDC01CB018B8BFD
S1131F309C8BAD8BBE8B20E030E040E85FE36B8987
S1131F407C898D899E890E94A91B88232CF481E0B9
S1131F5090E0988F8F8B3EC020E03FEF4FE757E42F
S1131F606B897C898D899E890E94011D181644F510
S1131F7020E030E040E251E46D817E818F819885DC
S1131F800E94061DDC01CB01BC01CD010E94201C76
S1131F90DC01CB01988F8F8B8F89988D892B21F150
S1131FA08CEC91E09A8F898F898D9A8D0197F1F746
S1131FB09A8F898F8F89988D0197988F8F8BECCF0B
S1131FC06B897C898D899E890E94201CDC01CB0150
S1131FD0988F8F8B8F89988D9C8F8B8F8B8D9C8DF9
S1131FE00197F1F79C8F8B8F80E09FEF0E94510B3C
S1131FF080E090E0A8E4B2E489839A83AB83BC8355
S113200020E030E040E955E469817A818B819C814C
S11320100E94061DDC01CB0189879A87AB87BC87A8
S113202020E030E040E85FE369857A858B859C8514
S11320300E94A91B88232CF481E090E09E878D8761
S11320403FC020E03FEF4FE757E469857A858B85F1
S11320509C850E94011D18164CF520E030E040E2FA
S113206051E469817A818B819C810E94061DDC0187
S1132070CB01BC01CD010E94201CDC01CB019E8759
S11320808D878D859E85892B09F439CF8CEC91E061
S1132090988B8F878F8598890197F1F7988B8F8715
S11320A08D859E8501979E878D87EBCF69857A857F
S11320B08B859C850E94201CDC01CB019E878D872B
S11320C08D859E859A8B898B89899A890197F1F7E9
S11320D09A8B898B14CFCF93DF93CDB7DEB78FEE76
S11320E09EEBADEABEED8093160190931701A09389
S11320F01801B09319010000DF91CF910895CF9397
S1132100DF931F92CDB7DEB7898389818B3028F4A2
S1132110893050F4883031F00BC08E3038F08E3076
S113212019F006C083E005C082E003C081E001C06D
S11321308FEF0F90DF91CF9108951F93CF93DF938B
S113214000D0CDB7DEB789836A8389810E947F106E
S1132150182F8A810E947F10982F81E019170CF4A0
S113216080E00F900F90DF91CF911F910895CF934E
S1132170DF931F92CDB7DEB789838981882F90E0E2
S11321808870992721E0892B09F420E0822F0F9091
S1132190DF91CF910895CF93DF931F92CDB7DEB730
S11321A089838981882F90E08071992721E0892B88
S11321B009F420E0822F0F90DF91CF910895CF93FF
S11321C0DF931F92CDB7DEB789838981803219F0FE
S11321D08981813211F481E001C080E00F90DF91A8
S11321E0CF910895CF93DF931F92CDB7DEB7898344
S11321F081E09981903209F080E00F90DF91CF91D6
S11322000895CF93DF931F92CDB7DEB7898381E022
S11322109981913209F080E00F90DF91CF91089578
S1132220CF93DF9300D000D000D0CDB7DEB79A8330
S113223089837C836B835E834D8389819A810E9429
S1132240701A89819A81FC0180819181FC018081CD
S1132250843209F0FAC089819A81FC0180819181DC
S11322609C012F5F3F4F89819A81FC013183208338
S113227089819A81FC0180819181FC018081882F70
S113228090E0092E000CAA0BBB0B41E450E027E0C0
S113229030E0841B950B2817390708F4C5C086590C
S11322A09F4FFC010C94731D8B819C81FC01208148
S11322B031818D819E81FC0180819181BC016F5FA0
S11322C07F4F4D815E81FA0171836083820F931F7A
S11322D020E1FC012083AAC08B819C81FC01208128
S11322E031818D819E81FC0180819181BC016F5F70
S11322F07F4F4D815E81FA0171836083820F931F4A
S113230021E1FC01208392C08B819C81FC0120810E
S113231031818D819E81FC0180819181BC016F5F3F
S11323207F4F4D815E81FA0171836083820F931F19
S113233022E1FC0120837AC08B819C81FC012081F5
S113234031818D819E81FC0180819181BC016F5F0F
S11323507F4F4D815E81FA0171836083820F931FE9
S113236023E1FC01208362C08B819C81FC012081DC
S113237031818D819E81FC0180819181BC016F5FDF
S11323807F4F4D815E81FA0171836083820F931FB9
S113239024E1FC0120834AC08B819C81FC012081C3
S11323A031818D819E81FC0180819181BC016F5FAF
S11323B07F4F4D815E81FA0171836083820F931F89
S11323C025E1FC01208332C08B819C81FC012081AA
S11323D031818D819E81FC0180819181BC016F5F7F
S11323E07F4F4D815E81FA0171836083820F931F59
S11323F026E1FC0120831AC08B819C81FC01208191
S113240031818D819E81FC0180819181BC016F5F4E
S11324107F4F4D815E81FA0171836083820F931F28
S113242027E1FC01208302C080E010C089819A81E9
S1132430FC01808191819C012F5F3F4F89819A81AA
S1132440FC013183208381E001C080E026960FB631
S1132450F894DEBF0FBECDBFDF91CF910895CF9327
S1132460DF9300D000D000D0CDB7DEB79A83898344
S11324707C836B835E834D8389819A810E94701A69
S113248089819A81FC0180819181FC018081882F5E
S113249090E08D33910509F4DAC08E33910524F46C
S11324A0869709F4A4C0EBC08C37910509F4B7C032
S11324B08E37910509F0E3C089819A81FC018081FE
S11324C091810E94081A882F90E08D33910509F4B8
S11324D050C08C37910541F1869709F06FC08B810C
S11324E09C81FC01208131818D819E81FC01808150
S11324F09181BC016F5F7F4F4D815E81FA017183D1
S11325006083820F931F2AE0FC01208389819A81D2
S1132510FC01808191819C012F5F3F4F89819A81C9
S1132520FC013183208362C08B819C81FC0120816A
S113253031818D819E81FC0180819181BC016F5F1D
S11325407F4F4D815E81FA0171836083820F931FF7
S11325502CE0FC01208389819A81FC018081918196
S11325609C012F5F3F4F89819A81FC013183208335
S11325703DC08B819C81FC01208131818D819E81B4
S1132580FC0180819181BC016F5F7F4F4D815E8131
S1132590FA0171836083820F931F2DE0FC01208375
S11325A089819A81FC01808191819C012F5F3F4F39
S11325B089819A81FC013183208318C08B819C819D
S11325C0FC01208131818D819E81FC01808191817A
S11325D0BC016F5F7F4F4D815E81FA01718360831F
S11325E0820F931F28E0FC01208300004AC08B81E6
S11325F09C81FC01208131818D819E81FC0180813F
S11326009181BC016F5F7F4F4D815E81FA017183BF
S11326106083820F931F29E0FC01208332C08B81E9
S11326209C81FC01208131818D819E81FC0180810E
S11326309181BC016F5F7F4F4D815E81FA0171838F
S11326406083820F931F2BE0FC0120831AC08B81CF
S11326509C81FC01208131818D819E81FC018081DE
S11326609181BC016F5F7F4F4D815E81FA0171835F
S11326706083820F931F2EE0FC01208302C080E060
S11326800EC089819A81FC01808191819C012F5F18
S11326903F4F89819A81FC013183208381E0269612
S11326A00FB6F894DEBF0FBECDBFDF91CF91089572
S11326B0CF93DF9300D000D000D0CDB7DEB79A839C
S11326C089837C836B835E834D8389819A810E9495
S11326D0701A89819A81FC0180819181FC01808139
S11326E0882F90E08832910519F08997C9F030C09D
S11326F08B819C81FC01208131818D819E81FC0133
S113270080819181BC016F5F7F4F4D815E81FA01B1
S113271071836083820F931F20E2FC0120831AC01F
S11327208B819C81FC01208131818D819E81FC0102
S113273080819181BC016F5F7F4F4D815E81FA0181
S113274071836083820F931F21E2FC01208302C006
S113275080E00EC089819A81FC01808191819C0175
S11327602F5F3F4F89819A81FC013183208381E06F
S113277026960FB6F894DEBF0FBECDBFDF91CF9182
S11327800895CF93DF93CDB7DEB727970FB6F894AC
S1132790DEBF0FBECDBF9D838C837F836E83198282
S11327A08C819D819B838A838A819B81FC018081AA
S11327B0882309F4BCC08A819B81FC018081833217
S11327C009F4B5C08E819F81FC012081318186E0AE
S11327D090E0880F991F880F991F880F991F0396FF
S11327E040E054E0BA01681B790BCB0196958795BC
S11327F0969587959695879501972817390728F018
S11328008E819F8121E0FC0122838A819B81FC01CE
S113281080810E94211A982F81E08927882369F0FA
S11328208A819B81FC0180810E943A1A982F81E061
S11328308927882311F081E001C080E0882309F40E
S11328405AC08A819B81FC018081882F90E0883264
S1132850910509F441C0893291058CF480329105C7
S113286009F448C08132910524F4099709F442C05F
S11328703BC08432910599F08697E1F135C08D33E0
S11328809105C1F18E3391051CF4899749F12CC04F
S11328908C37910579F18E37910561F125C08A81D4
S11328A09B810E94081A813430F08A819B810E94A6
S11328B0081A893410F081E001C080E0882331F0E7
S11328C08E819F8122E0FC01228339C08A819B8111
S11328D001969B838A830FC089818F5F89830BC094
S11328E089818150898307C08E819F8124E0FC0106
S11328F0228325C000008981882334F48E819F813E
S113290023E0FC0122831BC08E819F81FC01808116
S113291091819C012F5F3F4F8E819F81FC01318308
S113292020838A819B8101969B838A833DCF898101
S1132930882329F08E819F8123E0FC01228327963E
S11329400FB6F894DEBF0FBECDBFDF91CF910895CF
S1132950CF93DF93CDB7DEB72B970FB6F894DEBFD6
S11329600FBECDBF9F838E83798768875B874A8735
S11329708E819F819B838A831D821C821982198286
S1132980998181E08927882371F0AE014C5F5F4F04
S113299028853985CE010296B9010E941011982F1D
S11329A08981892B8983998181E08927882371F022
S11329B0AE014C5F5F4F28853985CE010296B9017F
S11329C00E942F12982F8981892B8983998181E014
S11329D08927882371F0AE014C5F5F4F28853985C4
S11329E0CE010296B9010E945813982F8981892B30
S11329F089838981882309F0C2CF2C813D81888510
S1132A009985FC01338322838C819D81892B29F450
S1132A108A859B8529E0FC01228300002B960FB652
S1132A20F894DEBF0FBECDBFDF91CF910895CF9351
S1132A30DF93CDB7DEB72B970FB6F894DEBF0FBE8A
S1132A40CDBF998788877B876A871A821982888590
S1132A509985FC012281338189819A8182179307A8
S1132A6008F0C5C188859985FC012081318189815F
S1132A709A81820F931FFC0180818B8389819A81C3
S1132A809C012F5F3F4F88859985FC01828193814A
S1132A902817390758F488859985FC0120813181EC
S1132AA089819A810196820F931F02C080E090E091
S1132AB09D838C8389819A81892B59F08885998596
S1132AC0FC012081318189819A810197820F931FB2
S1132AD002C080E090E09F838E838B810E94B710B8
S1132AE0882309F47CC08B81883039F58C819D81E1
S1132AF0892B31F48A859B8527E0FC01228377C1E9
S1132B008C819D81FC018081803269F08C819D8162
S1132B10FC0180810E94CB10982F81E089278823B3
S1132B2011F081E001C080E0882309F458C08A854F
S1132B309B8525E0FC0122835AC18C819D81892BD0
S1132B4031F48A859B8527E0FC01228350C18E8164
S1132B509F81892B31F48A859B8528E0FC0122839F
S1132B6046C18E819F81FC018081813269F08E8112
S1132B709F81FC0180810E94CB10982F81E08927DE
S1132B80882311F081E001C080E0882331F08A8538
S1132B909B8526E0FC0122832AC18C819D81FC0156
S1132BA08081803299F08C819D81FC0180810E941A
S1132BB0CB10982F81E08927882341F08C819D8157
S1132BC0FC018081883011F081E001C080E088231D
S1132BD031F08A859B8525E0FC01228308C18B8125
S1132BE00E94CB10882309F444C08C819D81892BD9
S1132BF0F1F08C819D81FC0180810E94CB1088239F
S1132C0069F08C819D81FC0180810E940111982FC3
S1132C1081E08927882311F081E001C080E08823C6
S1132C2031F08A859B8525E0FC012283E0C08E81FA
S1132C309F81892BF1F08E819F81FC0180810E940C
S1132C40CB10882369F08E819F81FC0180810E94D2
S1132C50F210982F81E08927882311F081E001C0C8
S1132C6080E0882331F08A859B8526E0FC0122835D
S1132C70BEC08B810E94DF10882309F4B2C08B810F
S1132C800E94F210882309F456C08C819D81892BFF
S1132C9039F18C819D81FC0180810E94CB10982F99
S1132CA081E08927882399F08C819D81FC018081B2
S1132CB0883069F08C819D81FC0180810E94F21032
S1132CC0982F81E08927882311F081E001C080E0FA
S1132CD0882361F08A859B8525E0FC01228387C0D7
S1132CE08A859B8527E0FC01228381C08E819F8198
S1132CF0892B09F18E819F81FC0180810E94B7108C
S1132D00982F81E08927882369F08E819F81FC01B7
S1132D1080810E94F210982F81E08927882311F086
S1132D2081E001C080E0882331F08A859B8526E01C
S1132D30FC0122835CC08B810E940111882309F469
S1132D4050C08C819D81892B09F18C819D81FC016E
S1132D5080810E94B710982F81E08927882369F029
S1132D608C819D81FC0180810E940111982F81E05A
S1132D708927882311F081E001C080E0882331F0A5
S1132D808A859B8525E0FC01228331C08E819F8149
S1132D90892B09F18E819F81FC0180810E94CB10D7
S1132DA0982F81E08927882369F08E819F81FC0117
S1132DB080810E940111982F81E08927882311F0D6
S1132DC081E001C080E0882361F08A859B8526E04C
S1132DD0FC0122830CC08A859B8528E0FC012283A8
S1132DE006C089819A8101969A83898330CE2B9675
S1132DF00FB6F894DEBF0FBECDBFDF91CF9108951B
S1132E00CF93DF9300D0CDB7DEB79A8389830000D8
S1132E100F900F90DF91CF9108950F931F93CF934D
S1132E20DF93CDB7DEB7C358D1090FB6F894DEBF30
S1132E300FBECDBF9E0120583F4FF901918380837F
S1132E40CE018E579F4FFC0171836083CE0108969B
S1132E500E9400171A8219821C821B821E821D8204
S1132E60CE0180589F4FFC0180819181FC01228119
S1132E7033818D819E818217930708F000C1CE01B2
S1132E8080589F4FFC0180819181FC012081318118
S1132E908D819E81820F931FFC0180818F838F819E
S1132EA0882309F4E6C08F810E94CB108823B1F0F7
S1132EB0CE0180589F4FFC0180819181FC012081CB
S1132EC031818B819C81AC014F5F5F4F5C834B836D
S1132ED0820F931F2F81FC012083CBC08F810E941E
S1132EE0F210882391F089819A819C012F5F3F4FD2
S1132EF03A8329839E01285F3F4FBC01C9010E9488
S1132F00EC182F81FC012083B4C08F810E94011131
S1132F10882309F446C089819A81892BA9F0898183
S1132F209A819C0121503109CE010896B9010E9471
S1132F30EC18FC0180810E94F210982F81E089270F
S1132F40882311F081E001C080E0882321F1CE01C3
S1132F5080589F4FFC0180819181FC012081318147
S1132F608B819C81AC014F5F5F4F5C834B838901F4
S1132F70080F191F89819A8101979A83898329816E
S1132F803A81CE010896B9010E94EC18FC018081B7
S1132F90F8018083C0CF89819A8101979A838983BC
S1132FA068C08F810E94B710882309F462C08981A8
S1132FB09A81892B31F189819A819C0121503109AF
S1132FC0CE010896B9010E94EC18FC0180810E9490
S1132FD0F210982F81E08927882399F089819A81BA
S1132FE09C0121503109CE010896B9010E94EC18C8
S1132FF0FC0180816F810E949D10882311F081E083
S113300001C080E0882321F1CE0180589F4FFC014C
S113301080819181FC01208131818B819C81AC0173
S11330204F5F5F4F5C834B838901080F191F8981B0
S11330309A8101979A83898329813A81CE010896DE
S1133040B9010E94EC18FC018081F8018083AFCFA4
S113305089819A819C012F5F3F4F3A8329839E0186
S1133060285F3F4FBC01C9010E94EC182F81FC016D
S113307020838D819E8101969E838D83F1CE8981EB
S11330809A81892B21F1CE0180589F4FFC018081C8
S11330909181FC01208131818B819C81AC014F5F46
S11330A05F4F5C834B838901080F191F89819A81C3
S11330B001979A83898329813A81CE010896B901BF
S11330C00E94EC18FC018081F8018083D8CFCE01E6
S11330D080589F4FFC01808191812B813C81FC01B0
S11330E033832283CE0108960E94DF180000CD5757
S11330F0DF4F0FB6F894DEBF0FBECDBFDF91CF9187
S11331001F910F910895CF93DF9300D000D000D08A
S1133110CDB7DEB79A8389837C836B835E834D83CB
S11331208D819E81FC018281882311F080E03EC064
S11331302D813E8189819A81B9010E94C1138D81BB
S11331409E81FC018281882311F080E02FC04D8193
S11331505E812B813C8189819A81B9010E94A814E6
S11331608D819E81FC018281882311F080E01EC044
S11331702D813E818B819C81B9010E9417158D811F
S11331809E81FC018281882311F080E00FC02D8193
S11331903E818B819C81B9010E940D178D819E8196
S11331A0FC01928181E0992309F080E026960FB614
S11331B0F894DEBF0FBECDBFDF91CF910895CF93BA
S11331C0DF9300D0CDB7DEB79A83898300000F90D8
S11331D00F90DF91CF910895CF93DF9300D000D06B
S11331E0CDB7DEB79A8389837C836B8329813A8147
S11331F08B819C81820F931F0F900F900F900F90E3
S1133200DF91CF910895CF93DF93CDB7DEB785ECEF
S113321090E0FC01108284EC90E029E0FC01208322
S113322081EC90E028E1FC01208382EC90E026E030
S1133230FC0120830000DF91CF910895CF93DF93A9
S11332401F92CDB7DEB7898380EC90E0FC018081CA
S1133250882F90E08072992721E0892B09F020E0E3
S1133260222309F0F1CF86EC90E02981FC01208330
S113327000000F90DF91CF910895CF93DF9300D09A
S113328000D0CDB7DEB79C838B838B819C819A83DE
S1133290898389819A81FC018081882361F08981F5
S11332A09A81FC0180810E941E1989819A8101966C
S11332B09A838983EECF00000F900F900F900F90A8
S11332C0DF91CF910895CF93DF93CDB7DEB78CEE26
S11332D090E00E946F190000DF91CF910895CF9381
S11332E0DF9300D000D000D0CDB7DEB79E838D83AE
S11332F08D819E819A83898389819A81FC0184913D
S11333008B838B818C8381E09C81992309F480E0F9
S1133310882349F08C810E941E198D819E8101961B
S11333209E838D83E5CF000026960FB6F894DEBF0A
S11333300FBECDBFDF91CF910895CF93DF9300D01F
S113334000D01F92CDB7DEB78D838D81882F90E09A
S11333504AE050E09E012F5F3F4FB9010E94791D62
S1133360CE0101960E943D1900000F900F900F901E
S11333700F900F90DF91CF910895CF93DF93CDB746
S1133380DEB781EC90E021EC30E0F9012081206887
S1133390FC0120830000DF91CF9108951F920F92CA
S11333A000905F000F9211242F933F934F935F93EC
S11333B06F937F938F939F93AF93BF93EF93FF93F9
S11333C0CF93DF931F92CDB7DEB786EC90E0FC017C
S11333D0808189838981883129F4F8940E946B1053
S11333E00E945E0F00000F90DF91CF91FF91EF914B
S11333F0BF91AF919F918F917F916F915F914F9109
S11334003F912F910F9000925F000F901F9018959D
S1133410CF93DF9300D0CDB7DEB79A8389838981B8
S11334209A81FC018081882311F480E005C08981A0
S11334309A810196FC0180810F900F90DF91CF91CA
S11334400895CF93DF931F92CDB7DEB78983898127
S1133450813618F089818B3730F08981813428F0E6
S113346089818B3510F481E001C080E00F90DF91F9
S1133470CF910895CF93DF931F92CDB7DEB78983A1
S11334808981803219F08981893011F481E001C089
S113349080E00F90DF91CF910895CF93DF9300D018
S11334A000D0CDB7DEB79C838B831A8219822B811F
S11334B03C8189819A81820F931FFC01808188233A
S11334C031F089819A8101969A838983F0CF898129
S11334D09A810F900F900F900F90DF91CF910895E4
S11334E0CF93DF9300D0CDB7DEB79A8389838981E8
S11334F09A81FC0180819181FC0180810E943A1AA9
S1133500882371F089819A81FC01808191819C01D9
S11335102F5F3F4F89819A81FC0131832083E7CF5C
S113352000000F900F90DF91CF910895CF93DF9318
S113353000D000D01F92CDB7DEB79C838B836D8300
S11335408B819C81FC01928181E08927882309F485
S113355047C08B819C81FC0121818B819C81FC0172
S11335608081821760F08B819C81FC0120818B819A
S11335709C81FC018181F22FF81B8F2F01C080E018
S113358089838B819C81FC01938181E08927882335
S113359091F08B819C81FC0190818D81891758F079
S11335A08B819C8121E0FC0123838B819C8121E020
S11335B0FC01248355C08B819C81FC018381882379
S11335C009F44EC09D818981891708F449C08B8113
S11335D09C81FC0113828B819C81FC01148240C07C
S11335E08B819C81FC018181282F30E08B819C811F
S11335F0FC018081882F90E0820F931F853691050E
S113360014F084E690E08A838B819C81FC01938191
S113361081E08927882391F08B819C81FC01908132
S11336208D81981758F08B819C8121E0FC012383C4
S11336308B819C8121E0FC01248312C08B819C81BD
S1133640FC018381882361F09D818A81981740F071
S11336508B819C81FC0113828B819C81FC011482EF
S11336608B819C81FC0184810F900F900F900F90AF
S11336700F90DF91CF9108955058BB27AA270E943D
S1133680541B0C94C71C0E94B91C38F00E94C01C27
S113369020F039F49F3F19F426F40C94B61C0EF470
S11336A0E095E7FB0C94B01CE92F0E94D81C58F35A
S11336B0BA17620773078407950720F079F4A6F513
S11336C00C94FA1C0EF4E0950B2EBA2FA02D0B01CE
S11336D0B90190010C01CA01A0011124FF27591B53
S11336E099F0593F50F4503E68F11A16F040A22F59
S11336F0232F342F4427585FF3CF469537952795CA
S1133700A795F0405395C9F77EF41F16BA0B620BC8
S1133710730B840BBAF09150A1F0FF0FBB1F661F0F
S1133720771F881FC2F70EC0BA0F621F731F841F52
S113373048F4879577956795B795F7959E3F08F078
S1133740B0CF9395880F08F09927EE0F979587953A
S113375008950E948C1C08F481E008950E94C21B05
S11337600C94C71C0E94C01C58F00E94B91C40F065
S113377029F45F3F29F00C94B01C51110C94FB1CEC
S11337800C94B61C0E94D81C68F39923B1F35523FA
S113379091F3951B550BBB27AA2762177307840760
S11337A038F09F5F5F4F220F331F441FAA1FA9F3F6
S11337B035D00E2E3AF0E0E832D091505040E695E4
S11337C0001CCAF72BD0FE2F29D0660F771F881F45
S11337D0BB1F261737074807AB07B0E809F0BB0B38
S11337E0802DBF01FF2793585F4F3AF09E3F51054C
S11337F078F00C94B01C0C94FB1C5F3FE4F3983EEF
S1133800D4F3869577956795B795F7959F5FC9F734
S1133810880F911D9695879597F90895E1E0660FB5
S1133820771F881FBB1F621773078407BA0720F02E
S1133830621B730B840BBA0BEE1F88F7E095089597
S11338400E94E01C88F09F5798F0B92F9927B75130
S1133850B0F0E1F0660F771F881F991F1AF0BA9530
S1133860C9F714C0B13091F00E94FA1CB1E0089578
S11338700C94FA1C672F782F8827B85F39F0B93F6A
S1133880CCF3869577956795B395D9F73EF49095E3
S11338908095709561957F4F8F4F9F4F0895E89461
S11338A009C097FB3EF490958095709561957F4F84
S11338B08F4F9F4F9923A9F0F92F96E9BB27939532
S11338C0F695879577956795B795F111F8CFFAF442
S11338D0BB0F11F460FF1BC06F5F7F4F8F4F9F4F73
S11338E016C0882311F096E911C0772321F09EE8D1
S11338F0872F762F05C0662371F096E8862F70E037
S113390060E02AF09A95660F771F881FDAF7880F10
S11339109695879597F90895990F0008550FAA0B66
S1133920E0E8FEEF16161706E807F907C0F01216CE
S11339301306E407F50798F0621B730B840B950BD1
S113394039F40A2661F0232B242B252B21F4089526
S11339500A2609F4A140A6958FEF811D811D0895C3
S113396097F99F6780E870E060E008959FEF80EC2E
S1133970089500240A9416161706180609060895D1
S113398000240A9412161306140605060895092E37
S11339900394000C11F4882352F0BB0F40F4BF2BA6
S11339A011F460FF04C06F5F7F4F8F4F9F4F0895E6
S11339B057FD9058440F551F59F05F3F71F04795DC
S11339C0880F97FB991F61F09F3F79F087950895C1
S11339D0121613061406551FF2CF4695F1DF08C0E0
S11339E0161617061806991FF1CF869571056105FD
S11339F008940895E894BB2766277727CB0197F9A5
S1133A0008950E948C1C08F48FEF08950E94191DDC
S1133A100C94C71C0E94B91C38F00E94C01C20F0F2
S1133A20952311F00C94B01C0C94B61C11240C9426
S1133A30FB1C0E94D81C70F3959FC1F3950F50E0B6
S1133A40551F629FF001729FBB27F00DB11D639F4C
S1133A50AA27F00DB11DAA1F649F6627B00DA11DF2
S1133A60661F829F2227B00DA11D621F739FB00D98
S1133A70A11D621F839FA00D611D221F749F332708
S1133A80A00D611D231F849F600D211D822F762FA1
S1133A906A2F11249F5750409AF0F1F088234AF07E
S1133AA0EE0FFF1FBB1F661F771F881F91505040EA
S1133AB0A9F79E3F510580F00C94B01C0C94FB1C9C
S1133AC05F3FE4F3983ED4F3869577956795B79571
S1133AD0F795E7959F5FC1F7FE2B880F911D96958B
S1133AE0879597F90895EE0FFF1F0590F491E02D47
S1133AF009944532510520F4423010F00C94841D91
S1133B00FB011082CB010895BB27FB015527AA278F
S1133B10880F991FAA1FA41710F0A41B8395505156
S1133B20B9F7A05DAA3308F0A95DA193009779F7CE
S1133B30B111B1931192CB010C949E1DDC01FC01D7
S1133B40672F71917723E1F7329704C07C916D93CD
S1133B5070836291AE17BF07C8F30895DC01CB01EF
S1133B60FC01F999FECF06C0F2BDE1BDF89A319689
S1133B7000B40D9241505040B8F70895F999FECF22
S1133B8092BD81BDF89A992780B50895F894FFCF26
S9030000FC
