S0110000434E435370696465722E73726563D8
S11300000C94C2010C94DF010C94DF010C94DF0109
S11300100C94DF010C94DF010C94DF010C94DF01DC
S11300200C94DF010C94DF010C94DF010C94661234
S11300300C94DF010C94DF010C94DF010C94DF01BC
S11300400C94DF010C94DF010C94DF010C94DF01AC
S11300500C94DF010C9421110C94DF010C94DF014A
S11300600C94DF010C94DF010C94DF010C94DF018C
S11300700C94DF010C94DF010C94DF010C94DF017C
S11300800C94DF010C9499130C94DF010C94DF01A0
S11300900C94DF010C94DF010C94DF010C94DF015C
S11300A00C94DF010C94DF010C94DF010C94DF014C
S11300B00C94DF01F20C240D670DAB0DEF0D330E24
S11300C0750E770FB70ECF0EE70EFF0E170F2F0F1B
S11300D0470F5F0F0316061609160C160F16121695
S11300E0151618161B161E166B1683169B16B316BA
S11300F0CB16E316FB1613174A1E571E641E711EF9
S11301007E1E831E8C1E04070206000501034F6B2E
S1130110004D6178206C656E67746820657863654E
S11301206564656400496E76616C6964206F70650E
S113013072616E64004D697373696E6720627261E7
S1130140636B657400496E76616C696420636861F1
S113015072616374657200496E76616C69642072C1
S113016068732065787072657373696F6E00496E89
S113017076616C6964206C6873206578707265734D
S113018073696F6E004D697373696E67207268736B
S11301902065787072657373696F6E004D6973734F
S11301A0696E67206C687320657870726573736913
S11301B06F6E00456D707479206578707265737325
S11301C0696F6E00245253543D00092D205265730B
S11301D0746F7265200064656661756C7473206168
S11301E06E64207265626F6F7400092D20496E7011
S11301F075742000092D204F7574707574200020CB
S11302007468726573686F6C640928002068797378
S11302107465726573697309280020696E76657266
S1130220746564092800206163746976650928008F
S11302302065787072657373696F6E092800312FB9
S1130240302900302D31303029002441202620244B
S113025042207C202E2E2E292023636F6D6D656E27
S11302607400203D20002724272000206E6F742076
S1130270737570706F727465642E004F4B006572F5
S1130280726F723A2000436F6D6D616E6400546149
S113029072676574004F7074696F6E0056616C7597
S11302A0650043686172616374657273207065727E
S11302B0206C696E652065786365656465642E00ED
S11302C0454550524F4D2072656164206661696CEA
S11302D065642E2044656661756C74732072657361
S11302E0746F7265642E00206E6561722000202D8B
S11302F020006374726C2D78092D20526573657427
S11303000073797374656D2000696E7075742000D4
S11303106F75747075742000657870726573736995
S11303206F6E20002424092D20566965772073659B
S11303307474696E6773002453092D2056696577B8
S1130340207374617475730024313030092D205387
S1130350657269616C204F75747075742009283159
S11303602F30290024313031092D2042757A7A65E5
S11303707220090928312F302900245253543D009A
S11303800D0A000011241FBECFEFD8E0DEBFCDBFA1
S113039011E0A0E0B1E0E8E4FAE502C005900D92B6
S11303A0A630B107D9F721E0A6E0B1E001C01D9263
S11303B0AC31B207E1F70E94FC0B0C94222D0C9493
S11303C00000CF93DF9300D0CDB7DEB79A83898343
S11303D000000F900F90DF91CF910895CF93DF939A
S11303E000D0CDB7DEB79A8389838FEF90E00E9467
S11303F057100E94350B882331F080E090E00E9472
S11304001A1E81E007C00E94250B86E090E00E943E
S11304101A1E80E00F900F90DF91CF910895CF9333
S1130420DF93CDB7DEB7C750D1400FB6F894DEBF27
S11304300FBECDBF9E012A5F3E4FF9019183808399
S1130440CE0103960E946402CE0103960E948102AB
S11304509A83898389819A818E3FFFEF9F0719F0E0
S1130460019639F008C085E090E00E941A1E81E0F0
S113047007C080E005C0CE0103960E94AC2681E04F
S1130480C95FDE4F0FB6F894DEBF0FBECDBFDF915C
S1130490CF910895CF93DF9300D0CDB7DEB79A8381
S11304A0898381E00F900F90DF91CF910895CF93CE
S11304B0DF9300D0CDB7DEB79A83898300000F9015
S11304C00F90DF91CF910895CF93DF9300D0CDB7F4
S11304D0DEB79A83898389819A81FC011182108213
S11304E089819A8121E031E00296FC01A9011192EF
S11304F041505040E1F700000F900F90DF91CF91F1
S11305000895CF93DF9300D000D01F92CDB7DEB70C
S11305109D838C831A8219820E9437288B838B8156
S1130520882F90E08D30910529F08831910529F0CC
S11305300A9731F489819A8112C08FEF9FEF0FC01F
S11305408C819D816B810E94B702882331F089815F
S11305509A8101969A838983DFCF8EEF9FEF0F9064
S11305600F900F900F900F90DF91CF910895CF933C
S1130570DF9300D01F92CDB7DEB79A8389836B8354
S113058089819A81FC01808191818F3F910509F0D5
S113059018F589819A81FC0180819181AC014F5FBA
S11305A05F4F29813A81F9015183408329813A813E
S11305B0820F931F02962B81FC01208389819A81EB
S11305C0FC018081918129813A81820F931F0296D7
S11305D0FC01108281E001C080E00F900F900F9029
S11305E0DF91CF910895CF93DF9300D0CDB7DEB7DD
S11305F09A83898389819A81FC01108289819A81F5
S113060021E0FC01218389819A81FC01128200008E
S11306100F900F90DF91CF910895CF93DF9300D087
S1130620CDB7DEB79A83898389819A810E94F302C8
S113063089819A818D5F9E4F28E2FC01322F1192AD
S11306403A95E9F700000F900F90DF91CF9108954C
S1130650CF93DF93CDB7DEB76E970FB6F894DEBFB6
S11306600FBECDBF9E8F8D8F0E940E1486E990E041
S11306700E948C1280E090E0A6E1B3E489839A831F
S1130680AB83BC8320E030E040E955E469817A81A2
S11306908B819C810E94E32BDC01CB018B8B9C8B97
S11306A0AD8BBE8B20E030E040E85FE36B897C8952
S11306B08D899E890E94862A88232CF481E090E00B
S11306C0988F8F8B3EC020E03FEF4FE757E46B8954
S11306D07C898D899E890E94DE2B181644F520E0C2
S11306E030E040E251E469817A818B819C810E94EF
S11306F0E32BDC01CB01BC01CD010E94FD2ADC010E
S1130700CB01988F8F8B8F89988D892B21F18CEC5D
S113071091E09A8F898F898D9A8D0197F1F79A8F3D
S1130720898F8F89988D0197988F8F8BECCF6B89E8
S11307307C898D899E890E94FD2ADC01CB01988FDA
S11307408F8B8F89988D9C8F8B8F8B8D9C8D019730
S1130750F1F79C8F8B8F0E941F1480E090E0AAEF2A
S1130760B3E48D839E83AF83B88720E030E040E913
S113077055E46D817E818F8198850E94E32BDC0195
S1130780CB0189879A87AB87BC8720E030E040E8BB
S11307905FE369857A858B859C850E94862A8823F8
S11307A02CF481E090E09E878D873FC020E03FEFEE
S11307B04FE757E469857A858B859C850E94DE2BFB
S11307C018164CF520E030E040E251E46D817E8162
S11307D08F8198850E94E32BDC01CB01BC01CD0104
S11307E00E94FD2ADC01CB019E878D878D859E8525
S11307F0892B09F439CF8CEC91E0988B8F878F8506
S113080098890197F1F7988B8F878D859E8501973D
S11308109E878D87EBCF69857A858B859C850E9421
S1130820FD2ADC01CB019E878D878D859E859A8B61
S1130830898B89899A890197F1F79A8B898B14CFCF
S1130840CF93DF93CDB7DEB7C250D1400FB6F89443
S1130850DEBF0FBECDBF9E012F5F3E4FF9019183D6
S1130860808384EF91E00E948C128FEF9FEF0E94AF
S113087057100E94350B882309F461C0CE018F5FA5
S11308809E4FFC01808191810E9402081982898116
S1130890883008F05EC086E48D838AE08E831F82F0
S11308A01886CE01059669810E943E088981282F09
S11308B030E06D81CE018F5F9E4FFC0140815181FC
S11308C0C901880F991F880F991F820F931F840FE6
S11308D0951F8D5F9E4FFC0160838981282F30E036
S11308E06E81CE018F5F9E4FFC0140815181C90111
S11308F0880F991F880F991F820F931F840F951FCC
S11309008C5F9E4FFC0160838981282F30E06F81CA
S1130910CE018F5F9E4FFC0140815181C901880F38
S1130920991F880F991F820F931F840F951F8B5F48
S11309309E4FFC01608389818F5F8983A8CF0E94C9
S1130940250BCE018F5F9E4FFC01808191810E9417
S113095028031A828A81883008F0B9C08A81882FD6
S113096090E00196982F88270E9457101A861986BE
S11309701C861B86CE0141969A878987CE018757AC
S11309809F4F6A810E94CC081E861D861F86AE0179
S1130990435F5F4F9E01275F3F4FCE0187579F4FB5
S11309A0B9010E949A1D8F85882309F084C01C8296
S11309B01B828B819C818F3F910511F008F083C0CD
S11309C08A81882F90E00196982F88279C018B813B
S11309D09C81822B932B0E9457108B81888B9E01C4
S11309E0205F3F4FCE010996B9010E949E0C8034CE
S11309F059F1813409F051C0CE018F5F9E4FFC0143
S1130A00208131818B819C81820F931F0396FC018D
S1130A108081482F8A81282F30E080E890E002C04E
S1130A20959587952A95E2F7842B482FCE018F5F01
S1130A309E4FFC01208131818B819C81820F931F09
S1130A400396FC01408331C0CE018F5F9E4FFC01B1
S1130A50208131818B819C81820F931F0396FC013D
S1130A608081482F8A81282F30E080E890E002C0FE
S1130A70959587952A95E2F780958423482FCE0192
S1130A808F5F9E4FFC01208131818B819C81820F7D
S1130A90931F0396FC01408308C0CE018F5F9E4FD5
S1130AA0FC01808191810E9428038B819C810196A5
S1130AB09C838B837ECFCE018F5F9E4FFC01808110
S1130AC091810E9428038A818F5F8A8343CF8FEFAD
S1130AD09FEF0E94571081E0CE5FDE4F0FB6F8946F
S1130AE0DEBF0FBECDBFDF91CF910895CF93DF93CB
S1130AF0CDB7DEB767970FB6F894DEBF0FBECDBF94
S1130B009F8B8E8B28E0CE010696FC01322F11922A
S1130B103A95E9F728E0CE010E96FC01322F1192A6
S1130B203A95E9F78FEF8E8719828FEF8A831B82BC
S1130B300E9407120E94FA11CE0106960E943B12EF
S1130B400E9407121B821C828C81883008F076C0B8
S1130B508C81882F90E09E012A5F3F4F820F931F64
S1130B60FC0140818C81882F90E09E01225F3F4FE1
S1130B70820F931FFC018081481709F45BC08C81AC
S1130B80882F90E02C81222F30E0AE014A5F5F4F26
S1130B90240F351FF90140819E01225F3F4F820FD0
S1130BA0931FFC01408381E08B838C81882F90E02C
S1130BB09E012A5F3F4F820F931FFC0140818C816D
S1130BC0282F30E0C901880F991F880F991F820FC1
S1130BD0931F8D5F9E4F2E893F89820F931F642F31
S1130BE00E947329882399F08C81882F90E027E054
S1130BF030E0281B390B81E090E002C0880F991F78
S1130C002A95E2F7982F8981892B898313C08C81D7
S1130C10882F90E027E030E0281B390B81E090E03A
S1130C2002C0880F991F2A95E2F7982F9095898121
S1130C30892389838C818F5F8C8386CF99818A8174
S1130C40981791F189818A838981882F90E02E8970
S1130C503F89820F931F0396FC0180810E94B31089
S1130C608981882F90E0982F8827AC018981882F6B
S1130C7090E02E893F89820F931F0396FC018081A7
S1130C80882F90E0842B952B0E9457108E899F8982
S1130C90FC018181882341F084E690E00E943913AD
S1130CA084E690E00E94C6138B81882309F442CF26
S1130CB08E899F89FC018081882309F43BCF1D82A2
S1130CC08D818830C0F58D818F5B0E9460278AE317
S1130CD00E9460278D81882F90E09E012A5F3F4FFC
S1130CE0820F931FFC0180810E94F3278AE30E94F4
S1130CF060278D81282F30E04E895F89C901880FD4
S1130D00991F880F991F820F931F840F951F895F66
S1130D109E4FFC018081882321F081E30E9460279B
S1130D2003C080E30E94602780E20E9460278D81D7
S1130D308F5F8D83C5CF0E94A527FCCECF93DF9311
S1130D4000D0CDB7DEB79A83898381E00F900F90EE
S1130D50DF91CF910895CF93DF9300D0CDB7DEB765
S1130D609A83898300000F900F90DF91CF910895AB
S1130D70CF93DF93CDB7DEB70E940D11882319F00E
S1130D800E94DA0602C00E940E070000DF91CF9194
S1130D900895CF93DF9300D0CDB7DEB79A838983CC
S1130DA089819A810E94570200000F900F90DF9171
S1130DB0CF910895CF93DF931F92CDB7DEB7CE01C5
S1130DC001960E943D07CE0101960E944E0788239A
S1130DD039F0CE0101960E945E07882309F0F9CF0D
S1130DE0CE0101960E946E07CE0101960E94C906AB
S1130DF000000F90DF91CF910895CF93DF9300D03F
S1130E00CDB7DEB79A83898389819A810E94AB0624
S1130E1000000F900F90DF91CF910895CF93DF934F
S1130E20CDB7DEB7CB52D1400FB6F894DEBF0FBEBC
S1130E30CDBFCE0101960E947E07CE0101960E948D
S1130E408F07882339F0CE0101960E949F078823DB
S1130E5009F0F9CFCE0101960E94AF07CE010196A9
S1130E600E94FD060000C55DDE4F0FB6F894DEBF9C
S1130E700FBECDBFDF91CF910895CF93DF9300D004
S1130E80CDB7DEB79A83898389819A810E94E10173
S1130E9000000F900F90DF91CF910895CF93DF93CF
S1130EA000D0CDB7DEB79A83898389819A810E9465
S1130EB0EE010F900F90DF91CF910895CF93DF93C0
S1130EC000D0CDB7DEB79A83898389819A810E9445
S1130ED00F020F900F90DF91CF910895CF93DF937E
S1130EE000D0CDB7DEB79A83898389819A810E9425
S1130EF04A020F900F90DF91CF910895CF93DF9323
S1130F0000D0CDB7DEB79A83898389819A810E9404
S1130F100D0300000F900F90DF91CF910895CF93B0
S1130F20DF9300D0CDB7DEB79A83898389819A8114
S1130F300E9420040F900F90DF91CF910895CF93DA
S1130F40DF9300D0CDB7DEB79A83898389819A81F4
S1130F500E9476050F900F90DF91CF910895CF9363
S1130F60DF9300D0CDB7DEB79A83898389819A81D4
S1130F700E949E060F900F90DF91CF910895CF931A
S1130F80DF9300D000D000D0CDB7DEB79C838B8335
S1130F907E836D8319821A828A81282F30E08D81A5
S1130FA09E812817390720F58981882F90E0880FC2
S1130FB0991F892B49F48981882F90E0880F892F04
S1130FC0881F990B892B11F081E001C080E089838F
S1130FD08A81882F90E02B813C81820F931FFC0132
S1130FE080819981890F89838A818F5F8A83D4CF95
S1130FF0898126960FB6F894DEBF0FBECDBFDF9170
S1131000CF910895CF93DF93CDB7DEB728970FB66E
S1131010F894DEBF0FBECDBF98878F831A821982E2
S11310201C8281E08D831E8229813A81CE0104963F
S113103043E050E0B9010E94E82C22E030E0CE0108
S11310400496B9010E94BF078B839E818B819817F8
S113105059F42F8138858C819D81AE81F90180837B
S11310609183A28381E001C080E028960FB6F894B2
S1131070DEBF0FBECDBFDF91CF910895CF93DF9335
S1131080CDB7DEB72A970FB6F894DEBF0FBECDBF3B
S1131090998788876A878A85882F90E0880F991FA7
S11310A0880F991F03969A83898386E48C838AE048
S11310B08D831E821F8229813A81CE01049644E0E9
S11310C050E0B9010E94E82C23E030E0CE01049600
S11310D0B9010E94BF078B839F818B81981769F4A4
S11310E0288539858C819D81AE81BF81F9018083FA
S11310F09183A283B38381E001C080E02A960FB676
S1131100F894DEBF0FBECDBFDF91CF910895CF938A
S1131110DF93CDB7DEB728970FB6F894DEBF0FBEC6
S1131120CDBF9F838E8368878885882F90E09C013C
S1131130220F331F80E290E0820F931F03969A835D
S1131140898381E08C831D8229813A81CE010496B2
S113115042E050E0B9010E94E82C21E030E0CE01E9
S11311600496B9010E94BF078B839D818B819817D8
S113117049F48E819F812C813D81FC013183208340
S113118081E001C080E028960FB6F894DEBF0FBE60
S1131190CDBFDF91CF910895CF93DF93CDB7DEB765
S11311A02B970FB6F894DEBF0FBECDBF9A87898701
S11311B06B878B85882F90E028E030E0A901481BDD
S11311C0590BCA01AC0186E090E0880F991F880F83
S11311D0991F880F991F039620E034E0B901681B1A
S11311E0790BCB019C013695279536952795369535
S11311F02795429FC001439F900D529F900D11244B
S113120020E034E0F901E81BF90BCF019E838D83C4
S11312108D819E810E94F82C8F8389859A859A837B
S113122089838D819E8101969C838B8386E090E0E7
S1131230880F991F880F991F880F991F039620E024
S113124034E0A901481B590BCA019C013695279526
S113125036952795369527958D819E81280F391FC0
S11312608B819C8182179307C8F48B819C810E9497
S1131270F82C888789819A819C012F5F3F4F3A839C
S113128029832885FC0120838885882331F08B817C
S11312909C8101969C838B83C9CF000089859A85A4
S11312A0FC018081882381F089859A850E94002928
S11312B09C0189859A85B9010E94BF07982F8F8167
S11312C0981711F481E001C080E02B960FB6F894D2
S11312D0DEBF0FBECDBFDF91CF910895CF93DF93D3
S11312E000D000D0CDB7DEB79C838B831A821982DD
S11312F022E030E08B819C81B9010E94BF07282F36
S11313008B819C81FC01228329813A818B819C8180
S113131043E050E0B9010E94002D00000F900F90AF
S11313200F900F90DF91CF910895CF93DF9300D06A
S113133000D01F92CDB7DEB79C838B836D838D81E4
S1131340882F90E0880F991F880F991F03969A831E
S1131350898323E030E08B819C81B9010E94BF071F
S1131360282F8B819C81FC01238329813A818B81E5
S11313709C8144E050E0B9010E94002D00000F90D0
S11313800F900F900F900F90DF91CF910895CF930E
S1131390DF9300D000D01F92CDB7DEB79C838B8340
S11313A06D838D81882F90E09C01220F331F80E292
S11313B090E0820F931F03969A83898321E030E0A3
S11313C08B819C81B9010E94BF07282F8B819C814E
S11313D0FC01218329813A818B819C8142E050E088
S11313E0B9010E94002D00000F900F900F900F90F4
S11313F00F90DF91CF910895CF93DF93CDB7DEB7F0
S11314002A970FB6F894DEBF0FBECDBF99878887A1
S11314106A878A85882F90E028E030E0A901481B7C
S1131420590BCA01AC0186E090E0880F991F880F20
S1131430991F880F991F039620E034E0B901681BB7
S1131440790BCB019C0136952795369527953695D2
S11314502795429FC001439F900D529F900D1124E8
S113146020E034E0F901E81BF90BCF019D838C8364
S1131470888599859A8389838C819D8101969F8330
S11314808E8386E090E0880F991F880F991F880F3C
S1131490991F039620E034E0A901481B590BCA01A7
S11314A09C013695279536952795369527958C81F9
S11314B09D81280F391F8E819F8182179307D8F44D
S11314C089819A81FC0180818823A1F089819A8194
S11314D09C012F5F3F4F3A832983FC0120818E8139
S11314E09F81622F0E94102D8E819F8101969F8380
S11314F08E83C7CF00008E819F8160E00E94102DF3
S1131500888599850E9400299C0188859985B9015F
S11315100E94BF078B838C819D816B810E94102D5B
S113152000002A960FB6F894DEBF0FBECDBFDF9140
S1131530CF910895CF93DF9300D01F92CDB7DEB73C
S1131540198281E08A831B82CE0101960E946E0972
S113155000000F900F900F90DF91CF910895CF93DB
S1131560DF9300D000D01F92CDB7DEB719828981F6
S1131570883078F486E48A838AE08B831C821D8217
S1131580CE01029669810E94950989818F5F8983C2
S1131590EECF00000F900F900F900F900F90DF91FF
S11315A0CF910895CF93DF9300D01F92CDB7DEB7CC
S11315B019828981883060F481E08A831B82CE019C
S11315C0029669810E94C70989818F5F8983F1CF5F
S11315D000000F900F900F90DF91CF910895CF935B
S11315E0DF93CDB7DEB7CC57D1090FB6F894DEBF81
S11315F00FBECDBF198289818830E0F4CE010296F6
S11316000E94970BCE01029664E20E94B20B89817C
S113161021E4280FCE010296622F0E94B20BCE0164
S113162002960E94ED0B69810E94FC0989818F5FFB
S11316308983E1CF0000C458DF4F0FB6F894DEBFB2
S11316400FBECDBFDF91CF910895CF93DF93CDB778
S1131650DEB70E949A0A0E94AF0A0E94D20A0E9430
S1131660EF0A0000DF91CF910895CF93DF93CDB7B8
S1131670DEB7C358D1090FB6F894DEBF0FBECDBF95
S11316801B8281E08C831D82CE0103960E94020896
S1131690982F81E08927882311F080E03EC01982C9
S11316A089818830B0F486E48E838AE08F8318863B
S11316B01986CE01069669810E943E08982F81E022
S11316C08927882311F080E028C089818F5F89836E
S11316D0E7CF1A828A818830F8F481E08A871B86F2
S11316E0CE010A966A810E948708982F81E0892793
S11316F0882311F080E011C0CE010C966A810E940B
S1131700CC08982F81E08927882311F080E005C058
S11317108A818F5F8A83DECF81E0CD57DF4F0FB69A
S1131720F894DEBF0FBECDBFDF91CF910895CF9364
S1131730DF9300D0CDB7DEB79A83898389819A81FC
S1131740FC011182108289819A8129E70296FC01A9
S1131750322F11923A95E9F700000F900F90DF9124
S1131760CF910895CF93DF9300D01F92CDB7DEB70A
S11317709A8389836B8389819A81FC018081918119
S11317808837910518F589819A81FC0180819181BE
S1131790AC014F5F5F4F29813A81F9015183408346
S11317A029813A81820F931F02962B81FC012083A9
S11317B089819A81FC018081918129813A81820FFA
S11317C0931F0296FC01108281E001C080E00F901B
S11317D00F900F90DF91CF910895CF93DF9300D0B6
S11317E0CDB7DEB79A83898389819A8102960F9057
S11317F00F90DF91CF910895CF93DF93CDB7DEB7EC
S11318000E94A00F0E9430140E9445270E94B8062F
S11318100E944C14CF93DF9300D0CDB7DEB78983F9
S11318206A838981882F90E02A81222F30E047E063
S113183050E0BA01621B730B9B0102C0959587951A
S11318402A95E2F781709927892B11F081E401C070
S113185080E40F900F90DF91CF910895CF93DF93A1
S11318601F92CDB7DEB7898360E089810E940A0C9C
S11318700F90DF91CF910895CF93DF931F92CDB74F
S1131880DEB7898361E089810E940A0C0F90DF91A1
S1131890CF910895CF93DF931F92CDB7DEB789839D
S11318A062E089810E940A0C0F90DF91CF91089524
S11318B0CF93DF931F92CDB7DEB7898363E089812D
S11318C00E940A0C0F90DF91CF910895CF93DF937C
S11318D01F92CDB7DEB7898364E089810E940A0C28
S11318E00F90DF91CF910895CF93DF931F92CDB7DF
S11318F0DEB7898365E089810E940A0C0F90DF912D
S1131900CF910895CF93DF931F92CDB7DEB789832C
S113191066E089810E940A0C0F90DF91CF910895AF
S1131920CF93DF931F92CDB7DEB7898367E08981B8
S11319300E940A0C0F90DF91CF9108950F931F938B
S1131940CF93DF93CDB7DEB7CE58D1090FB6F89455
S1131950DEBF0FBECDBF9E0125573F4FF9019183D6
S11319608083CE0183579F4FFC01718360831A8269
S113197019821C821B82CE0185579F4FFC018081F6
S11319809181FC01228133818B819C818217930791
S113199008F0B6C2CE0185579F4FFC01808191812A
S11319A0FC01208131818B819C81820F931FFC017A
S11319B080818D838D81882309F4A1C28D81882F34
S11319C090E0A0E0B0E048E050E02FE030E0841B7D
S11319D0950B2817390708F48AC2865A9F4FFC01D1
S11319E00C94642C89819A8101979A8389839E013E
S11319F02D5E3F4F89819A81820F931FFC01808164
S1131A008E838E81813481F489819A819C012F5F38
S1131A103F4F3A8329839E012D5E3F4F820F931FD0
S1131A2020E4FC01208365C289819A819C012F5F97
S1131A303F4F3A8329839E012D5E3F4F820F931FB0
S1131A4021E4FC01208355C289819A8101979A83FC
S1131A5089839E012D5E3F4F89819A81820F931F56
S1131A60FC0180818F8389819A8101979A8389837C
S1131A709E012D5E3F4F89819A81820F931FFC0145
S1131A80808188879F8188858923813481F4898135
S1131A909A819C012F5F3F4F3A8329839E012D5EDB
S1131AA03F4F820F931F21E4FC01208322C28981CE
S1131AB09A819C012F5F3F4F3A8329839E012D5EBB
S1131AC03F4F820F931F20E4FC01208312C28981BF
S1131AD09A8101979A8389839E012D5E3F4F898164
S1131AE09A81820F931FFC018081898789819A8161
S1131AF001979A8389839E012D5E3F4F89819A8144
S1131B00820F931FFC0180818A878985813419F4AF
S1131B108A85813481F089819A819C012F5F3F4FAE
S1131B203A8329839E012D5E3F4F820F931F21E448
S1131B30FC012083DEC189819A819C012F5F3F4F84
S1131B403A8329839E012D5E3F4F820F931F20E429
S1131B50FC012083CEC189819A8101979A8389836C
S1131B609E012D5E3F4F89819A81820F931FFC0154
S1131B7080818B8789819A8101979A8389839E01C9
S1131B802D5E3F4F89819A81820F931FFC018081D2
S1131B908C878B85813419F08C85813481F489811B
S1131BA09A819C012F5F3F4F3A8329839E012D5ECA
S1131BB03F4F820F931F21E4FC0120839AC1898146
S1131BC09A819C012F5F3F4F3A8329839E012D5EAA
S1131BD03F4F820F931F20E4FC0120838AC1898137
S1131BE09A8101979A8389839E012D5E3F4F898153
S1131BF09A81820F931FFC0180818D8789819A814C
S1131C0001979A8389839E012D5E3F4F89819A8132
S1131C10820F931FFC0180818E878D85813499F01A
S1131C208E85813481F089819A819C012F5F3F4F99
S1131C303A8329839E012D5E3F4F820F931F21E437
S1131C40FC01208356C189819A819C012F5F3F4FFB
S1131C503A8329839E012D5E3F4F820F931F20E418
S1131C60FC01208346C189819A8101979A838983E3
S1131C709E012D5E3F4F89819A81820F931FFC0143
S1131C8080818F8789819A8101979A8389839E01B4
S1131C902D5E3F4F89819A81820F931FFC018081C1
S1131CA0888B9F858889981781F089819A819C0106
S1131CB02F5F3F4F3A8329839E012D5E3F4F820F52
S1131CC0931F21E4FC01208314C189819A819C0122
S1131CD02F5F3F4F3A8329839E012D5E3F4F820F32
S1131CE0931F20E4FC01208304C189819A81019718
S1131CF09A8389839E012D5E3F4F89819A81820F49
S1131D00931FFC018081898B89819A8101979A8331
S1131D1089839E012D5E3F4F89819A81820F931F93
S1131D20FC0180818A8B99898A89981781F4898139
S1131D309A819C012F5F3F4F3A8329839E012D5E38
S1131D403F4F820F931F21E4FC012083D2C089817D
S1131D509A819C012F5F3F4F3A8329839E012D5E18
S1131D603F4F820F931F20E4FC012083C2C00981EE
S1131D701A81C80101969A838983CE0183579F4FA4
S1131D80FC0180819181FC0180810E942E0C282F0E
S1131D90CE014396800F911FFC012083AAC00981C4
S1131DA01A81C80101969A838983CE0183579F4F74
S1131DB0FC0180819181FC0180810E943C0C282FD0
S1131DC0CE014396800F911FFC01208392C00981AC
S1131DD01A81C80101969A838983CE0183579F4F44
S1131DE0FC0180819181FC0180810E944A0C282F92
S1131DF0CE014396800F911FFC0120837AC0098194
S1131E001A81C80101969A838983CE0183579F4F13
S1131E10FC0180819181FC0180810E94580C282F53
S1131E20CE014396800F911FFC01208362C009817B
S1131E301A81C80101969A838983CE0183579F4FE3
S1131E40FC0180819181FC0180810E94660C282F15
S1131E50CE014396800F911FFC0120834AC0098163
S1131E601A81C80101969A838983CE0183579F4FB3
S1131E70FC0180819181FC0180810E94740C282FD7
S1131E80CE014396800F911FFC01208332C009814B
S1131E901A81C80101969A838983CE0183579F4F83
S1131EA0FC0180819181FC0180810E94820C282F99
S1131EB0CE014396800F911FFC0120831AC0098133
S1131EC01A81C80101969A838983CE0183579F4F53
S1131ED0FC0180819181FC0180810E94900C282F5B
S1131EE0CE014396800F911FFC01208302C08FEF27
S1131EF01BC08B819C8101969C838B833CCD00000D
S1131F0089819A81892B79F089819A8101979A83B1
S1131F1089839E012D5E3F4F89819A81820F931F91
S1131F20FC01808101C080E4C257DF4F0FB6F894F2
S1131F30DEBF0FBECDBFDF91CF911F910F910895EA
S1131F40CF93DF9300D01F92CDB7DEB787E290E046
S1131F5027E230E0F90120812F61FC01208387E230
S1131F6090E027E230E0F90120812F7DFC012083FD
S1131F7088E290E0FC01108288E290E028E230E000
S1131F80F90120812160FC01208388E290E028E2AD
S1131F9030E0F9012081277FFC0120838AE290E070
S1131FA02AE230E0F90120812C6FFC0120838BE2CE
S1131FB090E02BE230E0F90120812062FC012083D3
S1131FC084E290E024E230E0F90120812760FC0102
S1131FD020838DE290E0FC0110828EE290E02EE2FC
S1131FE030E0F90120812360FC0120838CE790E03C
S1131FF02CE730E0F90120812664FC0120838AE784
S113200090E02AE730E0F90120812F68FC01208369
S113201085E290E025E230E0F9012081422F487FFB
S113202026E031E03A83298329813A81F901249118
S11320302B832B81242BFC01208387E490E026E46E
S1132040FC01208384E490E024E430E0F901208161
S11320502264FC01208380E890E0FC01108281E886
S113206090E028E0FC0120838FE690E02FE630E04A
S1132070F90120812260FC01208380E990E0FC01C9
S1132080108281E990E028E0FC01208381E790E060
S113209021E730E0F90120812260FC01208378945B
S11320A000000F900F900F90DF91CF910895CF9380
S11320B0DF9300D01F92CDB7DEB79B838A8319824A
S11320C089818031B8F58981282F30E08A819B810C
S11320D002C0969587952A95E2F781709927892BF6
S11320E051F088E290E028E230E0F901208120619B
S11320F0FC01208309C088E290E028E230E0F90185
S113210020812F7EFC01208388E290E028E230E0E9
S1132110F90120812260FC01208388E290E028E21A
S113212030E0F90120812D7FFC01208389818F5FBC
S11321308983C6CF88E290E028E230E0F90120816B
S11321402460FC01208388E290E028E230E0F90179
S113215020812B7FFC01208300000F900F900F90B3
S1132160DF91CF910895CF93DF9300D0CDB7DEB741
S11321708A83198289818830C0F58A81882F90E00A
S11321802981222F30E002C0959587952A95E2F7A0
S113219081709927892B51F08BE290E02BE230E09B
S11321A0F90120812460FC01208309C08BE290E0C6
S11321B02BE230E0F90120812B7FFC0120838BE2AC
S11321C090E02BE230E0F90120812061FC012083C2
S11321D08BE290E02BE230E0F90120812F7EFC01BC
S11321E0208389818F5F8983C5CF8BE290E02BE2C6
S11321F030E0F90120812860FC0120838BE290E02B
S11322002BE230E0F9012081277FFC0120830000CC
S11322100F900F90DF91CF910895CF93DF93CDB7B7
S1132220DEB786E290E0FC018081882F90E0807226
S1132230992721E0892B09F020E0822FDF91CF91AB
S113224008951F920F9200905F000F9211240F9334
S11322501F932F933F934F935F936F937F938F932A
S11322609F93AF93BF93EF93FF93CF93DF93CDB738
S1132270DEB72697DEBFCDBF80911B018983809195
S11322801B018F5F80931B0180911B01883010F02C
S113229010921B0185E290E025E230E0F9012081F3
S11322A0422F487F20911B01222F30E02A5F3E4FAE
S11322B03B832A832A813B81F90124912C832C813D
S11322C0242BFC0120831E821D8288E790E0FC0100
S11322D08081882F90E02D813E81822B932B9E83D9
S11322E08D8389E790E0FC018081882F90E0982F0E
S11322F088279C018D819E81822B932B9E838D83C5
S113230020911601309117018981882F90E089016D
S1132310080F191F8D819E81CC01A0E0B0E0BC01A3
S1132320CD010E942C2BDC01CB0129E33EE843EED6
S11323305DE3BC01CD010E94E32BDC01CB01BC01B8
S1132340CD010E94FD2ADC01CB01F801808320919C
S11323501601309117018981882F90E0820F931F15
S1132360FC01908181E0953608F480E0882361F0D7
S113237020911601309117018981882F90E0820FF6
S1132380931F24E6FC01208380911B01873050F4C5
S11323908AE790E02AE730E0F90120812064FC011B
S11323A0208302C010921A01000026960FB6F894FA
S11323B0DEBF0FBECDBFDF91CF91FF91EF91BF91F3
S11323C0AF919F918F917F916F915F914F913F91C9
S11323D02F911F910F910F9000925F000F901F900B
S11323E01895CF93DF93CDB7DEB780911A01DF91B3
S11323F0CF910895CF93DF93CDB7DEB780911A01C3
S1132400882309F0FBCF0000DF91CF910895CF938B
S1132410DF93CDB7DEB781E080931A018091180174
S1132420909119018650914069F086E091E0909373
S11324301901809318018EE091E090931701809325
S113244016010CC08EE091E090931901809318015D
S113245086E091E090931701809316018AE790E05B
S11324602AE730E0F90120812064FC012083000088
S1132470DF91CF910895CF93DF9300D01F92CDB712
S1132480DEB79B838A83198289818830C0F489816D
S1132490882F90E040911801509119012981222F31
S11324A030E0240F351FF90140812A813B81820FDE
S11324B0931FFC01408389818F5F8983E5CF0000EE
S11324C00F900F900F90DF91CF9108951F920F926C
S11324D000905F000F9211242F938F939F93EF939B
S11324E0FF93CF93DF93CDB7DEB781E890E028E088
S11324F0FC01208385E490E0FC0110820000DF9160
S1132500CF91FF91EF919F918F912F910F90009216
S11325105F000F901F901895CF93DF93CDB7DEB770
S113252062970FB6F894DEBF0FBECDBF9A8B898B2E
S113253089899A89019629F489899A8901979A8BBC
S1132540898B85E490E025E430E0F9012081236063
S1132550FC0120831A82198229813A8189899A8906
S11325602817390708F077C080E090E0A0E8BFE3BF
S11325708B839C83AD83BE8320E030E040E955E447
S11325806B817C818D819E810E94E32BDC01CB01D8
S11325908F839887A987BA8720E030E040E85FE31B
S11325A06F81788589859A850E94862A88232CF4F0
S11325B081E090E09C878B873EC020E03FEF4FE7AF
S11325C057E46F81788589859A850E94DE2B1816D9
S11325D044F520E030E040E251E46B817C818D8160
S11325E09E810E94E32BDC01CB01BC01CD010E9442
S11325F0FD2ADC01CB019C878B878B859C85892BED
S113260021F18CEC91E09E878D878D859E850197C5
S1132610F1F79E878D878B859C8501979C878B8797
S1132620ECCF6F81788589859A850E94FD2ADC012B
S1132630CB019C878B878B859C85988B8F878F8517
S113264098890197F1F7988B8F8789819A810196F0
S11326509A83898381CF85E490E0FC011082000095
S113266062960FB6F894DEBF0FBECDBFDF91CF9157
S113267008950F931F93CF93DF9300D0CDB7DEB7A8
S11326809A83898384E890E0FC011182108208E82F
S113269010E089819A81CC01A0E0B0E0BC01CD01B9
S11326A00E942C2BDC01CB0120E030EA4CE856E4FC
S11326B0BC01CD010E94E32BDC01CB0120E030E022
S11326C04AE754E4BC01CD010E948B2ADC01CB0112
S11326D020E030E040E85FE3BC01CD010E94192A0C
S11326E0DC01CB01BC01CD010E94FD2ADC01CB0140
S11326F0F8019183808381E890E021E830E0F901DA
S113270020812560FC01208386E490E0FC01108296
S113271085E490E025E430E0F90120812360FC01A8
S1132720208300000F900F90DF91CF911F910F91A4
S113273008951F920F9200905F000F9211242F931F
S11327403F938F939F93EF93FF93CF93DF93CDB7F3
S1132750DEB781E990E028E0FC0120838BE290E081
S11327602BE230E0F90120812F77FC012083000067
S1132770DF91CF91FF91EF919F918F913F912F9195
S11327800F9000925F000F901F9018950F931F9366
S1132790CF93DF9300D0CDB7DEB79A83898384E9E2
S11327A090E0FC011182108208E910E089819A818D
S11327B0CC01A0E0B0E0BC01CD010E942C2BDC01D7
S11327C0CB0129E33EE843E65DE3BC01CD010E9471
S11327D08B2ADC01CB01BC01CD010E94FD2ADC0166
S11327E0CB01F8019183808381E990E021E930E015
S11327F0F90120812560FC0120838BE290E02BE22B
S113280030E0F90120812068FC01208300000F9052
S11328100F90DF91CF911F910F910895CF93DF9384
S1132820CDB7DEB78BE290E02BE230E0F9012081F6
S11328302068FC0120830000DF91CF910895CF939D
S1132840DF93CDB7DEB78BE290E02BE230E0F90105
S113285020812F77FC0120830000DF91CF91089520
S1132860CF93DF93CDB7DEB784E590E024E530E085
S1132870F9012081277FFC0120830FB6F894A895E5
S113288080916000886180936000109260000FBEA8
S11328900000DF91CF910895CF93DF93CDB7DEB7DA
S11328A06C970FB6F894DEBF0FBECDBFF89487E0E7
S11328B090E088709927892B11F088E201C088E0A4
S11328C097E09770892B982F88E10FB6F894A89514
S11328D0809360000FBE909360008FEF90E00E94A1
S11328E0571080E090E0A8E4B2E48D839E83AF8328
S11328F0B88720E030E040E955E46D817E818F8126
S113290098850E94E32BDC01CB018B8B9C8BAD8BD8
S1132910BE8B20E030E040E85FE36B897C898D89E1
S11329209E890E94862A88232CF481E090E0988F67
S11329308F8B3EC020E03FEF4FE757E46B897C89E3
S11329408D899E890E94DE2B181644F520E030E024
S113295040E251E46D817E818F8198850E94E32B52
S1132960DC01CB01BC01CD010E94FD2ADC01CB01BD
S1132970988F8F8B8F89988D892B21F18CEC91E026
S11329809A8F898F898D9A8D0197F1F79A8F898F04
S11329908F89988D0197988F8F8BECCF6B897C8969
S11329A08D899E890E94FD2ADC01CB01988F8F8B33
S11329B08F89988D9C8F8B8F8B8D9C8D0197F1F7D0
S11329C09C8F8B8F80E09FEF0E94571080E090E0F7
S11329D0A8E4B2E489839A83AB83BC8320E030E02B
S11329E040E955E469817A818B819C810E94E32BC3
S11329F0DC01CB0189879A87AB87BC8720E030E074
S1132A0040E85FE369857A858B859C850E94862AE8
S1132A1088232CF481E090E09E878D873FC020E0DE
S1132A203FEF4FE757E469857A858B859C850E9443
S1132A30DE2B18164CF520E030E040E251E46981C9
S1132A407A818B819C810E94E32BDC01CB01BC0148
S1132A50CD010E94FD2ADC01CB019E878D878D85E7
S1132A609E85892B09F439CF8CEC91E0988B8F8764
S1132A708F8598890197F1F7988B8F878D859E852F
S1132A8001979E878D87EBCF69857A858B859C8599
S1132A900E94FD2ADC01CB019E878D878D859E8552
S1132AA09A8B898B89899A890197F1F79A8B898BFB
S1132AB014CFCF93DF931F92CDB7DEB7898389817B
S1132AC08B3028F4893050F4883031F00BC08E30CC
S1132AD038F08E3019F006C083E005C082E003C0F0
S1132AE081E001C08FEF0F90DF91CF9108951F9384
S1132AF0CF93DF9300D0CDB7DEB789836A83898112
S1132B000E945915182F8A810E945915982F81E027
S1132B1019170CF480E00F900F90DF91CF911F9163
S1132B200895CF93DF931F92CDB7DEB78983898150
S1132B30882F90E08870992721E0892B09F420E000
S1132B40822F0F90DF91CF910895CF93DF931F923F
S1132B50CDB7DEB789838981882F90E0807199276A
S1132B6021E0892B09F420E0822F0F90DF91CF918F
S1132B700895CF93DF931F92CDB7DEB78983898100
S1132B80803219F08981813211F481E001C080E042
S1132B900F90DF91CF910895CF93DF931F92CDB71C
S1132BA0DEB7898381E09981903209F080E00F904B
S1132BB0DF91CF910895CF93DF931F92CDB7DEB706
S1132BC0898381E09981913209F080E00F90DF914F
S1132BD0CF910895CF93DF931F92CDB7DEB789834A
S1132BE08981882F90E0A0E0B0E040E050E029E047
S1132BF030E0841B950B2817390718F186599F4F2D
S1132C00FC010C94642C8EE091E01DC081E191E004
S1132C101AC085E291E017C085E391E014C085E411
S1132C2091E011C087E591E00EC08EE691E00BC003
S1132C3085E891E008C08CE991E005C083EB91E060
S1132C4002C080E090E00F90DF91CF910895CF9380
S1132C50DF9300D000D000D0CDB7DEB79A8389834C
S1132C607C836B835E834D8389819A810E942329AF
S1132C7089819A81FC0180819181FC018081843267
S1132C8009F0FAC089819A81FC01808191819C01BB
S1132C902F5F3F4F89819A81FC0131832083898191
S1132CA09A81FC0180819181FC018081882F90E0D0
S1132CB0092E000CAA0BBB0B41E450E027E030E0E6
S1132CC0841B950B2817390708F4C5C08C589F4FEF
S1132CD0FC010C94642C8B819C81FC01208131814A
S1132CE08D819E81FC0180819181BC016F5F7F4F4A
S1132CF04D815E81FA0171836083820F931F20E10D
S1132D00FC012083AAC08B819C81FC01208131813C
S1132D108D819E81FC0180819181BC016F5F7F4F19
S1132D204D815E81FA0171836083820F931F21E1DB
S1132D30FC01208392C08B819C81FC012081318124
S1132D408D819E81FC0180819181BC016F5F7F4FE9
S1132D504D815E81FA0171836083820F931F22E1AA
S1132D60FC0120837AC08B819C81FC01208131810C
S1132D708D819E81FC0180819181BC016F5F7F4FB9
S1132D804D815E81FA0171836083820F931F23E179
S1132D90FC01208362C08B819C81FC0120813181F4
S1132DA08D819E81FC0180819181BC016F5F7F4F89
S1132DB04D815E81FA0171836083820F931F24E148
S1132DC0FC0120834AC08B819C81FC0120813181DC
S1132DD08D819E81FC0180819181BC016F5F7F4F59
S1132DE04D815E81FA0171836083820F931F25E117
S1132DF0FC01208332C08B819C81FC0120813181C4
S1132E008D819E81FC0180819181BC016F5F7F4F28
S1132E104D815E81FA0171836083820F931F26E1E5
S1132E20FC0120831AC08B819C81FC0120813181AB
S1132E308D819E81FC0180819181BC016F5F7F4FF8
S1132E404D815E81FA0171836083820F931F27E1B4
S1132E50FC01208302C080E010C089819A81FC01BA
S1132E60808191819C012F5F3F4F89819A81FC0170
S1132E703183208381E001C080E026960FB6F89468
S1132E80DEBF0FBECDBFDF91CF910895CF93DF9307
S1132E9000D000D000D0CDB7DEB79A8389837C837D
S1132EA06B835E834D8389819A810E942329898162
S1132EB09A81FC0180819181FC018081882F90E0BE
S1132EC08D33910509F4DAC08E33910524F4869785
S1132ED009F4A4C0EBC08C37910509F4B7C08E3750
S1132EE0910509F0E3C089819A81FC018081918177
S1132EF00E947428882F90E08D33910509F450C006
S1132F008C37910541F1869709F06FC08B819C81C4
S1132F10FC01208131818D819E81FC018081918120
S1132F20BC016F5F7F4F4D815E81FA0171836083C5
S1132F30820F931F2AE0FC01208389819A81FC017E
S1132F40808191819C012F5F3F4F89819A81FC018F
S1132F503183208362C08B819C81FC01208131817B
S1132F608D819E81FC0180819181BC016F5F7F4FC7
S1132F704D815E81FA0171836083820F931F2CE07F
S1132F80FC01208389819A81FC01808191819C01CB
S1132F902F5F3F4F89819A81FC01318320833DC09B
S1132FA08B819C81FC01208131818D819E81FC017A
S1132FB080819181BC016F5F7F4F4D815E81FA01F9
S1132FC071836083820F931F2DE0FC01208389812C
S1132FD09A81FC01808191819C012F5F3F4F8981FF
S1132FE09A81FC013183208318C08B819C81FC0170
S1132FF0208131818D819E81FC0180819181BC0180
S11330006F5F7F4F4D815E81FA0171836083820F10
S1133010931F28E0FC01208300004AC08B819C811F
S1133020FC01208131818D819E81FC01808191810F
S1133030BC016F5F7F4F4D815E81FA0171836083B4
S1133040820F931F29E0FC01208332C08B819C8175
S1133050FC01208131818D819E81FC0180819181DF
S1133060BC016F5F7F4F4D815E81FA017183608384
S1133070820F931F2BE0FC0120831AC08B819C815B
S1133080FC01208131818D819E81FC0180819181AF
S1133090BC016F5F7F4F4D815E81FA017183608354
S11330A0820F931F2EE0FC01208302C080E00EC03B
S11330B089819A81FC01808191819C012F5F3F4F1E
S11330C089819A81FC013183208381E026960FB6A1
S11330D0F894DEBF0FBECDBFDF91CF910895CF939B
S11330E0DF9300D000D000D0CDB7DEB79A838983B8
S11330F07C836B835E834D8389819A810E9423291B
S113310089819A81FC0180819181FC018081882FD1
S113311090E08832910519F08997C9F030C08B810D
S11331209C81FC01208131818D819E81FC01808103
S11331309181BC016F5F7F4F4D815E81FA01718384
S11331406083820F931F20E2FC0120831AC08B81CD
S11331509C81FC01208131818D819E81FC018081D3
S11331609181BC016F5F7F4F4D815E81FA01718354
S11331706083820F931F21E2FC01208302C080E060
S11331800EC089819A81FC01808191819C012F5F0D
S11331903F4F89819A81FC013183208381E0269607
S11331A00FB6F894DEBF0FBECDBFDF91CF91089567
S11331B0CF93DF93CDB7DEB727970FB6F894DEBF72
S11331C00FBECDBF9D838C837F836E8319828C81D8
S11331D09D819B838A838A819B81FC0180818823D2
S11331E009F4BCC08A819B81FC018081833209F48B
S11331F0B5C08E819F81FC012081318186E090E001
S1133200880F991F880F991F880F991F039640E014
S113321054E0BA01681B790BCB0196958795969576
S113322087959695879501972817390728F08E81F9
S11332309F8121E0FC0122838A819B81FC018081A2
S11332400E94C128982F81E08927882369F08A8108
S11332509B81FC0180810E94DA28982F81E08927D4
S1133260882311F081E001C080E0882309F45AC06A
S11332708A819B81FC018081882F90E088329105AE
S113328009F441C0893291058CF48032910509F426
S113329048C08132910524F4099709F442C03BC027
S11332A08432910599F08697E1F135C08D3391050B
S11332B0C1F18E3391051CF4899749F12CC08C37E8
S11332C0910579F18E37910561F125C08A819B8141
S11332D00E947428813430F08A819B810E94742872
S11332E0893410F081E001C080E0882331F08E81C0
S11332F09F8122E0FC01228339C08A819B8101964F
S11333009B838A830FC089818F5F89830BC08981E6
S11333108150898307C08E819F8124E0FC01228330
S113332025C000008981882334F48E819F8123E0A5
S1133330FC0122831BC08E819F81FC0180819181CD
S11333409C012F5F3F4F8E819F81FC01318320833D
S11333508A819B8101969B838A833DCF89818823BF
S113336029F08E819F8123E0FC01228327960FB6EA
S1133370F894DEBF0FBECDBFDF91CF910895CF93F8
S1133380DF93CDB7DEB72B970FB6F894DEBF0FBE31
S1133390CDBF9F838E83798768875B874A878E81B9
S11333A09F819B838A831D821C8219821982998141
S11333B081E08927882371F0AE014C5F5F4F288537
S11333C03985CE010296B9010E942716982F89816A
S11333D0892B8983998181E08927882371F0AE0143
S11333E04C5F5F4F28853985CE010296B9010E9452
S11333F04617982F8981892B8983998181E08927B0
S1133400882371F0AE014C5F5F4F28853985CE016A
S11334100296B9010E946F18982F8981892B89839C
S11334208981882309F0C2CF2C813D8188859985C3
S1133430FC01338322838C819D81892B29F48A8525
S11334409B8529E0FC01228300002B960FB6F8949B
S1133450DEBF0FBECDBFDF91CF910895CF93DF9331
S1133460CDB7DEB72B970FB6F894DEBF0FBECDBF36
S1133470998788877B876A871A82198288859985C4
S1133480FC012281338189819A818217930708F094
S1133490C5C188859985FC012081318189819A8102
S11334A0820F931FFC0180818B8389819A819C0107
S11334B02F5F3F4F88859985FC018281938128176E
S11334C0390758F488859985FC01208131818981E7
S11334D09A810196820F931F02C080E090E09D8341
S11334E08C8389819A81892B59F088859985FC017F
S11334F02081318189819A810197820F931F02C0B3
S113350080E090E09F838E838B810E9491158823B5
S113351009F47CC08B81883039F58C819D81892B9D
S113352031F48A859B8527E0FC01228377C18C8155
S11335309D81FC018081803269F08C819D81FC0138
S113354080810E94A515982F81E08927882311F096
S113355081E001C080E0882309F458C08A859B85F6
S113356025E0FC0122835AC18C819D81892B31F491
S11335708A859B8527E0FC01228350C18E819F812F
S1133580892B31F48A859B8528E0FC01228346C17E
S11335908E819F81FC018081813269F08E819F81BF
S11335A0FC0180810E94A515982F81E0892788233A
S11335B011F081E001C080E0882331F08A859B8589
S11335C026E0FC0122832AC18C819D81FC0180813B
S11335D0803299F08C819D81FC0180810E94A51527
S11335E0982F81E08927882341F08C819D81FC01FB
S11335F08081883011F081E001C080E0882331F0BF
S11336008A859B8525E0FC01228308C18B810E9469
S1133610A515882309F444C08C819D81892BF1F080
S11336208C819D81FC0180810E94A515882369F00D
S11336308C819D81FC0180810E94DB15982F81E0A3
S11336408927882311F081E001C080E0882331F0CC
S11336508A859B8525E0FC012283E0C08E819F81C1
S1133660892BF1F08E819F81FC0180810E94A51538
S1133670882369F08E819F81FC0180810E94CC1592
S1133680982F81E08927882311F081E001C080E030
S1133690882331F08A859B8526E0FC012283BEC005
S11336A08B810E94B915882309F4B2C08B810E94D2
S11336B0CC15882309F456C08C819D81892B39F15E
S11336C08C819D81FC0180810E94A515982F81E049
S11336D08927882399F08C819D81FC018081883021
S11336E069F08C819D81FC0180810E94CC15982F0A
S11336F081E08927882311F081E001C080E08823DC
S113370061F08A859B8525E0FC01228387C08A8538
S11337109B8527E0FC01228381C08E819F81892BB8
S113372009F18E819F81FC0180810E949115982F5F
S113373081E08927882369F08E819F81FC01808143
S11337400E94CC15982F81E08927882311F081E00D
S113375001C080E0882331F08A859B8526E0FC0146
S113376022835CC08B810E94DB15882309F450C03E
S11337708C819D81892B09F18C819D81FC01808143
S11337800E949115982F81E08927882369F08C8104
S11337909D81FC0180810E94DB15982F81E089279F
S11337A0882311F081E001C080E0882331F08A850C
S11337B09B8525E0FC01228331C08E819F81892B6A
S11337C009F18E819F81FC0180810E94A515982FAB
S11337D081E08927882369F08E819F81FC018081A3
S11337E00E94DB15982F81E08927882311F081E05E
S11337F001C080E0882361F08A859B8526E0FC0176
S113380022830CC08A859B8528E0FC01228306C0A4
S113381089819A8101969A83898330CE2B960FB63B
S1133820F894DEBF0FBECDBFDF91CF910895CF9343
S1133830DF9300D0CDB7DEB79A83898300000F9061
S11338400F90DF91CF9108950F931F93CF93DF9340
S1133850CDB7DEB7C358D1090FB6F894DEBF0FBE9B
S1133860CDBF9E0120583F4FF90191838083CE0143
S11338708E579F4FFC0171836083CE0108960E948E
S1133880171C1A8219821C821B821E821D82CE0181
S113389080589F4FFC0180819181FC0122813381FA
S11338A08D819E818217930708F000C1CE01805854
S11338B09F4FFC0180819181FC01208131818D81A8
S11338C09E81820F931FFC0180818F838F818823C7
S11338D009F4E6C08F810E94A5158823B1F0CE01BA
S11338E080589F4FFC0180819181FC0120813181AE
S11338F08B819C81AC014F5F5F4F5C834B83820F54
S1133900931F2F81FC012083CBC08F810E94CC1593
S1133910882391F089819A819C012F5F3F4F3A83DC
S113392029839E01285F3F4FBC01C9010E94031EE9
S11339302F81FC012083B4C08F810E94DB15882372
S113394009F446C089819A81892BA9F089819A81D9
S11339509C0121503109CE010896B9010E94031E31
S1133960FC0180810E94CC15982F81E0892788234F
S113397011F081E001C080E0882321F1CE0180585C
S11339809F4FFC0180819181FC01208131818B81D9
S11339909C81AC014F5F5F4F5C834B838901080FAF
S11339A0191F89819A8101979A83898329813A8190
S11339B0CE010896B9010E94031EFC018081F80122
S11339C08083C0CF89819A8101979A83898368C053
S11339D08F810E949115882309F462C089819A819C
S11339E0892B31F189819A819C0121503109CE01C1
S11339F00896B9010E94031EFC0180810E94CC1527
S1133A00982F81E08927882399F089819A819C01E4
S1133A1021503109CE010896B9010E94031EFC0110
S1133A2080816F810E947715882311F081E001C0A5
S1133A3080E0882321F1CE0180589F4FFC018081D2
S1133A409181FC01208131818B819C81AC014F5F8C
S1133A505F4F5C834B838901080F191F89819A8109
S1133A6001979A83898329813A81CE010896B90105
S1133A700E94031EFC018081F8018083AFCF8981FD
S1133A809A819C012F5F3F4F3A8329839E01285FCF
S1133A903F4FBC01C9010E94031E2F81FC012083FA
S1133AA08D819E8101969E838D83F1CE89819A8139
S1133AB0892B21F1CE0180589F4FFC018081918197
S1133AC0FC01208131818B819C81AC014F5F5F4F70
S1133AD05C834B838901080F191F89819A8101979F
S1133AE09A83898329813A81CE010896B9010E947B
S1133AF0031EFC018081F8018083D8CFCE01805859
S1133B009F4FFC01808191812B813C81FC01338397
S1133B102283CE0108960E94F61D0000CD57DF4F88
S1133B200FB6F894DEBF0FBECDBFDF91CF911F91CA
S1133B300F910895CF93DF9300D000D000D0CDB77C
S1133B40DEB79A8389837C836B835E834D838D8107
S1133B509E81FC018281882311F080E03EC02D818A
S1133B603E8189819A81B9010E94D8188D819E81F4
S1133B70FC018281882311F080E02FC04D815E8199
S1133B802B813C8189819A81B9010E94BF198D8161
S1133B909E81FC018281882311F080E01EC02D816A
S1133BA03E818B819C81B9010E942E1A8D819E8158
S1133BB0FC018281882311F080E00FC02D813E81B9
S1133BC08B819C81B9010E94241C8D819E81FC0102
S1133BD0928181E0992309F080E026960FB6F8944B
S1133BE0DEBF0FBECDBFDF91CF910895CF93DF939A
S1133BF000D0CDB7DEB79A83898300000F900F9071
S1133C00DF91CF910895CF93DF9300D000D0CDB74B
S1133C10DEB79A8389837C836B8329813A818B8184
S1133C209C81820F931F0F900F900F900F90DF9144
S1133C30CF910895CF93DF9300D0CDB7DEB79A83A9
S1133C40898389819A81892B29F48BE792E00E94E8
S1133C50C5275FC08EE792E00E94C52789819A81BB
S1133C600E9413288EEE92E00E94C52789819A81D2
S1133C70CC01A0E0B0E041E050E026E030E0841B5D
S1133C80950B2817390708F443C084589F4FFC014B
S1133C900C94642C86E692E00E94C52786E892E0A4
S1133CA00E94C5278BE692E00E94C52732C086E6B3
S1133CB092E00E94C5278EE892E00E94C5278BE619
S1133CC092E00E94C52725C086E692E00E94C5279F
S1133CD085E992E00E94C5278BE692E00E94C52701
S1133CE018C086E692E00E94C5278CE992E00E9403
S1133CF0C5278BE692E00E94C5270BC082EA92E0BA
S1133D000E94C52706C080EC92E00E94C52701C02E
S1133D1000000E94A52701C000000F900F90DF91C2
S1133D20CF910895CF93DF9300D000D0CDB7DEB705
S1133D309A8389837C836B8384E20E9460278981D0
S1133D409A810E94132882E692E00E94C5278B8103
S1133D509C810E9413280E94A52700000F900F90B9
S1133D600F900F90DF91CF910895CF93DF93CDB74C
S1133D70DEB7C558D1090FB6F894DEBF0FBECDBF6C
S1133D801D8281E08E831F82CE0105960E94020867
S1133D908D81882F90E0BC0184E690E00E94921E01
S1133DA08E81882F90E0BC0185E690E00E94921EEF
S1133DB088EC90E09A8389831B828B818830B0F5EC
S1133DC086E488878AE089871A861B86CE0108964E
S1133DD06B810E943E088885482F50E089819A8132
S1133DE09C012F5F3F4F3A832983BA010E94921EA0
S1133DF08985482F50E089819A819C012F5F3F4F2C
S1133E003A832983BA010E94921E8A85282F30E0C2
S1133E1089819A81B9010E94921E89819A810896AA
S1133E209A8389838B818F5F8B83C7CF8CE291E0E8
S1133E309A8389831C828C818830A0F581E08C87E9
S1133E401D86CE010C966C810E9487088C85482FB4
S1133E5050E089819A819C012F5F3F4F3A832983E7
S1133E60BA010E94921ECE010E966C810E94CC086B
S1133E7084E20E94602789819A810E94132882E645
S1133E8092E00E94C527CE010E960E947F270E94D1
S1133E90A52789819A8109969A8389838C818F5F6A
S1133EA08C83C9CF80E090E00E941A1E0000CB579B
S1133EB0DF4F0FB6F894DEBF0FBECDBFDF91CF91B9
S1133EC00895CF93DF93CDB7DEB729970FB6F89453
S1133ED0DEBF0FBECDBF0E94F111982F81E089276C
S1133EE0882311F00E9407120E94FA110E940712FF
S1133EF0CE0102960E943B12198289818830A0F477
S1133F008981882F90E09E012E5F3F4F820F931F7F
S1133F10FC0180810E94F32780E091E00E947F27CA
S1133F2089818F5F8983E9CF0E94A52700002996A4
S1133F300FB6F894DEBF0FBECDBFDF91CF910895C9
S1133F40CF93DF9300D000D0CDB7DEB782EF92E0FD
S1133F500E94C52782E00E94B12784EC91E00E9470
S1133F60C52784E20E9460278AEC91E00E94C5275D
S1133F7086ED91E00E94C5270E94A52784EC91E07C
S1133F800E94C52783E50E9460278AEC91E00E9485
S1133F90C52781E093E00E94C52786ED91E00E9449
S1133FA0C5270E94A52784EC91E00E94C52789E4D7
S1133FB00E9460278AEC91E00E94C52789E093E083
S1133FC00E94C52786ED91E00E94C5270E94A5277F
S1133FD084EC91E00E94C5278FE40E9460278AEC5C
S1133FE091E00E94C52780E193E00E94C52786EDF9
S1133FF091E00E94C5270E94A52784EC91E00E94CD
S1134000C52785E40E9460278AEC91E00E94C527B9
S113401088E193E00E94C52786ED91E00E94C527C0
S113402082E00E94B12784E293E00E94C5270E94A7
S1134030A52787E393E00E94C52782E00E94B12769
S113404088E493E00E94C5270E94A52784E693E0B4
S11340500E94C52782E00E94B12788EC90E09A83F1
S113406089831B828B81883008F05FC082E00E94C4
S1134070B12784E20E94602789819A819C012F5F85
S11340803F4F3A8329830E9413288AEE91E00E94CD
S1134090C5278B818F5B0E9460278FEF91E00E9480
S11340A0C52783E492E00E94C5270E94A52784E2E5
S11340B00E94602789819A819C012F5F3F4F3A8338
S11340C029830E9413288AEE91E00E94C5278B81E0
S11340D08F5B0E9460278CE092E00E94C52783E4F6
S11340E092E00E94C5270E94A52784E20E946027CF
S11340F089819A810E9413288AEE91E00E94C52743
S11341008B818F5B0E9460278AE192E00E94C52721
S11341108EE392E00E94C52789819A8108969A834A
S113412089838B818F5F8B839DCF0E94A5278CE22F
S113413091E09A8389831C828C81883008F046C080
S113414082E00E94B12784E20E94602789819A81DB
S11341509C012F5F3F4F3A8329830E94132884EFE9
S113416091E00E94C5278C818F5B0E94602786E2C4
S113417092E00E94C5278EE392E00E94C5270E9428
S1134180A52784E20E94602789819A819C012F5F80
S11341903F4F3A8329830E94132884EF91E00E94C1
S11341A0C5278C818F5B0E94602780E392E00E9488
S11341B0C5278AE492E00E94C52789819A810896DE
S11341C09A8389838C818F5F8C83B6CF0E94A527C5
S11341D080E090E00E941A1E00000F900F900F9054
S11341E00F90DF91CF910895CF93DF93CDB7DEB7D2
S11341F02C970FB6F894DEBF0FBECDBF9E838D8380
S113420078876F835A8749873C872B878D819E8166
S11342100E9416270E9449299A83898389819A8159
S1134220892B41F089819A810E947428882311F096
S113423081E001C080E0882311F189819A8101968F
S11342400E948D2C9C838B838B819C819923BCF051
S11342502B813C8189859A852817390780F02B8129
S11342603C818B859C858217930748F02B813C8188
S11342708F819885FC013183208381E005C084E02F
S113428090E00E941A1E80E02C960FB6F894DEBFD0
S11342900FBECDBFDF91CF910895CF93DF9300D0B0
S11342A000D000D0CDB7DEB79E838D838D819E81F3
S11342B00E94252701969A8389831C821B82898107
S11342C09A819C012F5F3F4F3A832983FC018081AF
S11342D00E94ED28882331F08B819C8101969C8378
S11342E08B83EDCF8B819C8126960FB6F894DEBF2D
S11342F00FBECDBFDF91CF910895CF93DF93CDB79C
S1134300DEB72A970FB6F894DEBF0FBECDBF9887ED
S11343108F837A8769878F8198850E944D2121E058
S1134320039709F020E0222309F443C08F81988584
S11343300E94252701960E948D2C9A838983898166
S11343409A8118161906ACF51B821C821D821E82E6
S113435029813A8189859A85A901481B590BCA018B
S11343609C01ADECBCEC0E946A2C969587959695C1
S11343708795969587958B8389819A812AE030E089
S1134380B9010E94502C8C838F8198850E94162736
S11343904DE363E070E00E948D2821E0019609F46A
S11343A020E02D8381E08E838B819C81AD81BE8151
S11343B003C080E090E0DC01BC01CD012A960FB679
S11343C0F894DEBF0FBECDBFDF91CF910895CF9398
S11343D0DF93CDB7DEB729970FB6F894DEBF0FBED3
S11343E0CDBF9F838E8379876887198281E08A8312
S11343F01B82CE0101960E9402088E819F81FC01DE
S113440082818823F9F01D821C82BE016C5F7F4F7C
S11344108885998521E030E040E050E00E94F42056
S11344208823E9F08C819D8121E0019709F020E047
S11344302983CE0101960E946E0980E090E00E94DB
S11344401A1E0DC08981882319F081E090E002C012
S113445080E090E0BC0184E690E00E94921E00009F
S113446029960FB6F894DEBF0FBECDBFDF91CF9172
S11344700895CF93DF93CDB7DEB729970FB6F8949D
S1134480DEBF0FBECDBF9F838E8379876887198275
S113449081E08A831B82CE0101960E9402088E81EC
S11344A09F81FC0182818823F9F01D821C82BE0158
S11344B06C5F7F4F8885998521E030E040E050E0D3
S11344C00E94F4208823E9F08C819D8121E00197EA
S11344D009F020E02A83CE0101960E946E0980E053
S11344E090E00E941A1E0DC08A81882319F081E091
S11344F090E002C080E090E0BC0185E690E00E947C
S1134500921E000029960FB6F894DEBF0FBECDBFF1
S1134510DF91CF910895CF93DF93CDB7DEB72A977C
S11345200FB6F894DEBF0FBECDBF98878F837A870E
S1134530698786E489838AE08A831B821C828F814F
S11345409885FC018081682FCE0101960E943E0867
S11345508F819885FC018281882301F11E821D824E
S1134560BE016B5F7F4F89859A8524E630E040E089
S113457050E00E94F420882389F18D819E818983F3
S11345808F819885FC018081682FCE0101960E945D
S1134590950980E090E00E941A1E20C08981482F6E
S11345A050E08F819885FC018081882F90E0880FEE
S11345B0991F9C01220F331F220F331F820F931F59
S11345C09C0128533F4F8F819885FC018181882F5E
S11345D090E0820F931FBA010E94921E00002A9657
S11345E00FB6F894DEBF0FBECDBFDF91CF91089513
S11345F0CF93DF93CDB7DEB72A970FB6F894DEBF1B
S11346000FBECDBF98878F837A87698786E48983B5
S11346108AE08A831B821C828F819885FC018081B9
S1134620682FCE0101960E943E088F819885FC0177
S11346308281882301F11E821D82BE016B5F7F4F40
S113464089859A8524E630E040E050E00E94F42019
S1134650882389F18D819E818A838F819885FC01CD
S11346608081682FCE0101960E94950980E090E038
S11346700E941A1E20C08A81482F50E08F8198859D
S1134680FC018081882F90E0880F991F9C01220FE4
S1134690331F220F331F820F931F9C0128533F4F58
S11346A08F819885FC018181882F90E0820F931F70
S11346B0BA010E94921E00002A960FB6F894DEBF3B
S11346C00FBECDBFDF91CF910895CF93DF93CDB7C8
S11346D0DEB72A970FB6F894DEBF0FBECDBF98871A
S11346E08F837A87698786E489838AE08A831B8239
S11346F01C828F819885FC018081682FCE010196F0
S11347000E943E088F819885FC018281882321F1D3
S11347101E821D82BE016B5F7F4F89859A8521E0D1
S113472030E040E050E00E94F4208823D1F18D81F4
S11347309E8121E0019709F020E02B838F819885E9
S1134740FC018081682FCE0101960E94950980E0CA
S113475090E00E941A1E25C08B81882319F041E045
S113476050E002C040E050E08F819885FC018081D8
S1134770882F90E0880F991F9C01220F331F220F6E
S1134780331F820F931F9C0128533F4F8F819885BD
S1134790FC018181882F90E0820F931FBA010E944F
S11347A0921E00002A960FB6F894DEBF0FBECDBF4E
S11347B0DF91CF910895CF93DF93CDB7DEB72897DC
S11347C00FB6F894DEBF0FBECDBF9E838D8378876E
S11347D06F8381E089831A828D819E81FC018081AF
S11347E0682FCE0101960E9487088D819E81FC016D
S11347F08281882321F11C821B82BE016D5F7F4F61
S11348008F81988521E030E040E050E00E94F42060
S11348108823D1F18B819C8121E0019709F020E06C
S113482029838D819E81FC018081682FCE010196B0
S11348300E94C70980E090E00E941A1E25C0898169
S1134840882319F041E050E002C040E050E08D813F
S11348509E81FC018081882F90E0880F991F9C0124
S1134860220F331F220F331F820F931F9C01245DDD
S11348703E4F8D819E81FC018181882F90E0820FC3
S1134880931FBA010E94921E000028960FB6F89456
S1134890DEBF0FBECDBFDF91CF910895CF93DF93DD
S11348A0CDB7DEB7C558D1090FB6F894DEBF0FBE39
S11348B0CDBF9E012E573F4FF90191838083CE01D6
S11348C08C579F4FFC0171836083CE018E579F4F9D
S11348D0FC0180819181FC018281882309F455C007
S11348E0CE018C579F4FFC01808191810E94162735
S11348F06DE30E944D2801969A8389831C821B8252
S11349001E821D82CE010A969C838B8318861F8289
S11349101986AE01495F5F4F9E012D5F3F4F89812C
S11349209A81B9010E949A1D8985882391F4CE0148
S11349308E579F4FFC0180819181FC0120818981E8
S11349409A81622F0E94FC0980E090E00E941A1E66
S11349502FC087E090E00E941A1E89850E94EA1504
S11349600E94C52787EE92E00E94C5278F81988513
S11349700E94132882E091E00E947F2789819A8116
S11349800E947F270E94A52713C0CE018E579F4FF8
S1134990FC0180819181FC012081CE010A96622F65
S11349A00E94CC08CE010A960E947F270E94A52768
S11349B00000CB57DF4F0FB6F894DEBF0FBECDBF5C
S11349C0DF91CF910895CF93DF93CDB7DEB70E94E7
S11349D0AF0A0E944C14CF93DF93CDB7DEB70E9489
S11349E0D20A0E944C14CF93DF93CDB7DEB70E9456
S11349F0D20A0E944C14CF93DF93CDB7DEB70E9446
S1134A00AF0A0E944C14CF93DF93CDB7DEB70E9458
S1134A109A0A0E94AF0A0E94D20A0E94EF0A0E94D8
S1134A204C14CF93DF9300D0CDB7DEB79A8389833C
S1134A300E94B51E00000F900F90DF91CF91089552
S1134A40CF93DF9300D0CDB7DEB79A8389830E94DA
S1134A50611F00000F900F90DF91CF910895CF93C5
S1134A60DF9300D000D000D0CDB7DEB79E838D8316
S1134A708D819E810E94342721E0069709F420E06D
S1134A80222329F081E090E00E941A1E73C019824B
S1134A908981853050F58D819E810E9425279C0156
S1134AA08981882F90E0820F931FFC0140812AE7BF
S1134AB033E08981882F90E0820F931F9B838A8340
S1134AC08A819B81FC0184918C839C8181E04917BC
S1134AD009F480E0882329F081E090E00E941A1E06
S1134AE049C089818F5F8983D3CF8D819E810E9444
S1134AF025270596FC018081882F90E08934910553
S1134B00F9F08A3491053CF48432910559F08534E6
S1134B10910521F12AC08F349105C9F0833591059F
S1134B2041F023C00E94032580E090E00E941A1EF9
S1134B3021C00E94FB2480E090E00E941A1E1AC04B
S1134B400E94E32480E090E00E941A1E13C00E9499
S1134B50EB2480E090E00E941A1E0CC00E94F32413
S1134B6080E090E00E941A1E05C084E090E00E945C
S1134B701A1E000026960FB6F894DEBF0FBECDBFF6
S1134B80DF91CF910895CF93DF9300D000D000D070
S1134B90CDB7DEB79E838D838D819E8164E670E000
S1134BA00E947D21DC01CB0189839A83AB83BC8382
S1134BB08C81882329F189818823E9F48A81882FCB
S1134BC090E0009719F0019749F010C08D819E8103
S1134BD0BC01CE0101960E94E72116C08D819E8101
S1134BE0BC01CE0101960E9439220EC083E090E000
S1134BF00E941A1E09C082E090E00E941A1E04C09E
S1134C0081E090E00E941A1E26960FB6F894DEBF4B
S1134C100FBECDBFDF91CF910895CF93DF9300D026
S1134C2000D000D0CDB7DEB79E838D838D819E8169
S1134C3068EC70E00E947D21DC01CB0189839A83BA
S1134C40AB83BC838C81882381F18981883040F5D2
S1134C508A81882F90E08130910569F08230910536
S1134C6091F0892BC1F48D819E81BC01CE01019606
S1134C700E948B221EC08D819E81BC01CE010196B3
S1134C800E94F82216C08D819E81BC01CE0101963E
S1134C900E9465230EC083E090E00E941A1E09C0A2
S1134CA082E090E00E941A1E04C081E090E00E941D
S1134CB01A1E26960FB6F894DEBF0FBECDBFDF9145
S1134CC0CF910895CF93DF9300D000D000D0CDB71B
S1134CD0DEB79E838D838D819E816CE271E00E949C
S1134CE07D21DC01CB0189839A83AB83BC838C81D6
S1134CF0882329F189818830E8F48A81882F90E01B
S1134D00009719F0019749F010C08D819E81BC0174
S1134D10CE0101960E94DB2316C08D819E81BC01C9
S1134D20CE0101960E944E240EC083E090E00E94C2
S1134D301A1E09C082E090E00E941A1E04C081E09D
S1134D4090E00E941A1E26960FB6F894DEBF0FBE9E
S1134D50CDBFDF91CF910895CF93DF9300D000D0E2
S1134D60CDB7DEB79C838B838B819C810E942527E2
S1134D709A83898389819A819C012F5F3F4F3A836B
S1134D802983FC01908181E0943209F080E088233A
S1134D9009F444C089819A81FC018081882F90E0C4
S1134DA082339105D1F0833391054CF4843291051B
S1134DB0F1F08133910561F0892B41F12AC08235EC
S1134DC09105F9F083359105B9F0C39759F021C0E5
S1134DD08B819C810E94C32521C08B819C810E9470
S1134DE00D261CC08B819C810E94622617C08B817A
S1134DF09C810E94112512C08B819C810E942025D8
S1134E000DC08B819C810E942F2508C00E94A01F89
S1134E1005C081E090E00E941A1E000000000F907F
S1134E200F900F900F90DF91CF910895CF93DF9360
S1134E3000D0CDB7DEB79A83898389819A8102969F
S1134E400F900F90DF91CF910895CF93DF9300D00F
S1134E50CDB7DEB79A83898389819A8102960F90B0
S1134E600F90DF91CF910895CF93DF9300D0CDB70A
S1134E70DEB79A83898389819A81FC01808191813B
S1134E800F900F90DF91CF910895CF93DF93CDB71B
S1134E90DEB785EC90E0FC01108284EC90E029E020
S1134EA0FC01208381EC90E028E1FC01208382EC6A
S1134EB090E026E0FC0120830000DF91CF9108956B
S1134EC0CF93DF931F92CDB7DEB7898380EC90E058
S1134ED0FC018081882F90E08072992721E0892B42
S1134EE009F020E0222309F0F1CF86EC90E029813B
S1134EF0FC01208300000F90DF91CF910895CF93A0
S1134F00DF9300D000D0CDB7DEB79C838B838B8139
S1134F109C819A83898389819A81FC018081882379
S1134F2061F089819A81FC0180810E9460278981D6
S1134F309A8101969A838983EECF00000F900F9097
S1134F400F900F90DF91CF910895CF93DF93CDB75A
S1134F50DEB780E893E00E94C5270000DF91CF917F
S1134F600895CF93DF931F92CDB7DEB789838981EC
S1134F70882331F00E94A527898181508983F7CF46
S1134F8000000F90DF91CF910895CF93DF9300D06D
S1134F9000D000D0CDB7DEB79E838D838D819E81F6
S1134FA09A83898389819A81FC0184918B838B8183
S1134FB08C8381E09C81992309F480E0882349F063
S1134FC08C810E9460278D819E8101969E838D83B2
S1134FD0E5CF000026960FB6F894DEBF0FBECDBF16
S1134FE0DF91CF910895CF93DF9300D000D01F922B
S1134FF0CDB7DEB78D838D81882F90E04AE050E0F5
S11350009E012F5F3F4FB9010E94B32CCE01019640
S11350100E947F2700000F900F900F900F900F9029
S1135020DF91CF910895CF93DF93CDB7DEB7299762
S11350300FB6F894DEBF0FBECDBF998788878885E9
S113504099854AE050E09E012F5F3F4FB9010E94CD
S1135050B32CCE0101960E947F27000029960FB63B
S1135060F894DEBF0FBECDBFDF91CF910895CF93EB
S1135070DF93CDB7DEB780EC90E0FC0180818095B2
S1135080881F8827881F882309F0F5CF86EC90E0D5
S1135090FC018081DF91CF910895CF93DF9300D0FD
S11350A01F92CDB7DEB79A8389836B8389819A81F6
S11350B0FC018081882381F089819A81FC0190819F
S11350C08B81981719F489819A8108C089819A8102
S11350D001969A838983EACF80E090E00F900F9045
S11350E00F90DF91CF910895CF93DF9300D0CDB788
S11350F0DEB79A83898389819A81FC018081882320
S113510011F480E005C089819A810196FC018081B7
S11351100F900F90DF91CF910895CF93DF9300D03C
S113512000D01F92CDB7DEB79A8389837C836B83CB
S11351304D838B819C8129813A81820F931FFC01CD
S113514080818823A1F08B819C8129813A81820FFF
S1135150931FFC0190818D81981719F48B819C8198
S113516008C08B819C8101969C838B83E2CF8FEF57
S11351709FEF0F900F900F900F900F90DF91CF91B2
S11351800895CF93DF931F92CDB7DEB789838981CA
S1135190813618F089818B3730F08981813428F089
S11351A089818B3510F481E001C080E00F90DF919C
S11351B0CF910895CF93DF931F92CDB7DEB7898344
S11351C08981803219F08981893011F481E001C02C
S11351D080E00F90DF91CF910895CF93DF931F92DA
S11351E0CDB7DEB789838981803328F089818A33FA
S11351F010F481E001C080E00F90DF91CF91089519
S1135200CF93DF9300D000D0CDB7DEB79C838B83E0
S11352101A8219822B813C8189819A81820F931F82
S1135220FC018081882331F089819A8101969A83D7
S11352308983F0CF89819A810F900F900F900F90FE
S1135240DF91CF910895CF93DF9300D0CDB7DEB730
S11352509A83898389819A81FC0180819181FC01EF
S113526080810E94DA28882371F089819A81FC0167
S1135270808191819C012F5F3F4F89819A81FC013C
S113528031832083E7CF00000F900F90DF91CF91FF
S11352900895CF93DF9300D0CDB7DEB79A83898387
S11352A089819A81FC018081882369F089819A81AE
S11352B0FC0180810E94ED28982F81E089278823B2
S11352C011F081E001C080E0882331F089819A8166
S11352D001969A838983E4CF89819A810F900F90F4
S11352E0DF91CF910895CF93DF9300D000D01F9228
S11352F0CDB7DEB79C838B836D838B819C81FC014E
S1135300928181E08927882309F447C08B819C819D
S1135310FC0121818B819C81FC018081821760F0DA
S11353208B819C81FC0120818B819C81FC0181818A
S1135330F22FF81B8F2F01C080E089838B819C8121
S1135340FC01938181E08927882391F08B819C81E2
S1135350FC0190818D81891758F08B819C8121E01B
S1135360FC0123838B819C8121E0FC01248355C0B3
S11353708B819C81FC018381882309F44EC09D812B
S11353808981891708F449C08B819C81FC011382AF
S11353908B819C81FC01148240C08B819C81FC0127
S11353A08181282F30E08B819C81FC018081882FB2
S11353B090E0820F931F8536910514F084E690E007
S11353C08A838B819C81FC01938181E089278823D6
S11353D091F08B819C81FC0190818D81981758F00C
S11353E08B819C8121E0FC0123838B819C8121E0C2
S11353F0FC01248312C08B819C81FC01838188235E
S113540061F09D818A81981740F08B819C81FC0119
S113541013828B819C81FC0114828B819C81FC0111
S113542084810F900F900F900F900F90DF91CF9188
S113543008955058BB27AA270E94312A0C94A42B04
S11354400E94962B38F00E949D2B20F039F49F3F48
S113545019F426F40C94932B0EF4E095E7FB0C94CA
S11354608D2BE92F0E94B52B58F3BA1762077307E7
S11354708407950720F079F4A6F50C94D72B0EF445
S1135480E0950B2EBA2FA02D0B01B90190010C0150
S1135490CA01A0011124FF27591B99F0593F50F468
S11354A0503E68F11A16F040A22F232F342F4427C0
S11354B0585FF3CF469537952795A795F0405395B8
S11354C0C9F77EF41F16BA0B620B730B840BBAF088
S11354D09150A1F0FF0FBB1F661F771F881FC2F7F3
S11354E00EC0BA0F621F731F841F48F48795779507
S11354F06795B795F7959E3F08F0B0CF9395880FC1
S113550008F09927EE0F9795879508950E94692BC7
S113551008F481E008950E949F2A0C94A42B0E9411
S11355209D2B58F00E94962B40F029F45F3F29F000
S11355300C948D2B51110C94D82B0C94932B0E940A
S1135540B52B68F39923B1F3552391F3951B550BB0
S1135550BB27AA2762177307840738F09F5F5F4F42
S1135560220F331F441FAA1FA9F335D00E2E3AF081
S1135570E0E832D091505040E695001CCAF72BD099
S1135580FE2F29D0660F771F881FBB1F26173707EA
S11355904807AB07B0E809F0BB0B802DBF01FF271C
S11355A093585F4F3AF09E3F510578F00C948D2B41
S11355B00C94D82B5F3FE4F3983ED4F3869577950B
S11355C06795B795F7959F5FC9F7880F911D9695D5
S11355D0879597F90895E1E0660F771F881FBB1F31
S11355E0621773078407BA0720F0621B730B840BDE
S11355F0BA0BEE1F88F7E09508950E94BD2B88F042
S11356009F5798F0B92F9927B751B0F0E1F0660F82
S1135610771F881F991F1AF0BA95C9F714C0B130C3
S113562091F00E94D72BB1E008950C94D72B672FEB
S1135630782F8827B85F39F0B93FCCF386957795F2
S11356406795B395D9F73EF49095809570956195DB
S11356507F4F8F4F9F4F0895E89409C097FB3EF406
S113566090958095709561957F4F8F4F9F4F9923AB
S1135670A9F0F92F96E9BB279395F6958795779529
S11356806795B795F111F8CFFAF4BB0F11F460FFE9
S11356901BC06F5F7F4F8F4F9F4F16C0882311F041
S11356A096E911C0772321F09EE8872F762F05C055
S11356B0662371F096E8862F70E060E02AF09A95F0
S11356C0660F771F881FDAF7880F9695879597F9E5
S11356D00895990F0008550FAA0BE0E8FEEF16167F
S11356E01706E807F907C0F012161306E407F507D2
S11356F098F0621B730B840B950B39F40A2661F046
S1135700232B242B252B21F408950A2609F4A140E8
S1135710A6958FEF811D811D089597F99F6780E8F5
S113572070E060E008959FEF80EC089500240A94EF
S11357301616170618060906089500240A94121668
S11357401306140605060895092E0394000C11F49B
S1135750882352F0BB0F40F4BF2B11F460FF04C048
S11357606F5F7F4F8F4F9F4F089557FD9058440FA1
S1135770551F59F05F3F71F04795880F97FB991FAC
S113578061F09F3F79F08795089512161306140669
S1135790551FF2CF4695F1DF08C0161617061806F6
S11357A0991FF1CF86957105610508940895E894D1
S11357B0BB2766277727CB0197F908950E94692BA9
S11357C008F48FEF08950E94F62B0C94A42B0E94EA
S11357D0962B38F00E949D2B20F0952311F00C9409
S11357E08D2B0C94932B11240C94D82B0E94B52B45
S11357F070F3959FC1F3950F50E0551F629FF00120
S1135800729FBB27F00DB11D639FAA27F00DB11D38
S1135810AA1F649F6627B00DA11D661F829F2227C1
S1135820B00DA11D621F739FB00DA11D621F839F48
S1135830A00D611D221F749F3327A00D611D231F1E
S1135840849F600D211D822F762F6A2F11249F576C
S113585050409AF0F1F088234AF0EE0FFF1FBB1F6F
S1135860661F771F881F91505040A9F79E3F51052E
S113587080F00C948D2B0C94D82B5F3FE4F3983E6E
S1135880D4F3869577956795B795F795E7959F5FD8
S1135890C1F7FE2B880F911D9695879597F908956A
S11358A097FB072E16F4009407D077FD09D00E94C9
S11358B0792C07FC05D03EF4909581959F4F08956F
S11358C0709561957F4F0895EE0FFF1F0590F49139
S11358D0E02D0994A29FB001B39FC001A39F700D56
S11358E0811D1124911DB29F700D811D1124911DE4
S11358F00895AA1BBB1B51E107C0AA1FBB1FA61713
S1135900B70710F0A61BB70B881F991F5A95A9F764
S113591080959095BC01CD010895FC0188279927B5
S1135920E89421912032E9F3293010F02E30C8F3A5
S11359302B3241F02D3239F4689404C00E94AB2C10
S1135940820F911D219120532A30C0F31EF49095AB
S113595081959F4F08957AE0979F902D879F802D82
S1135960910D112408954532510520F4423010F070
S11359700C94BE2CFB011082CB010895BB27FB01C4
S11359805527AA27880F991FAA1FA41710F0A41B34
S113599083955051B9F7A05DAA3308F0A95DA1938E
S11359A0009779F7B111B1931192CB010C94D82CD3
S11359B0DC01FC01672F71917723E1F7329704C072
S11359C07C916D9370836291AE17BF07C8F30895FD
S11359D0DC01CB01FC01F999FECF06C0F2BDE1BDAB
S11359E0F89A319600B40D9241505040B8F708959A
S11359F0F999FECF92BD81BDF89A992780B5089593
S1135A00DC01A40FB51F4150504048F0CB01840F76
S1135A10951F2E910E94112D41505040D0F70895AA
S1135A20262FF999FECF92BD81BDF89A019700B453
S1135A30021639F01FBA20BD0FB6F894FA9AF99AF3
S10B5A400FBE0895F894FFCF96
S1095A483B00203A20009F
S9030000FC
