S00C000055434E432E73726563EF
S11300000C9414040C9431040C9431040C943104B5
S11300100C9420140C9431040C9431040C94310489
S11300200C9431040C9431040C9431040C94981500
S11300300C9431040C9431040C9431040C94310468
S11300400C9431040C9431040C94672D0C943104F9
S11300500C9431040C9469140C9431040C94310400
S11300600C9431040C9431040C9431040C94310438
S11300700C9431040C9431040C9431040C94310428
S11300800C9431040C94CB160C9431040C9431046C
S11300900C9431040C9431040C9431040C94310408
S11300A00C9431040C9431040C9431040C943104F8
S11300B00C943104041036107910BD10011145114F
S11300C087118912C911E111F91111122912411272
S11300D059127112221A251A281A2B1A2E1A311A99
S11300E0341A371A3A1A3D1A8A1AA21ABA1AD21AA2
S11300F0EA1A021B1A1B321B852292229F22AC226F
S1130100B922BE22C72204070206000501034F6B71
S1130110004D6178206C656E67746820657863654E
S11301206564656400496E76616C6964206F70650E
S113013072616E64004D697373696E6720706172D9
S1130140656E74686573697300496E76616C696481
S11301502063686172616374657200496E76616CD4
S11301606964207268732065787072657373696F4F
S11301706E00496E76616C6964206C6873206578E2
S11301807072657373696F6E004D697373696E671E
S1130190207268732065787072657373696F6E007E
S11301A04D697373696E67206C687320657870722B
S11301B0657373696F6E00456D707479206578702E
S11301C072657373696F6E00245253543D00092D98
S11301D020526573746F7265200064656661756C86
S11301E0747320616E64207265626F6F7400092DF0
S11301F020496E7075742000092D204F7574707538
S1130200742000207468726573686F6C6409280038
S113021020687973746572657369730928002069AD
S11302206E7665727465640928002061637469766A
S1130230650928002065787072657373696F6E09AB
S11302402800312F302900302D313030290024414D
S11302502026202442207C202E2E2E292023636F4A
S11302606D6D656E7400203D20002724272000203A
S11302706E6F7420737570706F727465642E004FA6
S11302804B006572726F723A2000436F6D6D616E40
S11302906400546172676574004F7074696F6E0016
S11302A056616C756500436861726163746572734D
S11302B020706572206C696E65206578636565647D
S11302C065642E00454550524F4D2072656164208F
S11302D06661696C65642E2044656661756C74732F
S11302E020726573746F7265642E00206E6561728E
S11302F0200055434E4320312E34205B27242720F1
S113030068656C703B20272450272072756E5D2031
S11303103A20434F4E4649470055434E4320312E21
S113032034205B2724432720636F6E6669675D2052
S11303303A2052554E00202D200023204374726C25
S11303402D78093A205265736574002320496E7034
S1130350757400232024324E30202D205468726599
S113036073686F6C64093A20302D31303025204990
S11303706E7075742835312529203E3D2035302591
S1130380202D3E205452554500232024324E312046
S11303902D2048797374657265736973093A203046
S11303A02D3130302520496E70757428343025295C
S11303B0203C3D2028353025202B2F2D2031302581
S11303C029202D3E2046414C534500232024324E03
S11303D032202D20496E766572746564093A20498D
S11303E06E7665727420696E7075742F6F706572A5
S11303F0616E6420245B412D485D00232053757099
S1130400706F727465642053656E736F727300232A
S1130410204E432F4E4F20537769746368657320D1
S1130420636F6E6E656374656420746F2031325639
S113043020616E642053454E5345206F722053450E
S11304404E534520616E6420474E44002320426F82
S113045061726420706F7765726564204E504E2F10
S1130460504E50204E4F2F4E432070726F78696D5E
S11304706974792073656E736F72730023204578F5
S1130480616D706C6520537769746368204E430016
S11304902320532D474E443A2024324E303D3235EA
S11304A02024324E313D352024324E32203D20303E
S11304B00023203132562D533A2024324E303D371A
S11304C0352024324E313D352024324E32203D2019
S11304D0310023204578616D706C65205377697411
S11304E06368204E4F002320532D474E443A202466
S11304F0324E303D32352024324E313D35202432C7
S11305004E32203D20310023203132562D533A20E3
S113051024324E303D37352024324E313D352024AF
S1130520324E32203D20300023204578616D706CBE
S1130530652053656E736F72204E504E204E4300FB
S113054023203132562D532D474E443A2024324E27
S1130550303D33352024324E313D352024324E3265
S1130560203D20300023204578616D706C65205358
S1130570656E736F72204E504E204E4F0023203113
S113058032562D532D474E443A2024324E303D33BB
S1130590352024324E313D352024324E32203D2048
S11305A0310023204578616D706C652053656E734E
S11305B06F7220504E50204E430023203132562D6E
S11305C0532D474E443A2024324E303D36352024B4
S11305D0324E313D352024324E32203D203100232D
S11305E0204578616D706C652053656E736F722061
S11305F0504E50204E4F0023203132562D532D475C
S11306004E443A2024324E303D36352024324E3189
S11306103D352024324E32203D20300023204F75BA
S113062074707574002320416374697665206C6F5F
S113063077206F70656E20636F6C6C6563746F7286
S113064000232024334E30202D20416374697665C5
S113065009093A20456E61626C65206469736162C0
S11306606C65206F757470757400232024334E31CB
S1130670202D2045787072657373696F6E093A2076
S11306804F7574707574207472696767657220633E
S11306906F6E646974696F6E0023204578707265AB
S11306A07373696F6E002320436F6D6D656E7409FB
S11306B03A202320746578740023204F706572619A
S11306C06E6473093A2024412024422024432024C8
S11306D04420244520244620244720244800232065
S11306E04F70657261746F7273093A206E6F74286B
S11306F0277E272920616E642827262729206F72E8
S113070028277C272920657128273D2729002320B5
S11307104578616D706C65093A20584F52202D3E22
S1130720202824412026207E244229207C20287E43
S113073024412026202442292023202841206F728E
S1130740206E6F74204229206F7220286E6F7420EF
S11307504120616E642042290023204578616D7038
S11307606C65093A204D756C7469706C6520696E0E
S113077070757473206D617070656420746F206F80
S11307806E65206F7574707574202D3E2033303182
S1130790203D202441207C202442207C202443002E
S11307A073797374656D2000696E70757420006FC1
S11307B07574707574200065787072657373696FF1
S11307C06E20002424092D205669657720736574F2
S11307D074696E6773002453092D20566965772068
S11307E0696E70757420737461747573002431308C
S11307F030092D2053657269616C204F75747075D2
S113080074200928312F30290024313031092D205A
S113081042757A7A657220090928312F302900241B
S11308205253543D000D0A0011241FBECFEFD8E0EF
S1130830DEBFCDBF11E0A0E0B1E0EEE2F5E602C01C
S113084005900D92A630B107D9F721E0A6E0B1E0FA
S113085001C01D92AD31B207E1F70E940E0F0C9456
S113086095320C940000CF93DF9300D0CDB7DEB760
S11308709A83898300000F900F90DF91CF910895A0
S1130880CF93DF93CDB7DEB760970FB6F894DEBF92
S11308900FBECDBF988B8F870E9439228FEF90E0D7
S11308A00E946A1388EC90E00E94BE1580E090E0FC
S11308B0A8ECB2E489839A83AB83BC8320E030E064
S11308C04AE755E469817A818B819C810E94563183
S11308D0DC01CB018D839E83AF83B88720E030E0B9
S11308E040E85FE36D817E818F8198850E94F92FB6
S11308F088232CF481E090E09A8789873EC020E029
S11309003FEF4FE757E46D817E818F8198850E9488
S11309105131181644F520E030E040E251E4698199
S11309207A818B819C810E945631DC01CB01BC0110
S1130930CD010E947030DC01CB019A8789878985BB
S11309409A85892B21F180E991E09C878B878B859F
S11309509C850197F1F79C878B8789859A850197F8
S11309609A878987ECCF6D817E818F8198850E94DB
S11309707030DC01CB019A87898789859A859E87A7
S11309808D878D859E850197F1F79E878D8788ECED
S113099090E00E94BE150E94470E882311F081E06A
S11309A007C00E94370E86E090E00E94552280E046
S11309B060960FB6F894DEBF0FBECDBFDF91CF9126
S11309C00895CF93DF93CDB7DEB7C85ED1090FB6D4
S11309D0F894DEBF0FBECDBF9E0129513F4FF901F0
S11309E091838083CE0103960E943605CE0103963F
S11309F00E9451059A83898389819A818E3FFFEFF2
S1130A009F0719F0019639F008C085E090E00E9434
S1130A10552281E007C080E005C0CE0103960E9404
S1130A20AB2B81E0C851DF4F0FB6F894DEBF0FBE89
S1130A30CDBFDF91CF910895CF93DF9300D0CDB791
S1130A40DEB79A83898381E00F900F90DF91CF9175
S1130A500895CF93DF9300D0CDB7DEB79A8389830F
S1130A6000000F900F90DF91CF910895CF93DF9303
S1130A7000D0CDB7DEB79A83898389819A81FC013E
S1130A801182108289819A8122EE0296FC01322F12
S1130A9011923A95E9F700000F900F90DF91CF91F2
S1130AA00895CF93DF9300D000D01F92CDB7DEB767
S1130AB09D838C831A8219820E94402D8B838B81A3
S1130AC0882F90E08D30910529F08831910529F027
S1130AD00A9731F489819A8112C08FEF9FEF0FC07A
S1130AE08C819D816B810E948705882331F08981E7
S1130AF09A8101969A838983DFCF8EEF9FEF0F90BF
S1130B000F900F900F900F90DF91CF910895CF9396
S1130B10DF9300D01F92CDB7DEB79A8389836B83AE
S1130B2089819A81FC0180819181813E910518F52A
S1130B3089819A81FC0180819181AC014F5F5F4F73
S1130B4029813A81F9015183408329813A81820FB5
S1130B50931F02962B81FC01208389819A81FC01D9
S1130B608081918129813A81820F931F0296FC0131
S1130B70108281E001C080E00F900F900F90DF9110
S1130B80CF910895CF93DF9300D0CDB7DEB79A838A
S1130B90898389819A81FC01108289819A8121E06B
S1130BA0FC01218389819A81FC01128200000F904B
S1130BB00F90DF91CF910895CF93DF9300D0CDB7FD
S1130BC0DEB79A83898389819A810E94C2058981CB
S1130BD09A818D5F9E4F28E2FC01322F11923A9543
S1130BE0E9F700000F900F90DF91CF910895CF9314
S1130BF0DF93CDB7DEB76E970FB6F894DEBF0FBEA6
S1130C00CDBF9E8F8D8F0E944F140E94562D0E943F
S1130C10F21786E990E00E94BE1580E090E0A6E11C
S1130C20B3E489839A83AB83BC8320E030E04AE752
S1130C3055E469817A818B819C810E945631DC0163
S1130C40CB018B8B9C8BAD8BBE8B20E030E040E8DE
S1130C505FE36B897C898D899E890E94F92F8823A3
S1130C602CF481E090E0988F8F8B3EC020E03FEF22
S1130C704FE757E46B897C898D899E890E945131A5
S1130C80181644F520E030E040E251E469817A81AD
S1130C908B819C810E945631DC01CB01BC01CD01CA
S1130CA00E947030DC01CB01988F8F8B8F89988DD7
S1130CB0892B21F180E991E09A8F898F898D9A8D12
S1130CC00197F1F79A8F898F8F89988D0197988F63
S1130CD08F8BECCF6B897C898D899E890E947030C3
S1130CE0DC01CB01988F8F8B8F89988D9C8F8B8F94
S1130CF08B8D9C8D0197F1F79C8F8B8F0E9403182D
S1130D0080E090E0AAEFB3E48D839E83AF83B8873D
S1130D1020E030E04AE755E46D817E818F8198853B
S1130D200E945631DC01CB0189879A87AB87BC8747
S1130D3020E030E040E85FE369857A858B859C8517
S1130D400E94F92F88232CF481E090E09E878D8700
S1130D503FC020E03FEF4FE757E469857A858B85F4
S1130D609C850E94513118164CF520E030E040E299
S1130D7051E46D817E818F8198850E945631DC011A
S1130D80CB01BC01CD010E947030DC01CB019E87F8
S1130D908D878D859E85892B09F439CF80E991E073
S1130DA0988B8F878F8598890197F1F7988B8F8718
S1130DB08D859E8501979E878D87EBCF69857A8582
S1130DC08B859C850E947030DC01CB019E878D87CA
S1130DD08D859E859A8B898B89899A890197F1F7EC
S1130DE09A8B898B14CFCF93DF93CDB7DEB7C450E2
S1130DF0D1400FB6F894DEBF0FBECDBF9E012D5F6C
S1130E003E4FF901918380830E94472284EF91E051
S1130E100E94BE1580E09FEF0E946A130E94470E55
S1130E20882309F461C0CE018D5F9E4FFC0180814F
S1130E3091810E94140B19828981883008F054C072
S1130E4086E48D838AE08E831F821886CE01059600
S1130E5069810E94500B8981282F30E06D81CE0179
S1130E608D5F9E4FFC0140815181C901880F991FFC
S1130E70880F991F820F931F840F951F8D5F9E4FBC
S1130E80FC0160838981282F30E06E81CE018D5F63
S1130E909E4FFC0140815181C901880F991F880F21
S1130EA0991F820F931F840F951F8C5F9E4FFC0127
S1130EB060838981282F30E06F81CE018D5F9E4F42
S1130EC0FC0140815181C901880F991F880F991F26
S1130ED0820F931F840F951F8B5F9E4FFC016083CD
S1130EE089818F5F8983A8CF1A828A81883008F02C
S1130EF0EDC08A81882F90E00196982F88270E9460
S1130F006A1381E089871A86CE0109966A810E9454
S1130F10990B1C861B861E861D86CE0143969C87D4
S1130F208B87CE0185579F4F6A810E94DE0B188AFA
S1130F301F86198AAE01415F5F4F9E01255F3F4FB7
S1130F40CE0185579F4FB9010E94B9218989882311
S1130F5009F0B0C01C821B828B819C818F3F91055C
S1130F6011F008F0AFC08A81882F90E00196982F85
S1130F7088279C018B819C81822B932B0E946A136E
S1130F808985882309F468C08B818A8B9E012E5E33
S1130F903F4FCE010B96B9010E94B00F803459F136
S1130FA0813409F051C0CE018D5F9E4FFC01208138
S1130FB031818B819C81820F931F0396FC01808178
S1130FC0482F8A81282F30E080E890E002C0959570
S1130FD087952A95E2F7842B482FCE018D5F9E4F8B
S1130FE0FC01208131818B819C81820F931F0396A8
S1130FF0FC01408359C0CE018D5F9E4FFC012081CE
S113100031818B819C81820F931F0396FC01808127
S1131010482F8A81282F30E080E890E002C095951F
S113102087952A95E2F780958423482FCE018D5F1A
S11310309E4FFC01208131818B819C81820F931F03
S11310400396FC01408330C0CE018D5F9E4FFC01AE
S1131050808191810E94F705CE018D5F9E4FFC0136
S1131060208131818B819C81820F931F0396FC0127
S11310708081482F8A81282F30E080E890E002C0E8
S1131080959587952A95E2F780958423482FCE017C
S11310908D5F9E4FFC01208131818B819C81820F69
S11310A0931F0396FC0140838B819C8101969C8352
S11310B08B8352CFCE018D5F9E4FFC018081918145
S11310C00E94F7058A818F5F8A830FCF0E944F1495
S11310D00E94562D8FEF9FEF0E946A1381E0CC5F30
S11310E0DE4F0FB6F894DEBF0FBECDBFDF91CF91B8
S11310F00895CF93DF93CDB7DEB767970FB6F89413
S1131100DEBF0FBECDBF9F8B8E8B28E0CE0106962F
S1131110FC01322F11923A95E9F728E0CE010E96A0
S1131120FC01322F11923A95E9F78FEF8E871982DD
S11311308FEF8A831B820E9439150E942C15CE01E1
S113114006960E946D150E9439151B821C828C81A3
S1131150883008F076C08C81882F90E09E012A5F49
S11311603F4F820F931FFC0140818C81882F90E0B8
S11311709E01225F3F4F820F931FFC01808148171D
S113118009F45BC08C81882F90E02C81222F30E001
S1131190AE014A5F5F4F240F351FF90140819E0164
S11311A0225F3F4F820F931FFC01408381E08B83BA
S11311B08C81882F90E09E012A5F3F4F820F931FFE
S11311C0FC0140818C81282F30E0C901880F991FD0
S11311D0880F991F820F931F8D5F9E4F2E893F8921
S11311E0820F931F642F0E94E62E882399F08C812E
S11311F0882F90E027E030E0281B390B81E090E055
S113120002C0880F991F2A95E2F7982F8981892BAC
S1131210898313C08C81882F90E027E030E0281B5D
S1131220390B81E090E002C0880F991F2A95E2F7FC
S1131230982F90958981892389838C818F5F8C83F2
S113124086CF99818A81981791F189818A838981CE
S1131250882F90E02E893F89820F931F0396FC010B
S113126080810E94C6138981882F90E0982F882757
S1131270AC018981882F90E02E893F89820F931FCA
S11312800396FC018081882F90E0842B952B0E948B
S11312906A138E899F89FC018181882341F084E649
S11312A090E00E946B1684E690E00E94AA178B815E
S11312B0882309F442CF8E899F89FC018081882389
S11312C009F43BCF1D828D818830C0F58D818F5B01
S11312D00E94692C8AE30E94692C8D81882F90E0FA
S11312E09E012A5F3F4F820F931FFC0180810E9461
S11312F0FC2C8AE30E94692C8D81282F30E04E89D2
S11313005F89C901880F991F880F991F820F931F46
S1131310840F951F895F9E4FFC018081882321F0F3
S113132081E30E94692C03C080E30E94692C80E25F
S11313300E94692C8D818F5F8D83C5CF0E94AE2C56
S113134084EF91E00E94F816F8CECF93DF9300D09B
S1131350CDB7DEB79A83898381E00F900F90DF9138
S1131360CF910895CF93DF9300D0CDB7DEB79A83A2
S1131370898300000F900F90DF91CF910895CF9350
S1131380DF93CDB7DEB70E943B14882321F40E947B
S11313906119882311F081E001C080E0882329F0DD
S11313A00E9451190E94EC0902C00E94200A000008
S11313B0DF91CF910895CF93DF9300D0CDB7DEB7FF
S11313C09A83898389819A810E94290500000F905C
S11313D00F90DF91CF910895CF93DF931F92CDB7F4
S11313E0DEB7CE0101960E944F0ACE0101960E94FB
S11313F0600A882339F0CE0101960E94700A88237E
S113140009F0F9CFCE0101960E94800ACE0101961F
S11314100E94DB0900000F90DF91CF910895CF93D4
S1131420DF9300D0CDB7DEB79A83898389819A810F
S11314300E94B20900000F900F90DF91CF910895A0
S1131440CF93DF93CDB7DEB7CB52D1400FB6F8942C
S1131450DEBF0FBECDBFCE0101960E94900ACE0121
S113146001960E94A10A882339F0CE0101960E94B8
S1131470B10A882309F0F9CFCE0101960E94C10A6E
S1131480CE0101960E940F0A0000C55DDE4F0FB623
S1131490F894DEBF0FBECDBFDF91CF910895CF93F7
S11314A0DF9300D0CDB7DEB79A83898389819A818F
S11314B00E94330400000F900F90DF91CF910895A4
S11314C0CF93DF9300D0CDB7DEB79A838983898128
S11314D09A810E9440040F900F90DF91CF9108955C
S11314E0CF93DF9300D0CDB7DEB79A838983898108
S11314F09A810E94E1040F900F90DF91CF9108959B
S1131500CF93DF9300D0CDB7DEB79A8389838981E7
S11315109A810E941C050F900F90DF91CF9108953E
S1131520CF93DF9300D0CDB7DEB79A8389838981C7
S11315309A810E94DC0500000F900F90DF91CF91FB
S11315400895CF93DF9300D0CDB7DEB79A83898314
S113155089819A810E94F3060F900F90DF91CF91B9
S11315600895CF93DF9300D0CDB7DEB79A838983F4
S113157089819A810E9479080F900F90DF91CF9111
S11315800895CF93DF9300D0CDB7DEB79A838983D4
S113159089819A810E94A5090F900F90DF91CF91C4
S11315A00895CF93DF9300D000D000D0CDB7DEB73D
S11315B09C838B837E836D8319821A828A81282F70
S11315C030E08D819E812817390720F58981882F85
S11315D090E0880F991F892B49F48981882F90E026
S11315E0880F892F881F990B892B11F081E001C086
S11315F080E089838A81882F90E02B813C81820F4F
S1131600931FFC0180819981890F89838A818F5F6F
S11316108A83D4CF898126960FB6F894DEBF0FBE95
S1131620CDBFDF91CF910895CF93DF93CDB7DEB7D0
S113163028970FB6F894DEBF0FBECDBF98878F836F
S11316401A8219821C8281E08D831E8229813A814B
S1131650CE01049643E050E0B9010E945B3222E0DF
S113166030E0CE010496B9010E94D10A8B839E8199
S11316708B81981759F42F8138858C819D81AE8197
S1131680F90180839183A28381E001C080E02896E0
S11316900FB6F894DEBF0FBECDBFDF91CF91089592
S11316A0CF93DF93CDB7DEB72A970FB6F894DEBF9A
S11316B00FBECDBF998788876A878A85882F90E077
S11316C0880F991F880F991F03969A83898386E44C
S11316D08C838AE08D831E821F8229813A81CE0108
S11316E0049644E050E0B9010E945B3223E030E00C
S11316F0CE010496B9010E94D10A8B839F818B810C
S1131700981769F4288539858C819D81AE81BF81C4
S1131710F90180839183A283B38381E001C080E0D7
S11317202A960FB6F894DEBF0FBECDBFDF91CF91DE
S11317300895CF93DF93CDB7DEB728970FB6F8940B
S1131740DEBF0FBECDBF9F838E8368878885882FB9
S113175090E09C01220F331F80E290E0820F931FE0
S113176003969A83898381E08C831D8229813A813F
S1131770CE01049642E050E0B9010E945B3221E0C0
S113178030E0CE010496B9010E94D10A8B839D8179
S11317908B81981749F48E819F812C813D81FC01B6
S11317A03183208381E001C080E028960FB6F8944D
S11317B0DEBF0FBECDBFDF91CF910895CF93DF93EE
S11317C0CDB7DEB72B970FB6F894DEBF0FBECDBFF3
S11317D09A8789876B878B85882F90E028E030E093
S11317E0A901481B590BCA01AC0186E090E0880F9F
S11317F0991F880F991F880F991F039620E034E0E2
S1131800B901681B790BCB019C0136952795369558
S1131810279536952795429FC001439F900D529F6F
S1131820900D112420E034E0F901E81BF90BCF01FD
S11318309E838D838D819E810E946B328F838985E7
S11318409A859A8389838D819E8101969C838B835B
S113185086E090E0880F991F880F991F880F991FC1
S1131860039620E034E0A901481B590BCA019C01EE
S11318703695279536952795369527958D819E81A2
S1131880280F391F8B819C8182179307C8F48B81A1
S11318909C810E946B32888789819A819C012F5F89
S11318A03F4F3A8329832885FC0120838885882338
S11318B031F08B819C8101969C838B83C9CF00007E
S11318C089859A85FC018081882381F089859A85A0
S11318D00E94782E9C0189859A85B9010E94D10ABB
S11318E0982F8F81981711F481E001C080E02B9626
S11318F00FB6F894DEBF0FBECDBFDF91CF91089530
S1131900CF93DF9300D000D0CDB7DEB79C838B8319
S11319101A82198222E030E08B819C81B9010E94F5
S1131920D10A282F8B819C81FC01228329813A8151
S11319308B819C8143E050E0B9010E947332000026
S11319400F900F900F900F90DF91CF910895CF9348
S1131950DF9300D000D01F92CDB7DEB79C838B837A
S11319606D838D81882F90E0880F991F880F991FB0
S113197003969A83898323E030E08B819C81B901AB
S11319800E94D10A282F8B819C81FC012383298109
S11319903A818B819C8144E050E0B9010E9473320A
S11319A000000F900F900F900F900F90DF91CF9148
S11319B00895CF93DF9300D000D01F92CDB7DEB748
S11319C09C838B836D838D81882F90E09C01220FF3
S11319D0331F80E290E0820F931F03969A838983DA
S11319E021E030E08B819C81B9010E94D10A282F2B
S11319F08B819C81FC01218329813A818B819C818B
S1131A0042E050E0B9010E94733200000F900F9041
S1131A100F900F900F90DF91CF910895CF93DF93A4
S1131A20CDB7DEB72A970FB6F894DEBF0FBECDBF91
S1131A30998788876A878A85882F90E028E030E034
S1131A40A901481B590BCA01AC0186E090E0880F3C
S1131A50991F880F991F880F991F039620E034E07F
S1131A60B901681B790BCB019C01369527953695F6
S1131A70279536952795429FC001439F900D529F0D
S1131A80900D112420E034E0F901E81BF90BCF019B
S1131A909D838C83888599859A8389838C819D8194
S1131AA001969F838E8386E090E0880F991F880FAC
S1131AB0991F880F991F039620E034E0A901481B61
S1131AC0590BCA019C01369527953695279536956D
S1131AD027958C819D81280F391F8E819F818217C4
S1131AE09307D8F489819A81FC0180818823A1F02D
S1131AF089819A819C012F5F3F4F3A832983FC019E
S1131B0020818E819F81622F0E9483328E819F81EA
S1131B1001969F838E83C7CF00008E819F8160E0F2
S1131B200E948332888599850E94782E9C0188853D
S1131B309985B9010E94D10A8B838C819D816B8127
S1131B400E94833200002A960FB6F894DEBF0FBEBF
S1131B50CDBFDF91CF910895CF93DF9300D01F9233
S1131B60CDB7DEB7198281E08A831B82CE0101964C
S1131B700E94800C00000F900F900F90DF91CF9186
S1131B800895CF93DF9300D000D01F92CDB7DEB776
S1131B9019828981883078F486E48A838AE08B8389
S1131BA01C821D82CE01029669810E94A70C898144
S1131BB08F5F8983EECF00000F900F900F900F90EE
S1131BC00F90DF91CF910895CF93DF9300D01F92B0
S1131BD0CDB7DEB719828981883060F481E08A83C9
S1131BE01B82CE01029669810E94D90C89818F5F84
S1131BF08983F1CF00000F900F900F90DF91CF9168
S1131C000895CF93DF93CDB7DEB7CC57D1090FB684
S1131C10F894DEBF0FBECDBF198289818830E0F40D
S1131C20CE0102960E94A90ECE01029664E20E94A1
S1131C30C40E898121E4280FCE010296622F0E94EE
S1131C40C40ECE0102960E94FF0E69810E940E0D01
S1131C5089818F5F8983E1CF0000C458DF4F0FB6BD
S1131C60F894DEBF0FBECDBFDF91CF910895CF931F
S1131C70DF93CDB7DEB70E94AC0D0E94C10D0E9468
S1131C80E40D0E94010E0000DF91CF910895CF93DF
S1131C90DF93CDB7DEB7C358D1090FB6F894DEBFD2
S1131CA00FBECDBF1B8281E08C831D82CE010396C3
S1131CB00E94140B982F81E08927882311F080E07B
S1131CC03EC0198289818830B0F486E48E838AE02C
S1131CD08F8318861986CE01069669810E94500B5F
S1131CE0982F81E08927882311F080E028C089811A
S1131CF08F5F8983E7CF1A828A818830F8F481E084
S1131D008A871B86CE010A966A810E94990B982FB6
S1131D1081E08927882311F080E011C0CE010C9660
S1131D206A810E94DE0B982F81E08927882311F0B5
S1131D3080E005C08A818F5F8A83DECF81E0CD5742
S1131D40DF4F0FB6F894DEBF0FBECDBFDF91CF914A
S1131D500895CF93DF9300D0CDB7DEB79A838983FC
S1131D6089819A81FC011182108289819A8129E7F3
S1131D700296FC01322F11923A95E9F700000F9078
S1131D800F90DF91CF910895CF93DF9300D01F92EE
S1131D90CDB7DEB79A8389836B8389819A81FC01ED
S1131DA0808191818837910518F589819A81FC0198
S1131DB080819181AC014F5F5F4F29813A81F901A4
S1131DC05183408329813A81820F931F02962B818C
S1131DD0FC01208389819A81FC0180819181298180
S1131DE03A81820F931F0296FC01108281E001C0A8
S1131DF080E00F900F900F90DF91CF910895CF93D3
S1131E00DF9300D0CDB7DEB79A83898389819A8125
S1131E1002960F900F90DF91CF910895CF93DF93A7
S1131E20CDB7DEB70E94B2120E9414180E944E2C45
S1131E300E94BF090E943018CF93DF9300D0CDB722
S1131E40DEB789836A838981882F90E02A81222FD3
S1131E5030E047E050E0BA01621B730B9B0102C003
S1131E60959587952A95E2F781709927892B11F02A
S1131E7081E401C080E40F900F90DF91CF91089529
S1131E80CF93DF931F92CDB7DEB7898360E089815A
S1131E900E941C0F0F90DF91CF910895CF93DF9391
S1131EA01F92CDB7DEB7898361E089810E941C0F40
S1131EB00F90DF91CF910895CF93DF931F92CDB709
S1131EC0DEB7898362E089810E941C0F0F90DF9145
S1131ED0CF910895CF93DF931F92CDB7DEB7898357
S1131EE063E089810E941C0F0F90DF91CF910895C8
S1131EF0CF93DF931F92CDB7DEB7898364E08981E6
S1131F000E941C0F0F90DF91CF910895CF93DF9320
S1131F101F92CDB7DEB7898365E089810E941C0FCB
S1131F200F90DF91CF910895CF93DF931F92CDB798
S1131F30DEB7898366E089810E941C0F0F90DF91D0
S1131F40CF910895CF93DF931F92CDB7DEB78983E6
S1131F5067E089810E941C0F0F90DF91CF91089553
S1131F600F931F93CF93DF93CDB7DEB7CE58D1092C
S1131F700FB6F894DEBF0FBECDBF9E0125573F4F6D
S1131F80F90191838083CE0183579F4FFC017183B4
S1131F9060831A8219821C821B82CE0185579F4F4F
S1131FA0FC0180819181FC01228133818B819C81A0
S1131FB08217930708F0B6C2CE0185579F4FFC01E4
S1131FC080819181FC01208131818B819C81820FF0
S1131FD0931FFC0180818D838D81882309F4A1C224
S1131FE08D81882F90E0A0E0B0E048E050E02FE041
S1131FF030E0841B950B2817390708F48AC2865AE7
S11320009F4FFC010C94D73189819A8101979A835F
S113201089839E012D5E3F4F89819A81820F931F90
S1132020FC0180818E838E81813481F489819A813F
S11320309C012F5F3F4F3A8329839E012D5E3F4FC2
S1132040820F931F20E4FC01208365C289819A8159
S11320509C012F5F3F4F3A8329839E012D5E3F4FA2
S1132060820F931F21E4FC01208355C289819A8148
S113207001979A8389839E012D5E3F4F89819A81BE
S1132080820F931FFC0180818F8389819A8101973C
S11320909A8389839E012D5E3F4F89819A81820FA5
S11320A0931FFC01808188879F81888589238134DF
S11320B081F489819A819C012F5F3F4F3A83298360
S11320C09E012D5E3F4F820F931F21E4FC0120836C
S11320D022C289819A819C012F5F3F4F3A832983D1
S11320E09E012D5E3F4F820F931F20E4FC0120834D
S11320F012C289819A8101979A8389839E012D5EF8
S11321003F4F89819A81820F931FFC0180818987C7
S113211089819A8101979A8389839E012D5E3F4F1D
S113212089819A81820F931FFC0180818A87898526
S1132130813419F48A85813481F089819A819C01E2
S11321402F5F3F4F3A8329839E012D5E3F4F820FBD
S1132150931F21E4FC012083DEC189819A819C01C3
S11321602F5F3F4F3A8329839E012D5E3F4F820F9D
S1132170931F20E4FC012083CEC189819A810197B9
S11321809A8389839E012D5E3F4F89819A81820FB4
S1132190931FFC0180818B8789819A8101979A839F
S11321A089839E012D5E3F4F89819A81820F931FFF
S11321B0FC0180818C878B85813419F08C85813476
S11321C081F489819A819C012F5F3F4F3A8329834F
S11321D09E012D5E3F4F820F931F21E4FC0120835B
S11321E09AC189819A819C012F5F3F4F3A83298349
S11321F09E012D5E3F4F820F931F20E4FC0120833C
S11322008AC189819A8101979A8389839E012D5E6F
S11322103F4F89819A81820F931FFC0180818D87B2
S113222089819A8101979A8389839E012D5E3F4F0C
S113223089819A81820F931FFC0180818E878D850D
S1132240813499F08E85813481F089819A819C0151
S11322502F5F3F4F3A8329839E012D5E3F4F820FAC
S1132260931F21E4FC01208356C189819A819C013A
S11322702F5F3F4F3A8329839E012D5E3F4F820F8C
S1132280931F20E4FC01208346C189819A81019730
S11322909A8389839E012D5E3F4F89819A81820FA3
S11322A0931FFC0180818F8789819A8101979A838A
S11322B089839E012D5E3F4F89819A81820F931FEE
S11322C0FC018081888B9F858889981781F089819A
S11322D09A819C012F5F3F4F3A8329839E012D5E93
S11322E03F4F820F931F21E4FC01208314C1898195
S11322F09A819C012F5F3F4F3A8329839E012D5E73
S11323003F4F820F931F20E4FC01208304C1898185
S11323109A8101979A8389839E012D5E3F4F89811B
S11323209A81820F931FFC018081898B89819A8114
S113233001979A8389839E012D5E3F4F89819A81FB
S1132340820F931FFC0180818A8B99898A8998174F
S113235081F489819A819C012F5F3F4F3A832983BD
S11323609E012D5E3F4F820F931F21E4FC012083C9
S1132370D2C089819A819C012F5F3F4F3A83298380
S11323809E012D5E3F4F820F931F20E4FC012083AA
S1132390C2C009811A81C80101969A838983CE013A
S11323A083579F4FFC0180819181FC0180810E94B1
S11323B0400F282FCE014396800F911FFC012083EC
S11323C0AAC009811A81C80101969A838983CE0122
S11323D083579F4FFC0180819181FC0180810E9481
S11323E04E0F282FCE014396800F911FFC012083AE
S11323F092C009811A81C80101969A838983CE010A
S113240083579F4FFC0180819181FC0180810E9450
S11324105C0F282FCE014396800F911FFC0120836F
S11324207AC009811A81C80101969A838983CE01F1
S113243083579F4FFC0180819181FC0180810E9420
S11324406A0F282FCE014396800F911FFC01208331
S113245062C009811A81C80101969A838983CE01D9
S113246083579F4FFC0180819181FC0180810E94F0
S1132470780F282FCE014396800F911FFC012083F3
S11324804AC009811A81C80101969A838983CE01C1
S113249083579F4FFC0180819181FC0180810E94C0
S11324A0860F282FCE014396800F911FFC012083B5
S11324B032C009811A81C80101969A838983CE01A9
S11324C083579F4FFC0180819181FC0180810E9490
S11324D0940F282FCE014396800F911FFC01208377
S11324E01AC009811A81C80101969A838983CE0191
S11324F083579F4FFC0180819181FC0180810E9460
S1132500A20F282FCE014396800F911FFC01208338
S113251002C08FEF1BC08B819C8101969C838B83AF
S11325203CCD000089819A81892B79F089819A8137
S113253001979A8389839E012D5E3F4F89819A81F9
S1132540820F931FFC01808101C080E4C257DF4FDA
S11325500FB6F894DEBF0FBECDBFDF91CF911F91B0
S11325600F910895CF93DF9300D01F92CDB7DEB7BC
S113257087E290E027E230E0F90120812F61FC013D
S1132580208387E290E027E230E0F90120812F7D6B
S1132590FC01208388E290E020E2FC01208388E2B1
S11325A090E028E230E0F90120812160FC012083E1
S11325B088E290E028E230E0F9012081277FFC01E5
S11325C020838AE290E02AE230E0F90120812C6F36
S11325D0FC0120838BE290E02BE230E0F9012081C2
S11325E02062FC01208384E290E024E230E0F901DF
S11325F020812760FC0120838DE290E0FC011082A1
S11326008EE290E02EE230E0F90120812360FC01AB
S113261020838CE790E02CE730E0F90120812666E6
S1132620FC0120838AE790E02AE730E0F901208169
S11326302C68FC01208385E290E025E230E0F9017A
S11326402081422F487F26E031E03A832983298183
S11326503A81F90124912B832B81242BFC012083C3
S113266087E490E026E4FC01208384E490E024E401
S113267030E0F90120812264FC01208380E890E0AD
S1132680FC01108281E890E028E0FC0120838FE6C1
S113269090E02FE630E0F90120812260FC012083E4
S11326A080E990E0FC01108281E990E028E0FC01DF
S11326B0208381E790E021E730E0F9012081226066
S11326C0FC012083789400000F900F900F90DF910D
S11326D0CF910895CF93DF9300D01F92CDB7DEB78B
S11326E09B838A83198289818031B8F58981282F57
S11326F030E08A819B8102C0969587952A95E2F7FE
S113270081709927892B51F088E290E028E230E02B
S1132710F90120812061FC01208309C088E290E056
S113272028E230E0F90120812F7EFC01208388E239
S113273090E028E230E0F90120812260FC0120834E
S113274088E290E028E230E0F90120812D7FFC014D
S1132750208389818F5F8983C6CF88E290E028E255
S113276030E0F90120812460FC01208388E290E0BC
S113277028E230E0F90120812B7FFC012083000056
S11327800F900F900F90DF91CF910895CF93DF9327
S113279000D0CDB7DEB78A83198289818830C0F52D
S11327A08A81882F90E02981222F30E002C09595FC
S11327B087952A95E2F781709927892B51F08BE24E
S11327C090E02BE230E0F90120812460FC012083B9
S11327D009C08BE290E02BE230E0F90120812B7FED
S11327E0FC0120838BE290E02BE230E0F9012081B0
S11327F02061FC0120838BE290E02BE230E0F901C0
S113280020812F7EFC01208389818F5F8983C5CF3E
S11328108BE290E02BE230E0F90120812860FC019A
S113282020838BE290E02BE230E0F9012081277FC6
S1132830FC01208300000F900F90DF91CF91089549
S11328401F920F9200905F000F9211242F933F93D9
S11328504F935F936F937F938F939F93AF93BF93A4
S1132860EF93FF93CF93DF93CDB7DEB7F8940E9435
S11328703D190E943018CF93DF93CDB7DEB786E2BF
S113288090E0FC018081882F90E08072992721E0FC
S1132890892B09F020E0822FDF91CF910895CF9307
S11328A0DF93CDB7DEB78CE690E02CE630E0F9019B
S11328B020812062FC01208388E690E028E630E055
S11328C0F90120812260FC0120830000DF91CF9177
S11328D008951F920F9200905F000F9211240F939E
S11328E01F932F933F934F935F936F937F938F9394
S11328F09F93AF93BF93EF93FF93CF93DF93CDB7A2
S1132900DEB72597DEBFCDBF80911B0189838091FF
S11329101B018F5F80931B0180911B01883010F095
S113292010921B0185E290E025E230E0F90120815C
S1132930422F487F20911B01222F30E02A5F3E4F17
S11329403B832A832A813B81F90124912C832C81A6
S1132950242BFC0120831D8289E790E0FC01808107
S11329608D8320911601309117018981882F90E081
S11329708901080F191F8D81882F90E0092E000C02
S1132980AA0BBB0BBC01CD010E94A130DC01CB0121
S113299021E731EA46EE5EE3BC01CD010E945631E7
S11329A0DC01CB01BC01CD010E947030DC01CB0104
S11329B0F801808320911601309117018981882FB5
S11329C090E0820F931FFC01908181E0953608F41A
S11329D080E0882361F020911601309117018981EC
S11329E0882F90E0820F931F24E6FC0120838091BE
S11329F01B01873050F48AE790E02AE730E0F901C0
S1132A0020812064FC01208302C010921A0100007E
S1132A100F900F900F900F900F90DF91CF91FF9137
S1132A20EF91BF91AF919F918F917F916F915F9142
S1132A304F913F912F911F910F910F9000925F0042
S1132A400F901F901895CF93DF93CDB7DEB7809189
S1132A501A01DF91CF910895CF93DF93CDB7DEB7FD
S1132A6080911A01882309F0FBCF0000DF91CF91F8
S1132A700895CF93DF93CDB7DEB781E080931A0139
S1132A8080911801909119018650914069F086E077
S1132A9091E090931901809318018EE091E0909356
S1132AA01701809316010CC08EE091E090931901F8
S1132AB08093180186E091E09093170180931601AA
S1132AC08AE790E02AE730E0F90120812064FC01E4
S1132AD020830000DF91CF910895CF93DF9300D03E
S1132AE01F92CDB7DEB79B838A8319828981883090
S1132AF0C0F48981882F90E0409118015091190108
S1132B002981222F30E0240F351FF90140812A81C9
S1132B103B81820F931FFC01408389818F5F8983EE
S1132B20E5CF00000F900F900F90DF91CF910895A3
S1132B301F920F9200905F000F9211242F938F9396
S1132B409F93EF93FF93CF93DF93CDB7DEB781E8E5
S1132B5090E028E0FC01208385E490E0FC011082F1
S1132B600000DF91CF91FF91EF919F918F912F9171
S1132B700F9000925F000F901F901895CF93DF93F2
S1132B80CDB7DEB762970FB6F894DEBF0FBECDBFE8
S1132B909A8B898B89899A89019629F489899A89DA
S1132BA001979A8B898B85E490E025E430E0F90164
S1132BB020812360FC0120831A82198229813A81B1
S1132BC089899A892817390708F077C080E090E04E
S1132BD0A0E8BFE38B839C83AD83BE8320E030E019
S1132BE04AE755E46B817C818D819E810E94563138
S1132BF0DC01CB018F839887A987BA8720E030E076
S1132C0040E85FE36F81788589859A850E94F92F72
S1132C1088232CF481E090E09C878B873EC020E0E1
S1132C203FEF4FE757E46F81788589859A850E9445
S1132C305131181644F520E030E040E251E46B8154
S1132C407C818D819E810E945631DC01CB01BC01C7
S1132C50CD010E947030DC01CB019C878B878B8572
S1132C609C85892B21F180E991E09E878D878D8554
S1132C709E850197F1F79E878D878B859C850197AB
S1132C809C878B87ECCF6F81788589859A850E9494
S1132C907030DC01CB019C878B878B859C85988B5E
S1132CA08F878F8598890197F1F7988B8F87898112
S1132CB09A8101969A83898381CF85E490E0FC010F
S1132CC01082000062960FB6F894DEBF0FBECDBF2F
S1132CD0DF91CF9108950F931F93CF93DF9300D08B
S1132CE0CDB7DEB79A83898384E890E0FC01118232
S1132CF0108208E810E089819A81CC01A0E0B0E05C
S1132D00BC01CD010E949F30DC01CB0120E034E204
S1132D1044E756E4BC01CD010E945631DC01CB01ED
S1132D2020E030E04AE754E4BC01CD010E94FE2FCC
S1132D30DC01CB0120E030E040E85FE3BC01CD01E1
S1132D400E948C2FDC01CB01BC01CD010E947030AC
S1132D50DC01CB01F8019183808381E890E021E8D4
S1132D6030E0F90120812560FC01208386E490E0B5
S1132D70FC01108285E490E025E430E0F901208133
S1132D802360FC01208300000F900F90DF91CF910E
S1132D901F910F9108951F920F9200905F000F9260
S1132DA011242F933F938F939F93EF93FF93CF938C
S1132DB0DF93CDB7DEB781E990E028E0FC01208302
S1132DC08BE290E02BE230E0F90120812F77FC01C7
S1132DD020830000DF91CF91FF91EF919F918F911C
S1132DE03F912F910F9000925F000F901F901895C4
S1132DF0CF93DF93CDB7DEB762970FB6F894DEBFFB
S1132E000FBECDBF9A8B898B89899A89019629F443
S1132E1089899A8901979A8B898B8BE290E02BE2BE
S1132E2030E0F90120812068FC0120831A82198294
S1132E3029813A8189899A892817390708F077C046
S1132E4080E090E0A0E8BFE38B839C83AD83BE83E6
S1132E5020E030E04AE755E46B817C818D819E81DE
S1132E600E945631DC01CB018F839887A987BA87EA
S1132E7020E030E040E85FE36F81788589859A85BA
S1132E800E94F92F88232CF481E090E09C878B87A3
S1132E903EC020E03FEF4FE757E46F817885898596
S1132EA09A850E945131181644F520E030E040E242
S1132EB051E46B817C818D819E810E945631DC01BD
S1132EC0CB01BC01CD010E947030DC01CB019C8799
S1132ED08B878B859C85892B21F180E991E09E87E6
S1132EE08D878D859E850197F1F79E878D878B85CC
S1132EF09C8501979C878B87ECCF6F81788589852A
S1132F009A850E947030DC01CB019C878B878B856E
S1132F109C85988B8F878F8598890197F1F7988B7B
S1132F208F8789819A8101969A83898381CF8BE2E5
S1132F3090E02BE230E0F90120812F77FC0120831F
S1132F40000062960FB6F894DEBF0FBECDBFDF91CE
S1132F50CF9108950F931F93CF93DF9300D0CDB7F4
S1132F60DEB79A83898384E990E0FC0111821082A0
S1132F7008E910E089819A81CC01A0E0B0E0BC01AD
S1132F80CD010E949F30DC01CB012FE632E143E802
S1132F905DE3BC01CD010E94FE2FDC01CB01BC012D
S1132FA0CD010E947030DC01CB01F8019183808354
S1132FB081E990E021E930E0F90120812560FC01FC
S1132FC020838BE290E02BE230E0F901208120683D
S1132FD0FC01208300000F900F90DF91CF911F918F
S1132FE00F910895CF93DF93CDB7DEB78BE290E0D6
S1132FF02BE230E0F90120812068FC0120830000ED
S1133000DF91CF910895CF93DF93CDB7DEB78BE2F5
S113301090E02BE230E0F90120812F77FC0120833E
S11330200000DF91CF910895CF93DF93CDB7DEB742
S113303084E590E024E530E0F9012081277FFC015C
S113304020830FB6F894A8958091600088618093DE
S11330506000109260000FBE0000DF91CF910895D0
S1133060CF93DF93CDB7DEB76C970FB6F894DEBF7E
S11330700FBECDBFF89487E090E088709927892B24
S113308011F088E201C088E097E09770892B982FAF
S113309088E10FB6F894A895809360000FBE9093D2
S11330A060008FEF90E00E946A1380E090E0A8E453
S11330B0B2E48D839E83AF83B88720E030E04AE793
S11330C055E46D817E818F8198850E945631DC01A3
S11330D0CB018B8B9C8BAD8BBE8B20E030E040E82A
S11330E05FE36B897C898D899E890E94F92F8823EF
S11330F02CF481E090E0988F8F8B3EC020E03FEF6E
S11331004FE757E46B897C898D899E890E945131F0
S1133110181644F520E030E040E251E46D817E81F0
S11331208F8198850E945631DC01CB01BC01CD0111
S11331300E947030DC01CB01988F8F8B8F89988D22
S1133140892B21F180E991E09A8F898F898D9A8D5D
S11331500197F1F79A8F898F8F89988D0197988FAE
S11331608F8BECCF6B897C898D899E890E9470300E
S1133170DC01CB01988F8F8B8F89988D9C8F8B8FDF
S11331808B8D9C8D0197F1F79C8F8B8F80E09FEF47
S11331900E946A1380E090E0A8E4B2E489839A83F1
S11331A0AB83BC8320E030E04AE755E469817A814F
S11331B08B819C810E945631DC01CB0189879A87DF
S11331C0AB87BC8720E030E040E85FE369857A851F
S11331D08B859C850E94F92F88232CF481E090E054
S11331E09E878D873FC020E03FEF4FE757E4698516
S11331F07A858B859C850E94513118164CF520E008
S113320030E040E251E469817A818B819C810E94A3
S11332105631DC01CB01BC01CD010E947030DC01D0
S1133220CB019E878D878D859E85892B09F439CFA7
S113323080E991E0988B8F878F8598890197F1F7C2
S1133240988B8F878D859E8501979E878D87EBCF81
S113325069857A858B859C850E947030DC01CB0161
S11332609E878D878D859E859A8B898B89899A897E
S11332700197F1F79A8B898B14CFCF93DF93CDB756
S1133280DEB78FEE9EEBADEABEED80931D01909309
S11332901E01A0931F01B09320010000DF91CF9184
S11332A00895CF93DF93CDB7DEB710921D0110922E
S11332B01E0110921F01109220010000DF91CF9196
S11332C00895CF93DF93CDB7DEB780911D01909120
S11332D01E01A0911F01B091200121E08F3E9E4B61
S11332E0AD4ABE4D09F020E0822FDF91CF910895C1
S11332F0CF93DF931F92CDB7DEB7898389818B305B
S113330028F4893050F4883031F00BC08E3038F016
S11333108E3019F006C083E005C082E003C081E06E
S113332001C08FEF0F90DF91CF9108951F93CF933A
S1133330DF9300D0CDB7DEB789836A8389810E9489
S11333407819182F8A810E947819982F81E019170B
S11333500CF480E00F900F90DF91CF911F910895AE
S1133360CF93DF931F92CDB7DEB789838981882FEE
S113337090E08870992721E0892B09F420E0822FBE
S11333800F90DF91CF910895CF93DF931F92CDB724
S1133390DEB789838981882F90E08071992721E0A5
S11333A0892B09F420E0822F0F90DF91CF910895AB
S11333B0CF93DF931F92CDB7DEB7898389818032A3
S11333C019F08981813211F481E001C080E00F900D
S11333D0DF91CF910895CF93DF931F92CDB7DEB7DE
S11333E0898381E09981903209F080E00F90DF9128
S11333F0CF910895CF93DF931F92CDB7DEB7898322
S113340081E09981913209F080E00F90DF91CF91B2
S11334100895CF93DF931F92CDB7DEB78983898157
S1133420882F90E0A0E0B0E040E050E029E030E0F8
S1133430841B950B2817390718F186599F4FFC01F7
S11334400C94D7318EE091E01DC081E191E01AC067
S113345085E291E017C085E391E014C089E491E02E
S113346011C08BE591E00EC082E791E00BC089E8C2
S113347091E008C080EA91E005C087EB91E002C0CA
S113348080E090E00F90DF91CF910895CF93DF9388
S113349000D000D000D0CDB7DEB79A8389837C8377
S11334A06B835E834D8389819A810E949B2E8981DF
S11334B09A81FC0180819181FC018081843209F030
S11334C0FAC089819A81FC01808191819C012F5FDE
S11334D03F4F89819A81FC013183208389819A81BC
S11334E0FC0180819181FC018081882F90E0092E6C
S11334F0000CAA0BBB0B41E450E027E030E0841B36
S1133500950B2817390708F4C5C08C589F4FFC0148
S11335100C94D7318B819C81FC01208131818D8178
S11335209E81FC0180819181BC016F5F7F4F4D8141
S11335305E81FA0171836083820F931F20E1FC0195
S11335402083AAC08B819C81FC01208131818D81E3
S11335509E81FC0180819181BC016F5F7F4F4D8111
S11335605E81FA0171836083820F931F21E1FC0164
S1133570208392C08B819C81FC01208131818D81CB
S11335809E81FC0180819181BC016F5F7F4F4D81E1
S11335905E81FA0171836083820F931F22E1FC0133
S11335A020837AC08B819C81FC01208131818D81B3
S11335B09E81FC0180819181BC016F5F7F4F4D81B1
S11335C05E81FA0171836083820F931F23E1FC0102
S11335D0208362C08B819C81FC01208131818D819B
S11335E09E81FC0180819181BC016F5F7F4F4D8181
S11335F05E81FA0171836083820F931F24E1FC01D1
S113360020834AC08B819C81FC01208131818D8182
S11336109E81FC0180819181BC016F5F7F4F4D8150
S11336205E81FA0171836083820F931F25E1FC019F
S1133630208332C08B819C81FC01208131818D816A
S11336409E81FC0180819181BC016F5F7F4F4D8120
S11336505E81FA0171836083820F931F26E1FC016E
S113366020831AC08B819C81FC01208131818D8152
S11336709E81FC0180819181BC016F5F7F4F4D81F0
S11336805E81FA0171836083820F931F27E1FC013D
S1133690208302C080E010C089819A81FC0180816E
S11336A091819C012F5F3F4F89819A81FC01318375
S11336B0208381E001C080E026960FB6F894DEBF37
S11336C00FBECDBFDF91CF910895CF93DF9300D08C
S11336D000D000D0CDB7DEB79A8389837C836B8317
S11336E05E834D8389819A810E949B2E89819A8170
S11336F0FC0180819181FC018081882F90E08D33D1
S1133700910509F4DAC08E33910524F4869709F4FF
S1133710A4C0EBC08C37910509F4B7C08E3791056E
S113372009F0E3C089819A81FC01808191810E9422
S1133730EC2D882F90E08D33910509F450C08C371F
S1133740910541F1869709F06FC08B819C81FC0142
S1133750208131818D819E81FC0180819181BC0118
S11337606F5F7F4F4D815E81FA0171836083820FA9
S1133770931F2AE0FC01208389819A81FC018081C6
S113378091819C012F5F3F4F89819A81FC01318394
S1133790208362C08B819C81FC01208131818D81D9
S11337A09E81FC0180819181BC016F5F7F4F4D81BF
S11337B05E81FA0171836083820F931F2CE0FC0108
S11337C0208389819A81FC01808191819C012F5FF2
S11337D03F4F89819A81FC01318320833DC08B81D5
S11337E09C81FC01208131818D819E81FC0180813D
S11337F09181BC016F5F7F4F4D815E81FA017183BE
S11338006083820F931F2DE0FC01208389819A81BC
S1133810FC01808191819C012F5F3F4F89819A81B6
S1133820FC013183208318C08B819C81FC012081A1
S113383031818D819E81FC0180819181BC016F5F0A
S11338407F4F4D815E81FA0171836083820F931FE4
S113385028E0FC01208300004AC08B819C81FC018C
S1133860208131818D819E81FC0180819181BC0107
S11338706F5F7F4F4D815E81FA0171836083820F98
S1133880931F29E0FC01208332C08B819C81FC01C1
S1133890208131818D819E81FC0180819181BC01D7
S11338A06F5F7F4F4D815E81FA0171836083820F68
S11338B0931F2BE0FC0120831AC08B819C81FC01A7
S11338C0208131818D819E81FC0180819181BC01A7
S11338D06F5F7F4F4D815E81FA0171836083820F38
S11338E0931F2EE0FC01208302C080E00EC089817A
S11338F09A81FC01808191819C012F5F3F4F8981D6
S11339009A81FC013183208381E026960FB6F894D6
S1133910DEBF0FBECDBFDF91CF910895CF93DF936C
S113392000D000D000D0CDB7DEB79A8389837C83E2
S11339306B835E834D8389819A810E949B2E89814A
S11339409A81FC0180819181FC018081882F90E023
S11339508832910519F08997C9F030C08B819C8118
S1133960FC01208131818D819E81FC0180819181C6
S1133970BC016F5F7F4F4D815E81FA01718360836B
S1133980820F931F20E2FC0120831AC08B819C814B
S1133990FC01208131818D819E81FC018081918196
S11339A0BC016F5F7F4F4D815E81FA01718360833B
S11339B0820F931F21E2FC01208302C080E00EC02D
S11339C089819A81FC01808191819C012F5F3F4F05
S11339D089819A81FC013183208381E026960FB688
S11339E0F894DEBF0FBECDBFDF91CF910895CF9382
S11339F0DF93CDB7DEB727970FB6F894DEBF0FBEBF
S1133A00CDBF9D838C837F836E8319828C819D813E
S1133A109B838A838A819B81FC018081882309F4AA
S1133A20BCC08A819B81FC018081833209F4B5C0CA
S1133A308E819F81FC012081318186E090E0880F96
S1133A40991F880F991F880F991F039640E054E02F
S1133A50BA01681B790BCB01969587959695879546
S1133A609695879501972817390728F08E819F81AD
S1133A7021E0FC0122838A819B81FC0180810E94D8
S1133A80392E982F81E08927882369F08A819B81C8
S1133A90FC0180810E94522E982F81E0892788237F
S1133AA011F081E001C080E0882309F45AC08A81C2
S1133AB09B81FC018081882F90E08832910509F474
S1133AC041C0893291058CF48032910509F448C0D3
S1133AD08132910524F4099709F442C03BC0843231
S1133AE0910599F08697E1F135C08D339105C1F1C7
S1133AF08E3391051CF4899749F12CC08C379105BC
S1133B0079F18E37910561F125C08A819B810E94EC
S1133B10EC2D813430F08A819B810E94EC2D893414
S1133B2010F081E001C080E0882331F08E819F8114
S1133B3022E0FC01228339C08A819B8101969B8308
S1133B408A830FC089818F5F89830BC089818150EB
S1133B50898307C08E819F8124E0FC01228325C0D4
S1133B6000008981882334F48E819F8123E0FC0145
S1133B7022831BC08E819F81FC01808191819C01E5
S1133B802F5F3F4F8E819F81FC01318320838A8187
S1133B909B8101969B838A833DCF8981882329F069
S1133BA08E819F8123E0FC01228327960FB6F8942F
S1133BB0DEBF0FBECDBFDF91CF910895CF93DF93CA
S1133BC0CDB7DEB72B970FB6F894DEBF0FBECDBFCF
S1133BD09F838E83798768875B874A878E819F81DD
S1133BE09B838A831D821C8219821982998181E0B8
S1133BF08927882371F0AE014C5F5F4F2885398592
S1133C00CE010296B9010E94461A982F8981892B08
S1133C108983998181E08927882371F0AE014C5F03
S1133C205F4F28853985CE010296B9010E94651B34
S1133C30982F8981892B8983998181E08927882319
S1133C4071F0AE014C5F5F4F28853985CE01029635
S1133C50B9010E948E1C982F8981892B89838981BF
S1133C60882309F0C2CF2C813D8188859985FC0188
S1133C70338322838C819D81892B29F48A859B85BA
S1133C8029E0FC01228300002B960FB6F894DEBFD6
S1133C900FBECDBFDF91CF910895CF93DF93CDB702
S1133CA0DEB72B970FB6F894DEBF0FBECDBF998752
S1133CB088877B876A871A82198288859985FC019F
S1133CC02281338189819A818217930708F0C5C1C3
S1133CD088859985FC012081318189819A81820FAF
S1133CE0931FFC0180818B8389819A819C012F5FC2
S1133CF03F4F88859985FC01828193812817390774
S1133D0058F488859985FC012081318189819A81C3
S1133D100196820F931F02C080E090E09D838C8304
S1133D2089819A81892B59F088859985FC012081A4
S1133D30318189819A810197820F931F02C080E0AB
S1133D4090E09F838E838B810E94B019882309F4AD
S1133D507CC08B81883039F58C819D81892B31F42D
S1133D608A859B8527E0FC01228377C18C819D8114
S1133D70FC018081803269F08C819D81FC0180810D
S1133D800E94C419982F81E08927882311F081E0CB
S1133D9001C080E0882309F458C08A859B8525E00A
S1133DA0FC0122835AC18C819D81892B31F48A853F
S1133DB09B8527E0FC01228350C18E819F81892B42
S1133DC031F48A859B8528E0FC01228346C18E81DB
S1133DD09F81FC018081813269F08E819F81FC0189
S1133DE080810E94C419982F81E08927882311F0CB
S1133DF081E001C080E0882331F08A859B8526E03C
S1133E00FC0122832AC18C819D81FC018081803246
S1133E1099F08C819D81FC0180810E94C419982FA6
S1133E2081E08927882341F08C819D81FC01808178
S1133E30883011F081E001C080E0882331F08A8568
S1133E409B8525E0FC01228308C18B810E94C41953
S1133E50882309F444C08C819D81892BF1F08C81E5
S1133E609D81FC0180810E94C419882369F08C81A2
S1133E709D81FC0180810E94FA19982F81E0892795
S1133E80882311F081E001C080E0882331F08A8525
S1133E909B8525E0FC012283E0C08E819F81892BD4
S1133EA0F1F08E819F81FC0180810E94C4198823D6
S1133EB069F08E819F81FC0180810E94EB19982F0B
S1133EC081E08927882311F081E001C080E0882304
S1133ED031F08A859B8526E0FC012283BEC08B815C
S1133EE00E94D819882309F4B2C08B810E94EB196F
S1133EF0882309F456C08C819D81892B39F18C81EA
S1133F009D81FC0180810E94C419982F81E089273A
S1133F10882399F08C819D81FC018081883069F02F
S1133F208C819D81FC0180810E94EB19982F81E096
S1133F308927882311F081E001C080E0882361F0A3
S1133F408A859B8525E0FC01228387C08A859B8521
S1133F5027E0FC01228381C08E819F81892B09F196
S1133F608E819F81FC0180810E94B019982F81E08D
S1133F708927882369F08E819F81FC0180810E94BA
S1133F80EB19982F81E08927882311F081E001C083
S1133F9080E0882331F08A859B8526E0FC0122831A
S1133FA05CC08B810E94FA19882309F450C08C816B
S1133FB09D81892B09F18C819D81FC0180810E9466
S1133FC0B019982F81E08927882369F08C819D811D
S1133FD0FC0180810E94FA19982F81E089278823A7
S1133FE011F081E001C080E0882331F08A859B854F
S1133FF025E0FC01228331C08E819F81892B09F148
S11340008E819F81FC0180810E94C419982F81E0D8
S11340108927882369F08E819F81FC0180810E9419
S1134020FA19982F81E08927882311F081E001C0D3
S113403080E0882361F08A859B8526E0FC01228349
S11340400CC08A859B8528E0FC01228306C08981F7
S11340509A8101969A83898330CE2B960FB6F89471
S1134060DEBF0FBECDBFDF91CF910895CF93DF9315
S113407000D0CDB7DEB79A83898300000F900F90EC
S1134080DF91CF9108950F931F93CF93DF93CDB713
S1134090DEB7C358D1090FB6F894DEBF0FBECDBF4B
S11340A09E0120583F4FF90191838083CE018E57A2
S11340B09F4FFC0171836083CE0108960E943620D5
S11340C01A8219821C821B821E821D82CE01805894
S11340D09F4FFC0180819181FC01228133818D817C
S11340E09E818217930708F000C1CE0180589F4F2C
S11340F0FC0180819181FC01208131818D819E812F
S1134100820F931FFC0180818F838F81882309F4A0
S1134110E6C08F810E94C4198823B1F0CE01805873
S11341209F4FFC0180819181FC01208131818B8131
S11341309C81AC014F5F5F4F5C834B83820F931F65
S11341402F81FC012083CBC08F810E94EB1988232F
S113415091F089819A819C012F5F3F4F3A83298393
S11341609E01285F3F4FBC01C9010E9422222F817A
S1134170FC012083B4C08F810E94FA19882309F4BA
S113418046C089819A81892BA9F089819A819C01F1
S113419021503109CE010896B9010E942222FC0166
S11341A080810E94EB19982F81E08927882311F0E0
S11341B081E001C080E0882321F1CE0180589F4F27
S11341C0FC0180819181FC01208131818B819C8162
S11341D0AC014F5F5F4F5C834B838901080F191F4C
S11341E089819A8101979A83898329813A81CE01B1
S11341F00896B9010E942222FC018081F801808383
S1134200C0CF89819A8101979A83898368C08F81FD
S11342100E94B019882309F462C089819A81892B8C
S113422031F189819A819C0121503109CE0108968E
S1134230B9010E942222FC0180810E94EB19982F6F
S113424081E08927882399F089819A819C012150F2
S11342503109CE010896B9010E942222FC01808115
S11342606F810E949619882311F081E001C080E0DB
S1134270882321F1CE0180589F4FFC0180819181D8
S1134280FC01208131818B819C81AC014F5F5F4FA8
S11342905C834B838901080F191F89819A810197D7
S11342A09A83898329813A81CE010896B9010E94B3
S11342B02222FC018081F8018083AFCF89819A8119
S11342C09C012F5F3F4F3A8329839E01285F3F4F14
S11342D0BC01C9010E9422222F81FC0120838D810F
S11342E09E8101969E838D83F1CE89819A81892B4B
S11342F021F1CE0180589F4FFC0180819181FC0106
S1134300208131818B819C81AC014F5F5F4F5C8345
S11343104B838901080F191F89819A8101979A8318
S1134320898329813A81CE010896B9010E9422220B
S1134330FC018081F8018083D8CFCE0180589F4F43
S1134340FC01808191812B813C81FC013383228398
S1134350CE0108960E9415220000CD57DF4F0FB6FC
S1134360F894DEBF0FBECDBFDF91CF911F910F91A7
S11343700895CF93DF9300D000D000D0CDB7DEB73F
S11343809A8389837C836B835E834D838D819E8135
S1134390FC018281882311F080E03EC02D813E81A2
S11343A089819A81B9010E94F71C8D819E81FC014B
S11343B08281882311F080E02FC04D815E812B81A2
S11343C03C8189819A81B9010E94DE1D8D819E8183
S11343D0FC018281882311F080E01EC02D813E8182
S11343E08B819C81B9010E944D1E8D819E81FC01AF
S11343F08281882311F080E00FC02D813E818B8162
S11344009C81B9010E9443208D819E81FC0192818F
S113441081E0992309F080E026960FB6F894DEBF78
S11344200FBECDBFDF91CF910895CF93DF9300D01E
S1134430CDB7DEB79A83898300000F900F90DF9188
S1134440CF910895CF93DF9300D000D0CDB7DEB7DE
S11344509A8389837C836B8329813A818B819C81B4
S1134460820F931F0F900F900F900F90DF91CF91B9
S11344700895CF93DF93CDB7DEB782EF92E00E9429
S1134480CE2C0E94AE2C0000DF91CF910895CF93E3
S1134490DF93CDB7DEB789E193E00E94CE2C0E9472
S11344A0AE2C0000DF91CF910895CF93DF9300D01D
S11344B0CDB7DEB79A83898389819A81892B29F4C0
S11344C08FE792E00E94CE2C5FC082E892E00E94C7
S11344D0CE2C89819A810E941C2D86E393E00E9450
S11344E0CE2C89819A81CC01A0E0B0E041E050E07B
S11344F026E030E0841B950B2817390708F443C0E5
S113450084589F4FFC010C94D7318AE692E00E94B4
S1134510CE2C8AE892E00E94CE2C8FE692E00E9494
S1134520CE2C32C08AE692E00E94CE2C82E992E040
S11345300E94CE2C8FE692E00E94CE2C25C08AE603
S113454092E00E94CE2C89E992E00E94CE2C8FE664
S113455092E00E94CE2C18C08AE692E00E94CE2CF3
S113456080EA92E00E94CE2C8FE692E00E94CE2C4C
S11345700BC086EA92E00E94CE2C06C084EC92E046
S11345800E94CE2C01C000000E94AE2C01C000008D
S11345900F900F90DF91CF910895CF93DF9300D0C8
S11345A000D0CDB7DEB79A8389837C836B8384E2A2
S11345B00E94692C89819A810E941C2D86E692E0D2
S11345C00E94CE2C8B819C810E941C2D0E94AE2CBB
S11345D000000F900F900F900F90DF91CF910895EE
S11345E0CF93DF93CDB7DEB7C558D1090FB6F89492
S11345F0DEBF0FBECDBF1D8281E08E831F82CE0140
S113460005960E94140B8D81882F90E0BC0184E6EE
S113461090E00E94CD228E81882F90E0BC0185E637
S113462090E00E94CD2288EC90E09A8389831B82DB
S11346308B818830B0F586E488878AE089871A867A
S11346401B86CE0108966B810E94500B8885482FEB
S113465050E089819A819C012F5F3F4F3A832983DF
S1134660BA010E94CD228985482F50E089819A8120
S11346709C012F5F3F4F3A832983BA010E94CD22C8
S11346808A85282F30E089819A81B9010E94CD2240
S113469089819A8108969A8389838B818F5F8B8322
S11346A0C7CF8CE291E09A8389831C828C81883005
S11346B0A0F581E08C871D86CE010C966C810E944A
S11346C0990B8C85482F50E089819A819C012F5F3A
S11346D03F4F3A832983BA010E94CD22CE010E9620
S11346E06C810E94DE0B84E20E94692C89819A818C
S11346F00E941C2D86E692E00E94CE2CCE010E96DE
S11347000E94882C0E94AE2C89819A8109969A83F2
S113471089838C818F5F8C83C9CF80E090E00E9475
S113472055220000CB57DF4F0FB6F894DEBF0FBE03
S1134730CDBFDF91CF910895CF93DF93CDB7DEB78F
S113474029970FB6F894DEBF0FBECDBF0E94231584
S1134750982F81E08927882311F00E9439150E943F
S11347602C150E943915CE0102960E946D151982EE
S113477089818830A0F48981882F90E09E012E5F82
S11347803F4F820F931FFC0180810E94FC2C80E02C
S113479091E00E94882C89818F5F8983E9CF0E94F0
S11347A0AE2C000029960FB6F894DEBF0FBECDBF25
S11347B0DF91CF910895CF93DF9300D000D0CDB790
S11347C0DEB78AE393E00E94CE2C82E00E94BA2CEA
S11347D08BE493E00E94CE2C0E94AE2C83E593E000
S11347E00E94CE2C0E94AE2C89E893E00E94CE2C2D
S11347F00E94AE2C8BEC93E00E94CE2C82E00E94AF
S1134800BA2C8BEF93E00E94CE2C0E94AE2C8FE04A
S113481094E00E94CE2C0E94AE2C8CE494E00E9482
S1134820CE2C82E00E94BA2C8CE794E00E94CE2C1D
S11348300E94AE2C80E994E00E94CE2C0E94AE2C03
S113484081EB94E00E94CE2C82E00E94BA2C82ED8F
S113485094E00E94CE2C0E94AE2C86EE94E00E943E
S1134860CE2C0E94AE2C87E095E00E94CE2C82E0F4
S11348700E94BA2C88E295E00E94CE2C0E94AE2CB5
S113488080E495E00E94CE2C82E00E94BA2C85E65A
S113489095E00E94CE2C0E94AE2C8DE795E00E94FC
S11348A0CE2C82E00E94BA2C82EA95E00E94CE2CA3
S11348B00E94AE2C8AEB95E00E94CE2C82E00E94EE
S11348C0BA2C8FED95E00E94CE2C0E94AE2C87EF7F
S11348D095E00E94CE2C83E00E94BA2C8CE196E0F5
S11348E00E94CE2C0E94AE2C85E296E00E94CE2C33
S11348F00E94AE2C81E496E00E94CE2C0E94AE2C45
S11349008AE696E00E94CE2C82E00E94BA2C89E9C5
S113491096E00E94CE2C0E94AE2C86EA96E00E947D
S1134920CE2C0E94AE2C89EB96E00E94CE2C0E94E5
S1134930AE2C8EED96E00E94CE2C82E00E94BA2C22
S11349408EE097E00E94CE2C0E94AE2C89E597E081
S11349500E94CE2C83E00E94BA2C88EC91E00E9445
S1134960CE2C84E20E94692C8EEC91E00E94CE2C25
S11349708AED91E00E94CE2C0E94AE2C88EC91E04E
S11349800E94CE2C83E50E94692C8EEC91E00E945B
S1134990CE2C80EA97E00E94CE2C8AED91E00E9412
S11349A0CE2C0E94AE2C88EC91E00E94CE2C89E49F
S11349B00E94692C8EEC91E00E94CE2C88EA97E04C
S11349C00E94CE2C8AED91E00E94CE2C0E94AE2C47
S11349D088EC91E00E94CE2C8FE40E94692C8EEC2E
S11349E091E00E94CE2C8FEA97E00E94CE2C8AEDB3
S11349F091E00E94CE2C0E94AE2C88EC91E00E94A3
S1134A00CE2C85E40E94692C8EEC91E00E94CE2C81
S1134A1087EB97E00E94CE2C8AED91E00E94CE2C89
S1134A2082E00E94BA2C83EC97E00E94CE2C0E9474
S1134A30AE2C86ED97E00E94CE2C82E00E94BA2C28
S1134A408DEE97E00E94CE2C0E94AE2C89E098E077
S1134A500E94CE2C82E00E94BA2C88EC90E09A83CB
S1134A6089831B828B81883008F05FC082E00E94BA
S1134A70BA2C84E20E94692C89819A819C012F5F5F
S1134A803F4F3A8329830E941C2D8EEE91E00E94B1
S1134A90CE2C8B818F5B0E94692C83E092E00E9474
S1134AA0CE2C87E492E00E94CE2C0E94AE2C84E2AD
S1134AB00E94692C89819A819C012F5F3F4F3A8320
S1134AC029830E941C2D8EEE91E00E94CE2C8B81B6
S1134AD08F5B0E94692C80E192E00E94CE2C87E4D7
S1134AE092E00E94CE2C0E94AE2C84E20E94692C9B
S1134AF089819A810E941C2D8EEE91E00E94CE2C19
S1134B008B818F5B0E94692C8EE192E00E94CE2CF7
S1134B1082E492E00E94CE2C89819A8108969A833D
S1134B2089838B818F5F8B839DCF0E94AE2C8CE217
S1134B3091E09A8389831C828C81883008F046C076
S1134B4082E00E94BA2C84E20E94692C89819A81B5
S1134B509C012F5F3F4F3A8329830E941C2D88EFCD
S1134B6091E00E94CE2C8C818F5B0E94692C8AE29A
S1134B7092E00E94CE2C82E492E00E94CE2C0E940D
S1134B80AE2C84E20E94692C89819A819C012F5F5A
S1134B903F4F3A8329830E941C2D88EF91E00E94A5
S1134BA0CE2C8C818F5B0E94692C84E392E00E945E
S1134BB0CE2C8EE492E00E94CE2C89819A810896B4
S1134BC09A8389838C818F5F8C83B6CF0E94AE2CAD
S1134BD080E090E00E94552200000F900F900F900B
S1134BE00F90DF91CF910895CF93DF93CDB7DEB7C8
S1134BF02C970FB6F894DEBF0FBECDBF9E838D8376
S1134C0078876F835A8749873C872B878D819E815C
S1134C100E941F2C6DE30E94C52D0E94C12E9A8311
S1134C20898389819A81892B09F189819A810E94DA
S1134C3000329C838B838B819C819923BCF02B81D4
S1134C403C8189859A852817390780F02B813C811E
S1134C508B859C858217930748F02B813C818F813B
S1134C609885FC013183208381E005C084E090E0D5
S1134C700E94552280E02C960FB6F894DEBF0FBE3A
S1134C80CDBFDF91CF910895CF93DF9300D000D0B3
S1134C9000D0CDB7DEB79E838D838D819E810E9427
S1134CA02E2C01969A8389831C821B8289819A8186
S1134CB09C012F5F3F4F3A832983FC0180810E942E
S1134CC0652E882331F08B819C8101969C838B8394
S1134CD0EDCF8B819C8126960FB6F894DEBF0FBE74
S1134CE0CDBFDF91CF910895CF93DF93CDB7DEB7DA
S1134CF02A970FB6F894DEBF0FBECDBF98878F8377
S1134D007A8769878F8198850E94442621E00397DA
S1134D1009F020E0222309F443C08F8198850E9482
S1134D202E2C01960E9400329A83898389819A816C
S1134D3018161906ACF51B821C821D821E8229815D
S1134D403A8189859A85A901481B590BCA019C019E
S1134D50ADECBCEC0E94DD319695879596958795D0
S1134D60969587958B8389819A812AE030E0B901F1
S1134D700E94C3318C838F8198850E941F2C4DE340
S1134D8063E070E00E94052E21E0019609F420E022
S1134D902D8381E08E838B819C81AD81BE8103C094
S1134DA080E090E0DC01BC01CD012A960FB6F894B6
S1134DB0DEBF0FBECDBFDF91CF910895CF93DF93B8
S1134DC0CDB7DEB729970FB6F894DEBF0FBECDBFBF
S1134DD09F838E8379876887198281E08A831B8207
S1134DE0CE0101960E94140B8E819F81FC01828169
S1134DF08823F9F01D821C82BE016C5F7F4F888579
S1134E00998521E030E040E050E00E94F4258823B9
S1134E10E9F08C819D8121E0019709F020E029834C
S1134E20CE0101960E94800C80E090E00E94552201
S1134E300DC08981882319F081E090E002C080E0F0
S1134E4090E0BC0184E690E00E94CD220000299607
S1134E500FB6F894DEBF0FBECDBFDF91CF9108959A
S1134E60CF93DF93CDB7DEB729970FB6F894DEBFA3
S1134E700FBECDBF9F838E8379876887198281E0B7
S1134E808A831B82CE0101960E94140B8E819F811E
S1134E90FC0182818823F9F01D821C82BE016C5FB3
S1134EA07F4F8885998521E030E040E050E00E9402
S1134EB0F4258823E9F08C819D8121E0019709F094
S1134EC020E02A83CE0101960E94800C80E090E0CD
S1134ED00E9455220DC08A81882319F081E090E058
S1134EE002C080E090E0BC0185E690E00E94CD2203
S1134EF0000029960FB6F894DEBF0FBECDBFDF9138
S1134F00CF910895CF93DF93CDB7DEB72A970FB62D
S1134F10F894DEBF0FBECDBF98878F837A876987E9
S1134F2086E489838AE08A831B821C828F81988528
S1134F30FC018081682FCE0101960E94500B8F8165
S1134F409885FC018281882301F11E821D82BE01A5
S1134F506B5F7F4F89859A8524E630E040E050E01E
S1134F600E94F425882389F18D819E8189838F8114
S1134F709885FC018081682FCE0101960E94A70CC0
S1134F8080E090E00E94552220C08981482F50E0A3
S1134F908F819885FC018081882F90E0880F991F6C
S1134FA09C01220F331F220F331F820F931F9C017A
S1134FB028533F4F8F819885FC018181882F90E091
S1134FC0820F931FBA010E94CD2200002A960FB6C9
S1134FD0F894DEBF0FBECDBFDF91CF910895CF937C
S1134FE0DF93CDB7DEB72A970FB6F894DEBF0FBEB6
S1134FF0CDBF98878F837A87698786E489838AE01F
S11350008A831B821C828F819885FC018081682F92
S1135010CE0101960E94500B8F819885FC018281FC
S1135020882301F11E821D82BE016B5F7F4F89853B
S11350309A8524E630E040E050E00E94F42588237D
S113504089F18D819E818A838F819885FC0180817D
S1135050682FCE0101960E94A70C80E090E00E9488
S1135060552220C08A81482F50E08F819885FC0109
S11350708081882F90E0880F991F9C01220F331F95
S1135080220F331F820F931F9C0128533F4F8F81A0
S11350909885FC018181882F90E0820F931FBA01CB
S11350A00E94CD2200002A960FB6F894DEBF0FBEF0
S11350B0CDBFDF91CF910895CF93DF93CDB7DEB706
S11350C02A970FB6F894DEBF0FBECDBF98878F83A3
S11350D07A87698786E489838AE08A831B821C82B3
S11350E08F819885FC018081682FCE0101960E94F2
S11350F0500B8F819885FC018281882321F11E82C7
S11351001D82BE016B5F7F4F89859A8521E030E067
S113511040E050E00E94F4258823D1F18D819E81E6
S113512021E0019709F020E02B838F819885FC0111
S11351308081682FCE0101960E94A70C80E090E048
S11351400E94552225C08B81882319F041E050E04C
S113515002C040E050E08F819885FC018081882F57
S113516090E0880F991F9C01220F331F220F331FD9
S1135170820F931F9C0128533F4F8F819885FC0118
S11351808181882F90E0820F931FBA010E94CD2263
S113519000002A960FB6F894DEBF0FBECDBFDF9194
S11351A0CF910895CF93DF93CDB7DEB728970FB68D
S11351B0F894DEBF0FBECDBF9E838D8378876F8347
S11351C081E089831A828D819E81FC018081682F10
S11351D0CE0101960E94990B8D819E81FC018281F2
S11351E0882321F11C821B82BE016D5F7F4F8F815A
S11351F0988521E030E040E050E00E94F4258823C7
S1135200D1F18B819C8121E0019709F020E0298371
S11352108D819E81FC018081682FCE0101960E94C0
S1135220D90C80E090E00E94552225C08981882312
S113523019F041E050E002C040E050E08D819E81D1
S1135240FC018081882F90E0880F991F9C01220F18
S1135250331F220F331F820F931F9C01245D3E4F87
S11352608D819E81FC018181882F90E0820F931FA4
S1135270BA010E94CD22000028960FB6F894DEBF32
S11352800FBECDBFDF91CF910895CF93DF93CDB7FC
S1135290DEB7C558D1090FB6F894DEBF0FBECDBF37
S11352A09E012E573F4FF90191838083CE018C5785
S11352B09F4FFC0171836083CE018E579F4FFC0189
S11352C080819181FC018281882309F455C0CE013B
S11352D08C579F4FFC01808191810E941F2C6DE3AC
S11352E00E94C52D01969A8389831C821B821E828B
S11352F01D82CE010A969C838B8318861F82198691
S1135300AE01495F5F4F9E012D5F3F4F89819A81B6
S1135310B9010E94B9218985882391F4CE018E5761
S11353209F4FFC0180819181FC01208189819A81B8
S1135330622F0E940E0D80E090E00E9455222FC043
S113534087E090E00E94552289850E94091A0E94F4
S1135350CE2C8BEE92E00E94CE2C8F8198850E94F9
S11353601C2D82E091E00E94882C89819A810E9400
S1135370882C0E94AE2C13C0CE018E579F4FFC0187
S113538080819181FC012081CE010A96622F0E94C6
S1135390DE0BCE010A960E94882C0E94AE2C0000DF
S11353A0CB57DF4F0FB6F894DEBF0FBECDBFDF91F2
S11353B0CF910895CF93DF93CDB7DEB70E94C10D8F
S11353C00E943018CF93DF93CDB7DEB70E94E40D6F
S11353D00E943018CF93DF93CDB7DEB70E94010E41
S11353E00E943018CF93DF93CDB7DEB70E94C10D72
S11353F00E943018CF93DF93CDB7DEB70E94AC0D77
S11354000E94C10D0E94E40D0E94010E0E943018FA
S1135410CF93DF9300D0CDB7DEB79A8389830E9400
S1135420F02200000F900F90DF91CF910895CF9359
S1135430DF9300D0CDB7DEB79A8389830E949C2383
S113544000000F900F90DF91CF910895CF93DF93D9
S113545000D000D000D0CDB7DEB79E838D838D8180
S11354609E810E943D2C21E0069709F420E022232E
S113547029F081E090E00E94552273C0198289814D
S1135480853050F58D819E810E942E2C9C0189814E
S1135490882F90E0820F931FFC0140812FE138E0B8
S11354A08981882F90E0820F931F9B838A838A814E
S11354B09B81FC0184918C839C8181E0491709F4D0
S11354C080E0882329F081E090E00E94552249C0C1
S11354D089818F5F8983D3CF8D819E810E942E2CF9
S11354E00596FC018081882F90E089349105F9F0BC
S11354F08A3491053CF48432910559F08534910540
S113550021F12AC08F349105C9F08335910541F00A
S113551023C00E94FA2980E090E00E94552221C015
S11355200E94F22980E090E00E9455221AC00E9455
S1135530DA2980E090E00E94552213C00E94E229FB
S113554080E090E00E9455220CC00E94EA2980E08D
S113555090E00E94552205C084E090E00E9455220C
S1135560000026960FB6F894DEBF0FBECDBFDF91C4
S1135570CF910895CF93DF9300D000D000D0CDB762
S1135580DEB79E838D838D819E8164E670E00E94E8
S11355907426DC01CB0189839A83AB83BC838C8121
S11355A0882329F189818823E9F48A81882F90E06E
S11355B0009719F0019749F010C08D819E81BC01BC
S11355C0CE0101960E94DE2616C08D819E81BC010B
S11355D0CE0101960E9430270EC083E090E00E9425
S11355E0552209C082E090E00E94552204C081E067
S11355F090E00E94552226960FB6F894DEBF0FBEA7
S1135600CDBFDF91CF910895CF93DF9300D000D029
S113561000D0CDB7DEB79E838D838D819E8168ECEB
S113562070E00E947426DC01CB0189839A83AB83EA
S1135630BC838C81882381F18981883040F58A81FB
S1135640882F90E08130910569F08230910591F0C6
S1135650892BC1F48D819E81BC01CE0101960E94EB
S113566082271EC08D819E81BC01CE0101960E94BD
S1135670EF2716C08D819E81BC01CE0101960E9448
S11356805C280EC083E090E00E94552209C082E0AD
S113569090E00E94552204C081E090E00E945522CF
S11356A026960FB6F894DEBF0FBECDBFDF91CF9123
S11356B00895CF93DF9300D000D000D0CDB7DEB7EC
S11356C09E838D838D819E816CE271E00E9474269D
S11356D0DC01CB0189839A83AB83BC838C818823CF
S11356E029F189818830E8F48A81882F90E0009735
S11356F019F0019749F010C08D819E81BC01CE0143
S113570001960E94D22816C08D819E81BC01CE01D3
S113571001960E9445290EC083E090E00E94552224
S113572009C082E090E00E94552204C081E090E02C
S11357300E94552226960FB6F894DEBF0FBECDBF49
S1135740DF91CF910895CF93DF93CDB7DEB70E9459
S113575051190E943018CF93DF9300D000D0CDB7F9
S1135760DEB79C838B838B819C810E942E2C9A8331
S1135770898389819A819C012F5F3F4F3A832983D2
S1135780FC01908181E0943209F080E0882309F4DF
S11357904EC089819A81FC018081882F90E08233F8
S11357A0910509F1833391054CF48432910529F173
S11357B08133910599F0892B91F134C0803591059D
S11357C059F1813591051CF4C39791F02BC08235B2
S11357D09105E9F083359105A9F024C08B819C8162
S11357E00E94BA2A24C08B819C810E94042B1FC072
S11357F08B819C810E94592B1AC08B819C810E94B1
S1135800082A15C08B819C810E94172A10C08B81A5
S11358109C810E94262A0BC00E94A32B08C00E94D0
S1135820DB2305C081E090E00E94552200000000C7
S11358300F900F900F900F90DF91CF910895CF9319
S1135840DF9300D0CDB7DEB79A83898389819A81AB
S113585002960F900F90DF91CF910895CF93DF932D
S113586000D0CDB7DEB79A83898389819A81029665
S11358700F900F90DF91CF910895CF93DF9300D0D5
S1135880CDB7DEB79A83898389819A81FC018081AF
S113589091810F900F90DF91CF910895CF93DF9373
S11358A0CDB7DEB785EC90E0FC01108284EC90E08B
S11358B029E1FC01208381EC90E028E1FC012083B4
S11358C082EC90E026E0FC0120830000DF91CF9180
S11358D00895CF93DF931F92CDB7DEB7898380EC11
S11358E090E0FC018081882F90E08072992721E06C
S11358F0892B09F020E0222309F0F1CF86EC90E017
S11359002981FC01208300000F90DF91CF9108953D
S1135910CF93DF9300D000D0CDB7DEB79C838B83C9
S11359208B819C819A83898389819A81FC018081FE
S1135930882361F089819A81FC0180810E94692C0D
S113594089819A8101969A838983EECF00000F9012
S11359500F900F900F90DF91CF910895CF93DF9325
S1135960CDB7DEB785E298E00E94CE2C0000DF912F
S1135970CF910895CF93DF931F92CDB7DEB789837C
S11359808981882331F00E94AE2C898181508983DA
S1135990F7CF00000F90DF91CF910895CF93DF935D
S11359A000D000D000D0CDB7DEB79E838D838D812B
S11359B09E819A83898389819A81FC0184918B8356
S11359C08B818C8381E09C81992309F480E0882376
S11359D049F08C810E94692C8D819E8101969E8361
S11359E08D83E5CF000026960FB6F894DEBF0FBE78
S11359F0CDBFDF91CF910895CF93DF9300D000D036
S1135A001F92CDB7DEB78D838D81882F90E04AE059
S1135A1050E09E012F5F3F4FB9010E942632CE0114
S1135A2001960E94882C00000F900F900F900F9009
S1135A300F90DF91CF910895CF93DF93CDB7DEB769
S1135A4029970FB6F894DEBF0FBECDBF998788871C
S1135A50888599854AE050E09E012F5F3F4FB90148
S1135A600E942632CE0101960E94882C00002996BD
S1135A700FB6F894DEBF0FBECDBFDF91CF9108956E
S1135A80CF93DF93CDB7DEB780EC90E0FC0180814B
S1135A908095881F8827881F882309F0F5CF86EC16
S1135AA090E0FC018081DF91CF910895CF93DF9343
S1135AB0CDB7DEB781EC90E021EC30E0F901208134
S1135AC02068FC0120830000DF91CF9108951F928C
S1135AD00F9200905F000F9211242F933F934F93E6
S1135AE05F936F937F938F939F93AF93BF93EF9342
S1135AF0FF93CF93DF931F92CDB7DEB786EC90E090
S1135B00FC01808189838981883119F4F8940E9489
S1135B10301880911C01882339F48981843221F45E
S1135B2081E080931C011BC080911C01813039F4F9
S1135B308981833421F482E080931C0110C0809118
S1135B401C01823051F489818D3019F089818A30A9
S1135B5021F40E943D190E94301810921C0100008B
S1135B600F90DF91CF91FF91EF91BF91AF919F91F2
S1135B708F917F916F915F914F913F912F910F90F2
S1135B8000925F000F901F901895CF93DF9300D081
S1135B901F92CDB7DEB79A8389836B8389819A81FB
S1135BA0FC018081882381F089819A81FC019081A4
S1135BB08B81981719F489819A8108C089819A8107
S1135BC001969A838983EACF80E090E00F900F904A
S1135BD00F90DF91CF910895CF93DF9300D0CDB78D
S1135BE0DEB79A83898389819A81FC018081882325
S1135BF011F480E005C089819A810196FC018081BD
S1135C000F900F90DF91CF910895CF93DF9300D041
S1135C1000D01F92CDB7DEB79A8389837C836B83D0
S1135C204D838B819C8129813A81820F931FFC01D2
S1135C3080818823A1F08B819C8129813A81820F04
S1135C40931FFC0190818D81981719F48B819C819D
S1135C5008C08B819C8101969C838B83E2CF8FEF5C
S1135C609FEF0F900F900F900F900F90DF91CF91B7
S1135C700895CF93DF931F92CDB7DEB789838981CF
S1135C80813618F089818B3730F08981813428F08E
S1135C9089818B3510F481E001C080E00F90DF91A1
S1135CA0CF910895CF93DF931F92CDB7DEB7898349
S1135CB08981803219F08981893011F481E001C031
S1135CC080E00F90DF91CF910895CF93DF931F92DF
S1135CD0CDB7DEB789838981803328F089818A33FF
S1135CE010F481E001C080E00F90DF91CF9108951E
