S00C000055434E432E73726563EF
S11300000C9414040C9431040C9431040C943104B5
S11300100C94500E0C9431040C9431040C9431045F
S11300200C9431040C9431040C9431040C946B0D35
S11300300C9431040C9431040C9431040C94310468
S11300400C9431040C9431040C94E51B0C9431048D
S11300500C9431040C94BA0C0C9431040C943104B7
S11300600C9431040C9431040C9431040C94310438
S11300700C9431040C9431040C9431040C94310428
S11300800C9431040C94C40D0C9431040C9431047C
S11300900C9431040C9431040C9431040C94310408
S11300A00C9431040C9431040C9431040C943104F8
S11300B00C943104810A9C0AC40AEC0A140B3C0B0C
S11300C0620B1F0C880B990BAA0BBB0BCC0BDD0B23
S11300D0EE0BFF0BDB0EBD0EC00EC30EC60EC90E1B
S11300E0CC0ECF0ED20ED50E010F120F230F340FEC
S11300F0450F560F670F780FD313E013ED13FA1360
S113010007140C1412140407020600050103456DBC
S11301107074792065787072657373696F6E004DC1
S1130120697373696E67206C687320657870726593
S11301307373696F6E004D697373696E67207268BB
S1130140732065787072657373696F6E00496E769B
S1130150616C6964206C6873206578707265737370
S1130160696F6E00496E76616C69642072687320F1
S113017065787072657373696F6E00496E76616C31
S1130180696420636861726163746572004D6973A8
S113019073696E6720706172656E746865736973E4
S11301A000496E76616C6964206F706572616E647B
S11301B0004D6178206C656E6774682065786365AE
S11301C065646564004F6B00245253543D00243130
S11301D03031092D2042757A7A6572200909283157
S11301E02F30290024313030092D20536572696184
S11301F06C204F7574707574200928312F302900D4
S11302002453092D205669657720696E7075742012
S1130210737461747573002424092D2056696577FD
S11302202073657474696E677300657870726573A2
S113023073696F6E20006F75747075742000696E39
S1130240707574200073797374656D2000232045E4
S113025078616D706C65093A204D756C7469706CC9
S11302606520696E70757473206D617070656420AB
S1130270746F206F6E65206F7574707574202D3ED9
S113028020333031203D202441207C202442207C16
S11302902024430023204578616D706C65093A2061
S11302A0584F52202D3E202824412026207E2442CF
S11302B029207C20287E2441202620244229202312
S11302C0202841206F72206E6F74204229206F72A3
S11302D020286E6F74204120616E6420422900231F
S11302E0204F70657261746F7273093A206E6F7477
S11302F028277E272920616E642827262729206F36
S11303007228277C272920657128273D2729002367
S1130310204F706572616E6473093A202441202471
S113032042202443202444202445202446202447DA
S1130330202448002320436F6D6D656E74093A20B4
S11303402320746578740023204578707265737374
S1130350696F6E00232024334E31202D20457870A0
S113036072657373696F6E093A204F757470757492
S1130370207472696767657220636F6E646974695B
S11303806F6E00232024334E30202D204163746986
S1130390766509093A20456E61626C65206469736B
S11303A061626C65206F75747075740023204163FD
S11303B074697665206C6F77206F70656E20636F4B
S11303C06C6C6563746F720023204F757470757460
S11303D00023203132562D532D474E443A202432E7
S11303E04E303D36352024324E313D352024324EB8
S11303F032203D20300023204578616D706C6520EB
S113040053656E736F7220504E50204E4F00232060
S11304103132562D532D474E443A2024324E303D2E
S113042036352024324E313D352024324E32203DA3
S113043020310023204578616D706C652053656E12
S1130440736F7220504E50204E4300232031325699
S11304502D532D474E443A2024324E303D3335201F
S113046024324E313D352024324E32203D2031009D
S113047023204578616D706C652053656E736F72CF
S1130480204E504E204E4F0023203132562D532DF6
S1130490474E443A2024324E303D33352024324EE8
S11304A0313D352024324E32203D2030002320457A
S11304B078616D706C652053656E736F72204E5059
S11304C04E204E430023203132562D533A202432FD
S11304D04E303D37352024324E313D352024324EC6
S11304E032203D2030002320532D474E443A20240F
S11304F0324E303D32352024324E313D35202432C7
S11305004E32203D20310023204578616D706C65AA
S113051020537769746368204E4F0023203132568C
S11305202D533A2024324E303D37352024324E317B
S11305303D352024324E32203D2031002320532DDE
S1130540474E443A2024324E303D32352024324E38
S1130550313D352024324E32203D203000232045C9
S113056078616D706C6520537769746368204E43BD
S1130570002320426F61726420706F776572656436
S1130580204E504E2F504E50204E4F2F4E43207031
S1130590726F78696D6974792073656E736F7273A5
S11305A00023204E432F4E4F2053776974636865B0
S11305B07320636F6E6E656374656420746F20319D
S11305C0325620616E642053454E5345206F72208D
S11305D053454E534520616E6420474E440023200A
S11305E0537570706F727465642053656E736F72A7
S11305F07300232024324E32202D20496E766572FA
S1130600746564093A20496E7665727420696E7067
S113061075742F6F706572616E6420245B412D4880
S11306205D00232024324E31202D204879737465D7
S11306307265736973093A20302D313030252049B1
S11306406E7075742834302529203C3D20283530BF
S113065025202B2F2D2031302529202D3E204641C9
S11306604C534500232024324E30202D20546872F0
S11306706573686F6C64093A20302D313030252061
S1130680496E7075742835312529203E3D2035305A
S113069025202D3E2054525545002320496E707567
S11306A0740023204374726C2D78093A20526573C8
S11306B0657400202D200055434E4320312E3420F4
S11306C05B2724432720636F6E6669675D203A20A9
S11306D052554E0055434E4320312E34205B27247F
S11306E0272068656C703B20272450272072756E84
S11306F05D203A20434F4E46494700206E656172A3
S11307002000454550524F4D20726561642066615A
S1130710696C65642E2044656661756C747320721F
S11307206573746F7265642E0043686172616374EB
S113073065727320706572206C696E6520657863DC
S113074065656465642E0056616C7565004F707450
S1130750696F6E0054617267657400436F6D6D61FB
S11307606E64006572726F723A20004F4B00206E07
S11307706F7420737570706F727465642E00272413
S1130780272000203D200024412026202442207CD4
S1130790202E2E2E292023636F6D6D656E7400301C
S11307A02D3130302900312F3029002065787072C6
S11307B0657373696F6E09280020616374697665D7
S11307C009280020696E7665727465640928002022
S11307D06879737465726573697309280020746895
S11307E0726573686F6C64092800092D204F757455
S11307F07075742000092D20496E70757420006492
S1130800656661756C747320616E64207265626FD5
S11308106F7400092D20526573746F726520002473
S11308205253543D000D0A0011241FBECFEFD8E0EF
S1130830DEBFCDBF11E0A0E0B1E0ECE9FFE302C010
S113084005900D92A630B107D9F721E0A6E0B1E0FA
S113085001C01D92AD31B207E1F70E94F7090C9473
S1130860CC1F0C9400000895CF930E94A6138FEF21
S113087090E00E94770C88EC90E00E947B0D2FEFB3
S113088081EE94E0215080409040E1F700C00000E8
S113089088EC90E00E947B0D0E94A209C82F811170
S11308A006C00E94990986E090E00E94B4138C2F40
S11308B0CF9108950F931F93CF93DF93CDB7DEB7F6
S11308C0C45ED1090FB6F894DEBF0FBECDBF1A8245
S11308D01982FE01339682EEDF011D928A95E9F7B3
S11308E000E010E00E94D71B8D3011F18831E9F04F
S11308F08A30F1F029813A81213E310508F5A901B8
S11309004F5F5F4F5A834983E3E0F0E0EC0FFD1F34
S1130910E20FF31F8083E3E0F0E0EC0FFD1FE40F30
S1130920F51F10820F5F1F4FDDCF8FEF9FEF01C0C8
S1130930C8018E3FBFEF9B0719F0019669F006C00E
S113094085E090E00E94B41381E007C0CE010196D7
S11309500E94291B81E001C080E0CC51DF4F0FB61B
S1130960F894DEBF0FBECDBFDF91CF911F910F91E1
S1130970089581E008950895FC01108281E0818347
S11309801282ED5FFE4F88E2DF011D928A95E9F73E
S113099008950E94AF0C0E94DF1B0E940A0E86E994
S11309A090E00E947B0D2FEF82E597E0215080407C
S11309B09040E1F700C000000E940C0E2FEF89E682
S11309C098E1215080409040E1F700C00000E5CF5D
S11309D02F923F924F925F926F927F928F929F924B
S11309E0AF92BF92CF92DF92EF92FF920F931F9339
S11309F0CF93DF93CDB7DEB7CE5FD1090FB6F894AE
S1130A00DEBF0FBECDBFC450DF4F99838883CC5F58
S1130A10D0400E94AD1384EF91E00E947B0D80E0F2
S1130A209FEF0E94770C0E94A209882309F4E0C07A
S1130A30C450DF4F88819981CC5FD0400E947F07EA
S1130A40C450DF4F08811981CC5FD0400D5F1E4F29
S1130A50F12C0F2EF6E4DF2EF02D0F2EFAE0EF2E00
S1130A60F02DD982EA821B821C826F2DCE01019661
S1130A700E94AF078981F80180838A8181838B81F9
S1130A808283F3940B5F1F4FF8E0FF12EACFB0C0EC
S1130A901A2D8FEFA81AB80ADA2CCC24C6010E94AA
S1130AA0770C91E0C850DF4F9883C85FD040C7509F
S1130AB0DF4F1882C95FD040612FCE0188509F4F0D
S1130AC00E94E907CD50DF4F19821882C35FD040DE
S1130AD0CF50DF4F99828882C15FD040612FCE0111
S1130AE087589F4F0E941708CB50DF4F19821882F6
S1130AF0C55FD040C950DF4F1882C75FD040AE01F8
S1130B004B505F4FBE016F507F4FCE0187589F4FB0
S1130B100E946C13C950DF4F8881C75FD040811198
S1130B2059C0C20102C0959587951A95E2F7C25043
S1130B30DF4F8883CE5FD040382E3094C450DF4FCF
S1130B40E880F980CC5FD04000E010E0C601802B43
S1130B50912B0E94770CC850DF4F8881C85FD0402A
S1130B60882349F1F3010083C550DF4F6881CB5FCF
S1130B70D040722DCE018F509F4F0E94370A80348F
S1130B8069F0813481F4F7018381C250DF4FF88129
S1130B90CE5FD0408F2BF701838311C0F70183818F
S1130BA0832183830CC0C450DF4F88819981CC5F3B
S1130BB0D0400E94C904F7018381832183830F5F9E
S1130BC01F4FFFEFEF1AFF0A011581E0180709F024
S1130BD0BDCF08C0C450DF4F88819981CC5FD0401D
S1130BE00E94C90498E0A916B10409F051CF14C0B9
S1130BF0A12CB12CFE0131964F016894442447F88E
S1130C00512C3E01FAEF6F0E711CC550DF4F688204
S1130C10CB5FD040272C3CCF0E94AF0C0E94DF1B3F
S1130C208FEF9FEF0E94770C81E0C250DF4F0FB629
S1130C30F894DEBF0FBECDBFDF91CF911F910F910E
S1130C40FF90EF90DF90CF90BF90AF909F908F90E8
S1130C507F906F905F904F903F902F900895CF9327
S1130C60DF93CDB7DEB761970FB6F894DEBF0FBE42
S1130C70CDBF3C0188E0FE013196DF01982F1D9223
S1130C809A95E9F73896DF011D928A95E9F78FEF77
S1130C9089870E94310DBFEFB98B312C882483944E
S1130CA0912C0E942C0DCE0101960E945A0D0E9497
S1130CB0310DFE0131962F017E01F9E0EF0EF11C9A
S1130CC063018DEFC81A8EEFD80A520107E010E0D5
S1130CD0212CF50161915F01D7018C916817E1F036
S1130CE06C93C6010E94C91C882359F0C401002ECC
S1130CF002C0880F991F0A94E2F7382A2224239409
S1130D000BC0C401002E02C0880F991F0A94E2F799
S1130D108095382222242394BFEFEB1AFB0A01505A
S1130D201109E5E0CE0ED11C0F3FFFEF1F0789F636
S1130D308989381609F1032D10E07301E00EF11EC4
S1130D40D70113968C910E948F0C902F8827F7015E
S1130D502381822B0E94770CD30111968C918823D6
S1130D6051F084E690E00E94990D84E690E00E94A0
S1130D70EE0D398A01C0398A222009F492CFF30199
S1130D808081882309F48DCF8301095F1E4F0F2EC4
S1130D90F1E4FF2EF02D8F2D0E946B1B8AE30E943D
S1130DA06B1BD2018D912D010E94A21B8AE30E942C
S1130DB06B1BF8018081882321F081E30E946B1B67
S1130DC003C080E30E946B1B80E20E946B1BF394C0
S1130DD00B5F1F4FF9E4FF12DECF0E94931B84EFD9
S1130DE091E00E94D40D5DCF81E008950895CF93E2
S1130DF0DF93CDB7DEB7CB52D1400FB6F894DEBF48
S1130E000FBECDBFCE0101960E94BC04CE01019657
S1130E100E94E804882331F0CE0101960E942F0637
S1130E208111FACFCE0101960E94F406CE010196FB
S1130E300E94F606C55DDE4F0FB6F894DEBF0FBE06
S1130E40CDBFDF91CF910895CF93DF931F92CDB79C
S1130E50DEB70E94A80C811104C00E94630E88238F
S1130E60D9F00E945A0ECE0101960E943304CE019D
S1130E7001960E943404882331F0CE0101960E9429
S1130E805A048111FACFCE0101960E94B904CE0111
S1130E9001960E94BB0402C00E94F7060F90DF91E6
S1130EA0CF9108951F93CF93DF93DC01FB0130971B
S1130EB009F140E050E070E080E061E010E0282FAC
S1130EC030E02115310549F4220F232F221F330B63
S1130ED0862F232B19F4812F01C0862FED01C40F17
S1130EE0D51F9881890F7F5F472F50E04E175F070A
S1130EF030F301C080E0DF91CF911F9108950F93EB
S1130F001F93CF93DF9300D01F92CDB7DEB78C0130
S1130F10198281E08A831B8243E050E060E070E044
S1130F20CE0101960E94921F62E070E0CE0101960C
S1130F300E9452079B81891309C089819A81AB81E0
S1130F40F80180839183A28381E001C080E00F9047
S1130F500F900F90DF91CF911F910F9108950F93F0
S1130F601F93CF93DF9300D000D0CDB7DEB78C01B1
S1130F7086E489838AE08A831B821C8270E0660F80
S1130F80771F660F771F6D5F7F4F44E050E0CE01FF
S1130F9001960E94921F63E070E0CE0101960E94C8
S1130FA052079C8189130BC089819A81AB81BC81D2
S1130FB0F80180839183A283B38381E001C080E040
S1130FC00F900F900F900F90DF91CF911F910F9181
S1130FD008950F931F93CF93DF9300D0CDB7DEB75F
S1130FE08C0181E089831A8270E0660F771F6D5D42
S1130FF07F4F42E050E0CE0101960E94921F61E0D3
S113100070E0CE0101960E9452079A81891307C0AD
S113101089819A81F8019183808381E001C080E015
S11310200F900F90DF91CF911F910F910895BF9270
S1131030CF92DF92EF92FF920F931F93CF93DF93A0
S11310406C0188E090E0861B910929E7289F8001C4
S1131050299F100D112480E094E0801B910B0E94C5
S1131060A21FB82EC1E0D4E0C01BD10B89E794E0E5
S11310707C01E01AF10ACE15DF0568F48601CE0181
S11310800E94A21FF80181938F01882321F02196E9
S1131090CE15DF05A0F3F6018081882361F0C60137
S11310A00E94891CBC01C6010E94520791E0B81637
S11310B019F090E001C090E0892FDF91CF911F914A
S11310C00F91FF90EF90DF90CF90BF900895CF9352
S11310D0DF93EC0162E070E00E9452078A8343E0F0
S11310E050E060E070E0CE010E94AA1FDF91CF9132
S11310F008950F931F93CF938C01C62F63E070E084
S11311000E945207F80183836C2F70E0660F771FEB
S1131110660F771F6D5F7F4F44E050E0C8010E9467
S1131120AA1FCF911F910F9108950F931F93CF93EF
S11311308C01C62F61E070E00E945207F8018183A0
S11311406C2F70E0660F771F6D5D7F4F42E050E0BB
S1131150C8010E94AA1FCF911F910F910895AF92C9
S1131160BF92CF92DF92EF92FF920F931F93CF9390
S1131170DF936C0188E090E0861B910949E7489F62
S11311809001499F300D112480E094E05C01A21A83
S1131190B30AC1E0D4E0C21BD30B89E794E07C011D
S11311A0E21AF30ACE15DF05A0F4F6016081662386
S11311B081F086010F5F1F4F05C0F80161918F0117
S11311C0662339F0CE010E94BA1F2196CE15DF05A1
S11311D0A0F360E0CE010E94BA1FC6010E94891CE0
S11311E0BC01C6010E945207682FC5010E94BA1FA4
S11311F0DF91CF911F910F91FF90EF90DF90CF90EF
S1131200BF90AF900895CF93DF9300D01F92CDB7D6
S1131210DEB7198281E08A831B82CE0101960E9487
S113122067080F900F900F90DF91CF910895FF9270
S11312300F931F93CF93DF9300D000D0CDB7DEB7C9
S113124010E00F2EF6E4FF2EF02D0AE0F9820A8357
S11312501B821C82612FCE0101960E9479081F5FB8
S11312601830A1F70F900F900F900F90DF91CF914E
S11312701F910F91FF9008950F931F93CF93DF93C6
S113128000D0CDB7DEB710E001E009831A82612FE8
S1131290CE0101960E9495081F5F1830B1F70F9098
S11312A00F90DF91CF911F910F910895BF92CF922C
S11312B0DF92EF92FF920F931F93CF93DF93CDB7FB
S11312C0DEB7CB57D1090FB6F894DEBF0FBECDBF42
S11312D010E00F2EF9E7BF2EF02D7E0183E0E80E1B
S11312E0F11C04E26894CC24C1F8D12CF7018B2DB5
S11312F011928A95E9F70B83DA82C98281E4810F1E
S11313008C83612FC7010E94AF081F5F183071F7EB
S1131310C558DF4F0FB6F894DEBF0FBECDBFDF91C7
S1131320CF911F910F91FF90EF90DF90CF90BF90DE
S113133008950E9403090E9417090E943C090E9413
S113134056090895FF920F931F93CF93DF93CDB760
S1131350DEB7CA57D1090FB6F894DEBF0FBECDBFB2
S1131360198281E08A831B82CE0101960E947F0745
S1131370882381F110E00F2EF6E4FF2EF02D0AE011
S1131380F9820A831B821C82612FCE0101960E947E
S1131390AF078823F9F01F5F183091F710E001E0E0
S11313A0EA960FAFEA97EB961FAEEB97612FCE014B
S11313B087589F4F0E94E907882359F0612FCE0177
S11313C001960E941708882321F01F5F183041F707
S11313D001C080E0C658DF4F0FB6F894DEBF0FBEE1
S11313E0CDBFDF91CF911F910F91FF9008950E947F
S11313F0380C0E940E0E0E945F1B0E9424070E945C
S11314001D0E90E0880F892F881F990B9195892BC9
S113141011F480E4089581E4089586FD02C080E417
S1131420089581E4089585FD02C080E4089581E46F
S1131430089584FD02C080E4089581E4089583FD45
S113144002C080E4089581E4089582FD02C080E42E
S1131450089581E4089581FD02C080E4089581E443
S1131460089580FD02C080E4089581E408956F9298
S11314707F928F929F92AF92BF92CF92DF92EF9220
S1131480FF920F931F93CF93DF93CDB7DEB7C85767
S1131490D1090FB6F894DEBF0FBECDBFDC011296A2
S11314A0CD90DC901397C114D10409F4C4C10D90FC
S11314B0BC91A02DEC91EE2309F4BFC15B017D0129
S11314C0FFEFEF1AFF0ACA0EDB1E00E010E068947B
S11314D0662466F80F2EF1E47F2EF02D06C0D701A6
S11314E0ED917D01EE2309F49EC18E2F90E0FC0165
S11314F03897E031F10508F0A2C1E65AFF4F0C9489
S1131500191FC8010197E1E0F0E0EC0FFD1FE80F9F
S1131510F91F2081213441F4E1E0F0E0EC0FFD1FDC
S1131520E80FF91F60827BC1E1E0F0E0EC0FFD1FE2
S1131530E80FF91F708273C19801215031090250DC
S11315401109A1E0B0E0AC0FBD1FA20FB31FE1E091
S1131550F0E0EC0FFD1FE00FF11F9C9180818923C7
S1131560813449F4E1E0F0E0EC0FFD1FE00FF11FDE
S11315707082890154C1E1E0F0E0EC0FFD1FE00F3F
S1131580F11F608289014BC1C80101970250110902
S1131590E1E0F0E0EC0FFD1FE80FF91F208121349A
S11315A049F4E1E0F0E0EC0FFD1FE00FF11F2081B2
S11315B0213449F0E1E0F0E0EC0FFD1FE00FF11FF2
S11315C070828C012CC1E1E0F0E0EC0FFD1FE00F14
S11315D0F11F60828C0123C1C801019702501109D7
S11315E0E1E0F0E0EC0FFD1FE80FF91F208121344A
S11315F049F0E1E0F0E0EC0FFD1FE00FF11F208166
S1131600213449F4E1E0F0E0EC0FFD1FE00FF11F9D
S113161070828C0104C1E1E0F0E0EC0FFD1FE00FEB
S1131620F11F60828C01FBC0C801019702501109AF
S1131630E1E0F0E0EC0FFD1FE80FF91F20812134F9
S113164091F0E1E0F0E0EC0FFD1FE00FF11F2081CD
S1131650213449F0E1E0F0E0EC0FFD1FE00FF11F51
S113166070828C01DCC0E1E0F0E0EC0FFD1FE00FC4
S1131670F11F60828C01D3C0C80101970250110987
S1131680A1E0B0E0AC0FBD1FA80FB91FE1E0F0E08E
S1131690EC0FFD1FE00FF11F3C912081321749F040
S11316A0E1E0F0E0EC0FFD1FE00FF11F70828C0110
S11316B0B6C0E1E0F0E0EC0FFD1FE00FF11F608227
S11316C08C01ADC0C801019702501109A1E0B0E03E
S11316D0AC0FBD1FA80FB91FE1E0F0E0EC0FFD1F38
S11316E0E00FF11F3C912081321309C0E1E0F0E0EA
S11316F0EC0FFD1FE00FF11F70828C0190C0E1E040
S1131700F0E0EC0FFD1FE00FF11F60828C0187C039
S11317104801BFEF8B1A9B0AF50180810E94010AE0
S1131720E1E0F0E0EC0FFD1FE00FF11F8083840186
S113173076C04801FFEF8F1A9F0AD5018C910E9451
S11317400D0AE1E0F0E0EC0FFD1FE00FF11F8083D4
S1131750840165C04801BFEF8B1A9B0AF5018081A3
S11317600E94130AE1E0F0E0EC0FFD1FE00FF11F0F
S11317708083840154C04801FFEF8F1A9F0AD5016A
S11317808C910E94190AE1E0F0E0EC0FFD1FE00FDC
S1131790F11F8083840143C04801BFEF8B1A9B0A69
S11317A0F50180810E941F0AE1E0F0E0EC0FFD1FCB
S11317B0E00FF11F8083840132C04801FFEF8F1ACC
S11317C09F0AD5018C910E94250AE1E0F0E0EC0F1C
S11317D0FD1FE00FF11F8083840121C04801BFEF8A
S11317E08B1A9B0AF50180810E942B0AE1E0F0E04C
S11317F0EC0FFD1FE00FF11F8083840110C048012E
S1131800FFEF8F1A9F0AD5018C910E94310AE1E003
S1131810F0E0EC0FFD1FE00FF11F80838401CE1474
S1131820DF0409F05CCE0115110559F0FE01E00F4B
S1131830F11F808107C080E405C080E403C08FEFFE
S113184001C080E4C858DF4F0FB6F894DEBF0FBE66
S1131850CDBFDF91CF911F910F91FF90EF90DF905B
S1131860CF90BF90AF909F908F907F906F9008958E
S113187087B18F6187B93D9880E288B9409A4398CF
S11318808AB18C6F8AB95D9A84B1876084B91DB8B6
S11318908EB183608EB9ECE7F0E080818666808348
S11318A0EAE7F0E080818C68808395B1E6E0F1E0BE
S11318B08491E92FE87FE82BE5B986E487BD84B5F8
S11318C0826484BD1092800098E090938100EFE6DA
S11318D0F0E0808182608083109290009093910068
S11318E0E1E7F0E08081826080837894089520E0CD
S11318F030E0AC01022E02C0569547950A94E2F7F7
S113190040FF02C0449A01C04498419A41982F5F15
S11319103F4F2031310569F7429A4298089520E0FB
S113192030E090E0AC01022E02C0559547950A9430
S1131930E2F740FF02C05A9A01C05A985C9A5C9838
S11319402F5F3F4F2830310569F75B9A5B98089504
S113195086B185FB882780F991E089270895ECE614
S1131960F0E0808180628083E8E6F0E0808182603C
S1131970808308951F920F920FB60F9211240F9334
S11319801F932F933F934F935F936F937F938F9303
S11319909F93AF93BF93CF93DF93EF93FF93C09144
S11319A0060181E08C0F883018F48093060102C090
S11319B01092060195B1E0910601F0E0EA5FFE4F56
S11319C08491E92FE87FE82BE5B960917900D0E0B4
S11319D000910A0110910B010C0F1D1F70E080E0B3
S11319E090E00E940C1E21E731EA46EE5EE30E947D
S11319F0981E0E94DB1DF801608380910A0190917A
S1131A000B01C80FD91F8881853610F084E68883BE
S1131A1080910601873030F4EAE7F0E08081806449
S1131A20808302C010920701FF91EF91DF91CF9163
S1131A30BF91AF919F918F917F916F915F914F91E2
S1131A403F912F911F910F910F900FBE0F901F90F8
S1131A501895809107010895809107018111FCCFA9
S1131A60089581E080930701809108019091090114
S1131A708C50914069F08CE091E09093090180933F
S1131A80080184E191E090930B0180930A010CC05A
S1131A9084E191E090930901809308018CE091E046
S1131AA090930B0180930A01EAE7F0E0808180645F
S1131AB080830895DC0120E030E0E0910801F0919A
S1131AC00901E20FF31F80818D932F5F3F4F283070
S1131AD0310599F708951F920F920FB60F921124B2
S1131AE08F9388E08093810015BC8F910F900FBE77
S1131AF00F901F9018958F3F2FEF920731F485B503
S1131B00836085BD8EEF9FEF05C025B5236025BD9D
S1131B10009769F020E030E0EFE9FFE03197F1F75A
S1131B2000C000002F5F3F4F28173907A8F315BCEA
S1131B3008951092850010928400BC0180E090E02A
S1131B400E940A1E20E034E244E756E40E94981EF4
S1131B5020E030E04AE754E40E94691D20E030E0D0
S1131B6040E85FE30E94FC1C0E94DB1D7093890027
S1131B7060938800E1E8F0E080818560808316BC92
S1131B8085B5836085BD08951F920F920FB60F929D
S1131B9011248F9388E0809391005F988F910F9028
S1131BA00FBE0F901F9018958F3F2FEF920721F4CF
S1131BB05F9A8EEF9FEF03C05F9A009769F020E071
S1131BC030E0EFE9FFE03197F1F700C000002F5F4C
S1131BD03F4F28173907A8F35F980895109295008E
S1131BE010929400BC0180E090E00E940A1E2FE64F
S1131BF032E143E85DE30E94691D0E94DB1D70939E
S1131C00990060939800E1E9F0E080818560808329
S1131C105F9A08955F9A08955F98089584B7877FBF
S1131C2084BF0FB6F894A895809160008861809372
S1131C306000109260000FBE0895F8949FE088E160
S1131C400FB6F894A895809360000FBE909360003F
S1131C508FEF90E00E94770C2FEF80E792E0215005
S1131C6080409040E1F700C0000080E09FEF0E94B8
S1131C70770C2FEF80E792E0215080409040E1F70D
S1131C8000C00000E5CF8FEE9EEBADEABEED809381
S1131C901D0190931E01A0931F01B093200108958C
S1131CA01F920F920FB60F921124F8940E94430EC4
S1131CB00E941D0E10921D0110921E0110921F0110
S1131CC010922001089581E040911D0150911E0160
S1131CD060911F01709120014F3E5E4B6D4A7E4D15
S1131CE009F080E008958B3028F4893038F4883086
S1131CF059F008C08E3020F08E3021F482E008952F
S1131D0081E008958FEF089583E00895CF93DF93E2
S1131D10D62F0E94730EC82F8D2F0E94730E91E050
S1131D20C8170CF490E0892FDF91CF91089591E0CA
S1131D3083FF90E0892F089591E084FF90E0892F3C
S1131D40089590EE980F81E0923008F080E00895B5
S1131D5091E0803209F090E0892F089591E081327A
S1131D6009F090E0892F089590E08A30910500F5FC
S1131D70FC01E659FF4F0C94191F81EB91E0089583
S1131D8081EA91E008958DE891E008958BE791E070
S1131D90089584E691E008958DE491E0089586E342
S1131DA091E008958FE191E008958EE091E0089527
S1131DB080E090E0089585EC91E00895EF92FF9221
S1131DC00F931F93CF93DF93EC017B018A010E9451
S1131DD0981CE881F9818081843209F0A0C0CF0188
S1131DE0019699838883E1818E2F90E0FC01E15470
S1131DF0F109E830F10508F094C0EC58FF4F0C9459
S1131E00191FF70120813181F80180819181AC0192
S1131E104F5F5F4F51834083F901E80FF91F20E1C1
S1131E20208376C0F70120813181F801808191817E
S1131E30AC014F5F5F4F51834083F901E80FF91FF5
S1131E4021E1208365C0F70120813181F80180817F
S1131E509181AC014F5F5F4F51834083F901E80FDB
S1131E60F91F22E1208354C0F70120813181F80158
S1131E7080819181AC014F5F5F4F51834083F901B1
S1131E80E80FF91F23E1208343C0F701208131814A
S1131E90F80180819181AC014F5F5F4F5183408392
S1131EA0F901E80FF91F24E1208332C0F7012081F2
S1131EB03181F80180819181AC014F5F5F4F518383
S1131EC04083F901E80FF91F25E1208321C0F701C0
S1131ED020813181F80180819181AC014F5F5F4F96
S1131EE051834083F901E80FF91F26E1208310C0D4
S1131EF0F70120813181F80180819181AC014F5F2C
S1131F005F4F51834083F901E80FF91F27E12083D4
S1131F108881998101969983888381E003C080E058
S1131F2001C080E0DF91CF911F910F91FF90EF905E
S1131F300895EF92FF920F931F93CF93DF93EC01D9
S1131F407B018A010E94981CE881F98190819D336C
S1131F5009F48AC020F4963209F464C09CC09C370A
S1131F6009F471C09E3709F096C0CF010E94441C49
S1131F708D3389F18C37C9F0863209F042C0F701FC
S1131F8020813181F80180819181AC014F5F5F4FE5
S1131F9051834083F901E80FF91F2AE020838881E7
S1131FA099810196998388836FC0F70120813181DB
S1131FB0F80180819181AC014F5F5F4F5183408371
S1131FC0F901E80FF91F2CE020838881998101969B
S1131FD09983888359C0F70120813181F801808178
S1131FE09181AC014F5F5F4F51834083F901E80F4A
S1131FF0F91F2DE020838881998101969983888334
S113200043C0F70120813181F80180819181AC01C5
S11320104F5F5F4F51834083F901E80FF91F28E0B8
S1132020208332C0F70120813181F80180819181C0
S1132030AC014F5F5F4F51834083F901E80FF91FF3
S113204029E0208321C0F70120813181F8018081BA
S11320509181AC014F5F5F4F51834083F901E80FD9
S1132060F91F2BE0208310C0F70120813181F80192
S113207080819181AC014F5F5F4F51834083F901AF
S1132080E80FF91F2EE020838881998101969983B6
S1132090888381E001C080E0DF91CF911F910F918F
S11320A0FF90EF900895EF92FF920F931F93CF93B9
S11320B0DF93EC017B018A010E94981CE881F9817D
S11320C08081883219F0893291F028C0F70120818B
S11320D03181F80180819181AC014F5F5F4F518361
S11320E04083F901E80FF91F20E2208310C0F701B3
S11320F020813181F80180819181AC014F5F5F4F74
S113210051834083F901E80FF91F21E2208388817C
S1132110998101969983888381E001C080E0DF91F1
S1132120CF911F910F91FF90EF900895EF92FF923E
S11321300F931F93CF93DF93EC018B018881882346
S113214009F465C0833209F462C0F12CEE24E394EF
S113215004C0833209F456C0E901F80180819181F9
S11321608837910508F0E28288810E946B1C8111F6
S113217037C088810E94781C811132C088818832DE
S113218039F158F4803261F118F4893029F528C006
S1132190843271F0863201F523C08D3309F118F4CD
S11321A08932C1F019C08C37D9F08E37A9F418C020
S11321B0CE010E94441C813428F0CE010E94441CAC
S11321C0893420F082E0F801828321C0219608C07E
S11321D0F39406C0FA9404C084E0F801828317C023
S11321E0FF2024F483E0F801828311C0F801808188
S11321F091810196918380839E012F5F3F4F898156
S11322008111A7CFFF2019F083E0F8018283DF91C9
S1132210CF911F910F91FF90EF900895EF92FF924D
S11322200F931F93CF93DF9300D000D0CDB7DEB7C9
S11322308B017A019A8389831C821B82AE014D5FD4
S11322405F4FB801CE0101960E94DE0E8111F6CFD8
S1132250AE014D5F5F4FB801CE0101960E94990F08
S11322608111ECCFAE014D5F5F4FB801CE010196F5
S11322700E9453108111E2CF8B819C81F8019383DA
S11322808283892B19F489E0F70182830F900F90E0
S11322900F900F90DF91CF911F910F91FF90EF90CE
S11322A008957F928F929F92AF92BF92CF92DF92C6
S11322B0EF92FF920F931F93CF93DF937C016B01F7
S11322C080E090E0712C812C01C0C801F7012281CB
S11322D033818217930708F001C1A080B180F50112
S11322E0E80FF91F90808C010F5F1F4F021713072F
S11322F020F4E501C00FD11F02C0C72DD82D0097CF
S113230021F00197A80EB91E02C0A72CB82C892D64
S11323100E94970E882309F43EC088E0981212C0E8
S1132320209721F487E0F6018283D8C08881803227
S113233009F4C7C00E949C0E8111B7C085E0F60164
S11323408283CCC0209721F487E0F6018283C6C043
S1132350A114B10421F488E0F6018283BFC0F50121
S11323608081813241F00E949C0E811104C086E07C
S1132370F6018283B3C08881803209F4A2C00E942E
S11323809C0E81119EC08881883009F48EC085E03E
S1132390F6018283A3C0892D0E949C0E882319F123
S11323A0209771F088810E949C0E882349F08881CF
S11323B00E94AE0E811104C085E0F60182838EC0B6
S11323C0A114B10481F0F50180810E949C0E882340
S11323D051F0F50180810E94A80E811104C086E0AD
S11323E0F60182837BC0892D0E94A10E882309F403
S11323F06CCF892D0E94A80E882351F1209781F07B
S113240088810E949C0E81110FC08881883061F000
S11324100E94A80E811108C085E0F60182835EC087
S113242087E0F60182835AC0A114B10409F443C0C1
S1132430F50180810E94970E811149C0F5018081C8
S11324400E94A80E811137C086E0F601828346C03F
S1132450892D0E94AE0E882309F437CF209771F09E
S113246088810E94970E811109C088810E94AE0E56
S1132470811104C085E0F601828330C0A114B10447
S113248081F0F50180810E949C0E81111ECFF5011F
S113249080810E94AE0E811118CF86E0F6018283FE
S11324A01DC088E0F601828319C0892D0E949C0E0C
S11324B0811178CF98CF892D0E94AE0E8111D0CF93
S11324C004CF892D0E949C0E81116CCF8CCF892D55
S11324D00E94AE0E882309F4F8CEC2CFDF91CF91CB
S11324E01F910F91FF90EF90DF90CF90BF90AF902E
S11324F09F908F907F9008956F927F928F929F927A
S1132500AF92BF92CF92DF92EF92FF920F931F93FD
S1132510CF93DF93CDB7DEB7C857D1090FB6F89480
S1132520DEBF0FBECDBF8C01DC0112968D919C9154
S11325301397892B09F4B3C0A12CB12CE12CF12CF5
S1132540C12CD12C05C0C114D10409F092C0A9C07A
S1132550D801ED91FC91EA0DFB1D7080772009F400
S11325607BC0872D0E949C0E882351F0D801ED91E9
S1132570FC91EE0DFF1D7082F70131967F016CC056
S1132580872D0E94A80E882359F0E1E0F0E0EC0FBB
S1132590FD1FEC0DFD1D7082C60101966C015CC02F
S11325A0872D0E94AE0E882319F188248394912CE0
S11325B08C0E9D1E8C0C9D1CC114D104A9F0D40159
S11325C07E904D01872D0E94A80E81110DC0B1E0AF
S11325D0CB1AD108D801ED91FC91EE0DFF1D70824C
S11325E0F70131967F01E8CFF1E0CF1AD10834C06A
S11325F0872D0E94970E882379F188248394912C47
S11326008C0E9D1E8C0C9D1CC114D104D9F0D401D8
S11326106E904D01862D0E94A80E811113C0672D66
S1132620862D0E94860E882369F0B1E0CB1AD1086A
S1132630D801ED91FC91EE0DFF1D6082F7013196FA
S11326407F01E2CFE1E0F0E0EC0FFD1FEC0DFD1D9A
S11326507082C60101966C019FEFA91AB90AD801CC
S113266012968D919C911397A816B90608F470CF11
S11326706ACFAE014F5F5F4FDA01AC0DBD1DC701DC
S1132680F80120813181F901E80FF91F2E9120838F
S11326900196A417B507A1F7EC0CFD1C02C0E12CB0
S11326A0F12CD8011396FC92EE921297C858DF4F82
S11326B00FB6F894DEBF0FBECDBFDF91CF911F914F
S11326C00F91FF90EF90DF90CF90BF90AF909F90CD
S11326D08F907F906F900895EF92FF920F931F93C6
S11326E0CF93DF93FA012281211122C0EA017B01F9
S11326F08C01BA010E9496108A8181111BC0AE011F
S1132700B701C8010E940E118A81811115C0BE0152
S1132710C7010E9451118A81811110C0BE01C701F5
S11327200E947C1281E09A81992349F080E007C0DD
S113273080E005C080E003C080E001C080E0DF915C
S1132740CF911F910F91FF90EF90089584ED96E043
S11327500E94821B0E94931B089587EB96E00E94BF
S1132760821B0E94931B0895CF93DF93EC01892B66
S113277029F48BE697E00E94821B52C083E697E01F
S11327800E94821BCE010E94BA1B83EB96E00E943A
S1132790821BFE013197E730F10508F041C0E4588F
S11327A0FF4F0C94191F8EE797E00E94821B8BE564
S11327B097E00E94821B8EE697E00E94821B30C045
S11327C08EE797E00E94821B84E597E00E94821BBB
S11327D08EE697E00E94821B23C08EE797E00E945A
S11327E0821B8DE497E00E94821B8EE697E00E9494
S11327F0821B16C08EE797E00E94821B87E497E055
S11328000E94821B8EE697E00E94821B09C089E227
S113281097E00E94821B04C082E097E00E94821B22
S11328200E94931BDF91CF9108950F931F93CF9331
S1132830DF938C01EB0184E20E946B1BC8010E94B0
S1132840BA1B83E897E00E94821BCE010E94BA1B48
S11328500E94931BDF91CF911F910F910895DF92F6
S1132860EF92FF920F931F93CF93DF93CDB7DEB711
S1132870CA57D1090FB6F894DEBF0FBECDBF198277
S113288081E08A831B82CE0101960E947F076981C1
S113289070E084E690E00E9415146A8170E085E699
S11328A090E00E941514F12C08EC10E00F2EF6E4D1
S11328B0DF2EF02D0F2EFAE0EF2EF02DD982EA82D2
S11328C01B821C826F2DCE0101960E94AF07698185
S11328D070E0C8010E9415146A8170E0C801019675
S11328E00E9415146B8170E0C80102960E941514B1
S11328F0065F1F4FF39488E0F812E0CF10E00F2E2C
S1132900FCE2EF2EFF24F394F02D01E0EA960FAFE2
S1132910EA97EB961FAEEB97612FCE0187589F4F36
S11329200E94E907EA966FADEA9770E0C7010E943A
S11329301514612FCE0101960E94170884E20E94AB
S11329406B1BC70101960E94BA1B83E897E00E94A3
S1132950821BCE0101960E94731B0E94931B8AE086
S1132960E80EF11C1F5F183089F680E090E00E94A9
S1132970B413C658DF4F0FB6F894DEBF0FBECDBFF9
S1132980DF91CF911F910F91FF90EF90DF90089509
S1132990EF92FF920F931F93CF93DF93CDB7DEB7E0
S11329A028970FB6F894DEBF0FBECDBF0E94290D45
S11329B0811102C00E94310D0E942C0D0E94310D24
S11329C0CE0101960E945A0D8E010F5F1F4F7E01AA
S11329D089E0E80EF11CF80181918F010E94A21B8D
S11329E080E091E00E94731B0E151F05A1F70E9461
S11329F0931B28960FB6F894DEBF0FBECDBFDF91B0
S1132A00CF911F910F91FF90EF9008951F93CF9353
S1132A10DF9382EA96E00E94821B82E00E94981B68
S1132A208AE996E00E94821B0E94931B84E696E04A
S1132A300E94821B0E94931B82E296E00E94821BEA
S1132A400E94931B82EF95E00E94821B82E00E9409
S1132A50981B8EED95E00E94821B0E94931B81EAD5
S1132A6095E00E94821B0E94931B81E795E00E94DF
S1132A70821B82E00E94981B8DE595E00E94821BD8
S1132A800E94931B8CE395E00E94821B0E94931B7F
S1132A908BE195E00E94821B82E00E94981B87E0F4
S1132AA095E00E94821B0E94931B86EE94E00E9494
S1132AB0821B0E94931B85EC94E00E94821B82E09F
S1132AC00E94981B8DEA94E00E94821B0E94931B33
S1132AD088E894E00E94821B82E00E94981B80E7B1
S1132AE094E00E94821B0E94931B8BE494E00E945A
S1132AF0821B82E00E94981B83E394E00E94821B65
S1132B000E94931B8EE094E00E94821B82E00E944C
S1132B10981B86EF93E00E94821B0E94931B81ED19
S1132B2093E00E94821B83E00E94981B88EC93E050
S1132B300E94821B0E94931B8CEA93E00E94821BDA
S1132B400E94931B83E893E00E94821B0E94931BC4
S1132B5084E593E00E94821B82E00E94981B87E434
S1132B6093E00E94821B0E94931B84E393E00E94E3
S1132B70821B0E94931B8FE093E00E94821B0E94A1
S1132B80931B8FED92E00E94821B82E00E94981BAF
S1132B9084E992E00E94821B0E94931B8DE492E0E0
S1132BA00E94821B83E00E94981B8FE198E00E94A0
S1132BB0821B84E20E946B1B83E198E00E94821BCB
S1132BC08FEF97E00E94821B0E94931B8FE198E095
S1132BD00E94821B83E50E946B1B83E198E00E94A4
S1132BE0821B85E492E00E94821B8FEF97E00E9493
S1132BF0821B0E94931B8FE198E00E94821B89E450
S1132C000E946B1B83E198E00E94821B8EE392E09A
S1132C100E94821B8FEF97E00E94821B0E94931BED
S1132C208FE198E00E94821B8FE40E946B1B83E17A
S1132C3098E00E94821B86E392E00E94821B8FEF41
S1132C4097E00E94821B0E94931B8FE198E00E94F0
S1132C50821B85E40E946B1B83E198E00E94821B27
S1132C608AE292E00E94821B8FEF97E00E94821B0F
S1132C7082E00E94981B87E192E00E94821B0E94DE
S1132C80931B80E092E00E94821B82E00E94981BCA
S1132C9084EE91E00E94821B0E94931B8EEC91E0D3
S1132CA00E94821B82E00E94981B11E4C8ECD0E0D1
S1132CB082E00E94981B84E20E946B1BCE010E945A
S1132CC0BA1B85EF97E00E94821B812F0E946B1B29
S1132CD08DED97E00E94821B8FE997E00E94821B92
S1132CE00E94931B84E20E946B1BCE0101960E94FA
S1132CF0BA1B85EF97E00E94821B812F0E946B1BF9
S1132D008FEC97E00E94821B8FE997E00E94821B60
S1132D100E94931B84E20E946B1BCE0102960E94C8
S1132D20BA1B85EF97E00E94821B812F0E946B1BC8
S1132D3083EC97E00E94821B86EA97E00E94821B44
S1132D402A961F5FC83181E0D80709F0B1CF0E94ED
S1132D50931B11E4CCE2D1E082E00E94981B84E250
S1132D600E946B1BCE010E94BA1B8AEE97E00E9460
S1132D70821B812F0E946B1B89EB97E00E94821BB0
S1132D8086EA97E00E94821B0E94931B84E20E94C1
S1132D906B1BCE0101960E94BA1B8AEE97E00E943B
S1132DA0821B812F0E946B1B8BEA97E00E94821B7F
S1132DB087E897E00E94821B2A961F5FCC3781E048
S1132DC0D80751F60E94931B80E090E00E94B41350
S1132DD0DF91CF911F910895EF92FF920F931F936C
S1132DE0CF93DF937B01EA0189016DE302960E9490
S1132DF02C1C0E94AF1C009779F00E94421F99235B
S1132E005CF08C179D0740F00817190728F0F701AC
S1132E109183808381E005C084E090E00E94B41334
S1132E2080E0DF91CF911F910F91FF90EF90089573
S1132E300F931F93CF93DF93EC01239600E010E0F0
S1132E4089910E94821C882319F00F5F1F4FF8CFCD
S1132E50C801DF91CF911F910F910895EF92FF92D6
S1132E600F931F93CF93DF93EC018B010E941817EC
S1132E70039751F5CE0103960E94421F7C01181658
S1132E80190614F54DE363E070E0CE0102960E944A
S1132E90491CFC019701201B310BADECBCEC0E94DA
S1132EA01F1F969587959695879596958795282FB4
S1132EB0C7016AE070E00E94051F782F81E0319617
S1132EC009F480E091E004C020E070E080E090E04C
S1132ED0622FDF91CF911F910F91FF90EF90089592
S1132EE0EF92FF920F931F93CF93DF9300D000D004
S1132EF01F92CDB7DEB78C017B01198281E08A83F2
S1132F001B82CE0101960E947F07F80182818823EB
S1132F10F9F01D821C8221E030E040E050E0BE0167
S1132F206C5F7F4FC7010E94EC168823B9F081E0E3
S1132F302C813D812130310509F080E08983CE0167
S1132F4001960E94670880E090E00E94B41306C0D6
S1132F50698170E084E690E00E9415140F900F9050
S1132F600F900F900F90DF91CF911F910F91FF90D1
S1132F70EF900895EF92FF920F931F93CF93DF93F7
S1132F8000D000D01F92CDB7DEB78C017B0119822F
S1132F9081E08A831B82CE0101960E947F07F8019B
S1132FA082818823F9F01D821C8221E030E040E018
S1132FB050E0BE016C5F7F4FC7010E94EC1688236E
S1132FC0B9F081E02C813D812130310509F080E0A8
S1132FD08A83CE0101960E94670880E090E00E94F7
S1132FE0B41306C06A8170E085E690E00E9415146F
S1132FF00F900F900F900F900F90DF91CF911F9132
S11330000F91FF90EF900895EF92FF920F931F930B
S1133010CF93DF9300D000D000D0CDB7DEB78C01C2
S11330207B0186E489838AE08A831B821C82F801FF
S11330306081CE0101960E94AF07F8018281882346
S1133040D9F01E821D8224E630E040E050E0BE014B
S11330506B5F7F4FC7010E94EC16882321F18D819D
S11330608983F8016081CE0101960E94790880E08D
S113307090E00E94B41317C0698170E0F8012081C8
S113308030E0C901880F991F220F331F220F331F0D
S1133090220F331F820F931F88539F4F2181820F6A
S11330A0911D0E94151426960FB6F894DEBF0FBE2C
S11330B0CDBFDF91CF911F910F91FF90EF900895B5
S11330C0EF92FF920F931F93CF93DF9300D000D022
S11330D000D0CDB7DEB78C017B0186E489838AE01A
S11330E08A831B821C82F8016081CE0101960E94B2
S11330F0AF07F80182818823D9F01E821D8224E65D
S113310030E040E050E0BE016B5F7F4FC7010E949A
S1133110EC16882321F18D818A83F8016081CE0128
S113312001960E94790880E090E00E94B41317C0D1
S11331306A8170E0F801208130E0C901880F991F8D
S1133140220F331F220F331F220F331F820F931FAF
S113315088539F4F2181820F911D0E94151426963A
S11331600FB6F894DEBF0FBECDBFDF91CF911F9194
S11331700F91FF90EF900895EF92FF920F931F939A
S1133180CF93DF9300D000D000D0CDB7DEB78C0151
S11331907B0186E489838AE08A831B821C82F8018E
S11331A06081CE0101960E94AF07F80182818823D5
S11331B009F11E821D8221E030E040E050E0BE01B2
S11331C06B5F7F4FC7010E94EC16882351F181E0A9
S11331D02D813E812130310509F080E08B83F80197
S11331E06081CE0101960E94790880E090E00E94FF
S11331F0B41317C06B8170E0F801208130E0C9017D
S1133200880F991F220F331F220F331F220F331FE2
S1133210820F931F88539F4F2181820F911D0E941B
S1133220151426960FB6F894DEBF0FBECDBFDF91FE
S1133230CF911F910F91FF90EF900895EF92FF921D
S11332400F931F93CF93DF9300D000D0CDB7DEB799
S11332508C017B0181E089831A82F8016081CE01AF
S113326001960E94E907F8018281882309F11C82F2
S11332701B8221E030E040E050E0BE016D5F7F4FF3
S1133280C7010E94EC16882351F181E02B813C8117
S11332902130310509F080E08983F8016081CE0195
S11332A001960E94950880E090E00E94B41317C034
S11332B0698170E0F801208130E0C901880F991F0D
S11332C0220F331F220F331F220F331F820F931F2E
S11332D0845D9E4F2181820F911D0E9415140F90D1
S11332E00F900F900F90DF91CF911F910F91FF904E
S11332F0EF900895EF92FF920F931F93CF93DF9374
S1133300CDB7DEB7CF57D1090FB6F894DEBF0FBEE5
S1133310CDBF8C019B01FC019281992309F455C016
S11333206DE3C90102960E942C1C01967C01ED9666
S11333301FAE1EAEED97CE010196EB969FAF8EAFFA
S1133340EB97EF961FAE1EAEEF97C158DF4F188272
S1133350CF57D040AE0143585F4FBE0167587F4FEF
S1133360C7010E946C13C158DF4F8881CF57D040EA
S113337081110AC0F8016081C7010E94AF0880E092
S113338090E00E94B4132DC087E090E00E94B41333
S1133390C158DF4F8881CF57D0400E94B40E0E949D
S11333A0821B8BEF96E00E94821BEF968EAD9FAD41
S11333B0EF970E94BA1B82E091E00E94731BC70141
S11333C00E94731B0E94931B0CC0F8016081CE0104
S11333D001960E941708CE0101960E94731B0E9459
S11333E0931BC158DF4F0FB6F894DEBF0FBECDBF9D
S11333F0DF91CF911F910F91FF90EF9008950E945C
S113340017090E941D0E0E943C090E941D0E0E9475
S113341056090E941D0E0E9417090E941D0E0E944B
S113342003090E9417090E943C090E9456090E9440
S11334301D0ECF93DF93EC0188819981069739F4AF
S1133440E8ECF1E0E4918A818E1731F00FC081E05D
S113345090E00E94B4132FC0DE011396E9ECF1E072
S11334604DEC51E02D919491291729F081E090E0E1
S11334700E94B41320C031964E175F0799F78F81CD
S1133480893479F028F4843241F0853471F00FC026
S11334908F3449F0833519F00AC00E940F1A0E9434
S11334A00B1A0E94FF190E94031A0E94071A84E053
S11334B090E00E94B413DF91CF9108950F931F936E
S11334C0CF93DF9300D000D0CDB7DEB78C0164E694
S11334D070E00E942E1769837A838B839C838C818E
S11334E08823F9F08981811117C08A81882319F012
S11334F0813039F00CC0B801CE0101960E947017DA
S113350014C0B801CE0101960E94BA170EC083E020
S113351090E00E94B41309C082E090E00E94B413CA
S113352004C081E090E00E94B4130F900F900F90BC
S11335300F90DF91CF911F910F9108950F931F93D7
S1133540CF93DF9300D000D0CDB7DEB78C0168EC09
S113355070E00E942E1769837A838B839C838C810D
S1133560882331F189818830F0F48A81813051F0E7
S113357018F0823069F012C0B801CE0101960E94A1
S113358004181AC0B801CE0101960E94601814C034
S1133590B801CE0101960E94BC180EC083E090E0F1
S11335A00E94B41309C082E090E00E94B41304C0E6
S11335B081E090E00E94B4130F900F900F900F9051
S11335C0DF91CF911F910F9108950F931F93CF9384
S11335D0DF9300D000D0CDB7DEB78C016CE271E090
S11335E00E942E1769837A838B839C838C81882322
S11335F0F9F089818830B8F48A81882319F0813000
S113360039F00CC0B801CE0101960E941E1914C0F5
S1133610B801CE0101960E947A190EC083E090E0B1
S11336200E94B41309C082E090E00E94B41304C065
S113363081E090E00E94B4130F900F900F900F90D0
S1133640DF91CF911F910F9108950E945A0E0E940D
S11336501D0EFC012281243289F523812233B1F02D
S113366038F42432C9F0213371F0211123C01FC072
S11336702035D9F018F4233361F01CC0223591F0C1
S1133680233569F017C00E945E1A08950E949E1A9D
S113369008950E94E51A08950E942F1408950E9427
S11336A0C81408950E94191A08950E94251B0E94A7
S11336B00615089581E090E00E94B41308951092D5
S11336C0C50089E18093C40088E18093C10086E04D
S11336D08093C2000895E0ECF0E0908195FFFDCF67
S11336E08093C6000895CF93DF93EC0188818823EB
S11336F031F021960E946B1B89918111FBCFDF91E0
S1133700CF910895CF93DF93EC01FC01849188233A
S113371039F00E946B1B2196FE0184918111F9CF2F
S1133720DF91CF91089585E298E00E94821B08956D
S1133730CF93C82F882321F00E94931BC150E1F737
S1133740CF910895CF93DF9300D000D0CDB7DEB7EB
S11337504AE0BE016F5F7F4F90E00E94681FCE0178
S113376001960E94731B0F900F900F900F90DF91A2
S1133770CF910895CF93DF93CDB7DEB727970FB6D8
S1133780F894DEBF0FBECDBF4AE0BE016F5F7F4F2E
S11337900E94681FCE0101960E94731B27960FB6E4
S11337A0F894DEBF0FBECDBFDF91CF910895E0EC5A
S11337B0F0E080818823ECF78091C6000895E1EC65
S11337C0F0E080818068808308951F920F920FB685
S11337D00F9211242F933F934F935F936F937F9393
S11337E08F939F93AF93BF93EF93FF938091C60002
S11337F0883119F4F8940E941D0E90911C019111C6
S113380006C08432B1F481E080931C0114C091306D
S113381031F4833471F482E080931C010CC0923043
S113382041F48D3011F08A3021F40E94430E0E943D
S11338301D0E10921C01FF91EF91BF91AF919F91CA
S11338408F917F916F915F914F913F912F910F9045
S11338500FBE0F901F901895FC018081882371F092
S1133860681779F0319602C0261769F08E2F9F2FC2
S113387021912111F9CF80E090E0089580E090E05B
S113388008958E2F9F2F0895FC01808181118181DD
S11338900895FC01DC01A60FB71F9C91992391F0B8
S11338A0491799F09B012F5F3F4FE20FF31F02C0AE
S11338B0941771F06F5F7F4F91919111F9CF8FEF52
S11338C09FEF08958FEF9FEF0895862F972F089508
S11338D0862F972F08959FE9980F9A3138F09FEB20
S11338E0980F81E09A3118F080E0089581E00895FE
S11338F0803229F091E0893019F090E001C091E024
S1133900892F089590ED980F81E09A3008F080E0B7
S11339100895FC012081222341F0319680E090E05B
S1133920019621912111FCCF089580E090E0089543
S11339300F931F93CF93DF938C01F801C081D18142
S113394088810E94781C882329F02196F801D1836C
S1133950C083F3CFDF91CF911F910F910895FC01A4
S11339608081882381F080538A3080F0319603C0AF
S113397020532A3068F08E2F9F2F21912111F8CFE8
S113398080E090E0089580E090E008958E2F9F2FCE
S11339900895FC018281811116C09181808189176B
S11339A018F0282F291B01C020E09381911106C033
S11339B0681700F181E0838384831CC02617D0F04C
S11339C01382148217C080819381911106C08617D7
S11339D088F081E0838384830DC0218190E0820F8D
S11339E0911D8536910514F084E690E0681710F077
S11339F013821482848108955058BB27AA270E94F9
S1133A00141D0C945E1E0E94501E38F00E94571E16
S1133A1020F039F49F3F19F426F40C944D1E0EF453
S1133A20E095E7FB0C94471EE92F0E946F1E58F3A4
S1133A30BA17620773078407950720F079F4A6F58F
S1133A400C94911E0EF4E0950B2EBA2FA02D0B01B1
S1133A50B90190010C01CA01A0011124FF27591BCF
S1133A6099F0593F50F4503E68F11A16F040A22FD5
S1133A70232F342F4427585FF3CF46953795279546
S1133A80A795F0405395C9F77EF41F16BA0B620B45
S1133A90730B840BBAF09150A1F0FF0FBB1F661F8C
S1133AA0771F881FC2F70EC0BA0F621F731F841FCF
S1133AB048F4879577956795B795F7959E3F08F0F5
S1133AC0B0CF9395880F08F09927EE0F97958795B7
S1133AD008950E947D1D0C945E1E0E94571E58F08E
S1133AE00E94501E40F029F45F3F29F00C94471EB9
S1133AF051110C94921E0C944D1E0E946F1E68F37B
S1133B009923B1F3552391F3951B550BBB27AA2792
S1133B1062177307840738F09F5F5F4F220F331FCC
S1133B20441FAA1FA9F335D00E2E3AF0E0E832D094
S1133B3091505040E695001CCAF72BD0FE2F29D097
S1133B40660F771F881FBB1F261737074807AB0769
S1133B50B0E809F0BB0B802DBF01FF2793585F4FDE
S1133B603AF09E3F510578F00C94471E0C94921E37
S1133B705F3FE4F3983ED4F3869577956795B795C0
S1133B80F7959F5FC9F7880F911D9695879597F9CB
S1133B900895E1E0660F771F881FBB1F6217730744
S1133BA08407BA0720F0621B730B840BBA0BEE1F59
S1133BB088F7E09508950E94771E88F09F5798F043
S1133BC0B92F9927B751B0F0E1F0660F771F881F1E
S1133BD0991F1AF0BA95C9F714C0B13091F00E9438
S1133BE0911EB1E008950C94911E672F782F8827B9
S1133BF0B85F39F0B93FCCF3869577956795B3955F
S1133C00D9F73EF490958095709561957F4F8F4FCD
S1133C109F4F0895E89409C097FB3EF490958095D2
S1133C20709561957F4F8F4F9F4F9923A9F0F92F7E
S1133C3096E9BB279395F695879577956795B795FC
S1133C40F111F8CFFAF4BB0F11F460FF1BC06F5FE2
S1133C507F4F8F4F9F4F16C0882311F096E911C0F4
S1133C60772321F09EE8872F762F05C0662371F015
S1133C7096E8862F70E060E02AF09A95660F771F29
S1133C80881FDAF7880F9695879597F9089597F91D
S1133C909F6780E870E060E008959FEF80EC0895EE
S1133CA000240A9416161706180609060895002417
S1133CB00A9412161306140605060895092E039491
S1133CC0000C11F4882352F0BB0F40F4BF2B11F405
S1133CD060FF04C06F5F7F4F8F4F9F4F089557FD64
S1133CE09058440F551F59F05F3F71F04795880F66
S1133CF097FB991F61F09F3F79F0879508951216FD
S1133D0013061406551FF2CF4695F1DF08C01616A8
S1133D1017061806991FF1CF869571056105089459
S1133D200895E894BB2766277727CB0197F9089570
S1133D300E94AB1E0C945E1E0E94501E38F00E941E
S1133D40571E20F0952311F00C94471E0C944D1E21
S1133D5011240C94921E0E946F1E70F3959FC1F360
S1133D60950F50E0551F629FF001729FBB27F00D25
S1133D70B11D639FAA27F00DB11DAA1F649F66277A
S1133D80B00DA11D661F829F2227B00DA11D621FC9
S1133D90739FB00DA11D621F839FA00D611D221F83
S1133DA0749F3327A00D611D231F849F600D211D67
S1133DB0822F762F6A2F11249F5750409AF0F1F0EA
S1133DC088234AF0EE0FFF1FBB1F661F771F881F53
S1133DD091505040A9F79E3F510580F00C94471E26
S1133DE00C94921E5F3FE4F3983ED4F38695779546
S1133DF06795B795F795E7959F5FC1F7FE2B880FF9
S1133E00911D9695879597F9089597FB072E16F4BB
S1133E10009407D077FD09D00E942E1F07FC05D01F
S1133E203EF4909581959F4F0895709561957F4FCD
S1133E300895EE0FFF1F0590F491E02D0994A29FC1
S1133E40B001B39FC001A39F700D811D1124911D6A
S1133E50B29F700D811D1124911D0895AA1BBB1BD7
S1133E6051E107C0AA1FBB1FA617B70710F0A61B76
S1133E70B70B881F991F5A95A9F780959095BC0197
S1133E80CD010895FC0188279927E89421912032D7
S1133E90E9F3293010F02E30C8F32B3241F02D32E3
S1133EA039F4689404C00E94601F820F911D21910F
S1133EB020532A30C0F31EF4909581959F4F0895A6
S1133EC07AE0979F902D879F802D910D112408955E
S1133ED0BB27FB015527AA27880F991FAA1FA417E0
S1133EE010F0A41B83955051B9F7A05DAA3308F0D4
S1133EF0A95DA193009779F7B111B1931192CB0108
S1133F000C94821FDC01FC01672F71917723E1F788
S1133F10329704C07C916D9370836291AE17BF0792
S1133F20C8F30895DC01CB01FC01F999FECF06C06A
S1133F30F2BDE1BDF89A319600B40D924150504063
S1133F40B8F70895F999FECF92BD81BDF89A9927E3
S1133F5080B50895DC01A40FB51F4150504048F0CE
S1133F60CB01840F951F2E910E94BB1F41505040DE
S1133F70D0F70895262FF999FECF92BD81BDF89A06
S1133F80019700B4021639F01FBA20BD0FB6F89499
S10F3F90FA9AF99A0FBE0895F894FFCF36
S1093F9C3B00203A200066
S9030000FC
