S00C000055434E432E73726563EF
S11300000C941B040C9438040C9438040C94380499
S11300100C94050E0C9438040C9438040C94380495
S11300200C9438040C9438040C9438040C943A0D51
S11300300C9438040C9438040C9438040C9438044C
S11300400C9438040C9438040C949A1B0C943804C3
S11300500C9438040C94890C0C9438040C943804D3
S11300600C9438040C9438040C9438040C9438041C
S11300700C9438040C9438040C9438040C9438040C
S11300800C9438040C94930D0C9438040C94380498
S11300900C9438040C9438040C9438040C943804EC
S11300A00C9438040C9438040C9438040C943804DC
S11300B00C943804510A6C0A940ABC0AE40A0C0B26
S11300C0320BEF0B580B690B7A0B8B0B9C0BAD0BA4
S11300D0BE0BCF0B900E720E750E780E7B0E7E0E3D
S11300E0810E840E870E8A0EB60EC70ED80EE90E48
S11300F0FA0E0B0F1C0F2D0F88139513A213AF13B9
S1130100BC13C113C7130407020600050103456DA0
S11301107074792065787072657373696F6E004DC1
S1130120697373696E67206C687320657870726593
S11301307373696F6E004D697373696E67207268BB
S1130140732065787072657373696F6E00496E769B
S1130150616C6964206C6873206578707265737370
S1130160696F6E00496E76616C69642072687320F1
S113017065787072657373696F6E00496E76616C31
S1130180696420636861726163746572004D6973A8
S113019073696E6720627261636B657400496E7681
S11301A0616C6964206F706572616E64004D617882
S11301B0206C656E67746820657863656564656442
S11301C0004F6B00245253543D0024313031092D2B
S11301D02042757A7A657220090928312F30290066
S11301E024313030092D2053657269616C204F75BC
S11301F074707574200928312F3029002453092D77
S1130200205669657720696E707574207374617403
S11302107573002424092D2056696577207365744D
S113022074696E67730065787072657373696F6E55
S113023020006F75747075742000696E7075742079
S11302400073797374656D200023204578616D70A7
S11302506C65093A204D756C7469706C6520696E23
S113026070757473206D617070656420746F206F95
S11302706E65206F7574707574202D3E2033303197
S1130280203D202441207C202442207C2024430043
S113029023204578616D706C65093A20584F5220CF
S11302A02D3E202824412026207E244229207C2003
S11302B0287E24412026202442292023202841204E
S11302C06F72206E6F74204229206F7220286E6F27
S11302D074204120616E642042290023204F706500
S11302E07261746F7273093A206E6F7428277E27C7
S11302F02920616E642827262729206F7228277CED
S1130300272920657128273D27290023204F706560
S113031072616E6473093A202441202442202443EC
S11303202024442024452024462024472024480017
S11303302320436F6D6D656E74093A202320746524
S1130340787400232045787072657373696F6E004A
S1130350232024334E31202D204578707265737329
S1130360696F6E093A204F757470757420747269E0
S11303706767657220636F6E646974696F6E0023CA
S11303802024334E30202D20416374697665090999
S11303903A20456E61626C652064697361626C65C4
S11303A0206F7574707574002320416C6C206F7518
S11303B0747075747320617265206F70656E20634C
S11303C06F6C6C6563746F72206163746976652009
S11303D06C6F77200023204F757470757400232090
S11303E03132562D532D474E443A2024324E303D5F
S11303F036352024324E313D352024324E32203DD4
S113040020300023204578616D706C652053656E43
S1130410736F7220504E50204E4F002320313256BD
S11304202D532D474E443A2024324E303D3635204C
S113043024324E313D352024324E32203D203100CD
S113044023204578616D706C652053656E736F72FF
S113045020504E50204E430023203132562D532D30
S1130460474E443A2024324E303D33352024324E18
S1130470313D352024324E32203D203100232045A9
S113048078616D706C652053656E736F72204E5089
S11304904E204E4F0023203132562D532D474E44CB
S11304A03A2024324E303D33352024324E313D350E
S11304B02024324E32203D20300023204578616DC7
S11304C0706C652053656E736F72204E504E204ED3
S11304D0430023203132562D533A2024324E303DEE
S11304E037352024324E313D352024324E32203DE2
S11304F02030002320532D474E443A2024324E30DE
S11305003D32352024324E313D352024324E3220C6
S11305103D20310023204578616D706C6520537750
S113052069746368204E4F0023203132562D533AAC
S11305302024324E303D37352024324E313D352093
S113054024324E32203D2031002320532D474E4487
S11305503A2024324E303D32352024324E313D355E
S11305602024324E32203D20300023204578616D16
S1130570706C6520537769746368204E43002320B0
S1130580426F61726420706F7765726564204E50AB
S11305904E2F504E50204E4F2F4E432070726F7886
S11305A0696D6974792073656E736F7273002320AB
S11305B04E432F4E4F2053776974636865732063ED
S11305C06F6E6E656374656420746F2031325620DB
S11305D0616E642053454E5345206F722053454E3F
S11305E0534520616E6420474E44002320537570A8
S11305F0706F727465642053656E736F7273002339
S11306002024324E32202D20496E76657274656442
S1130610093A20496E7665727420696E7075742F7C
S11306206F706572616E6420245B412D485D002308
S11306302024324E31202D204879737465726573FD
S11306406973093A20302D3130302520496E707598
S1130650742834302529203C3D2028353025202B92
S11306602F2D2031302529202D3E2046414C534545
S113067000232024324E30202D2054687265736884
S11306806F6C64093A20302D3130302520496E706A
S113069075742835312529203E3D20353025202DFF
S11306A03E2054525545002320496E707574002332
S11306B0204374726C2D78093A2052657365740076
S11306C0202D200055434E4320312E34205B272417
S11306D0432720636F6E6669675D203A2052554E4A
S11306E00055434E4320312E34205B2724272068B5
S11306F0656C703B20272450272072756E5D203A6C
S113070020434F4E46494700206E656172200045E4
S11307104550524F4D2072656164206661696C6575
S1130720642E2044656661756C74732072657374FD
S11307306F7265642E0043686172616374657273DD
S113074020706572206C696E6520657863656564E8
S113075065642E0056616C7565004F7074696F6E28
S11307600054617267657400436F6D6D616E64005F
S11307706572726F723A20004F4B00206E6F7420C6
S1130780737570706F727465642E002724272000BF
S1130790203D200024412026202442207C202E2E8F
S11307A02E292023636F6D6D656E7400302D3130FA
S11307B0302900312F3029002065787072657373F9
S11307C0696F6E09280020616374697665092800E1
S11307D020696E76657274656409280020687973EF
S11307E0746572657369730928002074687265738F
S11307F0686F6C64092800092D204F757470757436
S11308002000092D20496E707574200064656661AE
S1130810756C747320616E64207265626F6F74000E
S1130820092D20526573746F72652000245253544D
S11308303D000D0A000011241FBECFEFD8E0DEBF3B
S1130840CDBF11E0A0E0B1E0E6E0FFE302C0059017
S11308500D92A630B107D9F721E0A6E0B1E001C0BE
S11308601D92AD31B207E1F70E94C7090C94811FB4
S11308700C9400000895CF930E945B138FEF90E0D7
S11308800E94460C88EC90E00E944A0D2FEF8FE9FD
S113089095E0215080409040E1F700C0000088ECD2
S11308A090E00E944A0D0E947209C82F811106C06F
S11308B00E94690986E090E00E9469138C2FCF9111
S11308C008950F931F93CF93DF93CDB7DEB7C35033
S11308D0D1400FB6F894DEBF0FBECDBF1A82198285
S11308E0FE01339681E091E0DF019C011D922150CD
S11308F03040E1F700E010E00E948C1B8D3019F1CC
S11309008831F1F08A30F9F029813A812F3F31059D
S113091009F008F5A9014F5F5F4F5A834983E3E06B
S1130920F0E0EC0FFD1FE20FF31F8083E3E0F0E043
S1130930EC0FFD1FE40FF51F10820F5F1F4FDCCF7C
S11309408FEF9FEF01C0C8018E3F3FEF930719F06F
S1130950019669F006C085E090E00E94691381E089
S113096007C0CE0101960E94DE1A81E001C080E03A
S1130970CD5FDE4F0FB6F894DEBF0FBECDBFDF9163
S1130980CF911F910F91089581E008950895FC017E
S1130990108281E081831282ED5FFE4F88E2DF01E5
S11309A01D928A95E9F708950E947E0C0E94941B7B
S11309B00E94BF0D86E990E00E944A0D2FEF8FE65A
S11309C098E0215080409040E1F700C000000E9470
S11309D0C10D2FEF8FE19CE1215080409040E1F761
S11309E000C00000E5CF2F923F924F925F926F922A
S11309F07F928F929F92AF92BF92CF92DF92EF92AB
S1130A00FF920F931F93CF93DF93CDB7DEB7CA5FE7
S1130A10D1090FB6F894DEBF0FBECDBF4C010E94C2
S1130A20621384EF91E00E944A0D80E09FEF0E94E0
S1130A30460C0E947209882309F4B5C0C4010E94BF
S1130A404F0784010D5F1E4FF12C0F2EF6E4DF2EAD
S1130A50F02D0F2EFAE0EF2EF02DD982EA821B82C0
S1130A601C826F2DCE0101960E947F078981F801B7
S1130A7080838A8181838B818283F3940B5F1F4FF0
S1130A80F8E0FF12EACF8FC01C2D2FEFC21AD20A52
S1130A90BC2CAA24C5010E94460CCD50DF4F1982FC
S1130AA01882C35FD04081E090E08C0F9D1FCF502F
S1130AB0DF4F99838883C15FD040612FCE0187586F
S1130AC09F4F0E94E707CB50DF4F19821882C55F02
S1130AD0D040C950DF4F1882C75FD040AE014B50A1
S1130AE05F4FBE016F507F4FCE0187589F4F0E94CA
S1130AF02113C950DF4F8881C75FD04081114AC09C
S1130B00C20102C0959587951A95E2F7C750DF4F49
S1130B108883C95FD040E82FE095C650DF4FE88353
S1130B20CA5FD040740100E010E0C501802B912B16
S1130B300E94460CF3010083622D732DCE018F5069
S1130B409F4F0E94070A803469F08134B1F4F701A1
S1130B508381C750DF4FF881C95FD0408F2BF701E5
S1130B6083830EC0F7018381C650DF4FF881CA5FCB
S1130B70D0408F23F701838303C0C4010E94D404AF
S1130B800F5F1F4FFFEFEF1AFF0A011521E0120755
S1130B9061F603C0C4010E94D40488E0C816D104DD
S1130BA009F072CF0DC0C12CD12C6894442447F8AD
S1130BB0512C3E0198EF690E711C262C372C64CF02
S1130BC00E947E0C0E94941B8FEF9FEF0E94460CA4
S1130BD081E0C650DF4F0FB6F894DEBF0FBECDBF25
S1130BE0DF91CF911F910F91FF90EF90DF90CF9005
S1130BF0BF90AF909F908F907F906F905F904F9039
S1130C003F902F900895CF93DF93CDB7DEB76197D0
S1130C100FB6F894DEBF0FBECDBF3C0188E0FE01E5
S1130C203196DF01982F1D929A95E9F73896DF01E6
S1130C301D928A95E9F78FEF89870E94000DBFEF17
S1130C40B98B312C88248394912C0E94FB0CCE0107
S1130C5001960E94290D0E94000DFE0131962F017C
S1130C607E01F9E0EF0EF11C63018DEFC81A8EEFDF
S1130C70D80A520107E010E0212CF50161915F01CF
S1130C80D7018C916817E1F06C93C6010E947E1C19
S1130C90882359F0C401002E02C0880F991F0A94BA
S1130CA0E2F7382A222423940BC0C401002E02C088
S1130CB0880F991F0A94E2F78095382222242394FE
S1130CC0BFEFEB1AFB0A01501109E5E0CE0ED11C6F
S1130CD00F3FFFEF1F0789F68989381609F1032DA5
S1130CE010E07301E00EF11ED70113968C910E945F
S1130CF05E0C902F8827F7012381822B0E94460CDB
S1130D00D30111968C91882351F084E690E00E94DF
S1130D10680D84E690E00E94A30D398A01C0398AE7
S1130D20222009F492CFF3018081882309F48DCF26
S1130D308301095F1E4F0F2EF1E4FF2EF02D8F2D3E
S1130D400E94201B8AE30E94201BD2018D912D0159
S1130D500E94571B8AE30E94201BF801808188238C
S1130D6021F081E30E94201B03C080E30E94201B2A
S1130D7080E20E94201BF3940B5F1F4FF9E4FF12E3
S1130D80DECF0E94481B61CF81E008950895CF9380
S1130D90DF93CDB7DEB7CB52D1400FB6F894DEBFA8
S1130DA00FBECDBFCE0101960E94C704CE010196AD
S1130DB00E94F304882331F0CE0101960E940306B9
S1130DC08111FACFCE0101960E94C406CE0101968C
S1130DD00E94C606C55DDE4F0FB6F894DEBF0FBE97
S1130DE0CDBFDF91CF910895CF93DF931F92CDB7FD
S1130DF0DEB70E94770C811104C00E94180E88236C
S1130E00D9F00E940F0ECE0101960E943A04CE0141
S1130E1001960E943B04882331F0CE0101960E9482
S1130E2061048111FACFCE0101960E94C404CE015F
S1130E3001960E94C60402C00E94C7060F90DF916B
S1130E40CF9108951F93CF93DF93DC01FB0130977B
S1130E5009F140E050E070E080E061E010E0282F0C
S1130E6030E02115310549F4220F232F221F330BC3
S1130E70862F232B19F4812F01C0862FED01C40F77
S1130E80D51F9881890F7F5F472F50E04E175F076A
S1130E9030F301C080E0DF91CF911F9108950F934B
S1130EA01F93CF93DF9300D01F92CDB7DEB78C0191
S1130EB0198281E08A831B8243E050E060E070E0A5
S1130EC0CE0101960E94471F62E070E0CE010196B8
S1130ED00E9422079B81891309C089819A81AB8171
S1130EE0F80180839183A28381E001C080E00F90A8
S1130EF00F900F90DF91CF911F910F9108950F9351
S1130F001F93CF93DF9300D000D0CDB7DEB78C0111
S1130F1086E489838AE08A831B821C8270E0660FE0
S1130F20771F660F771F6D5F7F4F44E050E0CE015F
S1130F3001960E94471F63E070E0CE0101960E9473
S1130F4022079C8189130BC089819A81AB81BC8162
S1130F50F80180839183A283B38381E001C080E0A0
S1130F600F900F900F900F90DF91CF911F910F91E1
S1130F7008950F931F93CF93DF9300D0CDB7DEB7BF
S1130F808C0181E089831A8270E0660F771F6D5DA2
S1130F907F4F42E050E0CE0101960E94471F61E07E
S1130FA070E0CE0101960E9422079A81891307C03E
S1130FB089819A81F8019183808381E001C080E076
S1130FC00F900F90DF91CF911F910F910895BF92D1
S1130FD0CF92DF92EF92FF920F931F93CF93DF9301
S1130FE06C0188E090E0861B910929E7289F800125
S1130FF0299F100D112480E094E0801B910B0E9426
S1131000571FB82EC1E0D4E0C01BD10B89E794E090
S11310107C01E01AF10ACE15DF0568F48601CE01E1
S11310200E94571FF80181938F01882321F0219694
S1131030CE15DF05A0F3F6018081882361F0C60197
S11310400E943E1CBC01C6010E94220791E0B81612
S113105019F090E001C090E0892FDF91CF911F91AA
S11310600F91FF90EF90DF90CF90BF900895CF93B2
S1131070DF93EC0162E070E00E9422078A8343E080
S113108050E060E070E0CE010E945F1FDF91CF91DD
S113109008950F931F93CF938C01C62F63E070E0E4
S11310A00E942207F80183836C2F70E0660F771F7C
S11310B0660F771F6D5F7F4F44E050E0C8010E94C8
S11310C05F1FCF911F910F9108950F931F93CF939B
S11310D08C01C62F61E070E00E942207F801818331
S11310E06C2F70E0660F771F6D5D7F4F42E050E01C
S11310F0C8010E945F1FCF911F910F910895AF9275
S1131100BF92CF92DF92EF92FF920F931F93CF93F0
S1131110DF936C0188E090E0861B910949E7489FC2
S11311209001499F300D112480E094E05C01A21AE3
S1131130B30AC1E0D4E0C21BD30B89E794E07C017D
S1131140E21AF30ACE15DF05A0F4F60160816623E6
S113115081F086010F5F1F4F05C0F80161918F0177
S1131160662339F0CE010E946F1F2196CE15DF054C
S1131170A0F360E0CE010E946F1FC6010E943E1CD6
S1131180BC01C6010E942207682FC5010E946F1F7F
S1131190DF91CF911F910F91FF90EF90DF90CF904F
S11311A0BF90AF900895CF93DF9300D01F92CDB737
S11311B0DEB7198281E08A831B82CE0101960E94E8
S11311C037080F900F900F90DF91CF910895FF9201
S11311D00F931F93CF93DF9300D000D0CDB7DEB72A
S11311E010E00F2EF6E4FF2EF02D0AE0F9820A83B8
S11311F01B821C82612FCE0101960E9449081F5F49
S11312001830A1F70F900F900F900F90DF91CF91AE
S11312101F910F91FF9008950F931F93CF93DF9326
S113122000D0CDB7DEB710E001E009831A82612F48
S1131230CE0101960E9465081F5F1830B1F70F9028
S11312400F90DF91CF911F910F910895BF92CF928C
S1131250DF92EF92FF920F931F93CF93DF93CDB75B
S1131260DEB7CB57D1090FB6F894DEBF0FBECDBFA2
S113127010E00F2EF9E7BF2EF02D7E0183E0E80E7B
S1131280F11C04E26894CC24C1F8D12CF7018B2D15
S113129011928A95E9F70B83DA82C98281E4810F7E
S11312A08C83612FC7010E947F081F5F183071F77C
S11312B0C558DF4F0FB6F894DEBF0FBECDBFDF9128
S11312C0CF911F910F91FF90EF90DF90CF90BF903F
S11312D008950E94D3080E94E7080E940C090E9406
S11312E026090895FF920F931F93CF93DF93CDB7F1
S11312F0DEB7CA57D1090FB6F894DEBF0FBECDBF13
S1131300198281E08A831B82CE0101960E944F07D5
S1131310882381F110E00F2EF6E4FF2EF02D0AE071
S1131320F9820A831B821C82612FCE0101960E94DE
S11313307F078823F9F01F5F183091F710E001E070
S1131340EA960FAFEA97EB961FAEEB97612FCE01AB
S113135087589F4F0E94B907882359F0612FCE0107
S113136001960E94E707882321F01F5F183041F798
S113137001C080E0C658DF4F0FB6F894DEBF0FBE41
S1131380CDBFDF91CF911F910F91FF9008950E94DF
S1131390080C0E94C30D0E94141B0E94F4060E94B4
S11313A0D20D90E0880F892F881F990B9195892B76
S11313B011F480E4089581E4089586FD02C080E478
S11313C0089581E4089585FD02C080E4089581E4D0
S11313D0089584FD02C080E4089581E4089583FDA6
S11313E002C080E4089581E4089582FD02C080E48F
S11313F0089581E4089581FD02C080E4089581E4A4
S1131400089580FD02C080E4089581E408956F92F8
S11314107F928F929F92AF92BF92CF92DF92EF9280
S1131420FF920F931F93CF93DF93CDB7DEB7C857C7
S1131430D1090FB6F894DEBF0FBECDBFDC01129602
S1131440CD90DC901397C114D10409F4C4C10D905C
S1131450BC91A02DEC91EE2309F4BFC15B017D0189
S1131460FFEFEF1AFF0ACA0EDB1E00E010E06894DB
S1131470662466F80F2EF1E47F2EF02D06C0D70106
S1131480ED917D01EE2309F49EC18E2F90E0FC01C5
S11314903897E031F10508F0A2C1E65AFF4F0C94E9
S11314A0CE1EC8010197E1E0F0E0EC0FFD1FE80F4C
S11314B0F91F2081213441F4E1E0F0E0EC0FFD1F3D
S11314C0E80FF91F60827BC1E1E0F0E0EC0FFD1F43
S11314D0E80FF91F708273C198012150310902503D
S11314E01109A1E0B0E0AC0FBD1FA20FB31FE1E0F2
S11314F0F0E0EC0FFD1FE00FF11F9C918081892328
S1131500813449F4E1E0F0E0EC0FFD1FE00FF11F3E
S11315107082890154C1E1E0F0E0EC0FFD1FE00F9F
S1131520F11F608289014BC1C80101970250110962
S1131530E1E0F0E0EC0FFD1FE80FF91F20812134FA
S113154049F4E1E0F0E0EC0FFD1FE00FF11F208112
S1131550213449F0E1E0F0E0EC0FFD1FE00FF11F52
S113156070828C012CC1E1E0F0E0EC0FFD1FE00F74
S1131570F11F60828C0123C1C80101970250110937
S1131580E1E0F0E0EC0FFD1FE80FF91F20812134AA
S113159049F0E1E0F0E0EC0FFD1FE00FF11F2081C6
S11315A0213449F4E1E0F0E0EC0FFD1FE00FF11FFE
S11315B070828C0104C1E1E0F0E0EC0FFD1FE00F4C
S11315C0F11F60828C01FBC0C80101970250110910
S11315D0E1E0F0E0EC0FFD1FE80FF91F208121345A
S11315E091F0E1E0F0E0EC0FFD1FE00FF11F20812E
S11315F0213449F0E1E0F0E0EC0FFD1FE00FF11FB2
S113160070828C01DCC0E1E0F0E0EC0FFD1FE00F24
S1131610F11F60828C01D3C0C801019702501109E7
S1131620A1E0B0E0AC0FBD1FA80FB91FE1E0F0E0EE
S1131630EC0FFD1FE00FF11F3C912081321749F0A0
S1131640E1E0F0E0EC0FFD1FE00FF11F70828C0170
S1131650B6C0E1E0F0E0EC0FFD1FE00FF11F608287
S11316608C01ADC0C801019702501109A1E0B0E09E
S1131670AC0FBD1FA80FB91FE1E0F0E0EC0FFD1F98
S1131680E00FF11F3C912081321309C0E1E0F0E04A
S1131690EC0FFD1FE00FF11F70828C0190C0E1E0A0
S11316A0F0E0EC0FFD1FE00FF11F60828C0187C09A
S11316B04801BFEF8B1A9B0AF50180810E94D10972
S11316C0E1E0F0E0EC0FFD1FE00FF11F80838401E7
S11316D076C04801FFEF8F1A9F0AD5018C910E94B2
S11316E0DD09E1E0F0E0EC0FFD1FE00FF11F808366
S11316F0840165C04801BFEF8B1A9B0AF501808104
S11317000E94E309E1E0F0E0EC0FFD1FE00FF11FA0
S11317108083840154C04801FFEF8F1A9F0AD501CA
S11317208C910E94E909E1E0F0E0EC0FFD1FE00F6D
S1131730F11F8083840143C04801BFEF8B1A9B0AC9
S1131740F50180810E94EF09E1E0F0E0EC0FFD1F5C
S1131750E00FF11F8083840132C04801FFEF8F1A2C
S11317609F0AD5018C910E94F509E1E0F0E0EC0FAD
S1131770FD1FE00FF11F8083840121C04801BFEFEA
S11317808B1A9B0AF50180810E94FB09E1E0F0E0DD
S1131790EC0FFD1FE00FF11F8083840110C048018E
S11317A0FFEF8F1A9F0AD5018C910E94010AE1E094
S11317B0F0E0EC0FFD1FE00FF11F80838401CE14D5
S11317C0DF0409F05CCE0115110559F0FE01E00FAC
S11317D0F11F808107C080E405C080E403C08FEF5F
S11317E001C080E4C858DF4F0FB6F894DEBF0FBEC7
S11317F0CDBFDF91CF911F910F91FF90EF90DF90BC
S1131800CF90BF90AF909F908F907F906F900895EE
S113181087B18F6187B93D9818B8409A43988AB1C7
S11318208C6F8AB95D9A84B1876084B91DB88EB112
S113183083608EB9ECE7F0E0808186668083EAE716
S1131840F0E080818C68808395B1E6E0F1E08491DA
S1131850E92FE87FE82BE5B986E487BD84B5826487
S113186084BD1092800098E090938100EFE6F0E050
S11318708081826080831092900090939100E1E7D0
S1131880F0E08081826080837894089520E030E0E5
S1131890AC01022E02C0569547950A94E2F740FF28
S11318A002C0449A01C04498419A41982F5F3F4F27
S11318B02031310569F7429A4298089520E030E0DA
S11318C090E0AC01022E02C0559547950A94E2F7C8
S11318D040FF02C05A9A01C05A985C9A5C982F5FE4
S11318E03F4F2830310569F75B9A5B98089586B1BC
S11318F085FB882780F991E089270895ECE6F0E0DC
S1131900808180628083E8E6F0E080818260808369
S113191008951F920F920FB60F9211240F931F93E5
S11319202F933F934F935F936F937F938F939F93E3
S1131930AF93BF93CF93DF93EF93FF93C0910601CF
S113194081E08C0F883018F48093060102C0109255
S1131950060195B1E0910601F0E0EA5FFE4F849143
S1131960E92FE87FE82BE5B960917900D0E0009198
S11319700A0110910B010C0F1D1F70E080E090E034
S11319800E94C11D29EC38EC48EC5EE30E944D1E18
S11319900E94901DF801608380910A0190910B01CF
S11319A0C80FD91F8881853610F084E6888380911A
S11319B00601873030F4EAE7F0E0808180648083B8
S11319C002C010920701FF91EF91DF91CF91BF9177
S11319D0AF919F918F917F916F915F914F913F91C3
S11319E02F911F910F910F900FBE0F901F9018957C
S11319F0809107010895809107018111FCCF08951A
S1131A0081E08093070180910801909109018C5035
S1131A10914069F08CE091E0909309018093080172
S1131A2084E191E090930B0180930A010CC084E15E
S1131A3091E090930901809308018CE091E09093E8
S1131A400B0180930A01EAE7F0E0808180648083DF
S1131A500895DC0120E030E0E0910801F0910901F3
S1131A60E20FF31F80818D932F5F3F4F28303105A4
S1131A7099F708951F920F920FB60F9211248F9326
S1131A8088E08093810015BC8F910F900FBE0F905A
S1131A901F9018958F3F2FEF920731F485B583601F
S1131AA085BD8EEF9FEF05C025B5236025BD00974A
S1131AB069F020E030E0EFEFF1E13197F1F700C099
S1131AC000002F5F3F4F28173907A8F315BC08956E
S1131AD01092850010928400BC0180E090E00E9486
S1131AE0BF1D20E030EA4CE856E40E944D1E20E081
S1131AF030E04AE754E40E941E1D20E030E040E854
S1131B005FE30E94B11C0E94901D70938900609352
S1131B108800E1E8F0E080818560808316BC85B5AB
S1131B20836085BD08951F920F920FB60F92112402
S1131B308F9388E0809391005F988F910F900FBEF0
S1131B400F901F9018951092950010929400BC016C
S1131B5080E090E00E94BF1D29E33EE843E65DE398
S1131B600E941E1D0E94901D70939900609398001E
S1131B70E1E9F0E08081856080835F9A08955F9A4F
S1131B8008955F98089584B7877F84BF0FB6F8944B
S1131B90A895809160008861809360001092600035
S1131BA00FBE0895F8949FE088E10FB6F894A895C5
S1131BB0809360000FBE909360008FEF90E00E94CE
S1131BC0460C2FEF8FEC92E0215080409040E1F7DB
S1131BD000C0000080E09FEF0E94460C2FEF8FECC6
S1131BE092E0215080409040E1F700C00000E5CF32
S1131BF08FEE9EEBADEABEED80931D0190931E0126
S1131C00A0931F01B093200108951F920F920FB665
S1131C100F921124F8940E94F80D0E94D20D109294
S1131C201D0110921E0110921F01109220010895AF
S1131C3081E040911D0150911E0160911F0170913E
S1131C4020014F3E5E4B6D4A7E4D09F080E00895C1
S1131C508B3028F4893038F4883059F008C08E303D
S1131C6020F08E3021F482E0089581E008958FEF12
S1131C70089583E00895CF93DF93D62F0E94280E12
S1131C80C82F8D2F0E94280E91E0C8170CF490E005
S1131C90892FDF91CF91089591E083FF90E0892F00
S1131CA0089591E084FF90E0892F089590EE980FB5
S1131CB081E0923008F080E0089591E0803209F0EC
S1131CC090E0892F089591E0813209F090E0892F06
S1131CD0089590E08A30910500F5FC01E659FF4F24
S1131CE00C94CE1E8DEA91E008958DE991E008955B
S1131CF08DE891E008958BE791E0089584E691E002
S1131D0008958DE491E0089586E391E008958FE1CC
S1131D1091E008958EE091E0089580E090E00895C8
S1131D2081EC91E00895EF92FF920F931F93CF936C
S1131D30DF93EC017B018A010E944D1CE881F9814B
S1131D408081843209F0A0C0CF01019699838883F1
S1131D50E1818E2F90E0FC01E154F109E830F105B6
S1131D6008F094C0EC58FF4F0C94CE1EF70120816C
S1131D703181F80180819181AC014F5F5F4F5183C4
S1131D804083F901E80FF91F20E1208376C0F701B1
S1131D9020813181F80180819181AC014F5F5F4FD7
S1131DA051834083F901E80FF91F21E1208365C0C5
S1131DB0F70120813181F80180819181AC014F5F6D
S1131DC05F4F51834083F901E80FF91F22E120831B
S1131DD054C0F70120813181F80180819181AC01E7
S1131DE04F5F5F4F51834083F901E80FF91F23E1EF
S1131DF0208343C0F70120813181F80180819181E2
S1131E00AC014F5F5F4F51834083F901E80FF91F25
S1131E1024E1208332C0F70120813181F8018081DF
S1131E209181AC014F5F5F4F51834083F901E80F0B
S1131E30F91F25E1208321C0F70120813181F801B8
S1131E4080819181AC014F5F5F4F51834083F901E1
S1131E50E80FF91F26E1208310C0F70120813181AA
S1131E60F80180819181AC014F5F5F4F51834083C2
S1131E70F901E80FF91F27E12083888199810196F0
S1131E809983888381E003C080E001C080E0DF9112
S1131E90CF911F910F91FF90EF900895EF92FF92D1
S1131EA00F931F93CF93DF93EC017B018A010E9470
S1131EB04D1CE881F98190819D3309F48AC020F496
S1131EC0963209F464C09CC09C3709F471C09E37F3
S1131ED009F096C0CF010E94F91B8D3389F18C372C
S1131EE0C9F0863209F042C0F70120813181F8013E
S1131EF080819181AC014F5F5F4F51834083F90131
S1131F00E80FF91F2AE0208388819981019699833B
S1131F1088836FC0F70120813181F801808191812C
S1131F20AC014F5F5F4F51834083F901E80FF91F04
S1131F302CE020838881998101969983888359C0F4
S1131F40F70120813181F80180819181AC014F5FDB
S1131F505F4F51834083F901E80FF91F2DE020837F
S1131F608881998101969983888343C0F7012081F0
S1131F703181F80180819181AC014F5F5F4F5183C2
S1131F804083F901E80FF91F28E0208332C0F701EC
S1131F9020813181F80180819181AC014F5F5F4FD5
S1131FA051834083F901E80FF91F29E0208321C000
S1131FB0F70120813181F80180819181AC014F5F6B
S1131FC05F4F51834083F901E80FF91F2BE0208311
S1131FD010C0F70120813181F80180819181AC0129
S1131FE04F5F5F4F51834083F901E80FF91F2EE0E3
S1131FF020838881998101969983888381E001C037
S113200080E0DF91CF911F910F91FF90EF900895A1
S1132010EF92FF920F931F93CF93DF93EC017B0119
S11320208A010E944D1CE881F9818081883219F06F
S1132030893291F028C0F70120813181F801808133
S11320409181AC014F5F5F4F51834083F901E80FE9
S1132050F91F20E2208310C0F70120813181F801AB
S113206080819181AC014F5F5F4F51834083F901BF
S1132070E80FF91F21E220838881998101969983D1
S1132080888381E001C080E0DF91CF911F910F919F
S1132090FF90EF900895EF92FF920F931F93CF93C9
S11320A0DF93EC018B018881882309F465C08332B6
S11320B009F462C0F12CEE24E39404C0833209F4E1
S11320C056C0E901F801808191818837910508F0B3
S11320D0E28288810E94201C811137C088810E947D
S11320E02D1C811132C08881883239F158F4803234
S11320F061F118F4893029F528C0843271F08632F0
S113210001F523C08D3309F118F48932C1F019C0E7
S11321108C37D9F08E37A9F418C0CE010E94F91B70
S1132120813428F0CE010E94F91B893420F082E02A
S1132130F801828321C0219608C0F39406C0FA9462
S113214004C084E0F801828317C0FF2024F483E0F4
S1132150F801828311C0F8018081918101969183F5
S113216080839E012F5F3F4F89818111A7CFFF207C
S113217019F083E0F8018283DF91CF911F910F91D1
S1132180FF90EF900895EF92FF920F931F93CF93D8
S1132190DF9300D000D0CDB7DEB78B017A019A83EC
S11321A089831C821B82AE014D5F5F4FB801CE0153
S11321B001960E94930E8111F6CFAE014D5F5F4FE1
S11321C0B801CE0101960E944E0F8111ECCFAE01F1
S11321D04D5F5F4FB801CE0101960E940810811136
S11321E0E2CF8B819C81F80193838283892B19F43C
S11321F089E0F70182830F900F900F900F90DF9189
S1132200CF911F910F91FF90EF9008957F928F923D
S11322109F92AF92BF92CF92DF92EF92FF920F9371
S11322201F93CF93DF937C016B0180E090E0712CCE
S1132230812C01C0C801F7012281338182179307E1
S113224008F001C1A080B180F501E80FF91F90806A
S11322508C010F5F1F4F0217130720F4E501C00F15
S1132260D11F02C0C72DD82D009721F00197A80EC9
S1132270B91E02C0A72CB82C892D0E944C0E8823AD
S113228009F43EC088E0981212C0209721F487E038
S1132290F6018283D8C08881803209F4C7C00E94C5
S11322A0510E8111B7C085E0F6018283CCC020971E
S11322B021F487E0F6018283C6C0A114B10421F49D
S11322C088E0F6018283BFC0F5018081813241F04C
S11322D00E94510E811104C086E0F6018283B3C0CE
S11322E08881803209F4A2C00E94510E81119EC0DF
S11322F08881883009F48EC085E0F6018283A3C00A
S1132300892D0E94510E882319F1209771F088813C
S11323100E94510E882349F088810E94630E811126
S113232004C085E0F60182838EC0A114B10481F05B
S1132330F50180810E94510E882351F0F5018081BE
S11323400E945D0E811104C086E0F60182837BC089
S1132350892D0E94560E882309F46CCF892D0E9482
S11323605D0E882351F1209781F088810E94510EDF
S113237081110FC08881883061F00E945D0E811147
S113238008C085E0F60182835EC087E0F60182839F
S11323905AC0A114B10409F443C0F50180810E941C
S11323A04C0E811149C0F50180810E945D0E81119E
S11323B037C086E0F601828346C0892D0E94630EF1
S11323C0882309F437CF209771F088810E944C0E3E
S11323D0811109C088810E94630E811104C085E0C7
S11323E0F601828330C0A114B10481F0F50180812B
S11323F00E94510E81111ECFF50180810E94630E4F
S1132400811118CF86E0F60182831DC088E0F601B1
S1132410828319C0892D0E94510E811178CF98CFE3
S1132420892D0E94630E8111D0CF04CF892D0E9483
S1132430510E81116CCF8CCF892D0E94630E88239D
S113244009F4F8CEC2CFDF91CF911F910F91FF9085
S1132450EF90DF90CF90BF90AF909F908F907F9040
S113246008956F927F928F929F92AF92BF92CF9274
S1132470DF92EF92FF920F931F93CF93DF93CDB729
S1132480DEB7C857D1090FB6F894DEBF0FBECDBF73
S11324908C01DC0112968D919C911397892B09F480
S11324A0B3C0A12CB12CE12CF12CC12CD12C05C032
S11324B0C114D10409F092C0A9C0D801ED91FC91D6
S11324C0EA0DFB1D7080772009F47BC0872D0E94E4
S11324D0510E882351F0D801ED91FC91EE0DFF1DB2
S11324E07082F70131967F016CC0872D0E945D0ECA
S11324F0882359F0E1E0F0E0EC0FFD1FEC0DFD1D29
S11325007082C60101966C015CC0872D0E94630E27
S1132510882319F188248394912C8C0E9D1E8C0C95
S11325209D1CC114D104A9F0D4017E904D01872DC6
S11325300E945D0E81110DC0B1E0CB1AD108D80103
S1132540ED91FC91EE0DFF1D7082F70131967F0134
S1132550E8CFF1E0CF1AD10834C0872D0E944C0E89
S1132560882379F188248394912C8C0E9D1E8C0CE5
S11325709D1CC114D104D9F0D4016E904D01862D57
S11325800E945D0E811113C0672D862D0E943B0EA3
S1132590882369F0B1E0CB1AD108D801ED91FC9100
S11325A0EE0DFF1D6082F70131967F01E2CFE1E07D
S11325B0F0E0EC0FFD1FEC0DFD1D7082C6010196CD
S11325C06C019FEFA91AB90AD80112968D919C91BA
S11325D01397A816B90608F470CF6ACFAE014F5FFF
S11325E05F4FDA01AC0DBD1DC701F80120813181B7
S11325F0F901E80FF91F2E9120830196A417B5075E
S1132600A1F7EC0CFD1C02C0E12CF12CD8011396AF
S1132610FC92EE921297C858DF4F0FB6F894DEBFC3
S11326200FBECDBFDF91CF911F910F91FF90EF901F
S1132630DF90CF90BF90AF909F908F907F906F90DE
S11326400895EF92FF920F931F93CF93DF93FA01B4
S11326502281211122C0EA017B018C01BA010E946E
S11326604B108A8181111BC0AE01B701C8010E94C1
S1132670C3108A81811115C0BE01C7010E940611D1
S11326808A81811110C0BE01C7010E94311281E00C
S11326909A81992349F080E007C080E005C080E07A
S11326A003C080E001C080E0DF91CF911F910F91C2
S11326B0FF90EF90089581EE96E00E94371B0E94F0
S11326C0481B089584EC96E00E94371B0E94481B27
S11326D00895CF93DF93EC01892B29F488E797E0E1
S11326E00E94371B52C080E797E00E94371BCE013F
S11326F00E946F1B80EC96E00E94371BFE0131970D
S1132700E730F10508F041C0E458FF4F0C94CE1EA9
S11327108BE897E00E94371B88E697E00E94371BFE
S11327208BE797E00E94371B30C08BE897E00E944C
S1132730371B81E697E00E94371B8BE797E00E94E6
S1132740371B23C08BE897E00E94371B8AE597E08C
S11327500E94371B8BE797E00E94371B16C08BE85B
S113276097E00E94371B84E597E00E94371B8BE7B4
S113277097E00E94371B09C086E397E00E94371B4D
S113278004C08FE097E00E94371B0E94481BDF9132
S1132790CF9108950F931F93CF93DF938C01EB0197
S11327A084E20E94201BC8010E946F1B80E997E00D
S11327B00E94371BCE010E946F1B0E94481BDF91B1
S11327C0CF911F910F910895DF92EF92FF920F9393
S11327D01F93CF93DF93CDB7DEB7CA57D1090FB696
S11327E0F894DEBF0FBECDBF198281E08A831B82BD
S11327F0CE0101960E944F07698170E084E690E063
S11328000E94CA136A8170E085E690E00E94CA13B0
S1132810F12C08EC10E00F2EF6E4DF2EF02D0F2E35
S1132820FAE0EF2EF02DD982EA821B821C826F2DF2
S1132830CE0101960E947F07698170E0C8010E9461
S1132840CA136A8170E0C80101960E94CA136B81A1
S113285070E0C80102960E94CA13065F1F4FF394EA
S113286088E0F812E0CF10E00F2EFCE2EF2EFF24F8
S1132870F394F02D01E0EA960FAFEA97EB961FAEC2
S1132880EB97612FCE0187589F4F0E94B907EA96B4
S11328906FADEA9770E0C7010E94CA13612FCE01A1
S11328A001960E94E70784E20E94201BC70101965B
S11328B00E946F1B80E997E00E94371BCE010196AE
S11328C00E94281B0E94481B8AE0E80EF11C1F5F2F
S11328D0183089F680E090E00E946913C658DF4FF3
S11328E00FB6F894DEBF0FBECDBFDF91CF911F911D
S11328F00F91FF90EF90DF900895EF92FF920F9366
S11329001F93CF93DF93CDB7DEB728970FB6F89414
S1132910DEBF0FBECDBF0E94F80C811102C00E9421
S1132920000D0E94FB0C0E94000DCE0101960E9436
S1132930290D8E010F5F1F4F7E0189E0E80EF11C07
S1132940F80181918F010E94571B80E091E00E9461
S1132950281B0E151F05A1F70E94481B28960FB6C9
S1132960F894DEBF0FBECDBFDF91CF911F910F91C1
S1132970FF90EF9008951F93CF93DF938FEA96E033
S11329800E94371B83E00E944D1B87EA96E00E9459
S1132990371B0E94481B81E796E00E94371B0E9468
S11329A0481B8FE296E00E94371B0E94481B8FEF62
S11329B095E00E94371B82E00E944D1B8BEE95E050
S11329C00E94371B0E94481B8EEA95E00E94371B29
S11329D00E94481B8EE795E00E94371B82E00E940C
S11329E04D1B8AE695E00E94371B0E94481B89E430
S11329F095E00E94371B0E94481B88E295E00E94E4
S1132A00371B82E00E944D1B84E195E00E94371B36
S1132A100E94481B83EF94E00E94371B0E94481BCE
S1132A2082ED94E00E94371B82E00E944D1B8AEBEA
S1132A3094E00E94371B0E94481B85E994E00E94A1
S1132A40371B82E00E944D1B8DE794E00E94371BE8
S1132A500E94481B88E594E00E94371B82E00E9494
S1132A604D1B80E494E00E94371B0E94481B8BE1BD
S1132A7094E00E94371B82E00E944D1B83E094E0A7
S1132A800E94371B0E94481B8EED93E00E94371B67
S1132A9083E00E944D1B85ED93E00E94371B0E944A
S1132AA0481B88EA93E00E94371B0E94481B8FE76B
S1132AB093E00E94371B0E94481B80E593E00E942C
S1132AC0371B82E00E944D1B83E493E00E94371B76
S1132AD00E94481B80E393E00E94371B0E94481B1E
S1132AE08BE093E00E94371B0E94481B8BED92E021
S1132AF00E94371B82E00E944D1B80E992E00E94F5
S1132B00371B0E94481B89E492E00E94371B83E034
S1132B100E944D1B8CE298E00E94371B84E20E94C5
S1132B20201B80E298E00E94371B8CE098E00E9412
S1132B30371B0E94481B8CE298E00E94371B83E5F8
S1132B400E94201B80E298E00E94371B81E492E0FF
S1132B500E94371B8CE098E00E94371B0E94481BA0
S1132B608CE298E00E94371B89E40E94201B80E2DB
S1132B7098E00E94371B8AE392E00E94371B8CE0A6
S1132B8098E00E94371B0E94481B8CE298E00E9448
S1132B90371B8FE40E94201B80E298E00E94371BC1
S1132BA082E392E00E94371B8CE098E00E94371B7E
S1132BB00E94481B8CE298E00E94371B85E40E9427
S1132BC0201B80E298E00E94371B86E292E00E947C
S1132BD0371B8CE098E00E94371B82E00E944D1B5B
S1132BE083E192E00E94371B0E94481B8CEF91E026
S1132BF00E94371B82E00E944D1B80EE91E00E94F0
S1132C00371B0E94481B8AEC91E00E94371B82E02C
S1132C100E944D1B11E4C8ECD0E082E00E944D1BE1
S1132C2084E20E94201BCE010E946F1B82E098E088
S1132C300E94371B812F0E94201B8AEE97E00E947E
S1132C40371B8CEA97E00E94371B0E94481B84E2E2
S1132C500E94201BCE0101960E946F1B82E098E027
S1132C600E94371B812F0E94201B8CED97E00E944D
S1132C70371B8CEA97E00E94371B0E94481B84E2B2
S1132C800E94201BCE0102960E946F1B82E098E0F6
S1132C900E94371B812F0E94201B80ED97E00E9429
S1132CA0371B83EB97E00E94371B2A961F5FC831BE
S1132CB081E0D80709F0B1CF0E94481B11E4CCE2AF
S1132CC0D1E082E00E944D1B84E20E94201BCE01D1
S1132CD00E946F1B87EF97E00E94371B812F0E9491
S1132CE0201B86EC97E00E94371B83EB97E00E9441
S1132CF0371B0E94481B84E20E94201BCE010196D0
S1132D000E946F1B87EF97E00E94371B812F0E9460
S1132D10201B88EB97E00E94371B84E997E00E9410
S1132D20371B2A961F5FCC3781E0D80751F60E94E3
S1132D30481B80E090E00E946913DF91CF911F91BE
S1132D400895EF92FF920F931F93CF93DF937B012C
S1132D50EA0189016DE302960E94E11B0E94641C52
S1132D60009779F00E94F71E99235CF08C179D0759
S1132D7040F00817190728F0F7019183808381E058
S1132D8005C084E090E00E94691380E0DF91CF9158
S1132D901F910F91FF90EF9008950F931F93CF937E
S1132DA0DF93EC01239600E010E089910E94371C28
S1132DB0882319F00F5F1F4FF8CFC801DF91CF911F
S1132DC01F910F910895EF92FF920F931F93CF934A
S1132DD0DF93EC018B010E94CD16039751F5CE01D0
S1132DE003960E94F71E7C011816190614F54DE38C
S1132DF063E070E0CE0102960E94FE1BFC01970185
S1132E00201B310BADECBCEC0E94D41E969587952B
S1132E109695879596958795282FC7016AE070E067
S1132E200E94BA1E782F81E0319609F480E091E087
S1132E3004C020E070E080E090E0622FDF91CF9149
S1132E401F910F91FF90EF900895EF92FF920F93CF
S1132E501F93CF93DF9300D000D01F92CDB7DEB77E
S1132E608C017B01198281E08A831B82CE01019649
S1132E700E944F07F80182818823F9F01D821C8289
S1132E8021E030E040E050E0BE016C5F7F4FC701BD
S1132E900E94A1168823B9F081E02C813D81213064
S1132EA0310509F080E08983CE0101960E9437083C
S1132EB080E090E00E94691306C0698170E084E6B6
S1132EC090E00E94CA130F900F900F900F900F90F4
S1132ED0DF91CF911F910F91FF90EF900895EF92A2
S1132EE0FF920F931F93CF93DF9300D000D01F92D4
S1132EF0CDB7DEB78C017B01198281E08A831B8206
S1132F00CE0101960E944F07F80182818823F9F0CF
S1132F101D821C8221E030E040E050E0BE016C5F85
S1132F207F4FC7010E94A1168823B9F081E02C814C
S1132F303D812130310509F080E08A83CE0101967C
S1132F400E94370880E090E00E94691306C06A81FD
S1132F5070E085E690E00E94CA130F900F900F90E6
S1132F600F900F90DF91CF911F910F91FF90EF90F1
S1132F700895EF92FF920F931F93CF93DF9300D0A6
S1132F8000D000D0CDB7DEB78C017B0186E4898305
S1132F908AE08A831B821C82F8016081CE0101963B
S1132FA00E947F07F80182818823D9F01E821D8246
S1132FB024E630E040E050E0BE016B5F7F4FC70184
S1132FC00E94A116882321F18D818983F8016081F3
S1132FD0CE0101960E94490880E090E00E946913A6
S1132FE017C0698170E0F801208130E0C901880FC1
S1132FF0991F220F331F220F331F220F331F820FFB
S1133000931F88539F4F2181820F911D0E94CA13E1
S113301026960FB6F894DEBF0FBECDBFDF91CF91D9
S11330201F910F91FF90EF900895EF92FF920F93ED
S11330301F93CF93DF9300D000D000D0CDB7DEB77D
S11330408C017B0186E489838AE08A831B821C824B
S1133050F8016081CE0101960E947F07F801828108
S11330608823D9F01E821D8224E630E040E050E03F
S1133070BE016B5F7F4FC7010E94A116882321F117
S11330808D818A83F8016081CE0101960E944908EE
S113309080E090E00E94691317C06A8170E0F80133
S11330A0208130E0C901880F991F220F331F220F9E
S11330B0331F220F331F820F931F88539F4F218189
S11330C0820F911D0E94CA1326960FB6F894DEBF94
S11330D00FBECDBFDF91CF911F910F91FF90EF9065
S11330E00895EF92FF920F931F93CF93DF9300D035
S11330F000D000D0CDB7DEB78C017B0186E4898394
S11331008AE08A831B821C82F8016081CE010196C9
S11331100E947F07F8018281882309F11E821D82A3
S113312021E030E040E050E0BE016B5F7F4FC7011B
S11331300E94A116882351F181E02D813E81213026
S1133140310509F080E08B83F8016081CE0101969E
S11331500E94490880E090E00E94691317C06B81C7
S113316070E0F801208130E0C901880F991F220F17
S1133170331F220F331F220F331F820F931F8853D5
S11331809F4F2181820F911D0E94CA1326960FB66C
S1133190F894DEBF0FBECDBFDF91CF911F910F9189
S11331A0FF90EF900895EF92FF920F931F93CF93A8
S11331B0DF9300D000D0CDB7DEB78C017B0181E076
S11331C089831A82F8016081CE0101960E94B907B1
S11331D0F8018281882309F11C821B8221E030E0FE
S11331E040E050E0BE016D5F7F4FC7010E94A11611
S11331F0882351F181E02B813C812130310509F094
S113320080E08983F8016081CE0101960E946508FF
S113321080E090E00E94691317C0698170E0F801B2
S1133220208130E0C901880F991F220F331F220F1C
S1133230331F220F331F820F931F845D9E4F218102
S1133240820F911D0E94CA130F900F900F900F9040
S1133250DF91CF911F910F91FF90EF900895EF921E
S1133260FF920F931F93CF93DF93CDB7DEB7CF5762
S1133270D1090FB6F894DEBF0FBECDBF8C019B0100
S1133280FC019281992309F455C06DE3C9010296AA
S11332900E94E11B01967C01ED961FAE1EAEED97D8
S11332A0CE010196EB969FAF8EAFEB97EF961FAED4
S11332B01EAEEF97C158DF4F1882CF57D040AE01F2
S11332C043585F4FBE0167587F4FC7010E942113C7
S11332D0C158DF4F8881CF57D04081110AC0F8010F
S11332E06081C7010E947F0880E090E00E9469131A
S11332F02DC087E090E00E946913C158DF4F888198
S1133300CF57D0400E94690E0E94371B88E097E097
S11333100E94371BEF968EAD9FADEF970E946F1BF7
S113332082E091E00E94281BC7010E94281B0E9492
S1133330481B0CC0F8016081CE0101960E94E7078A
S1133340CE0101960E94281B0E94481BC158DF4FE2
S11333500FB6F894DEBF0FBECDBFDF91CF911F91A2
S11333600F91FF90EF9008950E94E7080E94D20DFC
S11333700E940C090E94D20D0E9426090E94D20DBF
S11333800E94E7080E94D20D0E94D3080E94E70819
S11333900E940C090E9426090E94D20DCF93DF934C
S11333A0EC0188819981069739F4E4ECF1E0E49129
S11333B08A818E1731F00FC081E090E00E9469137A
S11333C02FC0DE011396E5ECF1E049EC51E02D91BC
S11333D09491291729F081E090E00E94691320C09C
S11333E031964E175F0799F78F81893479F028F465
S11333F0843241F0853471F00FC08F3449F0833545
S113340019F00AC00E94C4190E94C0190E94B4197C
S11334100E94B8190E94BC1984E090E00E946913CC
S1133420DF91CF9108950F931F93CF93DF9300D033
S113343000D0CDB7DEB78C0164E670E00E94E316DD
S113344069837A838B839C838C818823F9F08981B7
S1133450811117C08A81882319F0813039F00CC09A
S1133460B801CE0101960E94251714C0B801CE01FF
S113347001960E946F170EC083E090E00E946913CA
S113348009C082E090E00E94691304C081E090E0EA
S11334900E9469130F900F900F900F90DF91CF91BE
S11334A01F910F9108950F931F93CF93DF9300D033
S11334B000D0CDB7DEB78C0168EC70E00E94E31653
S11334C069837A838B839C838C81882331F18981FE
S11334D08830F0F48A81813051F018F0823069F03C
S11334E012C0B801CE0101960E94B9171AC0B801E2
S11334F0CE0101960E94151814C0B801CE010196A0
S11335000E9471180EC083E090E00E94691309C004
S113351082E090E00E94691304C081E090E00E9480
S113352069130F900F900F900F90DF91CF911F911F
S11335300F9108950F931F93CF93DF9300D000D082
S1133540CDB7DEB78C016CE271E00E94E3166983AB
S11335507A838B839C838C818823F9F089818830DA
S1133560B8F48A81882319F0813039F00CC0B8018D
S1133570CE0101960E94D31814C0B801CE01019661
S11335800E942F190EC083E090E00E94691309C0C5
S113359082E090E00E94691304C081E090E00E9400
S11335A069130F900F900F900F90DF91CF911F919F
S11335B00F9108950E940F0E0E94D20DFC012281EA
S11335C0243289F523812233B1F038F42432C9F04E
S11335D0213371F0211123C01FC02035D9F018F414
S11335E0233361F01CC0223591F0233569F017C0F4
S11335F00E94131A08950E94531A08950E949A1A59
S113360008950E94E41308950E947D1408950E9471
S1133610CE1908950E94DA1A0E94BB14089581E01D
S113362090E00E94691308951092C50089E0809388
S1133630C40088E18093C10086E08093C2000895AD
S1133640E0ECF0E0908195FFFDCF8093C6000895F3
S1133650CF93DF93EC018881882331F021960E9477
S1133660201B89918111FBCFDF91CF910895CF93D6
S1133670DF93EC01FC018491882339F00E94201B24
S11336802196FE0184918111F9CFDF91CF910895A4
S113369082E398E00E94371B0895CF93C82F8823B4
S11336A021F00E94481BC150E1F7CF910895CF93B8
S11336B0DF9300D000D0CDB7DEB74AE0BE016F5F24
S11336C07F4F90E00E941D1FCE0101960E94281B8F
S11336D00F900F900F900F90DF91CF910895CF939B
S11336E0DF93CDB7DEB727970FB6F894DEBF0FBED2
S11336F0CDBF4AE0BE016F5F7F4F0E941D1FCE0108
S113370001960E94281B27960FB6F894DEBF0FBEC1
S1133710CDBFDF91CF910895E0ECF0E08081882364
S1133720ECF78091C6000895E1ECF0E080818068B8
S1133730808308951F920F920FB60F9211242F9336
S11337403F934F935F936F937F938F939F93AF9325
S1133750BF93EF93FF938091C600883119F4F894D6
S11337600E94D20D90911C01911106C08432B1F4D3
S113377081E080931C0114C0913031F4833471F4DE
S113378082E080931C010CC0923041F48D3011F022
S11337908A3021F40E94F80D0E94D20D10921C016F
S11337A0FF91EF91BF91AF919F918F917F916F9115
S11337B05F914F913F912F910F900FBE0F901F90EB
S11337C01895FC018081882371F0681779F031968F
S11337D002C0261769F08E2F9F2F21912111F9CF56
S11337E080E090E0089580E090E008958E2F9F2F70
S11337F00895FC018081811181810895FC01DC011F
S1133800A60FB71F9C91992391F0491799F09B013A
S11338102F5F3F4FE20FF31F02C0941771F06F5FE9
S11338207F4F91919111F9CF8FEF9FEF08958FEF13
S11338309FEF0895862F972F0895862F972F089529
S11338409FE9980F9A3138F09FEB980F81E09A31F5
S113385018F080E0089581E00895803229F091E025
S1133860893019F090E001C091E0892F089590ED1E
S1133870980F81E09A3008F080E00895FC012081DF
S1133880222341F0319680E090E0019621912111AC
S1133890FCCF089580E090E008950F931F93CF9399
S11338A0DF938C01F801C081D18188810E942D1C95
S11338B0882329F02196F801D183C083F3CFDF91C7
S11338C0CF911F910F910895FC018081882381F08D
S11338D080538A3080F0319603C020532A3068F038
S11338E08E2F9F2F21912111F8CF80E090E0089531
S11338F080E090E008958E2F9F2F0895FC0182812F
S1133900811116C091818081891718F0282F291BF5
S113391001C020E09381911106C0681700F181E095
S1133920838384831CC02617D0F01382148217C0AB
S113393080819381911106C0861788F081E083838A
S113394084830DC0218190E0820F911D85369105FD
S113395014F084E690E0681710F0138214828481D6
S113396008955058BB27AA270E94C91C0C94131E03
S11339700E94051E38F00E940C1E20F039F49F3F6F
S113398019F426F40C94021E0EF4E095E7FB0C9453
S1133990FC1DE92F0E94241E58F3BA17620773070F
S11339A08407950720F079F4A6F50C94461E0EF4CE
S11339B0E0950B2EBA2FA02D0B01B90190010C013B
S11339C0CA01A0011124FF27591B99F0593F50F453
S11339D0503E68F11A16F040A22F232F342F4427AB
S11339E0585FF3CF469537952795A795F0405395A3
S11339F0C9F77EF41F16BA0B620B730B840BBAF073
S1133A009150A1F0FF0FBB1F661F771F881FC2F7DD
S1133A100EC0BA0F621F731F841F48F487957795F1
S1133A206795B795F7959E3F08F0B0CF9395880FAB
S1133A3008F09927EE0F9795879508950E94321DF7
S1133A400C94131E0E940C1E58F00E94051E40F098
S1133A5029F45F3F29F00C94FC1D51110C94471E6E
S1133A600C94021E0E94241E68F39923B1F355237B
S1133A7091F3951B550BBB27AA276217730784077D
S1133A8038F09F5F5F4F220F331F441FAA1FA9F313
S1133A9035D00E2E3AF0E0E832D091505040E69501
S1133AA0001CCAF72BD0FE2F29D0660F771F881F62
S1133AB0BB1F261737074807AB07B0E809F0BB0B55
S1133AC0802DBF01FF2793585F4F3AF09E3F510569
S1133AD078F00C94FC1D0C94471E5F3FE4F3983E71
S1133AE0D4F3869577956795B795F7959F5FC9F752
S1133AF0880F911D9695879597F90895E1E0660FD3
S1133B00771F881FBB1F621773078407BA0720F04B
S1133B10621B730B840BBA0BEE1F88F7E0950895B4
S1133B200E942C1E88F09F5798F0B92F9927B751FF
S1133B30B0F0E1F0660F771F881F991F1AF0BA954D
S1133B40C9F714C0B13091F00E94461EB1E0089547
S1133B500C94461E672F782F8827B85F39F0B93F39
S1133B60CCF3869577956795B395D9F73EF4909500
S1133B708095709561957F4F8F4F9F4F0895E8947E
S1133B8009C097FB3EF490958095709561957F4FA1
S1133B908F4F9F4F9923A9F0F92F96E9BB2793954F
S1133BA0F695879577956795B795F111F8CFFAF45F
S1133BB0BB0F11F460FF1BC06F5F7F4F8F4F9F4F90
S1133BC016C0882311F096E911C0772321F09EE8EE
S1133BD0872F762F05C0662371F096E8862F70E054
S1133BE060E02AF09A95660F771F881FDAF7880F2E
S1133BF09695879597F9089597F99F6780E870E0FF
S1133C0060E008959FEF80EC089500240A9416164E
S1133C10170618060906089500240A9412161306B6
S1133C20140605060895092E0394000C11F4882344
S1133C3052F0BB0F40F4BF2B11F460FF04C06F5F60
S1133C407F4F8F4F9F4F089557FD9058440F551F36
S1133C5059F05F3F71F04795880F97FB991F61F00A
S1133C609F3F79F087950895121613061406551F81
S1133C70F2CF4695F1DF08C0161617061806991FED
S1133C80F1CF86957105610508940895E894BB27E2
S1133C9066277727CB0197F908950E94601E0C943C
S1133CA0131E0E94051E38F00E940C1E20F095235E
S1133CB011F00C94FC1D0C94021E11240C94471E4C
S1133CC00E94241E70F3959FC1F3950F50E0551F79
S1133CD0629FF001729FBB27F00DB11D639FAA275D
S1133CE0F00DB11DAA1F649F6627B00DA11D661FAC
S1133CF0829F2227B00DA11D621F739FB00DA11DCD
S1133D00621F839FA00D611D221F749F3327A00D86
S1133D10611D231F849F600D211D822F762F6A2F22
S1133D2011249F5750409AF0F1F088234AF0EE0F87
S1133D30FF1FBB1F661F771F881F91505040A9F7B4
S1133D409E3F510580F00C94FC1D0C94471E5F3F70
S1133D50E4F3983ED4F3869577956795B795F795F0
S1133D60E7959F5FC1F7FE2B880F911D9695879568
S1133D7097F9089597FB072E16F4009407D077FD62
S1133D8009D00E94E31E07FC05D03EF4909581956E
S1133D909F4F0895709561957F4F0895EE0FFF1F13
S1133DA00590F491E02D0994A29FB001B39FC00146
S1133DB0A39F700D811D1124911DB29F700D811D53
S1133DC01124911D0895AA1BBB1B51E107C0AA1F12
S1133DD0BB1FA617B70710F0A61BB70B881F991FA8
S1133DE05A95A9F780959095BC01CD010895FC01E1
S1133DF088279927E89421912032E9F3293010F09B
S1133E002E30C8F32B3241F02D3239F4689404C0BB
S1133E100E94151F820F911D219120532A30C0F357
S1133E201EF4909581959F4F08957AE0979F902D69
S1133E30879F802D910D11240895BB27FB015527E1
S1133E40AA27880F991FAA1FA41710F0A41B8395F3
S1133E505051B9F7A05DAA3308F0A95DA19300976A
S1133E6079F7B111B1931192CB010C94371FDC0196
S1133E70FC01672F71917723E1F7329704C07C919D
S1133E806D9370836291AE17BF07C8F30895DC0188
S1133E90CB01FC01F999FECF06C0F2BDE1BDF89A51
S1133EA0319600B40D9241505040B8F70895F999F5
S1133EB0FECF92BD81BDF89A992780B50895DC01A3
S1133EC0A40FB51F4150504048F0CB01840F951FFB
S1133ED02E910E94701F41505040D0F70895262F14
S1133EE0F999FECF92BD81BDF89A019700B40216EC
S1133EF039F01FBA20BD0FB6F894FA9AF99A0FBE9A
S1093F000895F894FFCFC0
S1093F063B00203A2000FC
S9030000FC
