S00C000055434E432E73726563EF
S11300000C941B040C9438040C9438040C94380499
S11300100C94080E0C9438040C9438040C94380492
S11300200C9438040C9438040C9438040C943D0D4E
S11300300C9438040C9438040C9438040C9438044C
S11300400C9438040C9438040C949D1B0C943804C0
S11300500C9438040C94890C0C9438040C943804D3
S11300600C9438040C9438040C9438040C9438041C
S11300700C9438040C9438040C9438040C9438040C
S11300800C9438040C94960D0C9438040C94380495
S11300900C9438040C9438040C9438040C943804EC
S11300A00C9438040C9438040C9438040C943804DC
S11300B00C943804510A6C0A940ABC0AE40A0C0B26
S11300C0320BEF0B580B690B7A0B8B0B9C0BAD0BA4
S11300D0BE0BCF0B930E750E780E7B0E7E0E810E2B
S11300E0840E870E8A0E8D0EB90ECA0EDB0EEC0E30
S11300F0FD0E0E0F1F0F300F8B139813A513B213A1
S1130100BF13C413CA130407020600050103456D97
S11301107074792065787072657373696F6E004DC1
S1130120697373696E67206C687320657870726593
S11301307373696F6E004D697373696E67207268BB
S1130140732065787072657373696F6E00496E769B
S1130150616C6964206C6873206578707265737370
S1130160696F6E00496E76616C69642072687320F1
S113017065787072657373696F6E00496E76616C31
S1130180696420636861726163746572004D6973A8
S113019073696E6720627261636B657400496E7681
S11301A0616C6964206F706572616E64004D617882
S11301B0206C656E67746820657863656564656442
S11301C0004F6B00245253543D0024313031092D2B
S11301D02042757A7A657220090928312F30290066
S11301E024313030092D2053657269616C204F75BC
S11301F074707574200928312F3029002453092D77
S1130200205669657720696E707574207374617403
S11302107573002424092D2056696577207365744D
S113022074696E67730065787072657373696F6E55
S113023020006F75747075742000696E7075742079
S11302400073797374656D200023204578616D70A7
S11302506C65093A204D756C7469706C6520696E23
S113026070757473206D617070656420746F206F95
S11302706E65206F7574707574202D3E2033303197
S1130280203D202441207C202442207C2024430043
S113029023204578616D706C65093A20584F5220CF
S11302A02D3E202824412026207E244229207C2003
S11302B0287E24412026202442292023202841204E
S11302C06F72206E6F74204229206F7220286E6F27
S11302D074204120616E642042290023204F706500
S11302E07261746F7273093A206E6F7428277E27C7
S11302F02920616E642827262729206F7228277CED
S1130300272920657128273D27290023204F706560
S113031072616E6473093A202441202442202443EC
S11303202024442024452024462024472024480017
S11303302320436F6D6D656E74093A202320746524
S1130340787400232045787072657373696F6E004A
S1130350232024334E31202D204578707265737329
S1130360696F6E093A204F757470757420747269E0
S11303706767657220636F6E646974696F6E0023CA
S11303802024334E30202D20416374697665090999
S11303903A20456E61626C652064697361626C65C4
S11303A0206F7574707574002320416C6C206F7518
S11303B0747075747320617265206F70656E20634C
S11303C06F6C6C6563746F72206163746976652009
S11303D06C6F77200023204F757470757400232090
S11303E03132562D532D474E443A2024324E303D5F
S11303F036352024324E313D352024324E32203DD4
S113040020300023204578616D706C652053656E43
S1130410736F7220504E50204E4F002320313256BD
S11304202D532D474E443A2024324E303D3635204C
S113043024324E313D352024324E32203D203100CD
S113044023204578616D706C652053656E736F72FF
S113045020504E50204E430023203132562D532D30
S1130460474E443A2024324E303D33352024324E18
S1130470313D352024324E32203D203100232045A9
S113048078616D706C652053656E736F72204E5089
S11304904E204E4F0023203132562D532D474E44CB
S11304A03A2024324E303D33352024324E313D350E
S11304B02024324E32203D20300023204578616DC7
S11304C0706C652053656E736F72204E504E204ED3
S11304D0430023203132562D533A2024324E303DEE
S11304E037352024324E313D352024324E32203DE2
S11304F02030002320532D474E443A2024324E30DE
S11305003D32352024324E313D352024324E3220C6
S11305103D20310023204578616D706C6520537750
S113052069746368204E4F0023203132562D533AAC
S11305302024324E303D37352024324E313D352093
S113054024324E32203D2031002320532D474E4487
S11305503A2024324E303D32352024324E313D355E
S11305602024324E32203D20300023204578616D16
S1130570706C6520537769746368204E43002320B0
S1130580426F61726420706F7765726564204E50AB
S11305904E2F504E50204E4F2F4E432070726F7886
S11305A0696D6974792073656E736F7273002320AB
S11305B04E432F4E4F2053776974636865732063ED
S11305C06F6E6E656374656420746F2031325620DB
S11305D0616E642053454E5345206F722053454E3F
S11305E0534520616E6420474E44002320537570A8
S11305F0706F727465642053656E736F7273002339
S11306002024324E32202D20496E76657274656442
S1130610093A20496E7665727420696E7075742F7C
S11306206F706572616E6420245B412D485D002308
S11306302024324E31202D204879737465726573FD
S11306406973093A20302D3130302520496E707598
S1130650742834302529203C3D2028353025202B92
S11306602F2D2031302529202D3E2046414C534545
S113067000232024324E30202D2054687265736884
S11306806F6C64093A20302D3130302520496E706A
S113069075742835312529203E3D20353025202DFF
S11306A03E2054525545002320496E707574002332
S11306B0204374726C2D78093A2052657365740076
S11306C0202D200055434E4320312E34205B272417
S11306D0432720636F6E6669675D203A2052554E4A
S11306E00055434E4320312E34205B2724272068B5
S11306F0656C703B20272450272072756E5D203A6C
S113070020434F4E46494700206E656172200045E4
S11307104550524F4D2072656164206661696C6575
S1130720642E2044656661756C74732072657374FD
S11307306F7265642E0043686172616374657273DD
S113074020706572206C696E6520657863656564E8
S113075065642E0056616C7565004F7074696F6E28
S11307600054617267657400436F6D6D616E64005F
S11307706572726F723A20004F4B00206E6F7420C6
S1130780737570706F727465642E002724272000BF
S1130790203D200024412026202442207C202E2E8F
S11307A02E292023636F6D6D656E7400302D3130FA
S11307B0302900312F3029002065787072657373F9
S11307C0696F6E09280020616374697665092800E1
S11307D020696E76657274656409280020687973EF
S11307E0746572657369730928002074687265738F
S11307F0686F6C64092800092D204F757470757436
S11308002000092D20496E707574200064656661AE
S1130810756C747320616E64207265626F6F74000E
S1130820092D20526573746F72652000245253544D
S11308303D000D0A000011241FBECFEFD8E0DEBF3B
S1130840CDBF11E0A0E0B1E0ECE0FFE302C0059011
S11308500D92A630B107D9F721E0A6E0B1E001C0BE
S11308601D92AD31B207E1F70E94C7090C94841FB1
S11308700C9400000895CF930E945E138FEF90E0D4
S11308800E94460C88EC90E00E944D0D2FEF8FE9FA
S113089095E0215080409040E1F700C0000088ECD2
S11308A090E00E944D0D0E947209C82F811106C06C
S11308B00E94690986E090E00E946C138C2FCF910E
S11308C008950F931F93CF93DF93CDB7DEB7C35033
S11308D0D1400FB6F894DEBF0FBECDBF1A82198285
S11308E0FE01339681E091E0DF019C011D922150CD
S11308F03040E1F700E010E00E948F1B8D3019F1C9
S11309008831F1F08A30F9F029813A812F3F31059D
S113091009F008F5A9014F5F5F4F5A834983E3E06B
S1130920F0E0EC0FFD1FE20FF31F8083E3E0F0E043
S1130930EC0FFD1FE40FF51F10820F5F1F4FDCCF7C
S11309408FEF9FEF01C0C8018E3F3FEF930719F06F
S1130950019669F006C085E090E00E946C1381E086
S113096007C0CE0101960E94E11A81E001C080E037
S1130970CD5FDE4F0FB6F894DEBF0FBECDBFDF9163
S1130980CF911F910F91089581E008950895FC017E
S1130990108281E081831282ED5FFE4F88E2DF01E5
S11309A01D928A95E9F708950E947E0C0E94971B78
S11309B00E94C20D86E990E00E944D0D2FEF8FE654
S11309C098E0215080409040E1F700C000000E9470
S11309D0C40D2FEF8FE19CE1215080409040E1F75E
S11309E000C00000E5CF2F923F924F925F926F922A
S11309F07F928F929F92AF92BF92CF92DF92EF92AB
S1130A00FF920F931F93CF93DF93CDB7DEB7CA5FE7
S1130A10D1090FB6F894DEBF0FBECDBF4C010E94C2
S1130A20651384EF91E00E944D0D80E09FEF0E94DA
S1130A30460C0E947209882309F4B5C0C4010E94BF
S1130A404F0784010D5F1E4FF12C0F2EF6E4DF2EAD
S1130A50F02D0F2EFAE0EF2EF02DD982EA821B82C0
S1130A601C826F2DCE0101960E947F078981F801B7
S1130A7080838A8181838B818283F3940B5F1F4FF0
S1130A80F8E0FF12EACF8FC01C2D2FEFC21AD20A52
S1130A90BC2CAA24C5010E94460CCD50DF4F1982FC
S1130AA01882C35FD04081E090E08C0F9D1FCF502F
S1130AB0DF4F99838883C15FD040612FCE0187586F
S1130AC09F4F0E94E707CB50DF4F19821882C55F02
S1130AD0D040C950DF4F1882C75FD040AE014B50A1
S1130AE05F4FBE016F507F4FCE0187589F4F0E94CA
S1130AF02413C950DF4F8881C75FD04081114AC099
S1130B00C20102C0959587951A95E2F7C750DF4F49
S1130B108883C95FD040E82FE095C650DF4FE88353
S1130B20CA5FD040740100E010E0C501802B912B16
S1130B300E94460CF3010083622D732DCE018F5069
S1130B409F4F0E94070A803469F08134B1F4F701A1
S1130B508381C750DF4FF881C95FD0408F2BF701E5
S1130B6083830EC0F7018381C650DF4FF881CA5FCB
S1130B70D0408F23F701838303C0C4010E94D404AF
S1130B800F5F1F4FFFEFEF1AFF0A011521E0120755
S1130B9061F603C0C4010E94D40488E0C816D104DD
S1130BA009F072CF0DC0C12CD12C6894442447F8AD
S1130BB0512C3E0198EF690E711C262C372C64CF02
S1130BC00E947E0C0E94971B8FEF9FEF0E94460CA1
S1130BD081E0C650DF4F0FB6F894DEBF0FBECDBF25
S1130BE0DF91CF911F910F91FF90EF90DF90CF9005
S1130BF0BF90AF909F908F907F906F905F904F9039
S1130C003F902F900895CF93DF93CDB7DEB76197D0
S1130C100FB6F894DEBF0FBECDBF3C0188E0FE01E5
S1130C203196DF01982F1D929A95E9F73896DF01E6
S1130C301D928A95E9F78FEF89870E94030DBFEF14
S1130C40B98B312C88248394912C0E94FE0CCE0104
S1130C5001960E942C0D0E94030DFE0131962F0176
S1130C607E01F9E0EF0EF11C63018DEFC81A8EEFDF
S1130C70D80A520107E010E0212CF50161915F01CF
S1130C80D7018C916817E1F06C93C6010E94811C16
S1130C90882359F0C401002E02C0880F991F0A94BA
S1130CA0E2F7382A222423940BC0C401002E02C088
S1130CB0880F991F0A94E2F78095382222242394FE
S1130CC0BFEFEB1AFB0A01501109E5E0CE0ED11C6F
S1130CD00F3FFFEF1F0789F68989381609F1032DA5
S1130CE010E07301E00EF11ED70113968C910E945F
S1130CF05E0C902F8827F7012381822B0E94460CDB
S1130D00D30111968C91882351F084E690E00E94DF
S1130D106B0D84E690E00E94A60D398A01C0398AE1
S1130D20222009F492CFF3018081882309F48DCF26
S1130D308301095F1E4F0F2EF1E4FF2EF02D8F2D3E
S1130D400E94231B8AE30E94231BD2018D912D0153
S1130D500E945A1B8AE30E94231BF8018081882386
S1130D6021F081E30E94231B03C080E30E94231B24
S1130D7080E20E94231BF3940B5F1F4FF9E4FF12E0
S1130D80DECF0E944B1B61CF81E008950895CF937D
S1130D90DF93CDB7DEB7CB52D1400FB6F894DEBFA8
S1130DA00FBECDBFCE0101960E94C704CE010196AD
S1130DB00E94F304882331F0CE0101960E940306B9
S1130DC08111FACFCE0101960E94C406CE0101968C
S1130DD00E94C606C55DDE4F0FB6F894DEBF0FBE97
S1130DE0CDBFDF91CF910895CF93DF931F92CDB7FD
S1130DF0DEB70E94770C811104C00E941B0E882369
S1130E00D9F00E94120ECE0101960E943A04CE013E
S1130E1001960E943B04882331F0CE0101960E9482
S1130E2061048111FACFCE0101960E94C404CE015F
S1130E3001960E94C60402C00E94C7060F90DF916B
S1130E40CF9108951F93CF93DF93DC01FB0130977B
S1130E5009F140E050E070E080E061E010E0282F0C
S1130E6030E02115310549F4220F232F221F330BC3
S1130E70862F232B19F4812F01C0862FED01C40F77
S1130E80D51F9881890F7F5F472F50E04E175F076A
S1130E9030F301C080E0DF91CF911F9108950F934B
S1130EA01F93CF93DF9300D01F92CDB7DEB78C0191
S1130EB0198281E08A831B8243E050E060E070E0A5
S1130EC0CE0101960E944A1F62E070E0CE010196B5
S1130ED00E9422079B81891309C089819A81AB8171
S1130EE0F80180839183A28381E001C080E00F90A8
S1130EF00F900F90DF91CF911F910F9108950F9351
S1130F001F93CF93DF9300D000D0CDB7DEB78C0111
S1130F1086E489838AE08A831B821C8270E0660FE0
S1130F20771F660F771F6D5F7F4F44E050E0CE015F
S1130F3001960E944A1F63E070E0CE0101960E9470
S1130F4022079C8189130BC089819A81AB81BC8162
S1130F50F80180839183A283B38381E001C080E0A0
S1130F600F900F900F900F90DF91CF911F910F91E1
S1130F7008950F931F93CF93DF9300D0CDB7DEB7BF
S1130F808C0181E089831A8270E0660F771F6D5DA2
S1130F907F4F42E050E0CE0101960E944A1F61E07B
S1130FA070E0CE0101960E9422079A81891307C03E
S1130FB089819A81F8019183808381E001C080E076
S1130FC00F900F90DF91CF911F910F910895BF92D1
S1130FD0CF92DF92EF92FF920F931F93CF93DF9301
S1130FE06C0188E090E0861B910929E7289F800125
S1130FF0299F100D112480E094E0801B910B0E9426
S11310005A1FB82EC1E0D4E0C01BD10B89E794E08D
S11310107C01E01AF10ACE15DF0568F48601CE01E1
S11310200E945A1FF80181938F01882321F0219691
S1131030CE15DF05A0F3F6018081882361F0C60197
S11310400E94411CBC01C6010E94220791E0B8160F
S113105019F090E001C090E0892FDF91CF911F91AA
S11310600F91FF90EF90DF90CF90BF900895CF93B2
S1131070DF93EC0162E070E00E9422078A8343E080
S113108050E060E070E0CE010E94621FDF91CF91DA
S113109008950F931F93CF938C01C62F63E070E0E4
S11310A00E942207F80183836C2F70E0660F771F7C
S11310B0660F771F6D5F7F4F44E050E0C8010E94C8
S11310C0621FCF911F910F9108950F931F93CF9398
S11310D08C01C62F61E070E00E942207F801818331
S11310E06C2F70E0660F771F6D5D7F4F42E050E01C
S11310F0C8010E94621FCF911F910F910895AF9272
S1131100BF92CF92DF92EF92FF920F931F93CF93F0
S1131110DF936C0188E090E0861B910949E7489FC2
S11311209001499F300D112480E094E05C01A21AE3
S1131130B30AC1E0D4E0C21BD30B89E794E07C017D
S1131140E21AF30ACE15DF05A0F4F60160816623E6
S113115081F086010F5F1F4F05C0F80161918F0177
S1131160662339F0CE010E94721F2196CE15DF0549
S1131170A0F360E0CE010E94721FC6010E94411CD0
S1131180BC01C6010E942207682FC5010E94721F7C
S1131190DF91CF911F910F91FF90EF90DF90CF904F
S11311A0BF90AF900895CF93DF9300D01F92CDB737
S11311B0DEB7198281E08A831B82CE0101960E94E8
S11311C037080F900F900F90DF91CF910895FF9201
S11311D00F931F93CF93DF9300D000D0CDB7DEB72A
S11311E010E00F2EF6E4FF2EF02D0AE0F9820A83B8
S11311F01B821C82612FCE0101960E9449081F5F49
S11312001830A1F70F900F900F900F90DF91CF91AE
S11312101F910F91FF9008950F931F93CF93DF9326
S113122000D0CDB7DEB710E001E009831A82612F48
S1131230CE0101960E9465081F5F1830B1F70F9028
S11312400F90DF91CF911F910F910895BF92CF928C
S1131250DF92EF92FF920F931F93CF93DF93CDB75B
S1131260DEB7CB57D1090FB6F894DEBF0FBECDBFA2
S113127010E00F2EF9E7BF2EF02D7E0183E0E80E7B
S1131280F11C04E26894CC24C1F8D12CF7018B2D15
S113129011928A95E9F70B83DA82C98281E4810F7E
S11312A08C83612FC7010E947F081F5F183071F77C
S11312B0C558DF4F0FB6F894DEBF0FBECDBFDF9128
S11312C0CF911F910F91FF90EF90DF90CF90BF903F
S11312D008950E94D3080E94E7080E940C090E9406
S11312E026090895FF920F931F93CF93DF93CDB7F1
S11312F0DEB7CA57D1090FB6F894DEBF0FBECDBF13
S1131300198281E08A831B82CE0101960E944F07D5
S1131310882381F110E00F2EF6E4FF2EF02D0AE071
S1131320F9820A831B821C82612FCE0101960E94DE
S11313307F078823F9F01F5F183091F710E001E070
S1131340EA960FAFEA97EB961FAEEB97612FCE01AB
S113135087589F4F0E94B907882359F0612FCE0107
S113136001960E94E707882321F01F5F183041F798
S113137001C080E0C658DF4F0FB6F894DEBF0FBE41
S1131380CDBFDF91CF911F910F91FF9008950E94DF
S1131390080C0E94C60D0E94171B0E94F4060E94AE
S11313A0D50D90E0880F892F881F990B9195892B73
S11313B011F480E4089581E4089586FD02C080E478
S11313C0089581E4089585FD02C080E4089581E4D0
S11313D0089584FD02C080E4089581E4089583FDA6
S11313E002C080E4089581E4089582FD02C080E48F
S11313F0089581E4089581FD02C080E4089581E4A4
S1131400089580FD02C080E4089581E408956F92F8
S11314107F928F929F92AF92BF92CF92DF92EF9280
S1131420FF920F931F93CF93DF93CDB7DEB7C857C7
S1131430D1090FB6F894DEBF0FBECDBFDC01129602
S1131440CD90DC901397C114D10409F4C4C10D905C
S1131450BC91A02DEC91EE2309F4BFC15B017D0189
S1131460FFEFEF1AFF0ACA0EDB1E00E010E06894DB
S1131470662466F80F2EF1E47F2EF02D06C0D70106
S1131480ED917D01EE2309F49EC18E2F90E0FC01C5
S11314903897E031F10508F0A2C1E65AFF4F0C94E9
S11314A0D11EC8010197E1E0F0E0EC0FFD1FE80F49
S11314B0F91F2081213441F4E1E0F0E0EC0FFD1F3D
S11314C0E80FF91F60827BC1E1E0F0E0EC0FFD1F43
S11314D0E80FF91F708273C198012150310902503D
S11314E01109A1E0B0E0AC0FBD1FA20FB31FE1E0F2
S11314F0F0E0EC0FFD1FE00FF11F9C918081892328
S1131500813449F4E1E0F0E0EC0FFD1FE00FF11F3E
S11315107082890154C1E1E0F0E0EC0FFD1FE00F9F
S1131520F11F608289014BC1C80101970250110962
S1131530E1E0F0E0EC0FFD1FE80FF91F20812134FA
S113154049F4E1E0F0E0EC0FFD1FE00FF11F208112
S1131550213449F0E1E0F0E0EC0FFD1FE00FF11F52
S113156070828C012CC1E1E0F0E0EC0FFD1FE00F74
S1131570F11F60828C0123C1C80101970250110937
S1131580E1E0F0E0EC0FFD1FE80FF91F20812134AA
S113159049F0E1E0F0E0EC0FFD1FE00FF11F2081C6
S11315A0213449F4E1E0F0E0EC0FFD1FE00FF11FFE
S11315B070828C0104C1E1E0F0E0EC0FFD1FE00F4C
S11315C0F11F60828C01FBC0C80101970250110910
S11315D0E1E0F0E0EC0FFD1FE80FF91F208121345A
S11315E091F0E1E0F0E0EC0FFD1FE00FF11F20812E
S11315F0213449F0E1E0F0E0EC0FFD1FE00FF11FB2
S113160070828C01DCC0E1E0F0E0EC0FFD1FE00F24
S1131610F11F60828C01D3C0C801019702501109E7
S1131620A1E0B0E0AC0FBD1FA80FB91FE1E0F0E0EE
S1131630EC0FFD1FE00FF11F3C912081321749F0A0
S1131640E1E0F0E0EC0FFD1FE00FF11F70828C0170
S1131650B6C0E1E0F0E0EC0FFD1FE00FF11F608287
S11316608C01ADC0C801019702501109A1E0B0E09E
S1131670AC0FBD1FA80FB91FE1E0F0E0EC0FFD1F98
S1131680E00FF11F3C912081321309C0E1E0F0E04A
S1131690EC0FFD1FE00FF11F70828C0190C0E1E0A0
S11316A0F0E0EC0FFD1FE00FF11F60828C0187C09A
S11316B04801BFEF8B1A9B0AF50180810E94D10972
S11316C0E1E0F0E0EC0FFD1FE00FF11F80838401E7
S11316D076C04801FFEF8F1A9F0AD5018C910E94B2
S11316E0DD09E1E0F0E0EC0FFD1FE00FF11F808366
S11316F0840165C04801BFEF8B1A9B0AF501808104
S11317000E94E309E1E0F0E0EC0FFD1FE00FF11FA0
S11317108083840154C04801FFEF8F1A9F0AD501CA
S11317208C910E94E909E1E0F0E0EC0FFD1FE00F6D
S1131730F11F8083840143C04801BFEF8B1A9B0AC9
S1131740F50180810E94EF09E1E0F0E0EC0FFD1F5C
S1131750E00FF11F8083840132C04801FFEF8F1A2C
S11317609F0AD5018C910E94F509E1E0F0E0EC0FAD
S1131770FD1FE00FF11F8083840121C04801BFEFEA
S11317808B1A9B0AF50180810E94FB09E1E0F0E0DD
S1131790EC0FFD1FE00FF11F8083840110C048018E
S11317A0FFEF8F1A9F0AD5018C910E94010AE1E094
S11317B0F0E0EC0FFD1FE00FF11F80838401CE14D5
S11317C0DF0409F05CCE0115110559F0FE01E00FAC
S11317D0F11F808107C080E405C080E403C08FEF5F
S11317E001C080E4C858DF4F0FB6F894DEBF0FBEC7
S11317F0CDBFDF91CF911F910F91FF90EF90DF90BC
S1131800CF90BF90AF909F908F907F906F900895EE
S113181087B18F6187B93D9818B8409A43988AB1C7
S11318208C6F8AB95D9A84B1876084B91DB88EB112
S113183083608EB9ECE7F0E0808186648083EAE718
S1131840F0E080818F68808395B1E6E0F1E08491D7
S1131850E92FE87FE82BE5B986E487BD84B5826487
S113186084BD1092800098E090938100EFE6F0E050
S11318708081826080831092900090939100E1E7D0
S1131880F0E08081826080837894089520E030E0E5
S1131890AC01022E02C0569547950A94E2F740FF28
S11318A002C0449A01C04498419A41982F5F3F4F27
S11318B02031310569F7429A4298089520E030E0DA
S11318C090E0AC01022E02C0559547950A94E2F7C8
S11318D040FF02C05A9A01C05A985C9A5C982F5FE4
S11318E03F4F2830310569F75B9A5B98089586B1BC
S11318F085FB882780F991E089270895ECE6F0E0DC
S1131900808180628083E8E6F0E080818260808369
S113191008951F920F920FB60F9211240F931F93E5
S11319202F933F934F935F936F937F938F939F93E3
S1131930AF93BF93CF93DF93EF93FF93C0910601CF
S113194081E08C0F883018F48093060102C0109255
S1131950060195B1E0910601F0E0EA5FFE4F849143
S1131960E92FE87FE82BE5B9609178008091790050
S1131970D0E000910A0110910B010C0F1D1F70E0C3
S1131980782B80E090E00E94C21D21E13EE041EE10
S11319905DE30E94501E0E94931DF80160838091B4
S11319A00A0190910B01C80FD91F8881853610F068
S11319B084E6888380910601873030F4EAE7F0E01A
S11319C080818064808302C010920701FF91EF91AF
S11319D0DF91CF91BF91AF919F918F917F916F9143
S11319E05F914F913F912F911F910F910F900FBED7
S11319F00F901F9018958091070108958091070119
S1131A008111FCCF089581E0809307018091080142
S1131A10909109018C50914069F08CE091E0909391
S1131A2009018093080184E191E090930B01809374
S1131A300A010CC084E191E09093090180930801AC
S1131A408CE091E090930B0180930A01EAE7F0E0C7
S1131A508081806480830895DC0120E030E0E0919F
S1131A600801F0910901E20FF31F80818D932F5F2C
S1131A703F4F2830310599F708951F920F920FB602
S1131A800F9211248F9388E08093810015BC8F916D
S1131A900F900FBE0F901F9018958F3F2FEF920756
S1131AA031F485B5836085BD8EEF9FEF05C025B504
S1131AB0236025BD009769F020E030E0EFEFF1E10D
S1131AC03197F1F700C000002F5F3F4F2817390707
S1131AD0A8F315BC08951092850010928400BC01EF
S1131AE080E090E00E94C21D20E030EA4CE856E419
S1131AF00E94501E20E030E04AE754E40E94211D79
S1131B0020E030E040E85FE30E94B41C0E94931D93
S1131B107093890060938800E1E8F0E0808185603B
S1131B20808316BC85B5836085BD08951F920F928E
S1131B300FB60F9211248F9388E0809391005F98E1
S1131B408F910F900FBE0F901F90189510929500D3
S1131B5010929400BC0180E090E00E94C21D29E331
S1131B603EE843E65DE30E94211D0E94931D7093AD
S1131B70990060939800E1E9F0E0808185608083BA
S1131B805F9A08955F9A08955F98089584B7877F50
S1131B9084BF0FB6F894A895809160008861809303
S1131BA06000109260000FBE0895F8949FE088E1F1
S1131BB00FB6F894A895809360000FBE90936000D0
S1131BC08FEF90E00E94460C2FEF8FEC92E02150B3
S1131BD080409040E1F700C0000080E09FEF0E9449
S1131BE0460C2FEF8FEC92E0215080409040E1F7BB
S1131BF000C00000E5CF8FEE9EEBADEABEED809312
S1131C001D0190931E01A0931F01B093200108951C
S1131C101F920F920FB60F921124F8940E94FB0D9D
S1131C200E94D50D10921D0110921E0110921F01E9
S1131C3010922001089581E040911D0150911E01F0
S1131C4060911F01709120014F3E5E4B6D4A7E4DA5
S1131C5009F080E008958B3028F4893038F4883016
S1131C6059F008C08E3020F08E3021F482E00895BF
S1131C7081E008958FEF089583E00895CF93DF9373
S1131C80D62F0E942B0EC82F8D2F0E942B0E91E071
S1131C90C8170CF490E0892FDF91CF91089591E05B
S1131CA083FF90E0892F089591E084FF90E0892FCD
S1131CB0089590EE980F81E0923008F080E0089546
S1131CC091E0803209F090E0892F089591E081320B
S1131CD009F090E0892F089590E08A30910500F58D
S1131CE0FC01E659FF4F0C94D11E8DEA91E0089552
S1131CF08DE991E008958DE891E008958BE791E0F6
S1131D00089584E691E008958DE491E0089586E3D2
S1131D1091E008958FE191E008958EE091E00895B7
S1131D2080E090E0089581EC91E00895EF92FF92B5
S1131D300F931F93CF93DF93EC017B018A010E94E1
S1131D40501CE881F9818081843209F0A0C0CF0160
S1131D50019699838883E1818E2F90E0FC01E15400
S1131D60F109E830F10508F094C0EC58FF4F0C94E9
S1131D70D11EF70120813181F80180819181AC016C
S1131D804F5F5F4F51834083F901E80FF91F20E152
S1131D90208376C0F70120813181F801808191810F
S1131DA0AC014F5F5F4F51834083F901E80FF91F86
S1131DB021E1208365C0F70120813181F801808110
S1131DC09181AC014F5F5F4F51834083F901E80F6C
S1131DD0F91F22E1208354C0F70120813181F801E9
S1131DE080819181AC014F5F5F4F51834083F90142
S1131DF0E80FF91F23E1208343C0F70120813181DB
S1131E00F80180819181AC014F5F5F4F5183408322
S1131E10F901E80FF91F24E1208332C0F701208182
S1131E203181F80180819181AC014F5F5F4F518313
S1131E304083F901E80FF91F25E1208321C0F70150
S1131E4020813181F80180819181AC014F5F5F4F26
S1131E5051834083F901E80FF91F26E1208310C064
S1131E60F70120813181F80180819181AC014F5FBC
S1131E705F4F51834083F901E80FF91F27E1208365
S1131E808881998101969983888381E003C080E0E9
S1131E9001C080E0DF91CF911F910F91FF90EF90EF
S1131EA00895EF92FF920F931F93CF93DF93EC016A
S1131EB07B018A010E94501CE881F98190819D3345
S1131EC009F48AC020F4963209F464C09CC09C379B
S1131ED009F471C09E3709F096C0CF010E94FC1B23
S1131EE08D3389F18C37C9F0863209F042C0F7018D
S1131EF020813181F80180819181AC014F5F5F4F76
S1131F0051834083F901E80FF91F2AE02083888177
S1131F1099810196998388836FC0F701208131816B
S1131F20F80180819181AC014F5F5F4F5183408301
S1131F30F901E80FF91F2CE020838881998101962B
S1131F409983888359C0F70120813181F801808108
S1131F509181AC014F5F5F4F51834083F901E80FDA
S1131F60F91F2DE0208388819981019699838883C4
S1131F7043C0F70120813181F80180819181AC0156
S1131F804F5F5F4F51834083F901E80FF91F28E049
S1131F90208332C0F70120813181F8018081918151
S1131FA0AC014F5F5F4F51834083F901E80FF91F84
S1131FB029E0208321C0F70120813181F80180814B
S1131FC09181AC014F5F5F4F51834083F901E80F6A
S1131FD0F91F2BE0208310C0F70120813181F80123
S1131FE080819181AC014F5F5F4F51834083F90140
S1131FF0E80FF91F2EE02083888199810196998347
S1132000888381E001C080E0DF91CF911F910F911F
S1132010FF90EF900895EF92FF920F931F93CF9349
S1132020DF93EC017B018A010E94501CE881F98155
S11320308081883219F0893291F028C0F70120811B
S11320403181F80180819181AC014F5F5F4F5183F1
S11320504083F901E80FF91F20E2208310C0F70143
S113206020813181F80180819181AC014F5F5F4F04
S113207051834083F901E80FF91F21E2208388810D
S1132080998101969983888381E001C080E0DF9182
S1132090CF911F910F91FF90EF900895EF92FF92CF
S11320A00F931F93CF93DF93EC018B0188818823D7
S11320B009F465C0833209F462C0F12CEE24E39480
S11320C004C0833209F456C0E901F801808191818A
S11320D08837910508F0E28288810E94231C8111CF
S11320E037C088810E94301C811132C088818832B7
S11320F039F158F4803261F118F4893029F528C097
S1132100843271F0863201F523C08D3309F118F45D
S11321108932C1F019C08C37D9F08E37A9F418C0B0
S1132120CE010E94FC1B813428F0CE010E94FC1BCE
S1132130893420F082E0F801828321C0219608C00E
S1132140F39406C0FA9404C084E0F801828317C0B3
S1132150FF2024F483E0F801828311C0F801808118
S113216091810196918380839E012F5F3F4F8981E6
S11321708111A7CFFF2019F083E0F8018283DF915A
S1132180CF911F910F91FF90EF900895EF92FF92DE
S11321900F931F93CF93DF9300D000D0CDB7DEB75A
S11321A08B017A019A8389831C821B82AE014D5F65
S11321B05F4FB801CE0101960E94960E8111F6CFB1
S11321C0AE014D5F5F4FB801CE0101960E94510FE1
S11321D08111ECCFAE014D5F5F4FB801CE01019686
S11321E00E940B108111E2CF8B819C81F8019383B3
S11321F08283892B19F489E0F70182830F900F9071
S11322000F900F90DF91CF911F910F91FF90EF905E
S113221008957F928F929F92AF92BF92CF92DF9256
S1132220EF92FF920F931F93CF93DF937C016B0187
S113223080E090E0712C812C01C0C801F70122815B
S113224033818217930708F001C1A080B180F501A2
S1132250E80FF91F90808C010F5F1F4F02171307BF
S113226020F4E501C00FD11F02C0C72DD82D00975F
S113227021F00197A80EB91E02C0A72CB82C892DF5
S11322800E944F0E882309F43EC088E0981212C0C1
S1132290209721F487E0F6018283D8C088818032B8
S11322A009F4C7C00E94540E8111B7C085E0F6013D
S11322B08283CCC0209721F487E0F6018283C6C0D4
S11322C0A114B10421F488E0F6018283BFC0F501B2
S11322D08081813241F00E94540E811104C086E055
S11322E0F6018283B3C08881803209F4A2C00E94BF
S11322F0540E81119EC08881883009F48EC085E017
S1132300F6018283A3C0892D0E94540E882319F1FB
S1132310209771F088810E94540E882349F08881A7
S11323200E94660E811104C085E0F60182838EC08E
S1132330A114B10481F0F50180810E94540E882318
S113234051F0F50180810E94600E811104C086E085
S1132350F60182837BC0892D0E94590E882309F4DB
S11323606CCF892D0E94600E882351F1209781F053
S113237088810E94540E81110FC08881883061F0D9
S11323800E94600E811108C085E0F60182835EC060
S113239087E0F60182835AC0A114B10409F443C052
S11323A0F50180810E944F0E811149C0F5018081A1
S11323B00E94600E811137C086E0F601828346C018
S11323C0892D0E94660E882309F437CF209771F077
S11323D088810E944F0E811109C088810E94660E77
S11323E0811104C085E0F601828330C0A114B104D8
S11323F081F0F50180810E94540E81111ECFF501F8
S113240080810E94660E811118CF86E0F6018283D6
S11324101DC088E0F601828319C0892D0E94540EE4
S1132420811178CF98CF892D0E94660E8111D0CF6B
S113243004CF892D0E94540E81116CCF8CCF892D2D
S11324400E94660E882309F4F8CEC2CFDF91CF91A3
S11324501F910F91FF90EF90DF90CF90BF90AF90BE
S11324609F908F907F9008956F927F928F929F920A
S1132470AF92BF92CF92DF92EF92FF920F931F938E
S1132480CF93DF93CDB7DEB7C857D1090FB6F89411
S1132490DEBF0FBECDBF8C01DC0112968D919C91E5
S11324A01397892B09F4B3C0A12CB12CE12CF12C86
S11324B0C12CD12C05C0C114D10409F092C0A9C00B
S11324C0D801ED91FC91EA0DFB1D7080772009F491
S11324D07BC0872D0E94540E882351F0D801ED91C2
S11324E0FC91EE0DFF1D7082F70131967F016CC0E7
S11324F0872D0E94600E882359F0E1E0F0E0EC0F94
S1132500FD1FEC0DFD1D7082C60101966C015CC0BF
S1132510872D0E94660E882319F188248394912CB8
S11325208C0E9D1E8C0C9D1CC114D104A9F0D401E9
S11325307E904D01872D0E94600E81110DC0B1E087
S1132540CB1AD108D801ED91FC91EE0DFF1D7082DC
S1132550F70131967F01E8CFF1E0CF1AD10834C0FA
S1132560872D0E944F0E882379F188248394912C1F
S11325708C0E9D1E8C0C9D1CC114D104D9F0D40169
S11325806E904D01862D0E94600E811113C0672D3F
S1132590862D0E943E0E882369F0B1E0CB1AD10843
S11325A0D801ED91FC91EE0DFF1D6082F70131968B
S11325B07F01E2CFE1E0F0E0EC0FFD1FEC0DFD1D2B
S11325C07082C60101966C019FEFA91AB90AD8015D
S11325D012968D919C911397A816B90608F470CFA2
S11325E06ACFAE014F5F5F4FDA01AC0DBD1DC7016D
S11325F0F80120813181F901E80FF91F2E91208320
S11326000196A417B507A1F7EC0CFD1C02C0E12C40
S1132610F12CD8011396FC92EE921297C858DF4F12
S11326200FB6F894DEBF0FBECDBFDF91CF911F91DF
S11326300F91FF90EF90DF90CF90BF90AF909F905D
S11326408F907F906F900895EF92FF920F931F9356
S1132650CF93DF93FA012281211122C0EA017B0189
S11326608C01BA010E944E108A8181111BC0AE01F7
S1132670B701C8010E94C6108A81811115C0BE012C
S1132680C7010E9409118A81811110C0BE01C701CE
S11326900E94341281E09A81992349F080E007C0B6
S11326A080E005C080E003C080E001C080E0DF91ED
S11326B0CF911F910F91FF90EF90089581EE96E0D6
S11326C00E943A1B0E944B1B089584EC96E00E94E2
S11326D03A1B0E944B1B0895CF93DF93EC01892B87
S11326E029F488E797E00E943A1B52C080E797E0FC
S11326F00E943A1BCE010E94721B80EC96E00E945D
S11327003A1BFE013197E730F10508F041C0E45867
S1132710FF4F0C94D11E8BE897E00E943A1B88E689
S113272097E00E943A1B8BE797E00E943A1B30C067
S11327308BE897E00E943A1B81E697E00E943A1BDF
S11327408BE797E00E943A1B23C08BE897E00E9436
S11327503A1B8AE597E00E943A1B8BE797E00E94B8
S11327603A1B16C08BE897E00E943A1B84E597E079
S11327700E943A1B8BE797E00E943A1B09C086E34C
S113278097E00E943A1B04C08FE097E00E943A1B36
S11327900E944B1BDF91CF9108950F931F93CF930A
S11327A0DF938C01EB0184E20E94231BC8010E9489
S11327B0721B80E997E00E943A1BCE010E94721BB3
S11327C00E944B1BDF91CF911F910F910895DF92CF
S11327D0EF92FF920F931F93CF93DF93CDB7DEB7A2
S11327E0CA57D1090FB6F894DEBF0FBECDBF198208
S11327F081E08A831B82CE0101960E944F07698182
S113280070E084E690E00E94CD136A8170E085E672
S113281090E00E94CD13F12C08EC10E00F2EF6E4AA
S1132820DF2EF02D0F2EFAE0EF2EF02DD982EA8262
S11328301B821C826F2DCE0101960E947F07698145
S113284070E0C8010E94CD136A8170E0C80101964E
S11328500E94CD136B8170E0C80102960E94CD13D3
S1132860065F1F4FF39488E0F812E0CF10E00F2EBC
S1132870FCE2EF2EFF24F394F02D01E0EA960FAF73
S1132880EA97EB961FAEEB97612FCE0187589F4FC7
S11328900E94B907EA966FADEA9770E0C7010E94FB
S11328A0CD13612FCE0101960E94E70784E20E94B6
S11328B0231BC70101960E94721B80E997E00E94C6
S11328C03A1BCE0101960E942B1B0E944B1B8AE0EF
S11328D0E80EF11C1F5F183089F680E090E00E943A
S11328E06C13C658DF4F0FB6F894DEBF0FBECDBFD2
S11328F0DF91CF911F910F91FF90EF90DF9008959A
S1132900EF92FF920F931F93CF93DF93CDB7DEB770
S113291028970FB6F894DEBF0FBECDBF0E94FB0C04
S1132920811102C00E94030D0E94FE0C0E94030D3F
S1132930CE0101960E942C0D8E010F5F1F4F7E0168
S113294089E0E80EF11CF80181918F010E945A1B65
S113295080E091E00E942B1B0E151F05A1F70E9439
S11329604B1B28960FB6F894DEBF0FBECDBFDF9188
S1132970CF911F910F91FF90EF9008951F93CF93E4
S1132980DF938FEA96E00E943A1B83E00E94501B7B
S113299087EA96E00E943A1B0E944B1B81E796E06F
S11329A00E943A1B0E944B1B8FE296E00E943A1B46
S11329B00E944B1B8FEF95E00E943A1B82E00E941D
S11329C0501B8BEE95E00E943A1B0E944B1B8EEA33
S11329D095E00E943A1B0E944B1B8EE795E00E94F3
S11329E03A1B82E00E94501B8AE695E00E943A1B43
S11329F00E944B1B89E495E00E943A1B0E944B1BEA
S1132A0088E295E00E943A1B82E00E94501B84E118
S1132A1095E00E943A1B0E944B1B83EF94E00E94B6
S1132A203A1B0E944B1B82ED94E00E943A1B82E009
S1132A300E94501B8AEB94E00E943A1B0E944B1B9D
S1132A4085E994E00E943A1B82E00E94501B8DE7C6
S1132A5094E00E943A1B0E944B1B88E594E00E947C
S1132A603A1B82E00E94501B80E494E00E943A1BCF
S1132A700E944B1B8BE194E00E943A1B82E00E946F
S1132A80501B83E094E00E943A1B0E944B1B8EED86
S1132A9093E00E943A1B83E00E94501B85ED93E073
S1132AA00E943A1B0E944B1B88EA93E00E943A1B47
S1132AB00E944B1B8FE793E00E943A1B0E944B1B22
S1132AC080E593E00E943A1B82E00E94501B83E45D
S1132AD093E00E943A1B0E944B1B80E393E00E9408
S1132AE03A1B0E944B1B8BE093E00E943A1B0E940E
S1132AF04B1B8BED92E00E943A1B82E00E94501B1C
S1132B0080E992E00E943A1B0E944B1B89E492E008
S1132B100E943A1B83E00E94501B8CE298E00E94C2
S1132B203A1B84E20E94231B80E298E00E943A1B35
S1132B308CE098E00E943A1B0E944B1B8CE298E0C8
S1132B400E943A1B83E50E94231B80E298E00E94C6
S1132B503A1B81E492E00E943A1B8CE098E00E94C8
S1132B603A1B0E944B1B8CE298E00E943A1B89E4BA
S1132B700E94231B80E298E00E943A1B8AE392E0C1
S1132B800E943A1B8CE098E00E943A1B0E944B1B67
S1132B908CE298E00E943A1B8FE40E94231B80E29F
S1132BA098E00E943A1B82E392E00E943A1B8CE078
S1132BB098E00E943A1B0E944B1B8CE298E00E9412
S1132BC03A1B85E40E94231B80E298E00E943A1B92
S1132BD086E292E00E943A1B8CE098E00E943A1B45
S1132BE082E00E94501B83E192E00E943A1B0E9403
S1132BF04B1B8CEF91E00E943A1B82E00E94501B19
S1132C0080EE91E00E943A1B0E944B1B8AEC91E0FB
S1132C100E943A1B82E00E94501B11E4C8ECD0E0F1
S1132C2082E00E94501B84E20E94231BCE010E947A
S1132C30721B82E098E00E943A1B812F0E94231BA2
S1132C408AEE97E00E943A1B8CEA97E00E943A1BB6
S1132C500E944B1B84E20E94231BCE0101960E941A
S1132C60721B82E098E00E943A1B812F0E94231B72
S1132C708CED97E00E943A1B8CEA97E00E943A1B85
S1132C800E944B1B84E20E94231BCE0102960E94E9
S1132C90721B82E098E00E943A1B812F0E94231B42
S1132CA080ED97E00E943A1B83EB97E00E943A1B69
S1132CB02A961F5FC83181E0D80709F0B1CF0E947E
S1132CC04B1B11E4CCE2D1E082E00E94501B84E271
S1132CD00E94231BCE010E94721B87EF97E00E9483
S1132CE03A1B812F0E94231B86EC97E00E943A1B1B
S1132CF083EB97E00E943A1B0E944B1B84E20E94E4
S1132D00231BCE0101960E94721B87EF97E00E945D
S1132D103A1B812F0E94231B88EB97E00E943A1BE9
S1132D2084E997E00E943A1B2A961F5FCC3781E022
S1132D30D80751F60E944B1B80E090E00E946C1370
S1132D40DF91CF911F910895EF92FF920F931F93FC
S1132D50CF93DF937B01EA0189016DE302960E9420
S1132D60E41B0E94671C009779F00E94FA1E9923C5
S1132D705CF08C179D0740F00817190728F0F7013D
S1132D809183808381E005C084E090E00E946C130D
S1132D9080E0DF91CF911F910F91FF90EF90089504
S1132DA00F931F93CF93DF93EC01239600E010E081
S1132DB089910E943A1C882319F00F5F1F4FF8CFA6
S1132DC0C801DF91CF911F910F910895EF92FF9267
S1132DD00F931F93CF93DF93EC018B010E94D016C6
S1132DE0039751F5CE0103960E94FA1E7C01181632
S1132DF0190614F54DE363E070E0CE0102960E94DB
S1132E00011CFC019701201B310BADECBCEC0E94B2
S1132E10D71E969587959695879596958795282F8D
S1132E20C7016AE070E00E94BD1E782F81E03196F0
S1132E3009F480E091E004C020E070E080E090E0DC
S1132E40622FDF91CF911F910F91FF90EF90089522
S1132E50EF92FF920F931F93CF93DF9300D000D094
S1132E601F92CDB7DEB78C017B01198281E08A8382
S1132E701B82CE0101960E944F07F80182818823AC
S1132E80F9F01D821C8221E030E040E050E0BE01F8
S1132E906C5F7F4FC7010E94A4168823B9F081E0BC
S1132EA02C813D812130310509F080E08983CE01F8
S1132EB001960E94370880E090E00E946C1306C0DF
S1132EC0698170E084E690E00E94CD130F900F902A
S1132ED00F900F900F90DF91CF911F910F91FF9062
S1132EE0EF900895EF92FF920F931F93CF93DF9388
S1132EF000D000D01F92CDB7DEB78C017B011982C0
S1132F0081E08A831B82CE0101960E944F07F8015B
S1132F1082818823F9F01D821C8221E030E040E0A8
S1132F2050E0BE016C5F7F4FC7010E94A416882346
S1132F30B9F081E02C813D812130310509F080E038
S1132F408A83CE0101960E94370880E090E00E94B7
S1132F506C1306C06A8170E085E690E00E94CD1390
S1132F600F900F900F900F900F90DF91CF911F91C2
S1132F700F91FF90EF900895EF92FF920F931F939C
S1132F80CF93DF9300D000D000D0CDB7DEB78C0153
S1132F907B0186E489838AE08A831B821C82F80190
S1132FA06081CE0101960E947F07F8018281882307
S1132FB0D9F01E821D8224E630E040E050E0BE01DC
S1132FC06B5F7F4FC7010E94A416882321F18D8176
S1132FD08983F8016081CE0101960E94490880E04E
S1132FE090E00E946C1317C0698170E0F8012081A1
S1132FF030E0C901880F991F220F331F220F331F9E
S1133000220F331F820F931F88539F4F2181820FFA
S1133010911D0E94CD1326960FB6F894DEBF0FBE05
S1133020CDBFDF91CF911F910F91FF90EF90089545
S1133030EF92FF920F931F93CF93DF9300D000D0B2
S113304000D0CDB7DEB78C017B0186E489838AE0AA
S11330508A831B821C82F8016081CE0101960E9442
S11330607F07F80182818823D9F01E821D8224E61D
S113307030E040E050E0BE016B5F7F4FC7010E942B
S1133080A416882321F18D818A83F8016081CE0101
S113309001960E94490880E090E00E946C1317C0DA
S11330A06A8170E0F801208130E0C901880F991F1E
S11330B0220F331F220F331F220F331F820F931F40
S11330C088539F4F2181820F911D0E94CD13269614
S11330D00FB6F894DEBF0FBECDBFDF91CF911F9125
S11330E00F91FF90EF900895EF92FF920F931F932B
S11330F0CF93DF9300D000D000D0CDB7DEB78C01E2
S11331007B0186E489838AE08A831B821C82F8011E
S11331106081CE0101960E947F07F8018281882395
S113312009F11E821D8221E030E040E050E0BE0142
S11331306B5F7F4FC7010E94A416882351F181E081
S11331402D813E812130310509F080E08B83F80127
S11331506081CE0101960E94490880E090E00E94BF
S11331606C1317C06B8170E0F801208130E0C90155
S1133170880F991F220F331F220F331F220F331F73
S1133180820F931F88539F4F2181820F911D0E94AC
S1133190CD1326960FB6F894DEBF0FBECDBFDF91D8
S11331A0CF911F910F91FF90EF900895EF92FF92AE
S11331B00F931F93CF93DF9300D000D0CDB7DEB72A
S11331C08C017B0181E089831A82F8016081CE0140
S11331D001960E94B907F8018281882309F11C82B3
S11331E01B8221E030E040E050E0BE016D5F7F4F84
S11331F0C7010E94A416882351F181E02B813C81F0
S11332002130310509F080E08983F8016081CE0125
S113321001960E94650880E090E00E946C1317C03C
S1133220698170E0F801208130E0C901880F991F9D
S1133230220F331F220F331F220F331F820F931FBE
S1133240845D9E4F2181820F911D0E94CD130F90AA
S11332500F900F900F90DF91CF911F910F91FF90DE
S1133260EF900895EF92FF920F931F93CF93DF9304
S1133270CDB7DEB7CF57D1090FB6F894DEBF0FBE76
S1133280CDBF8C019B01FC019281992309F455C0A7
S11332906DE3C90102960E94E41B01967C01ED9640
S11332A01FAE1EAEED97CE010196EB969FAF8EAF8B
S11332B0EB97EF961FAE1EAEEF97C158DF4F188203
S11332C0CF57D040AE0143585F4FBE0167587F4F80
S11332D0C7010E942413C158DF4F8881CF57D040C3
S11332E081110AC0F8016081C7010E947F0880E053
S11332F090E00E946C132DC087E090E00E946C1354
S1133300C158DF4F8881CF57D0400E946C0E0E9475
S11333103A1B88E097E00E943A1BEF968EAD9FAD72
S1133320EF970E94721B82E091E00E942B1BC70161
S11333300E942B1B0E944B1B0CC0F8016081CE0124
S113334001960E94E707CE0101960E942B1B0E9462
S11333504B1BC158DF4F0FB6F894DEBF0FBECDBF75
S1133360DF91CF911F910F91FF90EF9008950E94EC
S1133370E7080E94D50D0E940C090E94D50D0E94F9
S113338026090E94D50D0E94E7080E94D50D0E94CF
S1133390D3080E94E7080E940C090E9426090E9493
S11333A0D50DCF93DF93EC0188819981069739F489
S11333B0E4ECF1E0E4918A818E1731F00FC081E0F2
S11333C090E00E946C132FC0DE011396E5ECF1E04F
S11333D049EC51E02D919491291729F081E090E076
S11333E00E946C1320C031964E175F0799F78F81A6
S11333F0893479F028F4843241F0853471F00FC0B7
S11334008F3449F0833519F00AC00E94C7190E940D
S1133410C3190E94B7190E94BB190E94BF1984E006
S113342090E00E946C13DF91CF9108950F931F9346
S1133430CF93DF9300D000D0CDB7DEB78C0164E624
S113344070E00E94E61669837A838B839C838C8167
S11334508823F9F08981811117C08A81882319F0A2
S1133460813039F00CC0B801CE0101960E942817B2
S113347014C0B801CE0101960E9472170EC083E0F9
S113348090E00E946C1309C082E090E00E946C13EB
S113349004C081E090E00E946C130F900F900F9095
S11334A00F90DF91CF911F910F9108950F931F9368
S11334B0CF93DF9300D000D0CDB7DEB78C0168EC9A
S11334C070E00E94E61669837A838B839C838C81E7
S11334D0882331F189818830F0F48A81813051F078
S11334E018F0823069F012C0B801CE0101960E9432
S11334F0BC171AC0B801CE0101960E94181814C056
S1133500B801CE0101960E9474180EC083E090E0C9
S11335100E946C1309C082E090E00E946C1304C006
S113352081E090E00E946C130F900F900F900F9029
S1133530DF91CF911F910F9108950F931F93CF9314
S1133540DF9300D000D0CDB7DEB78C016CE271E020
S11335500E94E61669837A838B839C838C818823FB
S1133560F9F089818830B8F48A81882319F0813090
S113357039F00CC0B801CE0101960E94D61814C0CF
S1133580B801CE0101960E9432190EC083E090E08A
S11335900E946C1309C082E090E00E946C1304C086
S11335A081E090E00E946C130F900F900F900F90A9
S11335B0DF91CF911F910F9108950E94120E0E94E6
S11335C0D50DFC012281243289F523812233B1F007
S11335D038F42432C9F0213371F0211123C01FC003
S11335E02035D9F018F4233361F01CC0223591F052
S11335F0233569F017C00E94161A08950E94561ABE
S113360008950E949D1A08950E94E71308950E9448
S1133610801408950E94D11908950E94DD1A0E9411
S1133620BE14089581E090E00E946C1308951092F6
S1133630C50089E08093C40088E18093C10086E0DE
S11336408093C2000895E0ECF0E0908195FFFDCFF7
S11336508093C6000895CF93DF93EC01888188237B
S113366031F021960E94231B89918111FBCFDF91B8
S1133670CF910895CF93DF93EC01FC0184918823CB
S113368039F00E94231B2196FE0184918111F9CF08
S1133690DF91CF91089582E398E00E943A1B089548
S11336A0CF93C82F882321F00E944B1BC150E1F710
S11336B0CF910895CF93DF9300D000D0CDB7DEB77C
S11336C04AE0BE016F5F7F4F90E00E94201FCE0151
S11336D001960E942B1B0F900F900F900F90DF917B
S11336E0CF910895CF93DF93CDB7DEB727970FB669
S11336F0F894DEBF0FBECDBF4AE0BE016F5F7F4FBF
S11337000E94201FCE0101960E942B1B27960FB604
S1133710F894DEBF0FBECDBFDF91CF910895E0ECEA
S1133720F0E080818823ECF78091C6000895E1ECF5
S1133730F0E080818068808308951F920F920FB615
S11337400F9211242F933F934F935F936F937F9323
S11337508F939F93AF93BF93EF93FF938091C60092
S1133760883119F4F8940E94D50D90911C0191119F
S113377006C08432B1F481E080931C0114C09130FE
S113378031F4833471F482E080931C010CC09230D4
S113379041F48D3011F08A3021F40E94FB0D0E9417
S11337A0D50D10921C01FF91EF91BF91AF919F91A4
S11337B08F917F916F915F914F913F912F910F90D6
S11337C00FBE0F901F901895FC018081882371F023
S11337D0681779F0319602C0261769F08E2F9F2F53
S11337E021912111F9CF80E090E0089580E090E0EC
S11337F008958E2F9F2F0895FC018081811181816E
S11338000895FC01DC01A60FB71F9C91992391F048
S1133810491799F09B012F5F3F4FE20FF31F02C03E
S1133820941771F06F5F7F4F91919111F9CF8FEFE2
S11338309FEF08958FEF9FEF0895862F972F089598
S1133840862F972F08959FE9980F9A3138F09FEBB0
S1133850980F81E09A3118F080E0089581E008958E
S1133860803229F091E0893019F090E001C091E0B4
S1133870892F089590ED980F81E09A3008F080E048
S11338800895FC012081222341F0319680E090E0EC
S1133890019621912111FCCF089580E090E00895D4
S11338A00F931F93CF93DF938C01F801C081D181D3
S11338B088810E94301C882329F02196F801D18345
S11338C0C083F3CFDF91CF911F910F910895FC0135
S11338D08081882381F080538A3080F0319603C040
S11338E020532A3068F08E2F9F2F21912111F8CF79
S11338F080E090E0089580E090E008958E2F9F2F5F
S11339000895FC018281811116C0918180818917FB
S113391018F0282F291B01C020E09381911106C0C3
S1133920681700F181E0838384831CC02617D0F0DC
S11339301382148217C080819381911106C0861767
S113394088F081E0838384830DC0218190E0820F1D
S1133950911D8536910514F084E690E0681710F007
S113396013821482848108955058BB27AA270E9489
S1133970CC1C0C94161E0E94081E38F00E940F1EC8
S113398020F039F49F3F19F426F40C94051E0EF42C
S1133990E095E7FB0C94FF1DE92F0E94271E58F3C6
S11339A0BA17620773078407950720F079F4A6F520
S11339B00C94491E0EF4E0950B2EBA2FA02D0B018A
S11339C0B90190010C01CA01A0011124FF27591B60
S11339D099F0593F50F4503E68F11A16F040A22F66
S11339E0232F342F4427585FF3CF469537952795D7
S11339F0A795F0405395C9F77EF41F16BA0B620BD6
S1133A00730B840BBAF09150A1F0FF0FBB1F661F1C
S1133A10771F881FC2F70EC0BA0F621F731F841F5F
S1133A2048F4879577956795B795F7959E3F08F085
S1133A30B0CF9395880F08F09927EE0F9795879547
S1133A4008950E94351D0C94161E0E940F1E58F0F6
S1133A500E94081E40F029F45F3F29F00C94FF1DDA
S1133A6051110C944A1E0C94051E0E94271E68F3E3
S1133A709923B1F3552391F3951B550BBB27AA2723
S1133A8062177307840738F09F5F5F4F220F331F5D
S1133A90441FAA1FA9F335D00E2E3AF0E0E832D025
S1133AA091505040E695001CCAF72BD0FE2F29D028
S1133AB0660F771F881FBB1F261737074807AB07FA
S1133AC0B0E809F0BB0B802DBF01FF2793585F4F6F
S1133AD03AF09E3F510578F00C94FF1D0C944A1E59
S1133AE05F3FE4F3983ED4F3869577956795B79551
S1133AF0F7959F5FC9F7880F911D9695879597F95C
S1133B000895E1E0660F771F881FBB1F62177307D4
S1133B108407BA0720F0621B730B840BBA0BEE1FE9
S1133B2088F7E09508950E942F1E88F09F5798F01B
S1133B30B92F9927B751B0F0E1F0660F771F881FAE
S1133B40991F1AF0BA95C9F714C0B13091F00E94C8
S1133B50491EB1E008950C94491E672F782F8827D9
S1133B60B85F39F0B93FCCF3869577956795B395EF
S1133B70D9F73EF490958095709561957F4F8F4F5E
S1133B809F4F0895E89409C097FB3EF49095809563
S1133B90709561957F4F8F4F9F4F9923A9F0F92F0F
S1133BA096E9BB279395F695879577956795B7958D
S1133BB0F111F8CFFAF4BB0F11F460FF1BC06F5F73
S1133BC07F4F8F4F9F4F16C0882311F096E911C085
S1133BD0772321F09EE8872F762F05C0662371F0A6
S1133BE096E8862F70E060E02AF09A95660F771FBA
S1133BF0881FDAF7880F9695879597F9089597F9AE
S1133C009F6780E870E060E008959FEF80EC08957E
S1133C1000240A94161617061806090608950024A7
S1133C200A9412161306140605060895092E039421
S1133C30000C11F4882352F0BB0F40F4BF2B11F495
S1133C4060FF04C06F5F7F4F8F4F9F4F089557FDF4
S1133C509058440F551F59F05F3F71F04795880FF6
S1133C6097FB991F61F09F3F79F08795089512168D
S1133C7013061406551FF2CF4695F1DF08C0161639
S1133C8017061806991FF1CF8695710561050894EA
S1133C900895E894BB2766277727CB0197F9089501
S1133CA00E94631E0C94161E0E94081E38F00E9487
S1133CB00F1E20F0952311F00C94FF1D0C94051E8B
S1133CC011240C944A1E0E94271E70F3959FC1F381
S1133CD0950F50E0551F629FF001729FBB27F00DB6
S1133CE0B11D639FAA27F00DB11DAA1F649F66270B
S1133CF0B00DA11D661F829F2227B00DA11D621F5A
S1133D00739FB00DA11D621F839FA00D611D221F13
S1133D10749F3327A00D611D231F849F600D211DF7
S1133D20822F762F6A2F11249F5750409AF0F1F07A
S1133D3088234AF0EE0FFF1FBB1F661F771F881FE3
S1133D4091505040A9F79E3F510580F00C94FF1DFF
S1133D500C944A1E5F3FE4F3983ED4F3869577951E
S1133D606795B795F795E7959F5FC1F7FE2B880F89
S1133D70911D9695879597F9089597FB072E16F44C
S1133D80009407D077FD09D00E94E61E07FC05D0F9
S1133D903EF4909581959F4F0895709561957F4F5E
S1133DA00895EE0FFF1F0590F491E02D0994A29F52
S1133DB0B001B39FC001A39F700D811D1124911DFB
S1133DC0B29F700D811D1124911D0895AA1BBB1B68
S1133DD051E107C0AA1FBB1FA617B70710F0A61B07
S1133DE0B70B881F991F5A95A9F780959095BC0128
S1133DF0CD010895FC0188279927E8942191203268
S1133E00E9F3293010F02E30C8F32B3241F02D3273
S1133E1039F4689404C00E94181F820F911D2191E7
S1133E2020532A30C0F31EF4909581959F4F089536
S1133E307AE0979F902D879F802D910D11240895EE
S1133E40BB27FB015527AA27880F991FAA1FA41770
S1133E5010F0A41B83955051B9F7A05DAA3308F064
S1133E60A95DA193009779F7B111B1931192CB0198
S1133E700C943A1FDC01FC01672F71917723E1F761
S1133E80329704C07C916D9370836291AE17BF0723
S1133E90C8F30895DC01CB01FC01F999FECF06C0FB
S1133EA0F2BDE1BDF89A319600B40D9241505040F4
S1133EB0B8F70895F999FECF92BD81BDF89A992774
S1133EC080B50895DC01A40FB51F4150504048F05F
S1133ED0CB01840F951F2E910E94731F41505040B7
S1133EE0D0F70895262FF999FECF92BD81BDF89A97
S1133EF0019700B4021639F01FBA20BD0FB6F8942A
S10F3F00FA9AF99A0FBE0895F894FFCFC6
S1093F0C3B00203A2000F6
S9030000FC
