:100000000C945A000C946F000C946F000C946F00C9
:100010000C946F000C946F000C946F000C946F00A4
:100020000C946F000C946F000C946F000C946F0094
:100030000C946F000C946F000C946F000C946F0084
:100040000C946F000C946F000C946F000C946F0074
:100050000C946F000C946F000C946F000C946F0064
:100060000C946F000C946F000C946F000C946F0054
:100070000C946F000C946F000C946F000C946F0044
:100080000C946F000C946F000C946F000C946F0034
:100090000C946F000C946F000C946F000C946F0024
:1000A0000C946F000C946F000C946F000C946F0014
:1000B0000C946F0011241FBECFEFD8E0DEBFCDBF80
:1000C00011E0A0E0B1E0E4E8F7E002C005900D9295
:1000D000A031B107D9F70E9404020C94C0030C941C
:1000E0000000CF93DF93CDB7DEB787E290E027E241
:1000F00030E0F90120812F61FC01208388E290E04B
:10010000FC01108288E290E028E230E0F9012081D1
:100110002160FC01208388E290E028E230E0F901D0
:100120002081277FFC0120838AE290E02AE230E0F0
:10013000F90120812C67FC0120838BE290E02BE207
:1001400030E0F90120812064FC0120838BE290E003
:100150002BE230E0F9012081277FFC0120830000A1
:10016000DF91CF910895CF93DF9300D0CDB7DEB765
:100170008A83198289818830C0F58A81882F90E02E
:100180002981222F30E002C0959587952A95E2F7C4
:1001900081709927892B51F088E290E028E230E0C5
:1001A000F90120812061FC01208309C088E290E0F0
:1001B00028E230E0F90120812F7EFC01208388E2D3
:1001C00090E028E230E0F90120812260FC012083E8
:1001D00088E290E028E230E0F90120812D7FFC01E7
:1001E000208389818F5F8983C5CF88E290E028E2F0
:1001F00030E0F90120812460FC01208388E290E056
:1002000028E230E0F90120812B7FFC0120830000EF
:100210000F900F90DF91CF910895CF93DF9300D08F
:10022000CDB7DEB78A83198289818830C0F58A818B
:10023000882F90E02981222F30E002C09595879584
:100240002A95E2F781709927892B51F08BE290E093
:100250002BE230E0F90120812460FC01208309C0F9
:100260008BE290E02BE230E0F90120812B7FFC0152
:1002700020838BE290E02BE230E0F90120812062C4
:10028000FC0120838BE290E02BE230E0F901208139
:100290002F7DFC01208389818F5F8983C5CF8BE20D
:1002A00090E02BE230E0F90120812061FC01208305
:1002B0008BE290E02BE230E0F90120812F7EFC01FF
:1002C000208300000F900F90DF91CF910895CF937E
:1002D000DF93CDB7DEB760970FB6F894DEBF0FBEE1
:1002E000CDBF988B8F878F859889FC01808188236B
:1002F00009F480C026EC30E08F859889AC014F5F0F
:100300005F4F588B4F87FC018081F901808380E02B
:1003100090E0A8ECB2E489839A83AB83BC8320E0AD
:1003200030E44CE955E469817A818B819C810E949B
:100330002B03DC01CB018D839E83AF83B88720E044
:1003400030E040E85FE36D817E818F8198850E9477
:10035000A50288232CF481E090E09A8789873FC02A
:1003600020E03FEF4FE757E46D817E818F819885D4
:100370000E94260318164CF520E030E040E251E4DC
:1003800069817A818B819C810E942B03DC01CB01E6
:10039000BC01CD010E94AA02DC01CB019A878987AA
:1003A00089859A85892B09F49ECF84EF91E09C87FB
:1003B0008B878B859C850197F1F79C878B87898537
:1003C0009A8501979A878987EBCF6D817E818F818E
:1003D00098850E94AA02DC01CB019A8789878985CA
:1003E0009A859E878D878D859E850197F1F79E87DB
:1003F0008D8779CF000060960FB6F894DEBF0FBEF0
:10040000CDBFDF91CF910895CF93DF93CDB7DEB706
:100410002F970FB6F894DEBF0FBECDBF0E947100BC
:1004200085EC90E0FC01108284EC90E020E4FC017B
:10043000208381EC90E028E0FC01208382EC90E0B6
:1004400026E0FC012083198280E091E00E94670190
:1004500089810E94B300898180950E940D01898164
:100460008F5F898380E090E0AAE7B3E48A839B836F
:10047000AC83BD8320E030E44CE955E46A817B81A4
:100480008C819D810E942B03DC01CB018E839F8395
:10049000A887B98720E030E040E85FE36E817F8184
:1004A000888599850E94A50288232CF481E090E03C
:1004B0009B878A873FC020E03FEF4FE757E46E817C
:1004C0007F81888599850E94260318164CF520E0C7
:1004D00030E040E251E46A817B818C819D810E9401
:1004E0002B03DC01CB01BC01CD010E94AA02DC017F
:1004F000CB019B878A878A859B85892B09F4A4CFAA
:1005000084EF91E09D878C878C859D850197F1F71D
:100510009D878C878A859B8501979B878A87EBCFF0
:100520006E817F81888599850E94AA02DC01CB01BA
:100530009B878A878A859B859F878E878E859F85E7
:100540000197F1F79F878E877FCF0E94D90208F429
:1005500081E008950E94050388F09F5798F0B92F15
:100560009927B751B0F0E1F0660F771F881F991FE8
:100570001AF0BA95C9F714C0B13091F00E941F0368
:10058000B1E008950C941F03672F782F8827B85F78
:1005900039F0B93FCCF3869577956795B395D9F740
:1005A0003EF490958095709561957F4F8F4F9F4F4A
:1005B0000895990F0008550FAA0BE0E8FEEF1616F4
:1005C0001706E807F907C0F012161306E407F50747
:1005D00098F0621B730B840B950B39F40A2661F0BB
:1005E000232B242B252B21F408950A2609F4A1405E
:1005F000A6958FEF811D811D089557FD9058440FDA
:10060000551F59F05F3F71F04795880F97FB991F71
:1006100061F09F3F79F0879508951216130614062E
:10062000551FF2CF4695F1DF08C0161617061806BB
:10063000991FF1CF86957105610508940895E89496
:10064000BB2766277727CB0197F908950E94D90227
:1006500008F48FEF08950E943E030C94AF030E94AC
:10066000A10338F00E94A80320F0952311F00C9408
:1006700098030C949E0311240C9420030E94FD0205
:1006800070F3959FC1F3950F50E0551F629FF001E5
:10069000729FBB27F00DB11D639FAA27F00DB11DFE
:1006A000AA1F649F6627B00DA11D661F829F222787
:1006B000B00DA11D621F739FB00DA11D621F839F0E
:1006C000A00D611D221F749F3327A00D611D231FE4
:1006D000849F600D211D822F762F6A2F11249F5732
:1006E00050409AF0F1F088234AF0EE0FFF1FBB1F35
:1006F000661F771F881F91505040A9F79E3F5105F4
:1007000080F00C9498030C9420035F3FE4F3983E30
:10071000D4F3869577956795B795F795E7959F5F9D
:10072000C1F7FE2B880F911D9695879597F908952F
:1007300097F99F6780E870E060E008959FEF80EC94
:10074000089500240A941616170618060906089537
:1007500000240A9412161306140605060895092E9D
:100760000394000C11F4882352F0BB0F40F4BF2B0C
:1007700011F460FF04C06F5F7F4F8F4F9F4F08954C
:04078000F894FFCF1B
:1007840048656C6C6F20576F726C64210D0A000011
:00000001FF
