:100000000C945E000C9473000C9473000C947300B9
:100010000C9473000C9473000C9473000C94730094
:100020000C9473000C9473000C9473000C94730084
:100030000C9473000C9473000C9473000C94730074
:100040000C9473000C9473000C9473000C94730064
:100050000C9473000C9473000C9473000C94730054
:100060000C9473000C9473000C9473000C94730044
:100070000C9473000C9473000C9473000C94730034
:100080000C9473000C9473000C9473000C94730024
:100090000C9473000C9473000C9473000C94730014
:1000A0000C9473000C9473000C9473000C94730004
:1000B0000C947300040702060005010311241FBEFF
:1000C000CFEFD8E0DEBFCDBF11E0A0E0B1E0E4E2C9
:1000D000F9E002C005900D92A830B107D9F70E944F
:1000E0007A010C9490040C940000CF93DF93CDB769
:1000F000DEB785EC90E0FC01108284EC90E020E417
:10010000FC01208381EC90E028E0FC01208382EC5C
:1001100090E026E0FC0120830000DF91CF9108955C
:10012000CF93DF93CDB7DEB787E290E027E230E0F0
:10013000F90120812F61FC01208388E290E0FC011D
:10014000108288E290E028E230E0F901208121600D
:10015000FC01208388E290E028E230E0F901208170
:10016000277FFC0120838AE290E02AE230E0F90157
:1001700020812C67FC0120838BE290E02BE230E0B1
:10018000F90120812064FC0120838BE290E02BE2C6
:1001900030E0F9012081277FFC01208384E290E098
:1001A00024E230E0F90120812760FC0120830E94D5
:1001B00075000000DF91CF910895CF93DF93CDB705
:1001C000DEB760970FB6F894DEBF0FBECDBF988B39
:1001D0008F878F859889FC018081882309F480C0EE
:1001E00026EC30E08F859889AC014F5F5F4F588BCC
:1001F0004F87FC018081F901808380E090E0A0E2DC
:10020000B1E489839A83AB83BC8320E030E44CE97A
:1002100055E469817A818B819C810E94C603DC014F
:10022000CB018D839E83AF83B88720E030E040E828
:100230005FE36D817E818F8198850E94030388230F
:100240002CF481E090E09A8789873FC020E03FEF5F
:100250004FE757E46D817E818F8198850E94C103AD
:1002600018164CF520E030E040E251E469817A81D3
:100270008B819C810E94C603DC01CB01BC01CD01B6
:100280000E940803DC01CB019A87898789859A85BA
:10029000892B09F49ECF84EF91E09C878B878B8517
:1002A0009C850197F1F79C878B8789859A850197B3
:1002B0009A878987EBCF6D817E818F8198850E9497
:1002C0000803DC01CB019A87898789859A859E87F7
:1002D0008D878D859E850197F1F79E878D8779CFD4
:1002E000000060960FB6F894DEBF0FBECDBFDF9161
:1002F000CF910895CF93DF93CDB7DEB7AD970FB60B
:10030000F894DEBF0FBECDBF0E9490001A828CE72A
:1003100090E02CE730E0F90120812664FC01208385
:100320008AE790E02AE730E0F90120812768FC01A4
:10033000208319828981883008F060C185E290E0CD
:1003400025E230E0F9012081422F487F2981222FC8
:1003500030E02C543F4F3C832B832B813C81F901AF
:1003600024912D832D81242BFC01208380E090E0BB
:10037000A0EAB0E48E839F83A887B98720E030E4A9
:100380004CE955E46E817F81888599850E94C6037A
:10039000DC01CB018A8F9B8FAC8FBD8F20E030E0DA
:1003A00040E85FE36A8D7B8D8C8D9D8D0E940303F9
:1003B00088232CF481E090E09F8F8E8F3EC020E058
:1003C0003FEF4FE757E46A8D7B8D8C8D9D8D0E94AA
:1003D000C103181644F520E030E040E251E46E819C
:1003E0007F81888599850E94C603DC01CB01BC0111
:1003F000CD010E940803DC01CB019F8F8E8F8E8D73
:100400009F8D892B21F184EF91E099A388A388A186
:1004100099A10197F1F799A388A38E8D9F8D0197DC
:100420009F8F8E8FECCF6A8D7B8D8C8D9D8D0E94E2
:100430000803DC01CB019F8F8E8F8E8D9F8D9BA338
:100440008AA38AA19BA10197F1F79BA38AA38AE7BC
:1004500090E02AE730E0F90120812064FC0120834C
:1004600080E090E0A0EAB0E48C879D87AE87BF87EC
:1004700020E030E44CE955E46C857D858E859F85D0
:100480000E94C603DC01CB01888B998BAA8BBB8BA6
:1004900020E030E040E85FE3688979898A899B89B8
:1004A0000E94030388232CF481E090E09D8B8C8BC9
:1004B0003EC020E03FEF4FE757E4688979898A8999
:1004C0009B890E94C103181644F520E030E040E209
:1004D00051E46C857D858E859F850E94C603DC0175
:1004E000CB01BC01CD010E940803DC01CB019D8B37
:1004F0008C8B8C899D89892B21F184EF91E09F8BD6
:100500008E8B8E899F890197F1F79F8B8E8B8C89BB
:100510009D8901979D8B8C8BECCF688979898A891D
:100520009B890E940803DC01CB019D8B8C8B8C89FD
:100530009D89998F888F888D998D0197F1F7998F73
:10054000888F88E790E0FC018081882F90E09B876E
:100550008A8789E790E0FC018081882F90E0982FBE
:1005600088279C018A859B85822B932B9B878A8772
:100570008A859B85CC01A0E0B0E0BC01CD010E9442
:100580003703DC01CB0120E030E048EC5DE3BC0147
:10059000CD010E94C603DC01CB01BC01CD010E944C
:1005A0000803DC01CB019B878A878981882F90E033
:1005B0009E012C5D3F4F4AE050E0B9010E945B0470
:1005C000CE0184960E94DD0080E091E00E94DD0073
:1005D0009E012C5D3F4F8A859B854AE050E0B90122
:1005E0000E945B04CE0184960E94DD0083E091E0CE
:1005F0000E94DD0089818F5F89839CCE85E091E038
:100600000E94DD0096CE0E94740308F481E00895F4
:100610000E94A00388F09F5798F0B92F9927B751EF
:10062000B0F0E1F0660F771F881F991F1AF0BA9596
:10063000C9F714C0B13091F00E94BA03B1E0089537
:100640000C94BA03672F782F8827B85F39F0B93F29
:10065000CCF3869577956795B395D9F73EF4909549
:100660008095709561957F4F8F4F9F4F0895E894C7
:1006700009C097FB3EF490958095709561957F4FEA
:100680008F4F9F4F9923A9F0F92F96E9BB27939598
:10069000F695879577956795B795F111F8CFFAF4A8
:1006A000BB0F11F460FF1BC06F5F7F4F8F4F9F4FD9
:1006B00016C0882311F096E911C0772321F09EE837
:1006C000872F762F05C0662371F096E8862F70E09D
:1006D00060E02AF09A95660F771F881FDAF7880F77
:1006E0009695879597F90895990F0008550FAA0BCD
:1006F000E0E8FEEF16161706E807F907C0F0121635
:100700001306E407F50798F0621B730B840B950B37
:1007100039F40A2661F0232B242B252B21F408958C
:100720000A2609F4A140A6958FEF811D811D089529
:1007300057FD9058440F551F59F05F3F71F0479592
:10074000880F97FB991F61F09F3F79F08795089577
:10075000121613061406551FF2CF4695F1DF08C096
:10076000161617061806991FF1CF869571056105B3
:1007700008940895E894BB2766277727CB0197F95B
:1007800008950E94740308F48FEF08950E94D9031E
:100790000C944A040E943C0438F00E94430420F068
:1007A000952311F00C9433040C94390411240C9407
:1007B000BB030E94980370F3959FC1F3950F50E01F
:1007C000551F629FF001729FBB27F00DB11D639F03
:1007D000AA27F00DB11DAA1F649F6627B00DA11DA9
:1007E000661F829F2227B00DA11D621F739FB00D4F
:1007F000A11D621F839FA00D611D221F749F3327BF
:10080000A00D611D231F849F600D211D822F762F57
:100810006A2F11249F5750409AF0F1F088234AF034
:10082000EE0FFF1FBB1F661F771F881F91505040A0
:10083000A9F79E3F510580F00C9433040C94BB0340
:100840005F3FE4F3983ED4F3869577956795B79527
:10085000F795E7959F5FC1F7FE2B880F911D969541
:10086000879597F9089597F99F6780E870E060E0B1
:1008700008959FEF80EC089500240A941616170639
:1008800018060906089500240A9412161306140681
:1008900005060895092E0394000C11F4882352F0E4
:1008A000BB0F40F4BF2B11F460FF04C06F5F7F4F9C
:1008B0008F4F9F4F08954532510520F4423010F07C
:1008C0000C946604FB011082CB010895BB27FB0149
:1008D0005527AA27880F991FAA1FA41710F0A41B39
:1008E00083955051B9F7A05DAA3308F0A95DA19393
:1008F000009779F7B111B1931192CB010C94800458
:10090000DC01FC01672F71917723E1F7329704C076
:100910007C916D9370836291AE17BF07C8F3089501
:04092000F894FFCF79
:080924003A200020000D0A003A
:00000001FF
