S0110000434E435370696465722E73726563D8
S11300000C94B2010C94CF010C94CF010C94CF0149
S11300100C945A090C94CF010C94CF010C94CF0189
S11300200C94CF010C94CF010C94CF010C94B20A20
S11300300C94CF010C94CF010C94CF010C94CF01FC
S11300400C94CF010C94CF010C94CF010C94CF01EC
S11300500C94CF010C946D090C94CF010C94CF0136
S11300600C94CF010C94CF010C94CF010C94CF01CC
S11300700C94CF010C94CF010C94CF010C94CF01BC
S11300800C94CF010C94850B0C94CF010C94CF01EC
S11300900C94CF010C94CF010C94CF010C94CF019C
S11300A00C94CF010C94CF010C94CF010C94CF018C
S11300B00C94CF01850D880D8B0D8E0D910D940D33
S11300C0970D9A0D9D0DA00DED0D050E1D0E350E0F
S11300D04D0E650E7D0E950ECC15D915E615F3154E
S11300E0001605160E1604070206000501034F6BE1
S11300F0004D6178206C656E67746820657863656F
S11301006564656400496E76616C6964206F70652E
S113011072616E64004D697373696E672062726107
S1130120636B657400496E76616C69642063686111
S113013072616374657200496E76616C69642072E1
S113014068732065787072657373696F6E00496EA9
S113015076616C6964206C6873206578707265736D
S113016073696F6E004D697373696E67207268738B
S11301702065787072657373696F6E004D6973736F
S1130180696E67206C687320657870726573736933
S11301906F6E00456D707479206578707265737345
S11301A0696F6E00245253543D00092D205265732B
S11301B0746F7265200064656661756C7473206188
S11301C06E64207265626F6F7400092D20496E7031
S11301D075742000092D204F7574707574200020EB
S11301E07468726573686F6C640928002068797399
S11301F07465726573697309280020696E76657287
S113020074656409280020616374697665092800AF
S11302102065787072657373696F6E092800312FD9
S1130220302900302D31303029002441202620246B
S113023042207C202E2E2E292023636F6D6D656E47
S11302407400203D20002724272000206E6F742096
S1130250737570706F727465642E004F4B00657215
S1130260726F723A2000436F6D6D616E6400546169
S113027072676574004F7074696F6E0056616C75B7
S1130280650043686172616374657273207065729E
S1130290206C696E652065786365656465642E000D
S11302A0454550524F4D2072656164206661696C0A
S11302B065642E2044656661756C74732072657381
S11302C0746F7265642E00206E6561722000202DAB
S11302D020006374726C2D78092D20526573657447
S11302E00073797374656D2000696E7075742000F5
S11302F06F757470757420006578707265737369B6
S11303006F6E20002424092D2056696577207365BB
S11303107474696E6773002453092D2056696577D8
S1130320207374617475730024313030092D2053A7
S1130330657269616C204F75747075742009283179
S11303402F30290024313031092D2042757A7A6505
S11303507220090928312F302900245253543D00BA
S11303600D0A000011241FBECFEFD8E0DEBFCDBFC1
S113037011E0A0E0B1E0E6E2F6E402C005900D92DF
S1130380A630B107D9F721E0A6E0B1E001C01D9283
S1130390AC31B207E1F70E9439080C9411230C9494
S11303A00000CF93DF9300D0CDB7DEB79A83898363
S11303B000000F900F90DF91CF910895CF93DF93BA
S11303C000D0CDB7DEB79A8389838FEF90E00E9487
S11303D0FE080E947207882331F080E090E00E94BA
S11303E09C1581E007C00E94620786E090E00E94AD
S11303F09C1580E00F900F90DF91CF910895CF93DB
S1130400DF93CDB7DEB7C750D1400FB6F894DEBF47
S11304100FBECDBF9E012A5F3E4FF90191838083B9
S1130420CE0103960E945402CE0103960E947102EB
S11304309A83898389819A818E3FFFEF9F0719F000
S1130440019639F008C085E090E00E949C1581E097
S113045007C080E005C0CE0103960E94251E81E0FE
S1130460C95FDE4F0FB6F894DEBF0FBECDBFDF917C
S1130470CF910895CF93DF9300D0CDB7DEB79A83A1
S1130480898381E00F900F90DF91CF910895CF93EE
S1130490DF9300D0CDB7DEB79A83898300000F9035
S11304A00F90DF91CF910895CF93DF9300D0CDB714
S11304B0DEB79A83898389819A81FC011182108233
S11304C089819A8121E031E00296FC01A90111920F
S11304D041505040E1F700000F900F90DF91CF9111
S11304E00895CF93DF9300D000D01F92CDB7DEB72D
S11304F09D838C831A8219820E94B01F8B838B8107
S1130500882F90E08D30910529F08831910529F0EC
S11305100A9731F489819A8112C08FEF9FEF0FC03F
S11305208C819D816B810E94A702882331F089818F
S11305309A8101969A838983DFCF8EEF9FEF0F9084
S11305400F900F900F900F90DF91CF910895CF935C
S1130550DF9300D01F92CDB7DEB79A8389836B8374
S113056089819A81FC01808191818F3F910509F0F5
S113057018F589819A81FC0180819181AC014F5FDA
S11305805F4F29813A81F9015183408329813A815E
S1130590820F931F02962B81FC01208389819A810B
S11305A0FC018081918129813A81820F931F0296F7
S11305B0FC01108281E001C080E00F900F900F9049
S11305C0DF91CF910895CF93DF93CDB7DEB72F9707
S11305D00FB6F894DEBF0FBECDBF80911D018F3FD3
S11305E029F08FEF80931D0110921C0180911C0152
S11305F08F5F80931C01198280911C019981981747
S113060008F079C084E690E00E94D80A80E090E087
S1130610AAE7B3E48A839B83AC83BD8320E030E004
S113062040E955E46A817B818C819D810E94D221BD
S1130630DC01CB018E839F83A887B98720E030E05B
S113064040E85FE36E817F81888599850E94E72079
S113065088232CF481E090E09B878A873EC020E0C9
S11306603FEF4FE757E46E817F81888599850E942B
S1130670CD21181644F520E030E040E251E46A81CF
S11306807B818C819D810E94D221DC01CB01BC0144
S1130690CD010E94EC20DC01CB019B878A878A85EF
S11306A09B85892B21F18CEC91E09D878C878C852F
S11306B09D850197F1F79D878C878A859B85019796
S11306C09B878A87ECCF6E817F81888599850E947C
S11306D0EC20DC01CB019B878A878A859B859F87D9
S11306E08E878E859F850197F1F79F878E878981F5
S11306F08F5F898381CF0E94980300002F960FB6E5
S1130700F894DEBF0FBECDBFDF91CF910895CF9394
S1130710DF9300D0CDB7DEB79A83898389819A812C
S11307200E94470200000F900F90DF91CF9108952F
S1130730CF93DF931F92CDB7DEB7CE0101960E940F
S1130740BB03CE0101960E94CC03882339F0CE016D
S113075001960E94DC03882309F0F9CFCE010196AB
S11307600E94EC03CE0101960E94870300000F90C3
S1130770DF91CF910895CF93DF9300D0CDB7DEB74B
S11307809A83898389819A810E94D10100000F9004
S11307900F90DF91CF910895CF93DF9300D0CDB721
S11307A0DEB79A83898389819A810E94DE010F9042
S11307B00F90DF91CF910895CF93DF9300D0CDB701
S11307C0DEB79A83898389819A810E94FF010F9001
S11307D00F90DF91CF910895CF93DF9300D0CDB7E1
S11307E0DEB79A83898389819A810E943A020F90A5
S11307F00F90DF91CF910895CF93DF9300D000D075
S113080000D0CDB7DEB79C838B837E836D83198242
S11308101A828A81282F30E08D819E81281739071A
S113082020F58981882F90E0880F991F892B49F43E
S11308308981882F90E0880F892F881F990B892B35
S113084011F081E001C080E089838A81882F90E0E3
S11308502B813C81820F931FFC0180819981890F38
S113086089838A818F5F8A83D4CF898126960FB644
S1130870F894DEBF0FBECDBFDF91CF910895CF9323
S1130880DF93CDB7DEB728970FB6F894DEBF0FBE5F
S1130890CDBF98878F831A8219821C8281E08D8351
S11308A01E8229813A81CE01049643E050E0B901C9
S11308B00E94D72222E030E0CE010496B9010E94C2
S11308C0FC038B839E818B81981759F42F81388583
S11308D08C819D81AE81F90180839183A28381E023
S11308E001C080E028960FB6F894DEBF0FBECDBFDE
S11308F0DF91CF910895CF93DF93CDB7DEB72A97D9
S11309000FB6F894DEBF0FBECDBF998788876A877C
S11309108A85882F90E0880F991F880F991F039666
S11309209A83898386E48C838AE08D831E821F8266
S113093029813A81CE01049644E050E0B9010E9435
S1130940D72223E030E0CE010496B9010E94FC03D3
S11309508B839F818B81981769F4288539858C81D5
S11309609D81AE81BF81F90180839183A283B3838A
S113097081E001C080E02A960FB6F894DEBF0FBE76
S1130980CDBFDF91CF910895CF93DF93CDB7DEB77D
S113099028970FB6F894DEBF0FBECDBF9F838E831A
S11309A068878885882F90E09C01220F331F80E29E
S11309B090E0820F931F03969A83898381E08C834E
S11309C01D8229813A81CE01049642E050E0B901AA
S11309D00E94D72221E030E0CE010496B9010E94A2
S11309E0FC038B839D818B81981749F48E819F81B1
S11309F02C813D81FC013183208381E001C080E0B2
S1130A0028960FB6F894DEBF0FBECDBFDF91CF910D
S1130A100895CF93DF93CDB7DEB72B970FB6F89435
S1130A20DEBF0FBECDBF9A8789876B878B85882FE2
S1130A3090E028E030E0A901481B590BCA01AC0141
S1130A4086E090E0880F991F880F991F880F991FDF
S1130A50039620E034E0B901681B790BCB019C01BB
S1130A60369527953695279536952795429FC0014B
S1130A70439F900D529F900D112420E034E0F90122
S1130A80E81BF90BCF019E838D838D819E810E948B
S1130A90E7228F8389859A859A8389838D819E81B4
S1130AA001969C838B8386E090E0880F991F880FC2
S1130AB0991F880F991F039620E034E0A901481B71
S1130AC0590BCA019C01369527953695279536957D
S1130AD027958D819E81280F391F8B819C818217D8
S1130AE09307C8F48B819C810E94E72288878981BF
S1130AF09A819C012F5F3F4F3A8329832885FC010B
S1130B0020838885882331F08B819C8101969C8386
S1130B108B83C9CF000089859A85FC018081882355
S1130B2081F089859A850E9479209C0189859A851E
S1130B30B9010E94FC03982F8F81981711F481E06A
S1130B4001C080E02B960FB6F894DEBF0FBECDBF78
S1130B50DF91CF910895CF93DF9300D000D0CDB72C
S1130B60DEB79C838B831A82198222E030E08B816A
S1130B709C81B9010E94FC03282F8B819C81FC017C
S1130B80228329813A818B819C8143E050E0B90121
S1130B900E94EF2200000F900F900F900F90DF91B2
S1130BA0CF910895CF93DF9300D000D01F92CDB79B
S1130BB0DEB79C838B836D838D81882F90E0880FB3
S1130BC0991F880F991F03969A83898323E030E045
S1130BD08B819C81B9010E94FC03282F8B819C810D
S1130BE0FC01238329813A818B819C8144E050E07C
S1130BF0B9010E94EF2200000F900F900F900F9008
S1130C000F90DF91CF910895CF93DF9300D000D060
S1130C101F92CDB7DEB79C838B836D838D81882F24
S1130C2090E09C01220F331F80E290E0820F931F1B
S1130C3003969A83898321E030E08B819C81B901FA
S1130C400E94FC03282F8B819C81FC012183298134
S1130C503A818B819C8142E050E0B9010E94EF22ED
S1130C6000000F900F900F900F900F90DF91CF9195
S1130C700895CF93DF93CDB7DEB72A970FB6F894D4
S1130C80DEBF0FBECDBF998788876A878A85882F84
S1130C9090E028E030E0A901481B590BCA01AC01DF
S1130CA086E090E0880F991F880F991F880F991F7D
S1130CB0039620E034E0B901681B790BCB019C0159
S1130CC0369527953695279536952795429FC001E9
S1130CD0439F900D529F900D112420E034E0F901C0
S1130CE0E81BF90BCF019D838C83888599859A83B2
S1130CF089838C819D8101969F838E8386E090E019
S1130D00880F991F880F991F880F991F039620E059
S1130D1034E0A901481B590BCA019C01369527955B
S1130D2036952795369527958C819D81280F391FF7
S1130D308E819F8182179307D8F489819A81FC015F
S1130D4080818823A1F089819A819C012F5F3F4F84
S1130D503A832983FC0120818E819F81622F0E9426
S1130D60FF228E819F8101969F838E83C7CF0000CF
S1130D708E819F8160E00E94FF22888599850E9470
S1130D8079209C0188859985B9010E94FC038B8395
S1130D908C819D816B810E94FF2200002A960FB6F0
S1130DA0F894DEBF0FBECDBFDF91CF910895CF93EE
S1130DB0DF9300D01F92CDB7DEB7198281E08A831A
S1130DC01B82CE0101960E94AB0500000F900F908C
S1130DD00F90DF91CF910895CF93DF9300D000D08F
S1130DE01F92CDB7DEB719828981883078F486E402
S1130DF08A838AE08B831C821D82CE0102966981DC
S1130E000E94D20589818F5F8983EECF00000F9005
S1130E100F900F900F900F90DF91CF910895CF9383
S1130E20DF9300D01F92CDB7DEB719828981883055
S1130E3060F481E08A831B82CE01029669810E945C
S1130E40040689818F5F8983F1CF00000F900F9092
S1130E500F90DF91CF910895CF93DF93CDB7DEB795
S1130E60CC57D1090FB6F894DEBF0FBECDBF19829F
S1130E7089818830E0F4CE0102960E94D407CE0125
S1130E80029664E20E94EF07898121E4280FCE01D3
S1130E900296622F0E94EF07CE0102960E942A0852
S1130EA069810E94390689818F5F8983E1CF0000BF
S1130EB0C458DF4F0FB6F894DEBF0FBECDBFDF912D
S1130EC0CF910895CF93DF93CDB7DEB70E94D706B5
S1130ED00E94EC060E940F070E942C070000DF917D
S1130EE0CF910895CF93DF93CDB7DEB7C358D1091F
S1130EF00FB6F894DEBF0FBECDBF1B8281E08C839A
S1130F001D82CE0103960E943F04982F81E0892719
S1130F10882311F080E03EC0198289818830B0F4C2
S1130F2086E48E838AE08F8318861986CE0106961E
S1130F3069810E947B04982F81E08927882311F01E
S1130F4080E028C089818F5F8983E7CF1A828A81F4
S1130F508830F8F481E08A871B86CE010A966A817C
S1130F600E94C404982F81E08927882311F080E02F
S1130F7011C0CE010C966A810E940905982F81E068
S1130F808927882311F080E005C08A818F5F8A83D6
S1130F90DECF81E0CD57DF4F0FB6F894DEBF0FBE32
S1130FA0CDBFDF91CF910895CF93DF9300D0CDB71C
S1130FB0DEB79A83898389819A81FC011182108228
S1130FC089819A8129E70296FC01322F11923A9580
S1130FD0E9F700000F900F90DF91CF910895CF9320
S1130FE0DF9300D01F92CDB7DEB79A8389836B83DA
S1130FF089819A81FC01808191818837910518F556
S113100089819A81FC0180819181AC014F5F5F4F9E
S113101029813A81F9015183408329813A81820FE0
S1131020931F02962B81FC01208389819A81FC0104
S11310308081918129813A81820F931F0296FC015C
S1131040108281E001C080E00F900F900F90DF913B
S1131050CF910895CF93DF9300D0CDB7DEB79A83B5
S1131060898389819A8102960F900F90DF91CF91A5
S11310700895CF93DF93CDB7DEB70E9447080E944F
S1131080B20B0E94BE1E0E94E3020E94CE0BCF93BD
S1131090DF9300D01F92CDB7DEB787E290E027E25E
S11310A030E0F90120812F61FC01208387E290E088
S11310B027E230E0F90120812F7DFC01208388E2C2
S11310C090E0FC01108288E290E028E230E0F9012F
S11310D020812160FC01208388E290E028E230E056
S11310E0F9012081277FFC0120838AE290E02AE233
S11310F030E0F90120812C6FFC0120838BE290E029
S11311002BE230E0F90120812062FC01208384E29B
S113111090E024E230E0F90120812760FC01208383
S11311208DE290E0FC0110828EE290E02EE230E04D
S1131130F90120812360FC0120838CE790E02CE7F7
S113114030E0F90120812664FC0120838AE790E0E5
S11311502AE730E0F90120812F68FC01208385E231
S113116090E025E230E0F9012081422F487F26EE0D
S113117030E03A83298329813A81F90124912B8330
S11311802B81242BFC01208387E490E026E4FC01DE
S1131190208384E490E024E430E0F9012081226497
S11311A0FC01208380E890E0FC01108281E890E05B
S11311B028E0FC0120838FE690E02FE630E0F9017F
S11311C020812260FC01208380E990E0FC011082F0
S11311D081E990E028E0FC01208381E790E021E7A9
S11311E030E0F90120812260FC0120837894000022
S11311F00F900F900F90DF91CF910895CF93DF93CD
S113120000D01F92CDB7DEB79B838A831982898170
S11312108031B8F58981282F30E08A819B8102C012
S1131220969587952A95E2F781709927892B51F035
S113123088E290E028E230E0F90120812061FC019D
S1131240208309C088E290E028E230E0F90120819F
S11312502F7EFC01208388E290E028E230E0F9014F
S113126020812260FC01208388E290E028E230E0C3
S1131270F90120812D7FFC01208389818F5F89837F
S1131280C6CF88E290E028E230E0F90120812460B2
S1131290FC01208388E290E028E230E0F90120811B
S11312A02B7FFC01208300000F900F900F90DF91A3
S11312B0CF9108951F920F9200905F000F92112416
S11312C0CF93DF93CDB7DEB70000DF91CF910F90BE
S11312D000925F000F901F9018951F920F9200903C
S11312E05F000F9211240F931F932F933F934F93FB
S11312F05F936F937F938F939F93AF93BF93EF937A
S1131300FF93CF93DF93CDB7DEB72697DEBFCDBF74
S113131080911B01898380911B018F5F80931B0146
S113132080911B01883010F010921B0185E290E03F
S113133025E230E0F9012081422F487F20911B01F2
S1131340222F30E02A513F4F3B832A832A813B815D
S1131350F90124912C832C81242BFC0120831E82EF
S11313601D8288E790E0FC018081882F90E02D8128
S11313703E81822B932B9E838D8389E790E0FC0131
S11313808081882F90E0982F88279C018D819E81F1
S1131390822B932B9E838D8320911601309117010C
S11313A08981882F90E08901080F191F8D819E8102
S11313B0CC01A0E0B0E0BC01CD010E941B21DC0106
S11313C0CB0129E33EE843EE5DE3BC01CD010E947D
S11313D0D221DC01CB01BC01CD010E94EC20DC0157
S11313E0CB01F80180832091160130911701898186
S11313F0882F90E0820F931FFC01908181E0953645
S113140008F480E0882361F02091160130911701DF
S11314108981882F90E0820F931F24E6FC012083AA
S113142080911B01873050F48AE790E02AE730E08E
S1131430F90120812064FC01208302C010921A016A
S1131440000026960FB6F894DEBF0FBECDBFDF9125
S1131450CF91FF91EF91BF91AF919F918F917F9128
S11314606F915F914F913F912F911F910F910F9029
S113147000925F000F901F901895CF93DF93CDB724
S1131480DEB780911A01DF91CF910895CF93DF9356
S1131490CDB7DEB780911A01882309F0FBCF000095
S11314A0DF91CF910895CF93DF93CDB7DEB781E07D
S11314B080931A01809118019091190186509140EE
S11314C069F086E091E090931901809318018EE011
S11314D091E090931701809316010CC08EE091E087
S11314E0909319018093180186E091E0909317017D
S11314F0809316018AE790E02AE730E0F901208121
S11315002064FC0120830000DF91CF910895CF93E4
S1131510DF9300D01F92CDB7DEB79B838A831982F5
S113152089818830C0F48981882F90E04091180126
S1131530509119012981222F30E0240F351FF90120
S113154040812A813B81820F931FFC014083898162
S11315508F5F8983E5CF00000F900F900F90DF918C
S1131560CF9108951F920F9200905F000F92112463
S11315702F938F939F93EF93FF93CF93DF93CDB7E5
S1131580DEB781E890E028E0FC01208385E490E068
S1131590FC0110820000DF91CF91FF91EF919F91A8
S11315A08F912F910F9000925F000F901F901895CC
S11315B0CF93DF93CDB7DEB762970FB6F894DEBF53
S11315C00FBECDBF9A8B898B89899A89019629F49C
S11315D089899A8901979A8B898B85E490E025E41F
S11315E030E0F90120812360FC0120831A821982F2
S11315F029813A8189899A892817390708F077C09F
S113160080E090E0A0E8BFE38B839C83AD83BE833E
S113161020E030E040E955E46B817C818D819E813E
S11316200E94D221DC01CB018F839887A987BA87D6
S113163020E030E040E85FE36F81788589859A8512
S11316400E94E72088232CF481E090E09C878B871C
S11316503EC020E03FEF4FE757E46F8178858985EE
S11316609A850E94CD21181644F520E030E040E22E
S113167051E46B817C818D819E810E94D221DC01A9
S1131680CB01BC01CD010E94EC20DC01CB019C8785
S11316908B878B859C85892B21F18CEC91E09E872F
S11316A08D878D859E850197F1F79E878D878B8524
S11316B09C8501979C878B87ECCF6F817885898582
S11316C09A850E94EC20DC01CB019C878B878B855B
S11316D09C85988B8F878F8598890197F1F7988BD4
S11316E08F8789819A8101969A83898381CF85E442
S11316F090E0FC011082000062960FB6F894DEBF01
S11317000FBECDBFDF91CF9108951F920F9200902D
S11317105F000F9211242F933F938F939F93EF9326
S1131720FF93CF93DF93CDB7DEB781E990E028E054
S1131730FC0120838BE290E02BE230E0F901208170
S11317402F77FC0120830000DF91CF91FF91EF916F
S11317509F918F913F912F910F9000925F000F9076
S11317601F901895CF93DF93CDB7DEB784E590E053
S113177024E530E0F9012081277FFC0120830FB6A6
S1131780F894A8958091600088618093600010921D
S113179060000FBE0000DF91CF910895CF93DF93D7
S11317A0CDB7DEB76C970FB6F894DEBF0FBECDBFD2
S11317B0F89487E090E088709927892B11F088E2EB
S11317C001C088E097E09770892B982F88E10FB6C5
S11317D0F894A895809360000FBE909360008FEFFB
S11317E090E00E94FE0880E090E0A8E4B2E48D83DB
S11317F09E83AF83B88720E030E040E955E46D81F3
S11318007E818F8198850E94D221DC01CB018B8B54
S11318109C8BAD8BBE8B20E030E040E85FE36B89AE
S11318207C898D899E890E94E72088232CF481E09D
S113183090E0988F8F8B3EC020E03FEF4FE757E456
S11318406B897C898D899E890E94CD21181644F567
S113185020E030E040E251E46D817E818F81988503
S11318600E94D221DC01CB01BC01CD010E94EC20FD
S1131870DC01CB01988F8F8B8F89988D892B21F177
S11318808CEC91E09A8F898F898D9A8D0197F1F76D
S11318909A8F898F8F89988D0197988F8F8BECCF32
S11318A06B897C898D899E890E94EC20DC01CB01A7
S11318B0988F8F8B8F89988D9C8F8B8F8B8D9C8D20
S11318C00197F1F79C8F8B8F80E09FEF0E94FE08B9
S11318D080E090E0A8E4B2E489839A83AB83BC837C
S11318E020E030E040E955E469817A818B819C8174
S11318F00E94D221DC01CB0189879A87AB87BC8700
S113190020E030E040E85FE369857A858B859C853B
S11319100E94E72088232CF481E090E09E878D8745
S11319203FC020E03FEF4FE757E469857A858B8518
S11319309C850E94CD2118164CF520E030E040E251
S113194051E469817A818B819C810E94D221DC01DE
S1131950CB01BC01CD010E94EC20DC01CB019E87B0
S11319608D878D859E85892B09F439CF8CEC91E088
S1131970988B8F878F8598890197F1F7988B8F873C
S11319808D859E8501979E878D87EBCF69857A85A6
S11319908B859C850E94EC20DC01CB019E878D8782
S11319A08D859E859A8B898B89899A890197F1F710
S11319B09A8B898B14CFCF93DF931F92CDB7DEB769
S11319C0898389818B3028F4893050F4883031F050
S11319D00BC08E3038F08E3019F006C083E005C09D
S11319E082E003C081E001C08FEF0F90DF91CF91BF
S11319F008951F93CF93DF9300D0CDB7DEB78983CB
S1131A006A8389810E94DB0C182F8A810E94DB0C77
S1131A10982F81E019170CF480E00F900F90DF915C
S1131A20CF911F910895CF93DF931F92CDB7DEB767
S1131A3089838981882F90E08870992721E0892BF8
S1131A4009F420E0822F0F90DF91CF910895CF9376
S1131A50DF931F92CDB7DEB789838981882F90E009
S1131A608071992721E0892B09F420E0822F0F90BF
S1131A70DF91CF910895CF93DF931F92CDB7DEB757
S1131A8089838981803219F08981813211F481E05E
S1131A9001C080E00F90DF91CF910895CF93DF9341
S1131AA01F92CDB7DEB7898381E09981903209F026
S1131AB080E00F90DF91CF910895CF93DF931F9231
S1131AC0CDB7DEB7898381E09981913209F080E056
S1131AD00F90DF91CF910895CF93DF931F92CDB7ED
S1131AE0DEB789838981882F90E0A0E0B0E040E0F0
S1131AF050E029E030E0841B950B2817390718F1D2
S1131B00865A9F4FFC010C9453228EEE90E01DC028
S1131B1081EF90E01AC085E091E017C085E191E083
S1131B2014C085E291E011C087E391E00EC08EE419
S1131B3091E00BC085E691E008C08CE791E005C018
S1131B4083E991E002C080E090E00F90DF91CF91B3
S1131B500895CF93DF9300D000D000D0CDB7DEB787
S1131B609A8389837C836B835E834D8389819A8185
S1131B700E949C2089819A81FC0180819181FC01D1
S1131B808081843209F0FAC089819A81FC018081C4
S1131B9091819C012F5F3F4F89819A81FC013183A0
S1131BA0208389819A81FC0180819181FC0180815B
S1131BB0882F90E0092E000CAA0BBB0B41E450E0E7
S1131BC027E030E0841B950B2817390708F4C5C0BB
S1131BD08C599F4FFC010C9453228B819C81FC01F6
S1131BE0208131818D819E81FC0180819181BC01A4
S1131BF06F5F7F4F4D815E81FA0171836083820F35
S1131C00931F20E1FC012083AAC08B819C81FC01ED
S1131C10208131818D819E81FC0180819181BC0173
S1131C206F5F7F4F4D815E81FA0171836083820F04
S1131C30931F21E1FC01208392C08B819C81FC01D4
S1131C40208131818D819E81FC0180819181BC0143
S1131C506F5F7F4F4D815E81FA0171836083820FD4
S1131C60931F22E1FC0120837AC08B819C81FC01BB
S1131C70208131818D819E81FC0180819181BC0113
S1131C806F5F7F4F4D815E81FA0171836083820FA4
S1131C90931F23E1FC01208362C08B819C81FC01A2
S1131CA0208131818D819E81FC0180819181BC01E3
S1131CB06F5F7F4F4D815E81FA0171836083820F74
S1131CC0931F24E1FC0120834AC08B819C81FC0189
S1131CD0208131818D819E81FC0180819181BC01B3
S1131CE06F5F7F4F4D815E81FA0171836083820F44
S1131CF0931F25E1FC01208332C08B819C81FC0170
S1131D00208131818D819E81FC0180819181BC0182
S1131D106F5F7F4F4D815E81FA0171836083820F13
S1131D20931F26E1FC0120831AC08B819C81FC0156
S1131D30208131818D819E81FC0180819181BC0152
S1131D406F5F7F4F4D815E81FA0171836083820FE3
S1131D50931F27E1FC01208302C080E010C0898129
S1131D609A81FC01808191819C012F5F3F4F898181
S1131D709A81FC013183208381E001C080E02696B2
S1131D800FB6F894DEBF0FBECDBFDF91CF9108959B
S1131D90CF93DF9300D000D000D0CDB7DEB79A83C5
S1131DA089837C836B835E834D8389819A810E94BE
S1131DB09C2089819A81FC0180819181FC01808130
S1131DC0882F90E08D33910509F4DAC08E339105A4
S1131DD024F4869709F4A4C0EBC08C37910509F468
S1131DE0B7C08E37910509F0E3C089819A81FC015F
S1131DF0808191810E94ED1F882F90E08D339105A1
S1131E0009F450C08C37910541F1869709F06FC0F1
S1131E108B819C81FC01208131818D819E81FC011B
S1131E2080819181BC016F5F7F4F4D815E81FA019A
S1131E3071836083820F931F2AE0FC0120838981D0
S1131E409A81FC01808191819C012F5F3F4F8981A0
S1131E509A81FC013183208362C08B819C81FC01C7
S1131E60208131818D819E81FC0180819181BC0121
S1131E706F5F7F4F4D815E81FA0171836083820FB2
S1131E80931F2CE0FC01208389819A81FC018081CD
S1131E9091819C012F5F3F4F89819A81FC0131839D
S1131EA020833DC08B819C81FC01208131818D8107
S1131EB09E81FC0180819181BC016F5F7F4F4D81C8
S1131EC05E81FA0171836083820F931F2DE0FC0110
S1131ED0208389819A81FC01808191819C012F5FFB
S1131EE03F4F89819A81FC013183208318C08B8103
S1131EF09C81FC01208131818D819E81FC01808146
S1131F009181BC016F5F7F4F4D815E81FA017183C6
S1131F106083820F931F28E0FC01208300004AC0E5
S1131F208B819C81FC01208131818D819E81FC010A
S1131F3080819181BC016F5F7F4F4D815E81FA0189
S1131F4071836083820F931F29E0FC01208332C0D8
S1131F508B819C81FC01208131818D819E81FC01DA
S1131F6080819181BC016F5F7F4F4D815E81FA0159
S1131F7071836083820F931F2BE0FC0120831AC0BE
S1131F808B819C81FC01208131818D819E81FC01AA
S1131F9080819181BC016F5F7F4F4D815E81FA0129
S1131FA071836083820F931F2EE0FC01208302C0A3
S1131FB080E00EC089819A81FC01808191819C011D
S1131FC02F5F3F4F89819A81FC013183208381E017
S1131FD026960FB6F894DEBF0FBECDBFDF91CF912A
S1131FE00895CF93DF9300D000D000D0CDB7DEB7F3
S1131FF09A8389837C836B835E834D8389819A81F1
S11320000E949C2089819A81FC0180819181FC013C
S11320108081882F90E08832910519F08997C9F062
S113202030C08B819C81FC01208131818D819E8116
S1132030FC0180819181BC016F5F7F4F4D815E8186
S1132040FA0171836083820F931F20E2FC012083D5
S11320501AC08B819C81FC01208131818D819E81FC
S1132060FC0180819181BC016F5F7F4F4D815E8156
S1132070FA0171836083820F931F21E2FC012083A4
S113208002C080E00EC089819A81FC018081918127
S11320909C012F5F3F4F89819A81FC01318320830A
S11320A081E026960FB6F894DEBF0FBECDBFDF9158
S11320B0CF910895CF93DF93CDB7DEB727970FB6AF
S11320C0F894DEBF0FBECDBF9D838C837F836E8368
S11320D019828C819D819B838A838A819B81FC01E7
S11320E08081882309F4BCC08A819B81FC018081A2
S11320F0833209F4B5C08E819F81FC012081318136
S113210086E090E0880F991F880F991F880F991F08
S1132110039640E054E0BA01681B790BCB01969515
S113212087959695879596958795019728173907EA
S113213028F08E819F8121E0FC0122838A819B818A
S1132140FC0180810E943A20982F81E0892788230E
S113215069F08A819B81FC0180810E945320982F21
S113216081E08927882311F081E001C080E0882381
S113217009F45AC08A819B81FC018081882F90E0F8
S11321808832910509F441C0893291058CF480327A
S1132190910509F448C08132910524F4099709F4A2
S11321A042C03BC08432910599F08697E1F135C075
S11321B08D339105C1F18E3391051CF4899749F152
S11321C02CC08C37910579F18E37910561F125C0CA
S11321D08A819B810E94ED1F813430F08A819B812A
S11321E00E94ED1F893410F081E001C080E0882353
S11321F031F08E819F8122E0FC01228339C08A81E3
S11322009B8101969B838A830FC089818F5F898319
S11322100BC089818150898307C08E819F8124E00E
S1132220FC01228325C000008981882334F48E8137
S11322309F8123E0FC0122831BC08E819F81FC01CE
S1132240808191819C012F5F3F4F8E819F81FC0192
S1132250318320838A819B8101969B838A833DCF2E
S11322608981882329F08E819F8123E0FC012283C8
S113227027960FB6F894DEBF0FBECDBFDF91CF9186
S11322800895CF93DF93CDB7DEB72B970FB6F894AD
S1132290DEBF0FBECDBF9F838E83798768875B8740
S11322A04A878E819F819B838A831D821C82198227
S11322B01982998181E08927882371F0AE014C5FEE
S11322C05F4F28853985CE010296B9010E94A90D78
S11322D0982F8981892B8983998181E08927882393
S11322E071F0AE014C5F5F4F28853985CE010296AF
S11322F0B9010E94C80E982F8981892B89839981FD
S113230081E08927882371F0AE014C5F5F4F2885F7
S11323103985CE010296B9010E94F10F982F898167
S1132320892B89838981882309F0C2CF2C813D813F
S113233088859985FC01338322838C819D81892B37
S113234029F48A859B8529E0FC01228300002B96D1
S11323500FB6F894DEBF0FBECDBFDF91CF910895C5
S1132360CF93DF93CDB7DEB72B970FB6F894DEBFCC
S11323700FBECDBF998788877B876A871A821982A7
S113238088859985FC012281338189819A8182170C
S1132390930708F0C5C188859985FC0120813181A6
S11323A089819A81820F931FFC0180818B838981AB
S11323B09A819C012F5F3F4F88859985FC0182811A
S11323C093812817390758F488859985FC01208161
S11323D0318189819A810196820F931F02C080E026
S11323E090E09D838C8389819A81892B59F088851B
S11323F09985FC012081318189819A810197820F1D
S1132400931F02C080E090E09F838E838B810E94A3
S1132410130D882309F47CC08B81883039F58C81B5
S11324209D81892B31F48A859B8527E0FC012283D9
S113243077C18C819D81FC018081803269F08C811F
S11324409D81FC0180810E94270D982F81E08927BE
S1132450882311F081E001C080E0882309F458C08A
S11324608A859B8525E0FC0122835AC18C819D814C
S1132470892B31F48A859B8527E0FC01228350C196
S11324808E819F81892B31F48A859B8528E0FC010C
S1132490228346C18E819F81FC018081813269F053
S11324A08E819F81FC0180810E94270D982F81E0FD
S11324B08927882311F081E001C080E0882331F06E
S11324C08A859B8526E0FC0122832AC18C819D811B
S11324D0FC018081803299F08C819D81FC01808196
S11324E00E94270D982F81E08927882341F08C8151
S11324F09D81FC018081883011F081E001C080E081
S1132500882331F08A859B8525E0FC01228308C15C
S11325108B810E94270D882309F444C08C819D81FE
S1132520892BF1F08C819D81FC0180810E94270D13
S1132530882369F08C819D81FC0180810E945D0D5E
S1132540982F81E08927882311F081E001C080E081
S1132550882331F08A859B8525E0FC012283E0C035
S11325608E819F81892BF1F08E819F81FC01808176
S11325700E94270D882369F08E819F81FC01808150
S11325800E944E0D982F81E08927882311F081E065
S113259001C080E0882331F08A859B8526E0FC0118
S11325A02283BEC08B810E943B0D882309F4B2C0F4
S11325B08B810E944E0D882309F456C08C819D8125
S11325C0892B39F18C819D81FC0180810E94270D2A
S11325D0982F81E08927882399F08C819D81FC01C3
S11325E08081883069F08C819D81FC0180810E940A
S11325F04E0D982F81E08927882311F081E001C0D6
S113260080E0882361F08A859B8525E0FC01228394
S113261087C08A859B8527E0FC01228381C08E8147
S11326209F81892B09F18E819F81FC0180810E9409
S1132630130D982F81E08927882369F08E819F816B
S1132640FC0180810E944E0D982F81E08927882308
S113265011F081E001C080E0882331F08A859B85F8
S113266026E0FC0122835CC08B810E945D0D8823DF
S113267009F450C08C819D81892B09F18C819D8145
S1132680FC0180810E94130D982F81E08927882303
S113269069F08C819D81FC0180810E945D0D982FE1
S11326A081E08927882311F081E001C080E088233C
S11326B031F08A859B8525E0FC01228331C08E811F
S11326C09F81892B09F18E819F81FC0180810E9469
S11326D0270D982F81E08927882369F08E819F81B7
S11326E0FC0180810E945D0D982F81E08927882359
S11326F011F081E001C080E0882361F08A859B8528
S113270026E0FC0122830CC08A859B8528E0FC011D
S1132710228306C089819A8101969A83898330CE67
S11327202B960FB6F894DEBF0FBECDBFDF91CF91CD
S11327300895CF93DF9300D0CDB7DEB79A83898312
S113274000000F900F90DF91CF9108950F931F9386
S1132750CF93DF93CDB7DEB7C358D1090FB6F89442
S1132760DEBF0FBECDBF9E0120583F4FF9019183BC
S11327708083CE018E579F4FFC0171836083CE010D
S113278008960E9499131A8219821C821B821E8247
S11327901D82CE0180589F4FFC0180819181FC01F4
S11327A0228133818D819E818217930708F000C1B5
S11327B0CE0180589F4FFC0180819181FC012081D2
S11327C031818D819E81820F931FFC0180818F83D3
S11327D08F81882309F4E6C08F810E94270D882306
S11327E0B1F0CE0180589F4FFC0180819181FC01A2
S11327F0208131818B819C81AC014F5F5F4F5C8371
S11328004B83820F931F2F81FC012083CBC08F81C8
S11328100E944E0D882391F089819A819C012F5F3B
S11328203F4F3A8329839E01285F3F4FBC01C90172
S11328300E9485152F81FC012083B4C08F810E94E2
S11328405D0D882309F446C089819A81892BA9F0FA
S113285089819A819C0121503109CE010896B901E0
S11328600E948515FC0180810E944E0D982F81E005
S11328708927882311F081E001C080E0882321F1B9
S1132880CE0180589F4FFC0180819181FC01208101
S113289031818B819C81AC014F5F5F4F5C834B83A3
S11328A08901080F191F89819A8101979A83898365
S11328B029813A81CE010896B9010E948515FC014F
S11328C08081F8018083C0CF89819A8101979A839E
S11328D0898368C08F810E94130D882309F462C024
S11328E089819A81892B31F189819A819C012150B6
S11328F03109CE010896B9010E948515FC01808139
S11329000E944E0D982F81E08927882399F08981B0
S11329109A819C0121503109CE010896B9010E9487
S11329208515FC0180816F810E94F90C882311F0C8
S113293081E001C080E0882321F1CE0180589F4FBF
S1132940FC0180819181FC01208131818B819C81FA
S1132950AC014F5F5F4F5C834B838901080F191FE4
S113296089819A8101979A83898329813A81CE0149
S11329700896B9010E948515FC018081F8018083C5
S1132980AFCF89819A819C012F5F3F4F3A8329837E
S11329909E01285F3F4FBC01C9010E9485152F810C
S11329A0FC0120838D819E8101969E838D83F1CECF
S11329B089819A81892B21F1CE0180589F4FFC0196
S11329C080819181FC01208131818B819C81AC01CA
S11329D04F5F5F4F5C834B838901080F191F898107
S11329E09A8101979A83898329813A81CE01089635
S11329F0B9010E948515FC018081F8018083D8CF3C
S1132A00CE0180589F4FFC01808191812B813C81B4
S1132A10FC0133832283CE0108960E9478150000BE
S1132A20CD57DF4F0FB6F894DEBF0FBECDBFDF9199
S1132A30CF911F910F910895CF93DF9300D000D0D1
S1132A4000D0CDB7DEB79A8389837C836B835E83A2
S1132A504D838D819E81FC018281882311F080E069
S1132A603EC02D813E8189819A81B9010E945A100C
S1132A708D819E81FC018281882311F080E02FC02A
S1132A804D815E812B813C8189819A81B9010E94AB
S1132A9041118D819E81FC018281882311F080E0A7
S1132AA01EC02D813E818B819C81B9010E94B01191
S1132AB08D819E81FC018281882311F080E00FC00A
S1132AC02D813E818B819C81B9010E94A6138D8149
S1132AD09E81FC01928181E0992309F080E0269691
S1132AE00FB6F894DEBF0FBECDBFDF91CF9108952E
S1132AF0CF93DF9300D0CDB7DEB79A8389830000EC
S1132B000F900F90DF91CF910895CF93DF9300D072
S1132B1000D0CDB7DEB79A8389837C836B83298108
S1132B203A818B819C81820F931F0F900F900F909D
S1132B300F90DF91CF910895CF93DF9300D0CDB75D
S1132B40DEB79A83898389819A81892B29F48BE55D
S1132B5092E00E943E1F5FC08EE592E00E943E1FFD
S1132B6089819A810E948C1F8EEC92E00E943E1F04
S1132B7089819A81CC01A0E0B0E041E050E026E0F8
S1132B8030E0841B950B2817390708F443C0845997
S1132B909F4FFC010C94532286E492E00E943E1F56
S1132BA086E692E00E943E1F8BE492E00E943E1F64
S1132BB032C086E492E00E943E1F8EE692E00E94BC
S1132BC03E1F8BE492E00E943E1F25C086E492E003
S1132BD00E943E1F85E792E00E943E1F8BE492E034
S1132BE00E943E1F18C086E492E00E943E1F8CE7BC
S1132BF092E00E943E1F8BE492E00E943E1F0BC0B5
S1132C0082E892E00E943E1F06C080EA92E00E94A1
S1132C103E1F01C000000E941E1F01C000000F9053
S1132C200F90DF91CF910895CF93DF9300D000D020
S1132C30CDB7DEB79A8389837C836B8384E20E9459
S1132C40D91E89819A810E948C1F82E492E00E949D
S1132C503E1F8B819C810E948C1F0E941E1F0000BE
S1132C600F900F900F900F90DF91CF910895CF9315
S1132C70DF93CDB7DEB7C558D1090FB6F894DEBFE0
S1132C800FBECDBF1D8281E08E831F82CE010596CB
S1132C900E943F048D81882F90E0BC0184E690E07F
S1132CA00E9414168E81882F90E0BC0185E690E086
S1132CB00E94141688EC90E09A8389831B828B818E
S1132CC08830B0F586E488878AE089871A861B866F
S1132CD0CE0108966B810E947B048885482F50E0C2
S1132CE089819A819C012F5F3F4F3A832983BA01DE
S1132CF00E9414168985482F50E089819A819C018D
S1132D002F5F3F4F3A832983BA010E9414168A85A4
S1132D10282F30E089819A81B9010E941416898193
S1132D209A8108969A8389838B818F5F8B83C7CF1F
S1132D308CE291E09A8389831C828C818830A0F58F
S1132D4081E08C871D86CE010C966C810E94C404A0
S1132D508C85482F50E089819A819C012F5F3F4FD9
S1132D603A832983BA010E941416CE010E966C810F
S1132D700E94090584E20E94D91E89819A810E94D9
S1132D808C1F82E492E00E943E1FCE010E960E94A8
S1132D90F81E0E941E1F89819A8109969A8389834D
S1132DA08C818F5F8C83C9CF80E090E00E949C155A
S1132DB00000CB57DF4F0FB6F894DEBF0FBECDBF78
S1132DC0DF91CF910895CF93DF93CDB7DEB72997E5
S1132DD00FB6F894DEBF0FBECDBF0E943D0A982FF8
S1132DE081E08927882311F00E94530A0E94460A31
S1132DF00E94530ACE0102960E94870A1982898191
S1132E008830A0F48981882F90E09E012E5F3F4F87
S1132E10820F931FFC0180810E946C1F80E091E06F
S1132E200E94F81E89818F5F8983E9CF0E941E1F4B
S1132E30000029960FB6F894DEBF0FBECDBFDF9118
S1132E40CF910895CF93DF9300D000D0CDB7DEB7F4
S1132E5082ED92E00E943E1F82E00E942A1F84EAD3
S1132E6091E00E943E1F84E20E94D91E8AEA91E00A
S1132E700E943E1F86EB91E00E943E1F0E941E1F8F
S1132E8084EA91E00E943E1F83E50E94D91E8AEAEB
S1132E9091E00E943E1F81EE92E00E943E1F86EB6D
S1132EA091E00E943E1F0E941E1F84EA91E00E944E
S1132EB03E1F89E40E94D91E8AEA91E00E943E1FC7
S1132EC089EE92E00E943E1F86EB91E00E943E1F35
S1132ED00E941E1F84EA91E00E943E1F8FE40E941C
S1132EE0D91E8AEA91E00E943E1F80EF92E00E9480
S1132EF03E1F86EB91E00E943E1F0E941E1F84EA43
S1132F0091E00E943E1F85E40E94D91E8AEA91E066
S1132F100E943E1F88EF92E00E943E1F86EB91E0E4
S1132F200E943E1F82E00E942A1F84E093E00E94D8
S1132F303E1F0E941E1F87E193E00E943E1F82E015
S1132F400E942A1F88E293E00E943E1F0E941E1FD7
S1132F5084E493E00E943E1F82E00E942A1F88ECD2
S1132F6090E09A8389831B828B81883008F05FC04C
S1132F7082E00E942A1F84E20E94D91E89819A81DC
S1132F809C012F5F3F4F3A8329830E948C1F8AEC58
S1132F9091E00E943E1F8B818F5B0E94D91E8FEDB2
S1132FA091E00E943E1F83E292E00E943E1F0E9435
S1132FB01E1F84E20E94D91E89819A819C012F5F81
S1132FC03F4F3A8329830E948C1F8AEC91E00E9430
S1132FD03E1F8B818F5B0E94D91E8CEE91E00E9474
S1132FE03E1F83E292E00E943E1F0E941E1F84E265
S1132FF00E94D91E89819A810E948C1F8AEC91E0DB
S11330000E943E1F8B818F5B0E94D91E8AEF91E044
S11330100E943E1F8EE192E00E943E1F89819A81A8
S113302008969A8389838B818F5F8B839DCF0E94BF
S11330301E1F8CE291E09A8389831C828C818830E4
S113304008F046C082E00E942A1F84E20E94D91E32
S113305089819A819C012F5F3F4F3A8329830E9483
S11330608C1F84ED91E00E943E1F8C818F5B0E9437
S1133070D91E86E092E00E943E1F8EE192E00E94FB
S11330803E1F0E941E1F84E20E94D91E89819A81DC
S11330909C012F5F3F4F3A8329830E948C1F84ED4C
S11330A091E00E943E1F8C818F5B0E94D91E80E1BB
S11330B092E00E943E1F8AE292E00E943E1F8981B4
S11330C09A8108969A8389838C818F5F8C83B6CF8B
S11330D00E941E1F80E090E00E949C1500000F904B
S11330E00F900F900F90DF91CF910895CF93DF93BE
S11330F0CDB7DEB72C970FB6F894DEBF0FBECDBFA9
S11331009E838D8378876F835A8749873C872B8773
S11331108D819E810E948F1E6DE30E94C61F0E94B6
S1133120C2209A83898389819A81892B09F18981B3
S11331309A810E947C229C838B838B819C8199231E
S1133140BCF02B813C8189859A852817390780F04A
S11331502B813C818B859C858217930748F02B81BA
S11331603C818F819885FC013183208381E005C0F7
S113317084E090E00E949C1580E02C960FB6F894B1
S1133180DEBF0FBECDBFDF91CF910895CF93DF9304
S113319000D000D000D0CDB7DEB79E838D838D8163
S11331A09E810E949E1E01969A8389831C821B82A3
S11331B089819A819C012F5F3F4F3A832983FC01C7
S11331C080810E946620882331F08B819C81019646
S11331D09C838B83EDCF8B819C8126960FB6F894CC
S11331E0DEBF0FBECDBFDF91CF910895CF93DF93A4
S11331F0CDB7DEB72A970FB6F894DEBF0FBECDBFAA
S113320098878F837A8769878F8198850E94C618EB
S113321021E0039709F020E0222309F443C08F81C1
S113322098850E949E1E01960E947C229A8389831F
S113323089819A8118161906ACF51B821C821D829D
S11332401E8229813A8189859A85A901481B590BD7
S1133250CA019C01ADECBCEC0E945922969587955D
S113326096958795969587958B8389819A812AE08F
S113327030E0B9010E943F228C838F8198850E949F
S11332808F1E4DE363E070E00E94062021E001966A
S113329009F420E02D8381E08E838B819C81AD81B4
S11332A0BE8103C080E090E0DC01BC01CD012A9620
S11332B00FB6F894DEBF0FBECDBFDF91CF91089556
S11332C0CF93DF93CDB7DEB729970FB6F894DEBF5F
S11332D00FBECDBF9F838E8379876887198281E073
S11332E08A831B82CE0101960E943F048E819F81B6
S11332F0FC0182818823F9F01D821C82BE016C5F6F
S11333007F4F8885998521E030E040E050E00E94BD
S113331076188823E9F08C819D8121E0019709F0DA
S113332020E02983CE0101960E94AB0580E090E065
S11333300E949C150DC08981882319F081E090E0DA
S113334002C080E090E0BC0184E690E00E94141684
S1133350000029960FB6F894DEBF0FBECDBFDF91F3
S1133360CF910895CF93DF93CDB7DEB729970FB6EA
S1133370F894DEBF0FBECDBF9F838E8379876887A5
S1133380198281E08A831B82CE0101960E943F0448
S11333908E819F81FC0182818823F9F01D821C8229
S11333A0BE016C5F7F4F8885998521E030E040E065
S11333B050E00E9476188823E9F08C819D8121E0F9
S11333C0019709F020E02A83CE0101960E94AB0503
S11333D080E090E00E949C150DC08A81882319F03A
S11333E081E090E002C080E090E0BC0185E690E0DE
S11333F00E941416000029960FB6F894DEBF0FBE83
S1133400CDBFDF91CF910895CF93DF93CDB7DEB7D2
S11334102A970FB6F894DEBF0FBECDBF98878F836F
S11334207A87698786E489838AE08A831B821C827F
S11334308F819885FC018081682FCE0101960E94BE
S11334407B048F819885FC018281882301F11E828F
S11334501D82BE016B5F7F4F89859A8524E630E02B
S113346040E050E00E947618882389F18D819E8186
S113347089838F819885FC018081682FCE01019614
S11334800E94D20580E090E00E949C1520C08981B2
S1133490482F50E08F819885FC018081882F90E02F
S11334A0880F991F9C01220F331F220F331F820F95
S11334B0931F9C0128533F4F8F819885FC01818184
S11334C0882F90E0820F931FBA010E941416000007
S11334D02A960FB6F894DEBF0FBECDBFDF91CF9111
S11334E00895CF93DF93CDB7DEB72A970FB6F8943C
S11334F0DEBF0FBECDBF98878F837A87698786E446
S113350089838AE08A831B821C828F819885FC01CF
S11335108081682FCE0101960E947B048F8198855B
S1133520FC018281882301F11E821D82BE016B5F32
S11335307F4F89859A8524E630E040E050E00E9480
S11335407618882389F18D819E818A838F8198855D
S1133550FC018081682FCE0101960E94D20580E093
S113356090E00E949C1520C08A81482F50E08F81F2
S11335709885FC018081882F90E0880F991F9C0119
S1133580220F331F220F331F820F931F9C012853D6
S11335903F4F8F819885FC018181882F90E0820FB5
S11335A0931FBA010E94141600002A960FB6F894CD
S11335B0DEBF0FBECDBFDF91CF910895CF93DF93D0
S11335C0CDB7DEB72A970FB6F894DEBF0FBECDBFD6
S11335D098878F837A87698786E489838AE08A83D8
S11335E01B821C828F819885FC018081682FCE010B
S11335F001960E947B048F819885FC018281882337
S113360021F11E821D82BE016B5F7F4F89859A85E1
S113361021E030E040E050E00E9476188823D1F1A8
S11336208D819E8121E0019709F020E02B838F8119
S11336309885FC018081682FCE0101960E94D205F5
S113364080E090E00E949C1525C08B81882319F0AE
S113365041E050E002C040E050E08F819885FC01D9
S11336608081882F90E0880F991F9C01220F331FBF
S1133670220F331F820F931F9C0128533F4F8F81CA
S11336809885FC018181882F90E0820F931FBA01F5
S11336900E94141600002A960FB6F894DEBF0FBEDF
S11336A0CDBFDF91CF910895CF93DF93CDB7DEB730
S11336B028970FB6F894DEBF0FBECDBF9E838D83CF
S11336C078876F8381E089831A828D819E81FC01D2
S11336D08081682FCE0101960E94C4048D819E8151
S11336E0FC018281882321F11C821B82BE016D5F53
S11336F07F4F8F81988521E030E040E050E00E94C8
S113370076188823D1F18B819C8121E0019709F0FF
S113371020E029838D819E81FC018081682FCE0168
S113372001960E94040680E090E00E949C1525C04A
S11337308981882319F041E050E002C040E050E064
S11337408D819E81FC018081882F90E0880F991FD4
S11337509C01220F331F220F331F820F931F9C01E2
S1133760245D3E4F8D819E81FC018181882F90E0F4
S1133770820F931FBA010E941416000028960FB6F8
S1133780F894DEBF0FBECDBFDF91CF910895CF93E4
S1133790DF93CDB7DEB7C558D1090FB6F894DEBFB5
S11337A00FBECDBF9E012E573F4FF90191838083F9
S11337B0CE018C579F4FFC0171836083CE018E57DD
S11337C09F4FFC0180819181FC018281882309F44F
S11337D055C0CE018C579F4FFC01808191810E947E
S11337E08F1E6DE30E94C61F01969A8389831C82F3
S11337F01B821E821D82CE010A969C838B831886AF
S11338001F821986AE01495F5F4F9E012D5F3F4FB6
S113381089819A81B9010E941C158985882391F4B4
S1133820CE018E579F4FFC0180819181FC01208144
S113383089819A81622F0E94390680E090E00E947B
S11338409C152FC087E090E00E949C1589850E94FA
S11338506C0D0E943E1F87EC92E00E943E1F8F81F8
S113386098850E948C1F82E091E00E94F81E898155
S11338709A810E94F81E0E941E1F13C0CE018E570B
S11338809F4FFC0180819181FC012081CE010A9629
S1133890622F0E940905CE010A960E94F81E0E941A
S11338A01E1F0000CB57DF4F0FB6F894DEBF0FBECC
S11338B0CDBFDF91CF910895CF93DF93CDB7DEB71E
S11338C00E94EC060E94CE0BCF93DF93CDB7DEB7F8
S11338D00E940F070E94CE0BCF93DF93CDB7DEB7C4
S11338E00E940F070E94CE0BCF93DF93CDB7DEB7B4
S11338F00E94EC060E94CE0BCF93DF93CDB7DEB7C8
S11339000E94D7060E94EC060E940F070E942C0713
S11339100E94CE0BCF93DF9300D0CDB7DEB79A834E
S113392089830E94371600000F900F90DF91CF918A
S11339300895CF93DF9300D0CDB7DEB79A83898300
S11339400E94E31600000F900F90DF91CF9108952D
S1133950CF93DF9300D000D000D0CDB7DEB79E83E5
S11339608D838D819E810E94AD1E21E0069709F40E
S113397020E0222329F081E090E00E949C1573C08E
S113398019828981853050F58D819E810E949E1E09
S11339909C018981882F90E0820F931FFC01408154
S11339A02AE533E08981882F90E0820F931F9B835F
S11339B08A838A819B81FC0184918C839C8181E030
S11339C0491709F480E0882329F081E090E00E94FF
S11339D09C1549C089818F5F8983D3CF8D819E8156
S11339E00E949E1E0596FC018081882F90E08934F8
S11339F09105F9F08A3491053CF48432910559F02B
S1133A008534910521F12AC08F349105C9F083359D
S1133A10910541F023C00E947C1C80E090E00E944C
S1133A209C1521C00E94741C80E090E00E949C15AB
S1133A301AC00E945C1C80E090E00E949C1513C098
S1133A400E94641C80E090E00E949C150CC00E94BF
S1133A506C1C80E090E00E949C1505C084E090E01E
S1133A600E949C15000026960FB6F894DEBF0FBE88
S1133A70CDBFDF91CF910895CF93DF9300D000D0D5
S1133A8000D0CDB7DEB79E838D838D819E8164E6A1
S1133A9070E00E94F618DC01CB0189839A83AB8322
S1133AA0BC838C81882329F189818823E9F48A8164
S1133AB0882F90E0009719F0019749F010C08D818C
S1133AC09E81BC01CE0101960E94601916C08D81B1
S1133AD09E81BC01CE0101960E94B2190EC083E002
S1133AE090E00E949C1509C082E090E00E949C1521
S1133AF004C081E090E00E949C1526960FB6F894CD
S1133B00DEBF0FBECDBFDF91CF910895CF93DF937A
S1133B1000D000D000D0CDB7DEB79E838D838D81D9
S1133B209E8168EC70E00E94F618DC01CB01898369
S1133B309A83AB83BC838C81882381F1898188300B
S1133B4040F58A81882F90E08130910569F08230B8
S1133B50910591F0892BC1F48D819E81BC01CE0128
S1133B6001960E94041A1EC08D819E81BC01CE0163
S1133B7001960E94711A16C08D819E81BC01CE01EE
S1133B8001960E94DE1A0EC083E090E00E949C150C
S1133B9009C082E090E00E949C1504C081E090E09E
S1133BA00E949C1526960FB6F894DEBF0FBECDBFBB
S1133BB0DF91CF910895CF93DF9300D000D000D050
S1133BC0CDB7DEB79E838D838D819E816CE271E0DB
S1133BD00E94F618DC01CB0189839A83AB83BC83F2
S1133BE08C81882329F189818830E8F48A81882F9F
S1133BF090E0009719F0019749F010C08D819E81E3
S1133C00BC01CE0101960E94541B16C08D819E8179
S1133C10BC01CE0101960E94C71B0EC083E090E058
S1133C200E949C1509C082E090E00E949C1504C08B
S1133C3081E090E00E949C1526960FB6F894DEBFB2
S1133C400FBECDBFDF91CF910895CF93DF9300D006
S1133C5000D0CDB7DEB79C838B838B819C810E947F
S1133C609E1E9A83898389819A819C012F5F3F4F8D
S1133C703A832983FC01908181E0943209F080E049
S1133C80882309F444C089819A81FC018081882FAA
S1133C9090E082339105D1F0833391054CF4843262
S1133CA09105F1F08133910561F0892B41F12AC02E
S1133CB082359105F9F083359105B9F0C39759F030
S1133CC021C08B819C810E943C1D21C08B819C81E1
S1133CD00E94861D1CC08B819C810E94DB1D17C025
S1133CE08B819C810E948A1C12C08B819C810E94C2
S1133CF0991C0DC08B819C810E94A81C08C00E9445
S1133D00221705C081E090E00E949C15000000008D
S1133D100F900F900F900F90DF91CF910895CF9354
S1133D20DF9300D0CDB7DEB79A83898389819A81E6
S1133D3002960F900F90DF91CF910895CF93DF9368
S1133D4000D0CDB7DEB79A83898389819A810296A0
S1133D500F900F90DF91CF910895CF93DF9300D010
S1133D60CDB7DEB79A83898389819A81FC018081EA
S1133D7091810F900F90DF91CF910895CF93DF93AE
S1133D80CDB7DEB785EC90E0FC01108284EC90E0C6
S1133D9029E0FC01208381EC90E028E1FC012083F0
S1133DA082EC90E026E0FC0120830000DF91CF91BB
S1133DB00895CF93DF931F92CDB7DEB7898380EC4C
S1133DC090E0FC018081882F90E08072992721E0A7
S1133DD0892B09F020E0222309F0F1CF86EC90E052
S1133DE02981FC01208300000F90DF91CF91089579
S1133DF0CF93DF9300D000D0CDB7DEB79C838B8305
S1133E008B819C819A83898389819A81FC01808139
S1133E10882361F089819A81FC0180810E94D91EE6
S1133E2089819A8101969A838983EECF00000F904D
S1133E300F900F900F90DF91CF910895CF93DF9360
S1133E40CDB7DEB780E693E00E943E1F0000DF910D
S1133E50CF910895CF93DF931F92CDB7DEB78983B7
S1133E608981882331F00E941E1F898181508983B2
S1133E70F7CF00000F90DF91CF910895CF93DF9398
S1133E8000D000D000D0CDB7DEB79E838D838D8166
S1133E909E819A83898389819A81FC0184918B8391
S1133EA08B818C8381E09C81992309F480E08823B1
S1133EB049F08C810E94D91E8D819E8101969E833A
S1133EC08D83E5CF000026960FB6F894DEBF0FBEB3
S1133ED0CDBFDF91CF910895CF93DF9300D000D071
S1133EE01F92CDB7DEB78D838D81882F90E04AE095
S1133EF050E09E012F5F3F4FB9010E94A222CE01E4
S1133F0001960E94F81E00000F900F900F900F90E2
S1133F100F90DF91CF910895CF93DF93CDB7DEB7A4
S1133F2029970FB6F894DEBF0FBECDBF9987888757
S1133F30888599854AE050E09E012F5F3F4FB90183
S1133F400E94A222CE0101960E94F81E000029962A
S1133F500FB6F894DEBF0FBECDBFDF91CF910895A9
S1133F60CF93DF93CDB7DEB780EC90E0FC01808186
S1133F708095881F8827881F882309F0F5CF86EC51
S1133F8090E0FC018081DF91CF910895CF93DF937E
S1133F9000D01F92CDB7DEB79A8389836B83898162
S1133FA09A81FC018081882381F089819A81FC01B6
S1133FB090818B81981719F489819A8108C089812D
S1133FC09A8101969A838983EACF80E090E00F90EA
S1133FD00F900F90DF91CF910895CF93DF9300D08E
S1133FE0CDB7DEB79A83898389819A81FC01808168
S1133FF0882311F480E005C089819A810196FC012F
S113400080810F900F90DF91CF910895CF93DF932C
S113401000D000D01F92CDB7DEB79A8389837C830A
S11340206B834D838B819C8129813A81820F931FFD
S1134030FC0180818823A1F08B819C8129813A81B4
S1134040820F931FFC0190818D81981719F48B8145
S11340509C8108C08B819C8101969C838B83E2CFD9
S11340608FEF9FEF0F900F900F900F900F90DF91B5
S1134070CF910895CF93DF931F92CDB7DEB7898395
S11340808981813618F089818B3730F089818134B8
S113409028F089818B3510F481E001C080E00F9015
S11340A0DF91CF910895CF93DF931F92CDB7DEB701
S11340B089838981803219F08981893011F481E002
S11340C001C080E00F90DF91CF910895CF93DF93EB
S11340D01F92CDB7DEB789838981803328F0898127
S11340E08A3310F481E001C080E00F90DF91CF911A
S11340F00895CF93DF9300D000D0CDB7DEB79C8373
S11341008B831A8219822B813C8189819A81820F47
S1134110931FFC018081882331F089819A81019663
S11341209A838983F0CF89819A810F900F900F90A1
S11341300F90DF91CF910895CF93DF9300D0CDB747
S1134140DEB79A83898389819A81FC018081918178
S1134150FC0180810E945320882371F089819A8117
S1134160FC01808191819C012F5F3F4F89819A815D
S1134170FC0131832083E7CF00000F900F90DF9183
S1134180CF910895CF93DF9300D0CDB7DEB79A8354
S1134190898389819A81FC018081882389F08981BE
S11341A09A81FC0180810E946620882319F089810C
S11341B09A8108C089819A8101969A838983E9CF7B
S11341C080E090E00F900F90DF91CF9108950E94CE
S11341D0582108F481E008950E94AC2188F09F578B
S11341E098F0B92F9927B751B0F0E1F0660F771F17
S11341F0881F991F1AF0BA95C9F714C0B13091F00D
S11342000E94C621B1E008950C94C621672F782F2F
S11342108827B85F39F0B93FCCF3869577956795D1
S1134220B395D9F73EF490958095709561957F4F3D
S11342308F4F9F4F0895E89409C097FB3EF49095E3
S11342408095709561957F4F8F4F9F4F9923A9F06B
S1134250F92F96E9BB279395F695879577956795FA
S1134260B795F111F8CFFAF4BB0F11F460FF1BC03E
S11342706F5F7F4F8F4F9F4F16C0882311F096E9D1
S113428011C0772321F09EE8872F762F05C066237F
S113429071F096E8862F70E060E02AF09A95660F38
S11342A0771F881FDAF7880F9695879597F90895F1
S11342B0990F0008550FAA0BE0E8FEEF1616170633
S11342C0E807F907C0F012161306E407F50798F09B
S11342D0621B730B840B950B39F40A2661F0232BB4
S11342E0242B252B21F408950A2609F4A140A69530
S11342F08FEF811D811D089597F99F6780E870E015
S113430060E008959FEF80EC089500240A94161647
S1134310170618060906089500240A9412161306AF
S1134320140605060895092E0394000C11F488233D
S113433052F0BB0F40F4BF2B11F460FF04C06F5F59
S11343407F4F8F4F9F4F089557FD9058440F551F2F
S113435059F05F3F71F04795880F97FB991F61F003
S11343609F3F79F087950895121613061406551F7A
S1134370F2CF4695F1DF08C0161617061806991FE6
S1134380F1CF86957105610508940895E894BB27DB
S113439066277727CB0197F908950E94582108F4DE
S11343A08FEF08950E94E5210C9493210E948521AA
S11343B038F00E948C2120F0952311F00C947C217C
S11343C00C94822111240C94C7210E94A42170F31F
S11343D0959FC1F3950F50E0551F629FF001729FA6
S11343E0BB27F00DB11D639FAA27F00DB11DAA1FB5
S11343F0649F6627B00DA11D661F829F2227B00D02
S1134400A11D621F739FB00DA11D621F839FA00D8C
S1134410611D221F749F3327A00D611D231F849FDC
S1134420600D211D822F762F6A2F11249F57504033
S11344309AF0F1F088234AF0EE0FFF1FBB1F661FAE
S1134440771F881F91505040A9F79E3F510580F077
S11344500C947C210C94C7215F3FE4F3983ED4F381
S1134460869577956795B795F795E7959F5FC1F71B
S1134470FE2B880F911D9695879597F9089597FBC4
S1134480072E16F4009407D077FD09D00E94682205
S113449007FC05D03EF4909581959F4F0895709543
S11344A061957F4F0895EE0FFF1F0590F491E02D65
S11344B00994A29FB001B39FC001A39F700D811DF9
S11344C01124911DB29F700D811D1124911D089519
S11344D0AA1BBB1B51E107C0AA1FBB1FA617B70726
S11344E010F0A61BB70B881F991F5A95A9F7809542
S11344F09095BC01CD010895FC0188279927E89483
S113450021912032E9F3293010F02E30C8F32B32F8
S113451041F02D3239F4689404C00E949A22820F2B
S1134520911D219120532A30C0F31EF4909581955A
S11345309F4F08957AE0979F902D879F802D910D2E
S1134540112408954532510520F4423010F00C94A2
S1134550AD22FB011082CB010895BB27FB01552737
S1134560AA27880F991FAA1FA41710F0A41B8395CC
S11345705051B9F7A05DAA3308F0A95DA193009743
S113458079F7B111B1931192CB010C94C722DC01DC
S1134590FC01672F71917723E1F7329704C07C9176
S11345A06D9370836291AE17BF07C8F30895DC0161
S11345B0CB01FC01F999FECF06C0F2BDE1BDF89A2A
S11345C0319600B40D9241505040B8F70895F999CE
S11345D0FECF92BD81BDF89A992780B50895DC017C
S11345E0A40FB51F4150504048F0CB01840F951FD4
S11345F02E910E94002341505040D0F70895262F59
S1134600F999FECF92BD81BDF89A019700B40216C4
S113461039F01FBA20BD0FB6F894FA9AF99A0FBE72
S10946200895F894FFCF99
S10946263B00203A2000D5
S9030000FC
